{
  "abi": [
    {
      "inputs": [
        {
          "internalType": "address",
          "name": "_roluTokenAddress",
          "type": "address"
        }
      ],
      "stateMutability": "nonpayable",
      "type": "constructor"
    },
    {
      "inputs": [
        {
          "internalType": "address",
          "name": "owner",
          "type": "address"
        }
      ],
      "name": "OwnableInvalidOwner",
      "type": "error"
    },
    {
      "inputs": [
        {
          "internalType": "address",
          "name": "account",
          "type": "address"
        }
      ],
      "name": "OwnableUnauthorizedAccount",
      "type": "error"
    },
    {
      "inputs": [],
      "name": "ReentrancyGuardReentrantCall",
      "type": "error"
    },
    {
      "anonymous": false,
      "inputs": [
        {
          "indexed": true,
          "internalType": "address",
          "name": "sender",
          "type": "address"
        },
        {
          "indexed": false,
          "internalType": "uint256",
          "name": "recipientCount",
          "type": "uint256"
        },
        {
          "indexed": false,
          "internalType": "uint256",
          "name": "totalAmount",
          "type": "uint256"
        }
      ],
      "name": "BatchTransferExecuted",
      "type": "event"
    },
    {
      "anonymous": false,
      "inputs": [
        {
          "indexed": true,
          "internalType": "address",
          "name": "previousOwner",
          "type": "address"
        },
        {
          "indexed": true,
          "internalType": "address",
          "name": "newOwner",
          "type": "address"
        }
      ],
      "name": "OwnershipTransferred",
      "type": "event"
    },
    {
      "anonymous": false,
      "inputs": [
        {
          "indexed": true,
          "internalType": "address",
          "name": "recipient",
          "type": "address"
        },
        {
          "indexed": false,
          "internalType": "uint256",
          "name": "amount",
          "type": "uint256"
        },
        {
          "indexed": false,
          "internalType": "string",
          "name": "reason",
          "type": "string"
        }
      ],
      "name": "SingleTransferFailed",
      "type": "event"
    },
    {
      "inputs": [
        {
          "internalType": "address[]",
          "name": "recipients",
          "type": "address[]"
        },
        {
          "internalType": "uint256[]",
          "name": "amounts",
          "type": "uint256[]"
        }
      ],
      "name": "batchTransfer",
      "outputs": [
        {
          "internalType": "uint256",
          "name": "successCount",
          "type": "uint256"
        }
      ],
      "stateMutability": "nonpayable",
      "type": "function"
    },
    {
      "inputs": [],
      "name": "owner",
      "outputs": [
        {
          "internalType": "address",
          "name": "",
          "type": "address"
        }
      ],
      "stateMutability": "view",
      "type": "function"
    },
    {
      "inputs": [
        {
          "internalType": "address",
          "name": "tokenAddress",
          "type": "address"
        },
        {
          "internalType": "address",
          "name": "to",
          "type": "address"
        },
        {
          "internalType": "uint256",
          "name": "amount",
          "type": "uint256"
        }
      ],
      "name": "recoverERC20",
      "outputs": [],
      "stateMutability": "nonpayable",
      "type": "function"
    },
    {
      "inputs": [],
      "name": "renounceOwnership",
      "outputs": [],
      "stateMutability": "nonpayable",
      "type": "function"
    },
    {
      "inputs": [],
      "name": "roluToken",
      "outputs": [
        {
          "internalType": "contract IERC20",
          "name": "",
          "type": "address"
        }
      ],
      "stateMutability": "view",
      "type": "function"
    },
    {
      "inputs": [
        {
          "internalType": "address",
          "name": "newOwner",
          "type": "address"
        }
      ],
      "name": "transferOwnership",
      "outputs": [],
      "stateMutability": "nonpayable",
      "type": "function"
    },
    {
      "inputs": [
        {
          "internalType": "address",
          "name": "_newRoluTokenAddress",
          "type": "address"
        }
      ],
      "name": "updateTokenAddress",
      "outputs": [],
      "stateMutability": "nonpayable",
      "type": "function"
    }
  ],
  "devdoc": {
    "details": "Contract for batch processing of ROLU token transfers This contract accepts arrays of recipients and amounts, then transfers tokens from the sender (admin wallet) to multiple recipients in a single transaction",
    "errors": {
      "OwnableInvalidOwner(address)": [
        {
          "details": "The owner is not a valid owner account. (eg. `address(0)`)"
        }
      ],
      "OwnableUnauthorizedAccount(address)": [
        {
          "details": "The caller account is not authorized to perform an operation."
        }
      ],
      "ReentrancyGuardReentrantCall()": [
        {
          "details": "Unauthorized reentrant call."
        }
      ]
    },
    "kind": "dev",
    "methods": {
      "batchTransfer(address[],uint256[])": {
        "details": "Executes batch transfers of tokens from sender to multiple recipients",
        "params": {
          "amounts": "Array of token amounts to transfer (in token units, not wei)",
          "recipients": "Array of recipient addresses"
        },
        "returns": {
          "successCount": "Number of successful transfers  Requirements: - Arrays must be equal length - Sender must have approved this contract to spend the total amount - Sender must have sufficient balance"
        }
      },
      "constructor": {
        "details": "Constructor initializes the contract with the ROLU token address",
        "params": {
          "_roluTokenAddress": "Address of the deployed RoluToken contract"
        }
      },
      "owner()": {
        "details": "Returns the address of the current owner."
      },
      "recoverERC20(address,address,uint256)": {
        "details": "Emergency function to recover any ERC20 tokens sent to contract by mistake",
        "params": {
          "amount": "Amount of tokens to recover",
          "to": "Address to send the recovered tokens",
          "tokenAddress": "Address of the token to recover"
        }
      },
      "renounceOwnership()": {
        "details": "Leaves the contract without owner. It will not be possible to call `onlyOwner` functions. Can only be called by the current owner. NOTE: Renouncing ownership will leave the contract without an owner, thereby disabling any functionality that is only available to the owner."
      },
      "transferOwnership(address)": {
        "details": "Transfers ownership of the contract to a new account (`newOwner`). Can only be called by the current owner."
      },
      "updateTokenAddress(address)": {
        "details": "Updates the ROLU token address - only callable by owner",
        "params": {
          "_newRoluTokenAddress": "New address of the ROLU token contract"
        }
      }
    },
    "title": "TokenDispatcher",
    "version": 1
  },
  "evm": {
    "assembly": "    /* \"TokenDispatcher.sol\":487:4236  contract TokenDispatcher is Ownable, ReentrancyGuard {... */\n  mstore(0x40, 0x80)\n    /* \"TokenDispatcher.sol\":1084:1279  constructor(address _roluTokenAddress) Ownable(msg.sender) {... */\n  callvalue\n  dup1\n  iszero\n  tag_1\n  jumpi\n  0x00\n  dup1\n  revert\ntag_1:\n  pop\n  mload(0x40)\n  sub(codesize, bytecodeSize)\n  dup1\n  bytecodeSize\n  dup4\n  codecopy\n  dup2\n  add\n  0x40\n  dup2\n  swap1\n  mstore\n  tag_2\n  swap2\n  tag_3\n  jump\t// in\ntag_2:\n    /* \"TokenDispatcher.sol\":1131:1141  msg.sender */\n  caller\n  dup1\n    /* \"@openzeppelin/contracts/access/Ownable.sol\":1269:1364   */\n  tag_8\n  jumpi\n    /* \"@openzeppelin/contracts/access/Ownable.sol\":1322:1353   */\n  mload(0x40)\n  shl(0xe0, 0x1e4fbdf7)\n  dup2\n  mstore\n    /* \"@openzeppelin/contracts/access/Ownable.sol\":1350:1351   */\n  0x00\n    /* \"@openzeppelin/contracts/access/Ownable.sol\":1322:1353   */\n  0x04\n  dup3\n  add\n    /* \"#utility.yul\":455:506   */\n  mstore\n    /* \"#utility.yul\":428:446   */\n  0x24\n  add\n    /* \"@openzeppelin/contracts/access/Ownable.sol\":1322:1353   */\ntag_9:\n  mload(0x40)\n  dup1\n  swap2\n  sub\n  swap1\n  revert\n    /* \"@openzeppelin/contracts/access/Ownable.sol\":1269:1364   */\ntag_8:\n    /* \"@openzeppelin/contracts/access/Ownable.sol\":1373:1405   */\n  tag_11\n    /* \"@openzeppelin/contracts/access/Ownable.sol\":1392:1404   */\n  dup2\n    /* \"@openzeppelin/contracts/access/Ownable.sol\":1373:1391   */\n  tag_12\n    /* \"@openzeppelin/contracts/access/Ownable.sol\":1373:1405   */\n  jump\t// in\ntag_11:\n  pop\n    /* \"@openzeppelin/contracts/utils/ReentrancyGuard.sol\":1857:1858   */\n  0x01\n    /* \"@openzeppelin/contracts/utils/ReentrancyGuard.sol\":2061:2082   */\n  dup1\n  sstore\n  sub(shl(0xa0, 0x01), 0x01)\n    /* \"TokenDispatcher.sol\":1161:1192  _roluTokenAddress != address(0) */\n  dup2\n  and\n    /* \"TokenDispatcher.sol\":1153:1225  require(_roluTokenAddress != address(0), \"Token address cannot be zero\") */\n  tag_15\n  jumpi\n  mload(0x40)\n  shl(0xe5, 0x461bcd)\n  dup2\n  mstore\n    /* \"#utility.yul\":719:721   */\n  0x20\n    /* \"TokenDispatcher.sol\":1153:1225  require(_roluTokenAddress != address(0), \"Token address cannot be zero\") */\n  0x04\n  dup3\n  add\n    /* \"#utility.yul\":701:722   */\n  mstore\n    /* \"#utility.yul\":758:760   */\n  0x1c\n    /* \"#utility.yul\":738:756   */\n  0x24\n  dup3\n  add\n    /* \"#utility.yul\":731:761   */\n  mstore\n    /* \"#utility.yul\":797:827   */\n  0x546f6b656e20616464726573732063616e6e6f74206265207a65726f00000000\n    /* \"#utility.yul\":777:795   */\n  0x44\n  dup3\n  add\n    /* \"#utility.yul\":770:828   */\n  mstore\n    /* \"#utility.yul\":845:863   */\n  0x64\n  add\n    /* \"TokenDispatcher.sol\":1153:1225  require(_roluTokenAddress != address(0), \"Token address cannot be zero\") */\n  tag_9\n    /* \"#utility.yul\":517:869   */\n  jump\n    /* \"TokenDispatcher.sol\":1153:1225  require(_roluTokenAddress != address(0), \"Token address cannot be zero\") */\ntag_15:\n    /* \"TokenDispatcher.sol\":1235:1244  roluToken */\n  0x02\n    /* \"TokenDispatcher.sol\":1235:1272  roluToken = IERC20(_roluTokenAddress) */\n  dup1\n  sload\n  not(sub(shl(0xa0, 0x01), 0x01))\n  and\n  sub(shl(0xa0, 0x01), 0x01)\n  swap3\n  swap1\n  swap3\n  and\n  swap2\n  swap1\n  swap2\n  or\n  swap1\n  sstore\n    /* \"TokenDispatcher.sol\":487:4236  contract TokenDispatcher is Ownable, ReentrancyGuard {... */\n  jump(tag_20)\n    /* \"@openzeppelin/contracts/access/Ownable.sol\":2912:3099   */\ntag_12:\n    /* \"@openzeppelin/contracts/access/Ownable.sol\":2985:3001   */\n  0x00\n    /* \"@openzeppelin/contracts/access/Ownable.sol\":3004:3010   */\n  dup1\n  sload\n  sub(shl(0xa0, 0x01), 0x01)\n    /* \"@openzeppelin/contracts/access/Ownable.sol\":3020:3037   */\n  dup4\n  dup2\n  and\n  not(sub(shl(0xa0, 0x01), 0x01))\n  dup4\n  and\n  dup2\n  or\n  dup5\n  sstore\n    /* \"@openzeppelin/contracts/access/Ownable.sol\":3052:3092   */\n  mload(0x40)\n    /* \"@openzeppelin/contracts/access/Ownable.sol\":3004:3010   */\n  swap2\n  swap1\n  swap3\n  and\n  swap3\n  dup4\n  swap2\n    /* \"@openzeppelin/contracts/access/Ownable.sol\":3052:3092   */\n  0x8be0079c531659141344cd1fd0a4f28419497f9722a3daafe3b4186f6b6457e0\n  swap2\n    /* \"@openzeppelin/contracts/access/Ownable.sol\":2985:3001   */\n  swap1\n    /* \"@openzeppelin/contracts/access/Ownable.sol\":3052:3092   */\n  log3\n    /* \"@openzeppelin/contracts/access/Ownable.sol\":2975:3099   */\n  pop\n    /* \"@openzeppelin/contracts/access/Ownable.sol\":2912:3099   */\n  pop\n  jump\t// out\n    /* \"#utility.yul\":14:304   */\ntag_3:\n    /* \"#utility.yul\":84:90   */\n  0x00\n    /* \"#utility.yul\":137:139   */\n  0x20\n    /* \"#utility.yul\":125:134   */\n  dup3\n    /* \"#utility.yul\":116:123   */\n  dup5\n    /* \"#utility.yul\":112:135   */\n  sub\n    /* \"#utility.yul\":108:140   */\n  slt\n    /* \"#utility.yul\":105:157   */\n  iszero\n  tag_22\n  jumpi\n    /* \"#utility.yul\":153:154   */\n  0x00\n    /* \"#utility.yul\":150:151   */\n  dup1\n    /* \"#utility.yul\":143:155   */\n  revert\n    /* \"#utility.yul\":105:157   */\ntag_22:\n    /* \"#utility.yul\":179:195   */\n  dup2\n  mload\n  sub(shl(0xa0, 0x01), 0x01)\n    /* \"#utility.yul\":224:255   */\n  dup2\n  and\n    /* \"#utility.yul\":214:256   */\n  dup2\n  eq\n    /* \"#utility.yul\":204:274   */\n  tag_23\n  jumpi\n    /* \"#utility.yul\":270:271   */\n  0x00\n    /* \"#utility.yul\":267:268   */\n  dup1\n    /* \"#utility.yul\":260:272   */\n  revert\n    /* \"#utility.yul\":204:274   */\ntag_23:\n    /* \"#utility.yul\":293:298   */\n  swap4\n    /* \"#utility.yul\":14:304   */\n  swap3\n  pop\n  pop\n  pop\n  jump\t// out\n    /* \"#utility.yul\":517:869   */\ntag_20:\n    /* \"TokenDispatcher.sol\":487:4236  contract TokenDispatcher is Ownable, ReentrancyGuard {... */\n  dataSize(sub_0)\n  dup1\n  dataOffset(sub_0)\n  0x00\n  codecopy\n  0x00\n  return\nstop\n\nsub_0: assembly {\n        /* \"TokenDispatcher.sol\":487:4236  contract TokenDispatcher is Ownable, ReentrancyGuard {... */\n      mstore(0x40, 0x80)\n      callvalue\n      dup1\n      iszero\n      tag_1\n      jumpi\n      0x00\n      dup1\n      revert\n    tag_1:\n      pop\n      jumpi(tag_2, lt(calldatasize, 0x04))\n      shr(0xe0, calldataload(0x00))\n      dup1\n      0x88d695b2\n      gt\n      tag_10\n      jumpi\n      dup1\n      0x88d695b2\n      eq\n      tag_6\n      jumpi\n      dup1\n      0x8da5cb5b\n      eq\n      tag_7\n      jumpi\n      dup1\n      0xbb285b94\n      eq\n      tag_8\n      jumpi\n      dup1\n      0xf2fde38b\n      eq\n      tag_9\n      jumpi\n      0x00\n      dup1\n      revert\n    tag_10:\n      dup1\n      0x1171bda9\n      eq\n      tag_3\n      jumpi\n      dup1\n      0x6691461a\n      eq\n      tag_4\n      jumpi\n      dup1\n      0x715018a6\n      eq\n      tag_5\n      jumpi\n    tag_2:\n      0x00\n      dup1\n      revert\n        /* \"TokenDispatcher.sol\":4016:4234  function recoverERC20(address tokenAddress, address to, uint256 amount) external onlyOwner {... */\n    tag_3:\n      tag_11\n      tag_12\n      calldatasize\n      0x04\n      tag_13\n      jump\t// in\n    tag_12:\n      tag_14\n      jump\t// in\n    tag_11:\n      stop\n        /* \"TokenDispatcher.sol\":3522:3741  function updateTokenAddress(address _newRoluTokenAddress) external onlyOwner {... */\n    tag_4:\n      tag_11\n      tag_16\n      calldatasize\n      0x04\n      tag_17\n      jump\t// in\n    tag_16:\n      tag_18\n      jump\t// in\n        /* \"@openzeppelin/contracts/access/Ownable.sol\":2293:2394   */\n    tag_5:\n      tag_11\n      tag_20\n      jump\t// in\n        /* \"TokenDispatcher.sol\":1769:3354  function batchTransfer(... */\n    tag_6:\n      tag_21\n      tag_22\n      calldatasize\n      0x04\n      tag_23\n      jump\t// in\n    tag_22:\n      tag_24\n      jump\t// in\n    tag_21:\n      mload(0x40)\n        /* \"#utility.yul\":2035:2060   */\n      swap1\n      dup2\n      mstore\n        /* \"#utility.yul\":2023:2025   */\n      0x20\n        /* \"#utility.yul\":2008:2026   */\n      add\n        /* \"TokenDispatcher.sol\":1769:3354  function batchTransfer(... */\n    tag_25:\n      mload(0x40)\n      dup1\n      swap2\n      sub\n      swap1\n      return\n        /* \"@openzeppelin/contracts/access/Ownable.sol\":1638:1723   */\n    tag_7:\n        /* \"@openzeppelin/contracts/access/Ownable.sol\":1684:1691   */\n      0x00\n        /* \"@openzeppelin/contracts/access/Ownable.sol\":1710:1716   */\n      sload\n      sub(shl(0xa0, 0x01), 0x01)\n      and\n        /* \"@openzeppelin/contracts/access/Ownable.sol\":1638:1723   */\n    tag_27:\n      mload(0x40)\n      sub(shl(0xa0, 0x01), 0x01)\n        /* \"#utility.yul\":2235:2290   */\n      swap1\n      swap2\n      and\n        /* \"#utility.yul\":2217:2291   */\n      dup2\n      mstore\n        /* \"#utility.yul\":2205:2207   */\n      0x20\n        /* \"#utility.yul\":2190:2208   */\n      add\n        /* \"@openzeppelin/contracts/access/Ownable.sol\":1638:1723   */\n      tag_25\n        /* \"#utility.yul\":2071:2297   */\n      jump\n        /* \"TokenDispatcher.sol\":581:604  IERC20 public roluToken */\n    tag_8:\n      sload(0x02)\n      tag_27\n      swap1\n      sub(shl(0xa0, 0x01), 0x01)\n      and\n      dup2\n      jump\n        /* \"@openzeppelin/contracts/access/Ownable.sol\":2543:2758   */\n    tag_9:\n      tag_11\n      tag_36\n      calldatasize\n      0x04\n      tag_17\n      jump\t// in\n    tag_36:\n      tag_37\n      jump\t// in\n        /* \"TokenDispatcher.sol\":4016:4234  function recoverERC20(address tokenAddress, address to, uint256 amount) external onlyOwner {... */\n    tag_14:\n        /* \"@openzeppelin/contracts/access/Ownable.sol\":1531:1544   */\n      tag_39\n        /* \"@openzeppelin/contracts/access/Ownable.sol\":1531:1542   */\n      tag_40\n        /* \"@openzeppelin/contracts/access/Ownable.sol\":1531:1544   */\n      jump\t// in\n    tag_39:\n      sub(shl(0xa0, 0x01), 0x01)\n        /* \"TokenDispatcher.sol\":4125:4141  to != address(0) */\n      dup3\n      and\n        /* \"TokenDispatcher.sol\":4117:4176  require(to != address(0), \"Cannot recover to zero address\") */\n      tag_42\n      jumpi\n      mload(0x40)\n      shl(0xe5, 0x461bcd)\n      dup2\n      mstore\n        /* \"#utility.yul\":2749:2751   */\n      0x20\n        /* \"TokenDispatcher.sol\":4117:4176  require(to != address(0), \"Cannot recover to zero address\") */\n      0x04\n      dup3\n      add\n        /* \"#utility.yul\":2731:2752   */\n      mstore\n        /* \"#utility.yul\":2788:2790   */\n      0x1e\n        /* \"#utility.yul\":2768:2786   */\n      0x24\n      dup3\n      add\n        /* \"#utility.yul\":2761:2791   */\n      mstore\n        /* \"#utility.yul\":2827:2859   */\n      0x43616e6e6f74207265636f76657220746f207a65726f20616464726573730000\n        /* \"#utility.yul\":2807:2825   */\n      0x44\n      dup3\n      add\n        /* \"#utility.yul\":2800:2860   */\n      mstore\n        /* \"#utility.yul\":2877:2895   */\n      0x64\n      add\n        /* \"TokenDispatcher.sol\":4117:4176  require(to != address(0), \"Cannot recover to zero address\") */\n    tag_43:\n      mload(0x40)\n      dup1\n      swap2\n      sub\n      swap1\n      revert\n    tag_42:\n        /* \"TokenDispatcher.sol\":4186:4227  IERC20(tokenAddress).transfer(to, amount) */\n      mload(0x40)\n      shl(0xe0, 0xa9059cbb)\n      dup2\n      mstore\n      sub(shl(0xa0, 0x01), 0x01)\n        /* \"#utility.yul\":3098:3153   */\n      dup4\n      dup2\n      and\n        /* \"TokenDispatcher.sol\":4186:4227  IERC20(tokenAddress).transfer(to, amount) */\n      0x04\n      dup4\n      add\n        /* \"#utility.yul\":3080:3154   */\n      mstore\n        /* \"#utility.yul\":3170:3188   */\n      0x24\n      dup3\n      add\n        /* \"#utility.yul\":3163:3197   */\n      dup4\n      swap1\n      mstore\n        /* \"TokenDispatcher.sol\":4186:4215  IERC20(tokenAddress).transfer */\n      dup5\n      and\n      swap1\n      0xa9059cbb\n      swap1\n        /* \"#utility.yul\":3053:3071   */\n      0x44\n      add\n        /* \"TokenDispatcher.sol\":4186:4227  IERC20(tokenAddress).transfer(to, amount) */\n      0x20\n      mload(0x40)\n      dup1\n      dup4\n      sub\n      dup2\n      0x00\n      dup8\n      gas\n      call\n      iszero\n      dup1\n      iszero\n      tag_48\n      jumpi\n      returndatasize\n      0x00\n      dup1\n      returndatacopy\n      revert(0x00, returndatasize)\n    tag_48:\n      pop\n      pop\n      pop\n      pop\n      mload(0x40)\n      returndatasize\n      not(0x1f)\n      0x1f\n      dup3\n      add\n      and\n      dup3\n      add\n      dup1\n      0x40\n      mstore\n      pop\n      dup2\n      add\n      swap1\n      tag_49\n      swap2\n      swap1\n      tag_50\n      jump\t// in\n    tag_49:\n      pop\n        /* \"TokenDispatcher.sol\":4016:4234  function recoverERC20(address tokenAddress, address to, uint256 amount) external onlyOwner {... */\n      pop\n      pop\n      pop\n      jump\t// out\n        /* \"TokenDispatcher.sol\":3522:3741  function updateTokenAddress(address _newRoluTokenAddress) external onlyOwner {... */\n    tag_18:\n        /* \"@openzeppelin/contracts/access/Ownable.sol\":1531:1544   */\n      tag_52\n        /* \"@openzeppelin/contracts/access/Ownable.sol\":1531:1542   */\n      tag_40\n        /* \"@openzeppelin/contracts/access/Ownable.sol\":1531:1544   */\n      jump\t// in\n    tag_52:\n      sub(shl(0xa0, 0x01), 0x01)\n        /* \"TokenDispatcher.sol\":3617:3651  _newRoluTokenAddress != address(0) */\n      dup2\n      and\n        /* \"TokenDispatcher.sol\":3609:3684  require(_newRoluTokenAddress != address(0), \"Token address cannot be zero\") */\n      tag_54\n      jumpi\n      mload(0x40)\n      shl(0xe5, 0x461bcd)\n      dup2\n      mstore\n        /* \"#utility.yul\":3692:3694   */\n      0x20\n        /* \"TokenDispatcher.sol\":3609:3684  require(_newRoluTokenAddress != address(0), \"Token address cannot be zero\") */\n      0x04\n      dup3\n      add\n        /* \"#utility.yul\":3674:3695   */\n      mstore\n        /* \"#utility.yul\":3731:3733   */\n      0x1c\n        /* \"#utility.yul\":3711:3729   */\n      0x24\n      dup3\n      add\n        /* \"#utility.yul\":3704:3734   */\n      mstore\n        /* \"#utility.yul\":3770:3800   */\n      0x546f6b656e20616464726573732063616e6e6f74206265207a65726f00000000\n        /* \"#utility.yul\":3750:3768   */\n      0x44\n      dup3\n      add\n        /* \"#utility.yul\":3743:3801   */\n      mstore\n        /* \"#utility.yul\":3818:3836   */\n      0x64\n      add\n        /* \"TokenDispatcher.sol\":3609:3684  require(_newRoluTokenAddress != address(0), \"Token address cannot be zero\") */\n      tag_43\n        /* \"#utility.yul\":3490:3842   */\n      jump\n        /* \"TokenDispatcher.sol\":3609:3684  require(_newRoluTokenAddress != address(0), \"Token address cannot be zero\") */\n    tag_54:\n        /* \"TokenDispatcher.sol\":3694:3703  roluToken */\n      0x02\n        /* \"TokenDispatcher.sol\":3694:3734  roluToken = IERC20(_newRoluTokenAddress) */\n      dup1\n      sload\n      not(0xffffffffffffffffffffffffffffffffffffffff)\n      and\n      sub(shl(0xa0, 0x01), 0x01)\n      swap3\n      swap1\n      swap3\n      and\n      swap2\n      swap1\n      swap2\n      or\n      swap1\n      sstore\n        /* \"TokenDispatcher.sol\":3522:3741  function updateTokenAddress(address _newRoluTokenAddress) external onlyOwner {... */\n      jump\t// out\n        /* \"@openzeppelin/contracts/access/Ownable.sol\":2293:2394   */\n    tag_20:\n        /* \"@openzeppelin/contracts/access/Ownable.sol\":1531:1544   */\n      tag_58\n        /* \"@openzeppelin/contracts/access/Ownable.sol\":1531:1542   */\n      tag_40\n        /* \"@openzeppelin/contracts/access/Ownable.sol\":1531:1544   */\n      jump\t// in\n    tag_58:\n        /* \"@openzeppelin/contracts/access/Ownable.sol\":2357:2387   */\n      tag_60\n        /* \"@openzeppelin/contracts/access/Ownable.sol\":2384:2385   */\n      0x00\n        /* \"@openzeppelin/contracts/access/Ownable.sol\":2357:2375   */\n      tag_61\n        /* \"@openzeppelin/contracts/access/Ownable.sol\":2357:2387   */\n      jump\t// in\n    tag_60:\n        /* \"@openzeppelin/contracts/access/Ownable.sol\":2293:2394   */\n      jump\t// out\n        /* \"TokenDispatcher.sol\":1769:3354  function batchTransfer(... */\n    tag_24:\n        /* \"TokenDispatcher.sol\":1904:1924  uint256 successCount */\n      0x00\n        /* \"@openzeppelin/contracts/utils/ReentrancyGuard.sol\":2500:2521   */\n      tag_63\n        /* \"@openzeppelin/contracts/utils/ReentrancyGuard.sol\":2500:2519   */\n      tag_64\n        /* \"@openzeppelin/contracts/utils/ReentrancyGuard.sol\":2500:2521   */\n      jump\t// in\n    tag_63:\n        /* \"TokenDispatcher.sol\":1944:1979  recipients.length == amounts.length */\n      dup4\n      dup3\n      eq\n        /* \"TokenDispatcher.sol\":1936:2011  require(recipients.length == amounts.length, \"Arrays must be equal length\") */\n      tag_66\n      jumpi\n      mload(0x40)\n      shl(0xe5, 0x461bcd)\n      dup2\n      mstore\n        /* \"#utility.yul\":4049:4051   */\n      0x20\n        /* \"TokenDispatcher.sol\":1936:2011  require(recipients.length == amounts.length, \"Arrays must be equal length\") */\n      0x04\n      dup3\n      add\n        /* \"#utility.yul\":4031:4052   */\n      mstore\n        /* \"#utility.yul\":4088:4090   */\n      0x1b\n        /* \"#utility.yul\":4068:4086   */\n      0x24\n      dup3\n      add\n        /* \"#utility.yul\":4061:4091   */\n      mstore\n        /* \"#utility.yul\":4127:4156   */\n      0x417272617973206d75737420626520657175616c206c656e6774680000000000\n        /* \"#utility.yul\":4107:4125   */\n      0x44\n      dup3\n      add\n        /* \"#utility.yul\":4100:4157   */\n      mstore\n        /* \"#utility.yul\":4174:4192   */\n      0x64\n      add\n        /* \"TokenDispatcher.sol\":1936:2011  require(recipients.length == amounts.length, \"Arrays must be equal length\") */\n      tag_43\n        /* \"#utility.yul\":3847:4198   */\n      jump\n        /* \"TokenDispatcher.sol\":1936:2011  require(recipients.length == amounts.length, \"Arrays must be equal length\") */\n    tag_66:\n        /* \"TokenDispatcher.sol\":2029:2050  recipients.length > 0 */\n      dup4\n        /* \"TokenDispatcher.sol\":2021:2078  require(recipients.length > 0, \"Batch must not be empty\") */\n      tag_69\n      jumpi\n      mload(0x40)\n      shl(0xe5, 0x461bcd)\n      dup2\n      mstore\n        /* \"#utility.yul\":4405:4407   */\n      0x20\n        /* \"TokenDispatcher.sol\":2021:2078  require(recipients.length > 0, \"Batch must not be empty\") */\n      0x04\n      dup3\n      add\n        /* \"#utility.yul\":4387:4408   */\n      mstore\n        /* \"#utility.yul\":4444:4446   */\n      0x17\n        /* \"#utility.yul\":4424:4442   */\n      0x24\n      dup3\n      add\n        /* \"#utility.yul\":4417:4447   */\n      mstore\n        /* \"#utility.yul\":4483:4508   */\n      0x4261746368206d757374206e6f7420626520656d707479000000000000000000\n        /* \"#utility.yul\":4463:4481   */\n      0x44\n      dup3\n      add\n        /* \"#utility.yul\":4456:4509   */\n      mstore\n        /* \"#utility.yul\":4526:4544   */\n      0x64\n      add\n        /* \"TokenDispatcher.sol\":2021:2078  require(recipients.length > 0, \"Batch must not be empty\") */\n      tag_43\n        /* \"#utility.yul\":4203:4550   */\n      jump\n        /* \"TokenDispatcher.sol\":2021:2078  require(recipients.length > 0, \"Batch must not be empty\") */\n    tag_69:\n      pop\n        /* \"TokenDispatcher.sol\":2097:2116  uint256 totalAmount */\n      0x00\n      dup1\n      dup1\n        /* \"TokenDispatcher.sol\":2211:2306  for (uint256 i = 0; i < amounts.length; i++) {... */\n    tag_72:\n        /* \"TokenDispatcher.sol\":2231:2249  i < amounts.length */\n      dup4\n      dup2\n      lt\n        /* \"TokenDispatcher.sol\":2211:2306  for (uint256 i = 0; i < amounts.length; i++) {... */\n      iszero\n      tag_73\n      jumpi\n        /* \"TokenDispatcher.sol\":2285:2292  amounts */\n      dup5\n      dup5\n        /* \"TokenDispatcher.sol\":2293:2294  i */\n      dup3\n        /* \"TokenDispatcher.sol\":2285:2295  amounts[i] */\n      dup2\n      dup2\n      lt\n      tag_76\n      jumpi\n      tag_76\n      tag_77\n      jump\t// in\n    tag_76:\n      swap1\n      pop\n      0x20\n      mul\n      add\n      calldataload\n        /* \"TokenDispatcher.sol\":2270:2295  totalAmount += amounts[i] */\n      dup3\n      tag_78\n      swap2\n      swap1\n      tag_79\n      jump\t// in\n    tag_78:\n      swap2\n      pop\n        /* \"TokenDispatcher.sol\":2251:2254  i++ */\n      0x01\n      add\n        /* \"TokenDispatcher.sol\":2211:2306  for (uint256 i = 0; i < amounts.length; i++) {... */\n      jump(tag_72)\n    tag_73:\n      pop\n        /* \"TokenDispatcher.sol\":2358:2367  uint256 i */\n      0x00\n        /* \"TokenDispatcher.sol\":2353:3235  for (uint256 i = 0; i < recipients.length; i++) {... */\n    tag_80:\n        /* \"TokenDispatcher.sol\":2373:2394  i < recipients.length */\n      dup6\n      dup2\n      lt\n        /* \"TokenDispatcher.sol\":2353:3235  for (uint256 i = 0; i < recipients.length; i++) {... */\n      iszero\n      tag_81\n      jumpi\n        /* \"TokenDispatcher.sol\":2415:2432  address recipient */\n      0x00\n        /* \"TokenDispatcher.sol\":2435:2445  recipients */\n      dup8\n      dup8\n        /* \"TokenDispatcher.sol\":2446:2447  i */\n      dup4\n        /* \"TokenDispatcher.sol\":2435:2448  recipients[i] */\n      dup2\n      dup2\n      lt\n      tag_84\n      jumpi\n      tag_84\n      tag_77\n      jump\t// in\n    tag_84:\n      swap1\n      pop\n      0x20\n      mul\n      add\n      0x20\n      dup2\n      add\n      swap1\n      tag_85\n      swap2\n      swap1\n      tag_17\n      jump\t// in\n    tag_85:\n        /* \"TokenDispatcher.sol\":2415:2448  address recipient = recipients[i] */\n      swap1\n      pop\n        /* \"TokenDispatcher.sol\":2462:2476  uint256 amount */\n      0x00\n        /* \"TokenDispatcher.sol\":2479:2486  amounts */\n      dup7\n      dup7\n        /* \"TokenDispatcher.sol\":2487:2488  i */\n      dup5\n        /* \"TokenDispatcher.sol\":2479:2489  amounts[i] */\n      dup2\n      dup2\n      lt\n      tag_87\n      jumpi\n      tag_87\n      tag_77\n      jump\t// in\n    tag_87:\n      0x20\n      mul\n      swap2\n      swap1\n      swap2\n      add\n      calldataload\n      swap2\n      pop\n      pop\n      sub(shl(0xa0, 0x01), 0x01)\n        /* \"TokenDispatcher.sol\":2520:2543  recipient == address(0) */\n      dup3\n      and\n        /* \"TokenDispatcher.sol\":2516:2664  if (recipient == address(0)) {... */\n      tag_88\n      jumpi\n        /* \"TokenDispatcher.sol\":2589:2598  recipient */\n      dup2\n      sub(shl(0xa0, 0x01), 0x01)\n        /* \"TokenDispatcher.sol\":2568:2623  SingleTransferFailed(recipient, amount, \"Zero address\") */\n      and\n      0x67781638a661ffa69e6aa63d85b71d6511c6cf2be85cc5cf1fb91815054ddbb0\n        /* \"TokenDispatcher.sol\":2600:2606  amount */\n      dup3\n        /* \"TokenDispatcher.sol\":2568:2623  SingleTransferFailed(recipient, amount, \"Zero address\") */\n      mload(0x40)\n      tag_89\n      swap2\n        /* \"#utility.yul\":5161:5186   */\n      dup2\n      mstore\n        /* \"#utility.yul\":5222:5224   */\n      0x40\n        /* \"#utility.yul\":5217:5219   */\n      0x20\n        /* \"#utility.yul\":5202:5220   */\n      dup3\n      add\n        /* \"#utility.yul\":5195:5225   */\n      dup2\n      swap1\n      mstore\n        /* \"#utility.yul\":5261:5263   */\n      0x0c\n        /* \"#utility.yul\":5241:5259   */\n      swap1\n      dup3\n      add\n        /* \"#utility.yul\":5234:5264   */\n      mstore\n        /* \"#utility.yul\":5300:5314   */\n      0x5a65726f20616464726573730000000000000000000000000000000000000000\n        /* \"#utility.yul\":5295:5297   */\n      0x60\n        /* \"#utility.yul\":5280:5298   */\n      dup3\n      add\n        /* \"#utility.yul\":5273:5315   */\n      mstore\n        /* \"#utility.yul\":5347:5350   */\n      0x80\n        /* \"#utility.yul\":5332:5351   */\n      add\n      swap1\n        /* \"#utility.yul\":4949:5357   */\n      jump\n        /* \"TokenDispatcher.sol\":2568:2623  SingleTransferFailed(recipient, amount, \"Zero address\") */\n    tag_89:\n      mload(0x40)\n      dup1\n      swap2\n      sub\n      swap1\n      log2\n        /* \"TokenDispatcher.sol\":2641:2649  continue */\n      pop\n      pop\n      jump(tag_82)\n        /* \"TokenDispatcher.sol\":2516:2664  if (recipient == address(0)) {... */\n    tag_88:\n        /* \"TokenDispatcher.sol\":2694:2703  roluToken */\n      sload(0x02)\n        /* \"TokenDispatcher.sol\":2694:2747  roluToken.transferFrom(msg.sender, recipient, amount) */\n      mload(0x40)\n      shl(0xe0, 0x23b872dd)\n      dup2\n      mstore\n        /* \"TokenDispatcher.sol\":2717:2727  msg.sender */\n      caller\n        /* \"TokenDispatcher.sol\":2694:2747  roluToken.transferFrom(msg.sender, recipient, amount) */\n      0x04\n      dup3\n      add\n        /* \"#utility.yul\":5625:5659   */\n      mstore\n      sub(shl(0xa0, 0x01), 0x01)\n        /* \"#utility.yul\":5695:5710   */\n      dup5\n      dup2\n      and\n        /* \"#utility.yul\":5675:5693   */\n      0x24\n      dup4\n      add\n        /* \"#utility.yul\":5668:5711   */\n      mstore\n        /* \"#utility.yul\":5727:5745   */\n      0x44\n      dup3\n      add\n        /* \"#utility.yul\":5720:5754   */\n      dup5\n      swap1\n      mstore\n        /* \"TokenDispatcher.sol\":2694:2703  roluToken */\n      swap1\n      swap2\n      and\n      swap1\n        /* \"TokenDispatcher.sol\":2694:2716  roluToken.transferFrom */\n      0x23b872dd\n      swap1\n        /* \"#utility.yul\":5537:5555   */\n      0x64\n      add\n        /* \"TokenDispatcher.sol\":2694:2747  roluToken.transferFrom(msg.sender, recipient, amount) */\n      0x20\n      mload(0x40)\n      dup1\n      dup4\n      sub\n      dup2\n      0x00\n      dup8\n      gas\n      call\n      swap3\n      pop\n      pop\n      pop\n      dup1\n      iszero\n      tag_93\n      jumpi\n      pop\n      0x40\n      dup1\n      mload\n      0x1f\n      returndatasize\n      swap1\n      dup2\n      add\n      not(0x1f)\n      and\n      dup3\n      add\n      swap1\n      swap3\n      mstore\n      tag_94\n      swap2\n      dup2\n      add\n      swap1\n      tag_50\n      jump\t// in\n    tag_94:\n      0x01\n    tag_93:\n        /* \"TokenDispatcher.sol\":2690:3225  try roluToken.transferFrom(msg.sender, recipient, amount) returns (bool success) {... */\n      tag_95\n      jumpi\n      tag_99\n      tag_100\n      jump\t// in\n    tag_99:\n      dup1\n      0x08c379a0\n      sub\n      tag_98\n      jumpi\n      pop\n      tag_101\n      tag_102\n      jump\t// in\n    tag_101:\n      dup1\n      tag_103\n      jumpi\n      pop\n      jump(tag_97)\n    tag_103:\n        /* \"TokenDispatcher.sol\":3068:3077  recipient */\n      dup3\n      sub(shl(0xa0, 0x01), 0x01)\n        /* \"TokenDispatcher.sol\":3047:3094  SingleTransferFailed(recipient, amount, reason) */\n      and\n      0x67781638a661ffa69e6aa63d85b71d6511c6cf2be85cc5cf1fb91815054ddbb0\n        /* \"TokenDispatcher.sol\":3079:3085  amount */\n      dup4\n        /* \"TokenDispatcher.sol\":3087:3093  reason */\n      dup4\n        /* \"TokenDispatcher.sol\":3047:3094  SingleTransferFailed(recipient, amount, reason) */\n      mload(0x40)\n      tag_104\n      swap3\n      swap2\n      swap1\n      tag_105\n      jump\t// in\n    tag_104:\n      mload(0x40)\n      dup1\n      swap2\n      sub\n      swap1\n      log2\n        /* \"TokenDispatcher.sol\":2990:3109  catch Error(string memory reason) {... */\n      pop\n        /* \"TokenDispatcher.sol\":2690:3225  try roluToken.transferFrom(msg.sender, recipient, amount) returns (bool success) {... */\n      jump(tag_110)\n    tag_98:\n      pop\n    tag_97:\n      returndatasize\n      dup1\n      dup1\n      iszero\n      tag_107\n      jumpi\n      mload(0x40)\n      swap2\n      pop\n      and(add(returndatasize, 0x3f), not(0x1f))\n      dup3\n      add\n      0x40\n      mstore\n      returndatasize\n      dup3\n      mstore\n      returndatasize\n      0x00\n      0x20\n      dup5\n      add\n      returndatacopy\n      jump(tag_106)\n    tag_107:\n      0x60\n      swap2\n      pop\n    tag_106:\n      pop\n        /* \"TokenDispatcher.sol\":3175:3184  recipient */\n      dup3\n      sub(shl(0xa0, 0x01), 0x01)\n        /* \"TokenDispatcher.sol\":3154:3210  SingleTransferFailed(recipient, amount, \"Unknown error\") */\n      and\n      0x67781638a661ffa69e6aa63d85b71d6511c6cf2be85cc5cf1fb91815054ddbb0\n        /* \"TokenDispatcher.sol\":3186:3192  amount */\n      dup4\n        /* \"TokenDispatcher.sol\":3154:3210  SingleTransferFailed(recipient, amount, \"Unknown error\") */\n      mload(0x40)\n      tag_104\n      swap2\n        /* \"#utility.yul\":7682:7707   */\n      dup2\n      mstore\n        /* \"#utility.yul\":7743:7745   */\n      0x40\n        /* \"#utility.yul\":7738:7740   */\n      0x20\n        /* \"#utility.yul\":7723:7741   */\n      dup3\n      add\n        /* \"#utility.yul\":7716:7746   */\n      dup2\n      swap1\n      mstore\n        /* \"#utility.yul\":7782:7784   */\n      0x0d\n        /* \"#utility.yul\":7762:7780   */\n      swap1\n      dup3\n      add\n        /* \"#utility.yul\":7755:7785   */\n      mstore\n        /* \"#utility.yul\":7821:7836   */\n      0x556e6b6e6f776e206572726f7200000000000000000000000000000000000000\n        /* \"#utility.yul\":7816:7818   */\n      0x60\n        /* \"#utility.yul\":7801:7819   */\n      dup3\n      add\n        /* \"#utility.yul\":7794:7837   */\n      mstore\n        /* \"#utility.yul\":7869:7872   */\n      0x80\n        /* \"#utility.yul\":7854:7873   */\n      add\n      swap1\n        /* \"#utility.yul\":7470:7879   */\n      jump\n        /* \"TokenDispatcher.sol\":2690:3225  try roluToken.transferFrom(msg.sender, recipient, amount) returns (bool success) {... */\n    tag_95:\n        /* \"TokenDispatcher.sol\":2793:2800  success */\n      dup1\n        /* \"TokenDispatcher.sol\":2789:2975  if (success) {... */\n      iszero\n      tag_111\n      jumpi\n        /* \"TokenDispatcher.sol\":2824:2838  successCount++ */\n      dup6\n      tag_112\n      dup2\n      tag_113\n      jump\t// in\n    tag_112:\n      swap7\n      pop\n      pop\n        /* \"TokenDispatcher.sol\":2789:2975  if (success) {... */\n      jump(tag_114)\n    tag_111:\n        /* \"TokenDispatcher.sol\":2911:2920  recipient */\n      dup3\n      sub(shl(0xa0, 0x01), 0x01)\n        /* \"TokenDispatcher.sol\":2890:2956  SingleTransferFailed(recipient, amount, \"Transfer returned false\") */\n      and\n      0x67781638a661ffa69e6aa63d85b71d6511c6cf2be85cc5cf1fb91815054ddbb0\n        /* \"TokenDispatcher.sol\":2922:2928  amount */\n      dup4\n        /* \"TokenDispatcher.sol\":2890:2956  SingleTransferFailed(recipient, amount, \"Transfer returned false\") */\n      mload(0x40)\n      tag_115\n      swap2\n        /* \"#utility.yul\":8236:8261   */\n      dup2\n      mstore\n        /* \"#utility.yul\":8297:8299   */\n      0x40\n        /* \"#utility.yul\":8292:8294   */\n      0x20\n        /* \"#utility.yul\":8277:8295   */\n      dup3\n      add\n        /* \"#utility.yul\":8270:8300   */\n      dup2\n      swap1\n      mstore\n        /* \"#utility.yul\":8336:8338   */\n      0x17\n        /* \"#utility.yul\":8316:8334   */\n      swap1\n      dup3\n      add\n        /* \"#utility.yul\":8309:8339   */\n      mstore\n        /* \"#utility.yul\":8375:8400   */\n      0x5472616e736665722072657475726e65642066616c7365000000000000000000\n        /* \"#utility.yul\":8370:8372   */\n      0x60\n        /* \"#utility.yul\":8355:8373   */\n      dup3\n      add\n        /* \"#utility.yul\":8348:8401   */\n      mstore\n        /* \"#utility.yul\":8433:8436   */\n      0x80\n        /* \"#utility.yul\":8418:8437   */\n      add\n      swap1\n        /* \"#utility.yul\":8024:8443   */\n      jump\n        /* \"TokenDispatcher.sol\":2890:2956  SingleTransferFailed(recipient, amount, \"Transfer returned false\") */\n    tag_115:\n      mload(0x40)\n      dup1\n      swap2\n      sub\n      swap1\n      log2\n        /* \"TokenDispatcher.sol\":2789:2975  if (success) {... */\n    tag_114:\n        /* \"TokenDispatcher.sol\":2748:2989  returns (bool success) {... */\n      pop\n        /* \"TokenDispatcher.sol\":2690:3225  try roluToken.transferFrom(msg.sender, recipient, amount) returns (bool success) {... */\n    tag_110:\n        /* \"TokenDispatcher.sol\":2401:3235  {... */\n      pop\n      pop\n        /* \"TokenDispatcher.sol\":2353:3235  for (uint256 i = 0; i < recipients.length; i++) {... */\n    tag_82:\n        /* \"TokenDispatcher.sol\":2396:2399  i++ */\n      0x01\n      add\n        /* \"TokenDispatcher.sol\":2353:3235  for (uint256 i = 0; i < recipients.length; i++) {... */\n      jump(tag_80)\n    tag_81:\n      pop\n        /* \"TokenDispatcher.sol\":3258:3318  BatchTransferExecuted(msg.sender, successCount, totalAmount) */\n      0x40\n      dup1\n      mload\n        /* \"#utility.yul\":8622:8647   */\n      dup4\n      dup2\n      mstore\n        /* \"#utility.yul\":8678:8680   */\n      0x20\n        /* \"#utility.yul\":8663:8681   */\n      dup2\n      add\n        /* \"#utility.yul\":8656:8690   */\n      dup4\n      swap1\n      mstore\n        /* \"TokenDispatcher.sol\":3280:3290  msg.sender */\n      caller\n      swap2\n        /* \"TokenDispatcher.sol\":3258:3318  BatchTransferExecuted(msg.sender, successCount, totalAmount) */\n      0x8903ead3f8a739b2bb84406eae5d8b2f9d93946abc11f7fd5c4a68024d15bd05\n      swap2\n        /* \"#utility.yul\":8595:8613   */\n      add\n        /* \"TokenDispatcher.sol\":3258:3318  BatchTransferExecuted(msg.sender, successCount, totalAmount) */\n      mload(0x40)\n      dup1\n      swap2\n      sub\n      swap1\n      log2\n        /* \"TokenDispatcher.sol\":3328:3347  return successCount */\n      pop\n        /* \"@openzeppelin/contracts/utils/ReentrancyGuard.sol\":2542:2562   */\n      tag_119\n        /* \"@openzeppelin/contracts/utils/ReentrancyGuard.sol\":1857:1858   */\n      0x01\n        /* \"@openzeppelin/contracts/utils/ReentrancyGuard.sol\":3068:3089   */\n      dup1\n      sstore\n        /* \"@openzeppelin/contracts/utils/ReentrancyGuard.sol\":2888:3096   */\n      jump\n        /* \"@openzeppelin/contracts/utils/ReentrancyGuard.sol\":2542:2562   */\n    tag_119:\n        /* \"TokenDispatcher.sol\":1769:3354  function batchTransfer(... */\n      swap5\n      swap4\n      pop\n      pop\n      pop\n      pop\n      jump\t// out\n        /* \"@openzeppelin/contracts/access/Ownable.sol\":2543:2758   */\n    tag_37:\n        /* \"@openzeppelin/contracts/access/Ownable.sol\":1531:1544   */\n      tag_123\n        /* \"@openzeppelin/contracts/access/Ownable.sol\":1531:1542   */\n      tag_40\n        /* \"@openzeppelin/contracts/access/Ownable.sol\":1531:1544   */\n      jump\t// in\n    tag_123:\n      sub(shl(0xa0, 0x01), 0x01)\n        /* \"@openzeppelin/contracts/access/Ownable.sol\":2627:2649   */\n      dup2\n      and\n        /* \"@openzeppelin/contracts/access/Ownable.sol\":2623:2714   */\n      tag_125\n      jumpi\n        /* \"@openzeppelin/contracts/access/Ownable.sol\":2672:2703   */\n      mload(0x40)\n      shl(0xe0, 0x1e4fbdf7)\n      dup2\n      mstore\n        /* \"@openzeppelin/contracts/access/Ownable.sol\":2700:2701   */\n      0x00\n        /* \"@openzeppelin/contracts/access/Ownable.sol\":2672:2703   */\n      0x04\n      dup3\n      add\n        /* \"#utility.yul\":2217:2291   */\n      mstore\n        /* \"#utility.yul\":2190:2208   */\n      0x24\n      add\n        /* \"@openzeppelin/contracts/access/Ownable.sol\":2672:2703   */\n      tag_43\n        /* \"#utility.yul\":2071:2297   */\n      jump\n        /* \"@openzeppelin/contracts/access/Ownable.sol\":2623:2714   */\n    tag_125:\n        /* \"@openzeppelin/contracts/access/Ownable.sol\":2723:2751   */\n      tag_127\n        /* \"@openzeppelin/contracts/access/Ownable.sol\":2742:2750   */\n      dup2\n        /* \"@openzeppelin/contracts/access/Ownable.sol\":2723:2741   */\n      tag_61\n        /* \"@openzeppelin/contracts/access/Ownable.sol\":2723:2751   */\n      jump\t// in\n    tag_127:\n        /* \"@openzeppelin/contracts/access/Ownable.sol\":2543:2758   */\n      pop\n      jump\t// out\n        /* \"@openzeppelin/contracts/access/Ownable.sol\":1796:1958   */\n    tag_40:\n        /* \"@openzeppelin/contracts/access/Ownable.sol\":1684:1691   */\n      0x00\n        /* \"@openzeppelin/contracts/access/Ownable.sol\":1710:1716   */\n      sload\n      sub(shl(0xa0, 0x01), 0x01)\n      and\n        /* \"@openzeppelin/contracts/utils/Context.sol\":735:745   */\n      caller\n        /* \"@openzeppelin/contracts/access/Ownable.sol\":1855:1878   */\n      eq\n        /* \"@openzeppelin/contracts/access/Ownable.sol\":1851:1952   */\n      tag_60\n      jumpi\n        /* \"@openzeppelin/contracts/access/Ownable.sol\":1901:1941   */\n      mload(0x40)\n      shl(0xe0, 0x118cdaa7)\n      dup2\n      mstore\n        /* \"@openzeppelin/contracts/utils/Context.sol\":735:745   */\n      caller\n        /* \"@openzeppelin/contracts/access/Ownable.sol\":1901:1941   */\n      0x04\n      dup3\n      add\n        /* \"#utility.yul\":2217:2291   */\n      mstore\n        /* \"#utility.yul\":2190:2208   */\n      0x24\n      add\n        /* \"@openzeppelin/contracts/access/Ownable.sol\":1901:1941   */\n      tag_43\n        /* \"#utility.yul\":2071:2297   */\n      jump\n        /* \"@openzeppelin/contracts/access/Ownable.sol\":2912:3099   */\n    tag_61:\n        /* \"@openzeppelin/contracts/access/Ownable.sol\":2985:3001   */\n      0x00\n        /* \"@openzeppelin/contracts/access/Ownable.sol\":3004:3010   */\n      dup1\n      sload\n      sub(shl(0xa0, 0x01), 0x01)\n        /* \"@openzeppelin/contracts/access/Ownable.sol\":3020:3037   */\n      dup4\n      dup2\n      and\n      not(0xffffffffffffffffffffffffffffffffffffffff)\n      dup4\n      and\n      dup2\n      or\n      dup5\n      sstore\n        /* \"@openzeppelin/contracts/access/Ownable.sol\":3052:3092   */\n      mload(0x40)\n        /* \"@openzeppelin/contracts/access/Ownable.sol\":3004:3010   */\n      swap2\n      swap1\n      swap3\n      and\n      swap3\n      dup4\n      swap2\n        /* \"@openzeppelin/contracts/access/Ownable.sol\":3052:3092   */\n      0x8be0079c531659141344cd1fd0a4f28419497f9722a3daafe3b4186f6b6457e0\n      swap2\n        /* \"@openzeppelin/contracts/access/Ownable.sol\":2985:3001   */\n      swap1\n        /* \"@openzeppelin/contracts/access/Ownable.sol\":3052:3092   */\n      log3\n        /* \"@openzeppelin/contracts/access/Ownable.sol\":2975:3099   */\n      pop\n        /* \"@openzeppelin/contracts/access/Ownable.sol\":2912:3099   */\n      pop\n      jump\t// out\n        /* \"@openzeppelin/contracts/utils/ReentrancyGuard.sol\":2575:2882   */\n    tag_64:\n        /* \"@openzeppelin/contracts/utils/ReentrancyGuard.sol\":1899:1900   */\n      0x02\n        /* \"@openzeppelin/contracts/utils/ReentrancyGuard.sol\":2702:2709   */\n      sload(0x01)\n        /* \"@openzeppelin/contracts/utils/ReentrancyGuard.sol\":2702:2720   */\n      sub\n        /* \"@openzeppelin/contracts/utils/ReentrancyGuard.sol\":2698:2784   */\n      tag_137\n      jumpi\n        /* \"@openzeppelin/contracts/utils/ReentrancyGuard.sol\":2743:2773   */\n      mload(0x40)\n      shl(0xe0, 0x3ee5aeb5)\n      dup2\n      mstore\n      0x04\n      add\n      mload(0x40)\n      dup1\n      swap2\n      sub\n      swap1\n      revert\n        /* \"@openzeppelin/contracts/utils/ReentrancyGuard.sol\":2698:2784   */\n    tag_137:\n        /* \"@openzeppelin/contracts/utils/ReentrancyGuard.sol\":1899:1900   */\n      0x02\n        /* \"@openzeppelin/contracts/utils/ReentrancyGuard.sol\":2858:2865   */\n      0x01\n        /* \"@openzeppelin/contracts/utils/ReentrancyGuard.sol\":2858:2875   */\n      sstore\n        /* \"@openzeppelin/contracts/utils/ReentrancyGuard.sol\":2575:2882   */\n      jump\t// out\n        /* \"#utility.yul\":14:210   */\n    tag_140:\n        /* \"#utility.yul\":82:102   */\n      dup1\n      calldataload\n      sub(shl(0xa0, 0x01), 0x01)\n        /* \"#utility.yul\":131:185   */\n      dup2\n      and\n        /* \"#utility.yul\":121:186   */\n      dup2\n      eq\n        /* \"#utility.yul\":111:204   */\n      tag_146\n      jumpi\n        /* \"#utility.yul\":200:201   */\n      0x00\n        /* \"#utility.yul\":197:198   */\n      dup1\n        /* \"#utility.yul\":190:202   */\n      revert\n        /* \"#utility.yul\":111:204   */\n    tag_146:\n        /* \"#utility.yul\":14:210   */\n      swap2\n      swap1\n      pop\n      jump\t// out\n        /* \"#utility.yul\":215:543   */\n    tag_13:\n        /* \"#utility.yul\":292:298   */\n      0x00\n        /* \"#utility.yul\":300:306   */\n      dup1\n        /* \"#utility.yul\":308:314   */\n      0x00\n        /* \"#utility.yul\":361:363   */\n      0x60\n        /* \"#utility.yul\":349:358   */\n      dup5\n        /* \"#utility.yul\":340:347   */\n      dup7\n        /* \"#utility.yul\":336:359   */\n      sub\n        /* \"#utility.yul\":332:364   */\n      slt\n        /* \"#utility.yul\":329:381   */\n      iszero\n      tag_148\n      jumpi\n        /* \"#utility.yul\":377:378   */\n      0x00\n        /* \"#utility.yul\":374:375   */\n      dup1\n        /* \"#utility.yul\":367:379   */\n      revert\n        /* \"#utility.yul\":329:381   */\n    tag_148:\n        /* \"#utility.yul\":400:429   */\n      tag_149\n        /* \"#utility.yul\":419:428   */\n      dup5\n        /* \"#utility.yul\":400:429   */\n      tag_140\n      jump\t// in\n    tag_149:\n        /* \"#utility.yul\":390:429   */\n      swap3\n      pop\n        /* \"#utility.yul\":448:486   */\n      tag_150\n        /* \"#utility.yul\":482:484   */\n      0x20\n        /* \"#utility.yul\":471:480   */\n      dup6\n        /* \"#utility.yul\":467:485   */\n      add\n        /* \"#utility.yul\":448:486   */\n      tag_140\n      jump\t// in\n    tag_150:\n        /* \"#utility.yul\":438:486   */\n      swap2\n      pop\n        /* \"#utility.yul\":533:535   */\n      0x40\n        /* \"#utility.yul\":522:531   */\n      dup5\n        /* \"#utility.yul\":518:536   */\n      add\n        /* \"#utility.yul\":505:537   */\n      calldataload\n        /* \"#utility.yul\":495:537   */\n      swap1\n      pop\n        /* \"#utility.yul\":215:543   */\n      swap3\n      pop\n      swap3\n      pop\n      swap3\n      jump\t// out\n        /* \"#utility.yul\":548:734   */\n    tag_17:\n        /* \"#utility.yul\":607:613   */\n      0x00\n        /* \"#utility.yul\":660:662   */\n      0x20\n        /* \"#utility.yul\":648:657   */\n      dup3\n        /* \"#utility.yul\":639:646   */\n      dup5\n        /* \"#utility.yul\":635:658   */\n      sub\n        /* \"#utility.yul\":631:663   */\n      slt\n        /* \"#utility.yul\":628:680   */\n      iszero\n      tag_152\n      jumpi\n        /* \"#utility.yul\":676:677   */\n      0x00\n        /* \"#utility.yul\":673:674   */\n      dup1\n        /* \"#utility.yul\":666:678   */\n      revert\n        /* \"#utility.yul\":628:680   */\n    tag_152:\n        /* \"#utility.yul\":699:728   */\n      tag_153\n        /* \"#utility.yul\":718:727   */\n      dup3\n        /* \"#utility.yul\":699:728   */\n      tag_140\n      jump\t// in\n    tag_153:\n        /* \"#utility.yul\":689:728   */\n      swap4\n        /* \"#utility.yul\":548:734   */\n      swap3\n      pop\n      pop\n      pop\n      jump\t// out\n        /* \"#utility.yul\":739:1106   */\n    tag_141:\n        /* \"#utility.yul\":802:810   */\n      0x00\n        /* \"#utility.yul\":812:818   */\n      dup1\n        /* \"#utility.yul\":866:869   */\n      dup4\n        /* \"#utility.yul\":859:863   */\n      0x1f\n        /* \"#utility.yul\":851:857   */\n      dup5\n        /* \"#utility.yul\":847:864   */\n      add\n        /* \"#utility.yul\":843:870   */\n      slt\n        /* \"#utility.yul\":833:888   */\n      tag_155\n      jumpi\n        /* \"#utility.yul\":884:885   */\n      0x00\n        /* \"#utility.yul\":881:882   */\n      dup1\n        /* \"#utility.yul\":874:886   */\n      revert\n        /* \"#utility.yul\":833:888   */\n    tag_155:\n      pop\n        /* \"#utility.yul\":907:927   */\n      dup2\n      calldataload\n        /* \"#utility.yul\":950:968   */\n      0xffffffffffffffff\n        /* \"#utility.yul\":939:969   */\n      dup2\n      gt\n        /* \"#utility.yul\":936:986   */\n      iszero\n      tag_156\n      jumpi\n        /* \"#utility.yul\":982:983   */\n      0x00\n        /* \"#utility.yul\":979:980   */\n      dup1\n        /* \"#utility.yul\":972:984   */\n      revert\n        /* \"#utility.yul\":936:986   */\n    tag_156:\n        /* \"#utility.yul\":1019:1023   */\n      0x20\n        /* \"#utility.yul\":1011:1017   */\n      dup4\n        /* \"#utility.yul\":1007:1024   */\n      add\n        /* \"#utility.yul\":995:1024   */\n      swap2\n      pop\n        /* \"#utility.yul\":1079:1082   */\n      dup4\n        /* \"#utility.yul\":1072:1076   */\n      0x20\n        /* \"#utility.yul\":1062:1068   */\n      dup3\n        /* \"#utility.yul\":1059:1060   */\n      0x05\n        /* \"#utility.yul\":1055:1069   */\n      shl\n        /* \"#utility.yul\":1047:1053   */\n      dup6\n        /* \"#utility.yul\":1043:1070   */\n      add\n        /* \"#utility.yul\":1039:1077   */\n      add\n        /* \"#utility.yul\":1036:1083   */\n      gt\n        /* \"#utility.yul\":1033:1100   */\n      iszero\n      tag_157\n      jumpi\n        /* \"#utility.yul\":1096:1097   */\n      0x00\n        /* \"#utility.yul\":1093:1094   */\n      dup1\n        /* \"#utility.yul\":1086:1098   */\n      revert\n        /* \"#utility.yul\":1033:1100   */\n    tag_157:\n        /* \"#utility.yul\":739:1106   */\n      swap3\n      pop\n      swap3\n      swap1\n      pop\n      jump\t// out\n        /* \"#utility.yul\":1111:1884   */\n    tag_23:\n        /* \"#utility.yul\":1233:1239   */\n      0x00\n        /* \"#utility.yul\":1241:1247   */\n      dup1\n        /* \"#utility.yul\":1249:1255   */\n      0x00\n        /* \"#utility.yul\":1257:1263   */\n      dup1\n        /* \"#utility.yul\":1310:1312   */\n      0x40\n        /* \"#utility.yul\":1298:1307   */\n      dup6\n        /* \"#utility.yul\":1289:1296   */\n      dup8\n        /* \"#utility.yul\":1285:1308   */\n      sub\n        /* \"#utility.yul\":1281:1313   */\n      slt\n        /* \"#utility.yul\":1278:1330   */\n      iszero\n      tag_159\n      jumpi\n        /* \"#utility.yul\":1326:1327   */\n      0x00\n        /* \"#utility.yul\":1323:1324   */\n      dup1\n        /* \"#utility.yul\":1316:1328   */\n      revert\n        /* \"#utility.yul\":1278:1330   */\n    tag_159:\n        /* \"#utility.yul\":1366:1375   */\n      dup5\n        /* \"#utility.yul\":1353:1376   */\n      calldataload\n        /* \"#utility.yul\":1395:1413   */\n      0xffffffffffffffff\n        /* \"#utility.yul\":1436:1438   */\n      dup1\n        /* \"#utility.yul\":1428:1434   */\n      dup3\n        /* \"#utility.yul\":1425:1439   */\n      gt\n        /* \"#utility.yul\":1422:1456   */\n      iszero\n      tag_160\n      jumpi\n        /* \"#utility.yul\":1452:1453   */\n      0x00\n        /* \"#utility.yul\":1449:1450   */\n      dup1\n        /* \"#utility.yul\":1442:1454   */\n      revert\n        /* \"#utility.yul\":1422:1456   */\n    tag_160:\n        /* \"#utility.yul\":1491:1561   */\n      tag_161\n        /* \"#utility.yul\":1553:1560   */\n      dup9\n        /* \"#utility.yul\":1544:1550   */\n      dup4\n        /* \"#utility.yul\":1533:1542   */\n      dup10\n        /* \"#utility.yul\":1529:1551   */\n      add\n        /* \"#utility.yul\":1491:1561   */\n      tag_141\n      jump\t// in\n    tag_161:\n        /* \"#utility.yul\":1580:1588   */\n      swap1\n      swap7\n      pop\n        /* \"#utility.yul\":1465:1561   */\n      swap5\n      pop\n        /* \"#utility.yul\":1668:1670   */\n      0x20\n        /* \"#utility.yul\":1653:1671   */\n      dup8\n      add\n        /* \"#utility.yul\":1640:1672   */\n      calldataload\n      swap2\n      pop\n        /* \"#utility.yul\":1684:1700   */\n      dup1\n      dup3\n      gt\n        /* \"#utility.yul\":1681:1717   */\n      iszero\n      tag_162\n      jumpi\n        /* \"#utility.yul\":1713:1714   */\n      0x00\n        /* \"#utility.yul\":1710:1711   */\n      dup1\n        /* \"#utility.yul\":1703:1715   */\n      revert\n        /* \"#utility.yul\":1681:1717   */\n    tag_162:\n      pop\n        /* \"#utility.yul\":1752:1824   */\n      tag_163\n        /* \"#utility.yul\":1816:1823   */\n      dup8\n        /* \"#utility.yul\":1805:1813   */\n      dup3\n        /* \"#utility.yul\":1794:1803   */\n      dup9\n        /* \"#utility.yul\":1790:1814   */\n      add\n        /* \"#utility.yul\":1752:1824   */\n      tag_141\n      jump\t// in\n    tag_163:\n        /* \"#utility.yul\":1111:1884   */\n      swap6\n      swap9\n      swap5\n      swap8\n      pop\n        /* \"#utility.yul\":1843:1851   */\n      swap6\n      pop\n      pop\n      pop\n      pop\n        /* \"#utility.yul\":1111:1884   */\n      jump\t// out\n        /* \"#utility.yul\":3208:3485   */\n    tag_50:\n        /* \"#utility.yul\":3275:3281   */\n      0x00\n        /* \"#utility.yul\":3328:3330   */\n      0x20\n        /* \"#utility.yul\":3316:3325   */\n      dup3\n        /* \"#utility.yul\":3307:3314   */\n      dup5\n        /* \"#utility.yul\":3303:3326   */\n      sub\n        /* \"#utility.yul\":3299:3331   */\n      slt\n        /* \"#utility.yul\":3296:3348   */\n      iszero\n      tag_170\n      jumpi\n        /* \"#utility.yul\":3344:3345   */\n      0x00\n        /* \"#utility.yul\":3341:3342   */\n      dup1\n        /* \"#utility.yul\":3334:3346   */\n      revert\n        /* \"#utility.yul\":3296:3348   */\n    tag_170:\n        /* \"#utility.yul\":3376:3385   */\n      dup2\n        /* \"#utility.yul\":3370:3386   */\n      mload\n        /* \"#utility.yul\":3429:3434   */\n      dup1\n        /* \"#utility.yul\":3422:3435   */\n      iszero\n        /* \"#utility.yul\":3415:3436   */\n      iszero\n        /* \"#utility.yul\":3408:3413   */\n      dup2\n        /* \"#utility.yul\":3405:3437   */\n      eq\n        /* \"#utility.yul\":3395:3455   */\n      tag_153\n      jumpi\n        /* \"#utility.yul\":3451:3452   */\n      0x00\n        /* \"#utility.yul\":3448:3449   */\n      dup1\n        /* \"#utility.yul\":3441:3453   */\n      revert\n        /* \"#utility.yul\":4555:4682   */\n    tag_77:\n        /* \"#utility.yul\":4616:4626   */\n      0x4e487b71\n        /* \"#utility.yul\":4611:4614   */\n      0xe0\n        /* \"#utility.yul\":4607:4627   */\n      shl\n        /* \"#utility.yul\":4604:4605   */\n      0x00\n        /* \"#utility.yul\":4597:4628   */\n      mstore\n        /* \"#utility.yul\":4647:4651   */\n      0x32\n        /* \"#utility.yul\":4644:4645   */\n      0x04\n        /* \"#utility.yul\":4637:4652   */\n      mstore\n        /* \"#utility.yul\":4671:4675   */\n      0x24\n        /* \"#utility.yul\":4668:4669   */\n      0x00\n        /* \"#utility.yul\":4661:4676   */\n      revert\n        /* \"#utility.yul\":4687:4814   */\n    tag_142:\n        /* \"#utility.yul\":4748:4758   */\n      0x4e487b71\n        /* \"#utility.yul\":4743:4746   */\n      0xe0\n        /* \"#utility.yul\":4739:4759   */\n      shl\n        /* \"#utility.yul\":4736:4737   */\n      0x00\n        /* \"#utility.yul\":4729:4760   */\n      mstore\n        /* \"#utility.yul\":4779:4783   */\n      0x11\n        /* \"#utility.yul\":4776:4777   */\n      0x04\n        /* \"#utility.yul\":4769:4784   */\n      mstore\n        /* \"#utility.yul\":4803:4807   */\n      0x24\n        /* \"#utility.yul\":4800:4801   */\n      0x00\n        /* \"#utility.yul\":4793:4808   */\n      revert\n        /* \"#utility.yul\":4819:4944   */\n    tag_79:\n        /* \"#utility.yul\":4884:4893   */\n      dup1\n      dup3\n      add\n        /* \"#utility.yul\":4905:4915   */\n      dup1\n      dup3\n      gt\n        /* \"#utility.yul\":4902:4938   */\n      iszero\n      tag_179\n      jumpi\n        /* \"#utility.yul\":4918:4936   */\n      tag_179\n      tag_142\n      jump\t// in\n    tag_179:\n        /* \"#utility.yul\":4819:4944   */\n      swap3\n      swap2\n      pop\n      pop\n      jump\t// out\n        /* \"#utility.yul\":5765:5944   */\n    tag_100:\n        /* \"#utility.yul\":5800:5803   */\n      0x00\n        /* \"#utility.yul\":5842:5843   */\n      0x03\n        /* \"#utility.yul\":5824:5840   */\n      returndatasize\n        /* \"#utility.yul\":5821:5844   */\n      gt\n        /* \"#utility.yul\":5818:5938   */\n      iszero\n      tag_183\n      jumpi\n        /* \"#utility.yul\":5888:5889   */\n      0x04\n        /* \"#utility.yul\":5885:5886   */\n      0x00\n        /* \"#utility.yul\":5882:5883   */\n      dup1\n        /* \"#utility.yul\":5867:5890   */\n      returndatacopy\n      pop\n        /* \"#utility.yul\":5925:5926   */\n      0x00\n        /* \"#utility.yul\":5919:5927   */\n      mload\n        /* \"#utility.yul\":5914:5917   */\n      0xe0\n        /* \"#utility.yul\":5910:5928   */\n      shr\n        /* \"#utility.yul\":5818:5938   */\n    tag_183:\n        /* \"#utility.yul\":5765:5944   */\n      swap1\n      jump\t// out\n        /* \"#utility.yul\":5949:6295   */\n    tag_143:\n        /* \"#utility.yul\":6059:6061   */\n      0x1f\n        /* \"#utility.yul\":6040:6053   */\n      dup3\n      add\n      not(0x1f)\n        /* \"#utility.yul\":6036:6063   */\n      and\n        /* \"#utility.yul\":6024:6064   */\n      dup2\n      add\n        /* \"#utility.yul\":6094:6112   */\n      0xffffffffffffffff\n        /* \"#utility.yul\":6079:6113   */\n      dup2\n      gt\n        /* \"#utility.yul\":6115:6137   */\n      dup3\n      dup3\n      lt\n        /* \"#utility.yul\":6076:6138   */\n      or\n        /* \"#utility.yul\":6073:6258   */\n      iszero\n      tag_185\n      jumpi\n        /* \"#utility.yul\":6180:6190   */\n      0x4e487b71\n        /* \"#utility.yul\":6175:6178   */\n      0xe0\n        /* \"#utility.yul\":6171:6191   */\n      shl\n        /* \"#utility.yul\":6168:6169   */\n      0x00\n        /* \"#utility.yul\":6161:6192   */\n      mstore\n        /* \"#utility.yul\":6215:6219   */\n      0x41\n        /* \"#utility.yul\":6212:6213   */\n      0x04\n        /* \"#utility.yul\":6205:6220   */\n      mstore\n        /* \"#utility.yul\":6243:6247   */\n      0x24\n        /* \"#utility.yul\":6240:6241   */\n      0x00\n        /* \"#utility.yul\":6233:6248   */\n      revert\n        /* \"#utility.yul\":6073:6258   */\n    tag_185:\n        /* \"#utility.yul\":6274:6276   */\n      0x40\n        /* \"#utility.yul\":6267:6289   */\n      mstore\n      pop\n      pop\n        /* \"#utility.yul\":5949:6295   */\n      jump\t// out\n        /* \"#utility.yul\":6300:6971   */\n    tag_102:\n        /* \"#utility.yul\":6339:6342   */\n      0x00\n        /* \"#utility.yul\":6381:6385   */\n      0x44\n        /* \"#utility.yul\":6363:6379   */\n      returndatasize\n        /* \"#utility.yul\":6360:6386   */\n      lt\n        /* \"#utility.yul\":6357:6396   */\n      iszero\n      tag_187\n      jumpi\n        /* \"#utility.yul\":6300:6971   */\n      swap1\n      jump\t// out\n        /* \"#utility.yul\":6357:6396   */\n    tag_187:\n        /* \"#utility.yul\":6423:6425   */\n      0x40\n        /* \"#utility.yul\":6417:6426   */\n      mload\n      not(0x03)\n        /* \"#utility.yul\":6488:6504   */\n      returndatasize\n        /* \"#utility.yul\":6484:6509   */\n      dup2\n      add\n        /* \"#utility.yul\":6481:6482   */\n      0x04\n        /* \"#utility.yul\":6417:6426   */\n      dup4\n        /* \"#utility.yul\":6460:6510   */\n      returndatacopy\n        /* \"#utility.yul\":6539:6543   */\n      dup2\n        /* \"#utility.yul\":6533:6544   */\n      mload\n        /* \"#utility.yul\":6563:6579   */\n      returndatasize\n        /* \"#utility.yul\":6598:6616   */\n      0xffffffffffffffff\n        /* \"#utility.yul\":6669:6671   */\n      dup2\n        /* \"#utility.yul\":6662:6666   */\n      0x24\n        /* \"#utility.yul\":6654:6660   */\n      dup5\n        /* \"#utility.yul\":6650:6667   */\n      add\n        /* \"#utility.yul\":6647:6672   */\n      gt\n        /* \"#utility.yul\":6642:6644   */\n      dup2\n        /* \"#utility.yul\":6634:6640   */\n      dup5\n        /* \"#utility.yul\":6631:6645   */\n      gt\n        /* \"#utility.yul\":6628:6673   */\n      or\n        /* \"#utility.yul\":6625:6683   */\n      iszero\n      tag_188\n      jumpi\n        /* \"#utility.yul\":6676:6681   */\n      pop\n      pop\n      pop\n      pop\n      pop\n        /* \"#utility.yul\":6300:6971   */\n      swap1\n      jump\t// out\n        /* \"#utility.yul\":6625:6683   */\n    tag_188:\n        /* \"#utility.yul\":6713:6719   */\n      dup3\n        /* \"#utility.yul\":6707:6711   */\n      dup6\n        /* \"#utility.yul\":6703:6720   */\n      add\n        /* \"#utility.yul\":6692:6720   */\n      swap2\n      pop\n        /* \"#utility.yul\":6749:6752   */\n      dup2\n        /* \"#utility.yul\":6743:6753   */\n      mload\n        /* \"#utility.yul\":6776:6778   */\n      dup2\n        /* \"#utility.yul\":6768:6774   */\n      dup2\n        /* \"#utility.yul\":6765:6779   */\n      gt\n        /* \"#utility.yul\":6762:6789   */\n      iszero\n      tag_189\n      jumpi\n        /* \"#utility.yul\":6782:6787   */\n      pop\n      pop\n      pop\n      pop\n      pop\n      pop\n        /* \"#utility.yul\":6300:6971   */\n      swap1\n      jump\t// out\n        /* \"#utility.yul\":6762:6789   */\n    tag_189:\n        /* \"#utility.yul\":6866:6868   */\n      dup5\n        /* \"#utility.yul\":6847:6863   */\n      returndatasize\n        /* \"#utility.yul\":6841:6845   */\n      dup8\n        /* \"#utility.yul\":6837:6864   */\n      add\n        /* \"#utility.yul\":6833:6869   */\n      add\n        /* \"#utility.yul\":6826:6830   */\n      0x20\n        /* \"#utility.yul\":6817:6823   */\n      dup3\n        /* \"#utility.yul\":6812:6815   */\n      dup6\n        /* \"#utility.yul\":6808:6824   */\n      add\n        /* \"#utility.yul\":6804:6831   */\n      add\n        /* \"#utility.yul\":6801:6870   */\n      gt\n        /* \"#utility.yul\":6798:6880   */\n      iszero\n      tag_190\n      jumpi\n        /* \"#utility.yul\":6873:6878   */\n      pop\n      pop\n      pop\n      pop\n      pop\n      pop\n        /* \"#utility.yul\":6300:6971   */\n      swap1\n      jump\t// out\n        /* \"#utility.yul\":6798:6880   */\n    tag_190:\n        /* \"#utility.yul\":6889:6946   */\n      tag_191\n        /* \"#utility.yul\":6940:6944   */\n      0x20\n        /* \"#utility.yul\":6931:6937   */\n      dup3\n        /* \"#utility.yul\":6923:6929   */\n      dup7\n        /* \"#utility.yul\":6919:6938   */\n      add\n        /* \"#utility.yul\":6915:6945   */\n      add\n        /* \"#utility.yul\":6909:6913   */\n      dup8\n        /* \"#utility.yul\":6889:6946   */\n      tag_143\n      jump\t// in\n    tag_191:\n      pop\n        /* \"#utility.yul\":6962:6965   */\n      swap1\n      swap6\n        /* \"#utility.yul\":6300:6971   */\n      swap5\n      pop\n      pop\n      pop\n      pop\n      pop\n      jump\t// out\n        /* \"#utility.yul\":6976:7465   */\n    tag_105:\n        /* \"#utility.yul\":7153:7159   */\n      dup3\n        /* \"#utility.yul\":7142:7151   */\n      dup2\n        /* \"#utility.yul\":7135:7160   */\n      mstore\n        /* \"#utility.yul\":7196:7198   */\n      0x40\n        /* \"#utility.yul\":7191:7193   */\n      0x20\n        /* \"#utility.yul\":7180:7189   */\n      dup3\n        /* \"#utility.yul\":7176:7194   */\n      add\n        /* \"#utility.yul\":7169:7199   */\n      mstore\n        /* \"#utility.yul\":7116:7120   */\n      0x00\n        /* \"#utility.yul\":7228:7234   */\n      dup3\n        /* \"#utility.yul\":7222:7235   */\n      mload\n        /* \"#utility.yul\":7271:7277   */\n      dup1\n        /* \"#utility.yul\":7266:7268   */\n      0x40\n        /* \"#utility.yul\":7255:7264   */\n      dup5\n        /* \"#utility.yul\":7251:7269   */\n      add\n        /* \"#utility.yul\":7244:7278   */\n      mstore\n        /* \"#utility.yul\":7330:7336   */\n      dup1\n        /* \"#utility.yul\":7325:7327   */\n      0x20\n        /* \"#utility.yul\":7317:7323   */\n      dup6\n        /* \"#utility.yul\":7313:7328   */\n      add\n        /* \"#utility.yul\":7308:7310   */\n      0x60\n        /* \"#utility.yul\":7297:7306   */\n      dup6\n        /* \"#utility.yul\":7293:7311   */\n      add\n        /* \"#utility.yul\":7287:7337   */\n      mcopy\n        /* \"#utility.yul\":7386:7387   */\n      0x00\n        /* \"#utility.yul\":7381:7383   */\n      0x60\n        /* \"#utility.yul\":7372:7378   */\n      dup3\n        /* \"#utility.yul\":7361:7370   */\n      dup6\n        /* \"#utility.yul\":7357:7379   */\n      add\n        /* \"#utility.yul\":7353:7384   */\n      add\n        /* \"#utility.yul\":7346:7388   */\n      mstore\n        /* \"#utility.yul\":7456:7458   */\n      0x60\n        /* \"#utility.yul\":7449:7451   */\n      0x1f\n        /* \"#utility.yul\":7445:7452   */\n      not\n        /* \"#utility.yul\":7440:7442   */\n      0x1f\n        /* \"#utility.yul\":7432:7438   */\n      dup4\n        /* \"#utility.yul\":7428:7443   */\n      add\n        /* \"#utility.yul\":7424:7453   */\n      and\n        /* \"#utility.yul\":7413:7422   */\n      dup5\n        /* \"#utility.yul\":7409:7454   */\n      add\n        /* \"#utility.yul\":7405:7459   */\n      add\n        /* \"#utility.yul\":7397:7459   */\n      swap2\n      pop\n      pop\n        /* \"#utility.yul\":6976:7465   */\n      swap4\n      swap3\n      pop\n      pop\n      pop\n      jump\t// out\n        /* \"#utility.yul\":7884:8019   */\n    tag_113:\n        /* \"#utility.yul\":7923:7926   */\n      0x00\n        /* \"#utility.yul\":7944:7961   */\n      0x01\n      dup3\n      add\n        /* \"#utility.yul\":7941:7984   */\n      tag_196\n      jumpi\n        /* \"#utility.yul\":7964:7982   */\n      tag_196\n      tag_142\n      jump\t// in\n    tag_196:\n      pop\n        /* \"#utility.yul\":8011:8012   */\n      0x01\n        /* \"#utility.yul\":8000:8013   */\n      add\n      swap1\n        /* \"#utility.yul\":7884:8019   */\n      jump\t// out\n\n    auxdata: 0xa2646970667358221220bbe56c2605a09e30efc0c687afa7927938051931166343b60706334618c4285d64736f6c63430008190033\n}\n",
    "bytecode": {
      "linkReferences": {},
      "object": "608060405234801561000f575f80fd5b50604051610c09380380610c0983398101604081905261002e9161012c565b338061005457604051631e4fbdf760e01b81525f60048201526024015b60405180910390fd5b61005d816100dd565b50600180556001600160a01b0381166100b85760405162461bcd60e51b815260206004820152601c60248201527f546f6b656e20616464726573732063616e6e6f74206265207a65726f00000000604482015260640161004b565b600280546001600160a01b0319166001600160a01b0392909216919091179055610159565b5f80546001600160a01b038381166001600160a01b0319831681178455604051919092169283917f8be0079c531659141344cd1fd0a4f28419497f9722a3daafe3b4186f6b6457e09190a35050565b5f6020828403121561013c575f80fd5b81516001600160a01b0381168114610152575f80fd5b9392505050565b610aa3806101665f395ff3fe608060405234801561000f575f80fd5b506004361061007a575f3560e01c806388d695b21161005857806388d695b2146100ae5780638da5cb5b146100d4578063bb285b94146100f8578063f2fde38b1461010b575f80fd5b80631171bda91461007e5780636691461a14610093578063715018a6146100a6575b5f80fd5b61009161008c3660046107d6565b61011e565b005b6100916100a136600461080f565b6101f7565b610091610284565b6100c16100bc366004610877565b610297565b6040519081526020015b60405180910390f35b5f546001600160a01b03165b6040516001600160a01b0390911681526020016100cb565b6002546100e0906001600160a01b031681565b61009161011936600461080f565b6106cc565b610126610709565b6001600160a01b0382166101815760405162461bcd60e51b815260206004820152601e60248201527f43616e6e6f74207265636f76657220746f207a65726f2061646472657373000060448201526064015b60405180910390fd5b60405163a9059cbb60e01b81526001600160a01b0383811660048301526024820183905284169063a9059cbb906044016020604051808303815f875af11580156101cd573d5f803e3d5ffd5b505050506040513d601f19601f820116820180604052508101906101f191906108de565b50505050565b6101ff610709565b6001600160a01b0381166102555760405162461bcd60e51b815260206004820152601c60248201527f546f6b656e20616464726573732063616e6e6f74206265207a65726f000000006044820152606401610178565b6002805473ffffffffffffffffffffffffffffffffffffffff19166001600160a01b0392909216919091179055565b61028c610709565b6102955f610735565b565b5f6102a0610791565b8382146102ef5760405162461bcd60e51b815260206004820152601b60248201527f417272617973206d75737420626520657175616c206c656e67746800000000006044820152606401610178565b8361033c5760405162461bcd60e51b815260206004820152601760248201527f4261746368206d757374206e6f7420626520656d7074790000000000000000006044820152606401610178565b505f80805b838110156103775784848281811061035b5761035b6108fd565b905060200201358261036d9190610925565b9150600101610341565b505f5b8581101561067e575f878783818110610395576103956108fd565b90506020020160208101906103aa919061080f565b90505f8686848181106103bf576103bf6108fd565b60200291909101359150506001600160a01b03821661045757816001600160a01b03167f67781638a661ffa69e6aa63d85b71d6511c6cf2be85cc5cf1fb91815054ddbb082604051610448918152604060208201819052600c908201527f5a65726f20616464726573730000000000000000000000000000000000000000606082015260800190565b60405180910390a25050610676565b6002546040516323b872dd60e01b81523360048201526001600160a01b03848116602483015260448201849052909116906323b872dd906064016020604051808303815f875af19250505080156104cb575060408051601f3d908101601f191682019092526104c8918101906108de565b60015b6105e0576104d761093e565b806308c379a00361053f57506104eb610990565b806104f65750610541565b826001600160a01b03167f67781638a661ffa69e6aa63d85b71d6511c6cf2be85cc5cf1fb91815054ddbb08383604051610531929190610a19565b60405180910390a250610673565b505b3d80801561056a576040519150601f19603f3d011682016040523d82523d5f602084013e61056f565b606091505b50826001600160a01b03167f67781638a661ffa69e6aa63d85b71d6511c6cf2be85cc5cf1fb91815054ddbb083604051610531918152604060208201819052600d908201527f556e6b6e6f776e206572726f7200000000000000000000000000000000000000606082015260800190565b80156105f857856105f081610a55565b965050610671565b826001600160a01b03167f67781638a661ffa69e6aa63d85b71d6511c6cf2be85cc5cf1fb91815054ddbb0836040516106689181526040602082018190526017908201527f5472616e736665722072657475726e65642066616c7365000000000000000000606082015260800190565b60405180910390a25b505b50505b60010161037a565b50604080518381526020810183905233917f8903ead3f8a739b2bb84406eae5d8b2f9d93946abc11f7fd5c4a68024d15bd05910160405180910390a2506106c460018055565b949350505050565b6106d4610709565b6001600160a01b0381166106fd57604051631e4fbdf760e01b81525f6004820152602401610178565b61070681610735565b50565b5f546001600160a01b031633146102955760405163118cdaa760e01b8152336004820152602401610178565b5f80546001600160a01b0383811673ffffffffffffffffffffffffffffffffffffffff19831681178455604051919092169283917f8be0079c531659141344cd1fd0a4f28419497f9722a3daafe3b4186f6b6457e09190a35050565b6002600154036107b457604051633ee5aeb560e01b815260040160405180910390fd5b6002600155565b80356001600160a01b03811681146107d1575f80fd5b919050565b5f805f606084860312156107e8575f80fd5b6107f1846107bb565b92506107ff602085016107bb565b9150604084013590509250925092565b5f6020828403121561081f575f80fd5b610828826107bb565b9392505050565b5f8083601f84011261083f575f80fd5b50813567ffffffffffffffff811115610856575f80fd5b6020830191508360208260051b8501011115610870575f80fd5b9250929050565b5f805f806040858703121561088a575f80fd5b843567ffffffffffffffff808211156108a1575f80fd5b6108ad8883890161082f565b909650945060208701359150808211156108c5575f80fd5b506108d28782880161082f565b95989497509550505050565b5f602082840312156108ee575f80fd5b81518015158114610828575f80fd5b634e487b7160e01b5f52603260045260245ffd5b634e487b7160e01b5f52601160045260245ffd5b8082018082111561093857610938610911565b92915050565b5f60033d11156109545760045f803e505f5160e01c5b90565b601f8201601f1916810167ffffffffffffffff8111828210171561098957634e487b7160e01b5f52604160045260245ffd5b6040525050565b5f60443d101561099d5790565b6040516003193d81016004833e81513d67ffffffffffffffff81602484011181841117156109cd57505050505090565b82850191508151818111156109e55750505050505090565b843d87010160208285010111156109ff5750505050505090565b610a0e60208286010187610957565b509095945050505050565b828152604060208201525f82518060408401528060208501606085015e5f606082850101526060601f19601f8301168401019150509392505050565b5f60018201610a6657610a66610911565b506001019056fea2646970667358221220bbe56c2605a09e30efc0c687afa7927938051931166343b60706334618c4285d64736f6c63430008190033",
      "opcodes": "PUSH1 0x80 PUSH1 0x40 MSTORE CALLVALUE DUP1 ISZERO PUSH2 0xF JUMPI PUSH0 DUP1 REVERT JUMPDEST POP PUSH1 0x40 MLOAD PUSH2 0xC09 CODESIZE SUB DUP1 PUSH2 0xC09 DUP4 CODECOPY DUP2 ADD PUSH1 0x40 DUP2 SWAP1 MSTORE PUSH2 0x2E SWAP2 PUSH2 0x12C JUMP JUMPDEST CALLER DUP1 PUSH2 0x54 JUMPI PUSH1 0x40 MLOAD PUSH4 0x1E4FBDF7 PUSH1 0xE0 SHL DUP2 MSTORE PUSH0 PUSH1 0x4 DUP3 ADD MSTORE PUSH1 0x24 ADD JUMPDEST PUSH1 0x40 MLOAD DUP1 SWAP2 SUB SWAP1 REVERT JUMPDEST PUSH2 0x5D DUP2 PUSH2 0xDD JUMP JUMPDEST POP PUSH1 0x1 DUP1 SSTORE PUSH1 0x1 PUSH1 0x1 PUSH1 0xA0 SHL SUB DUP2 AND PUSH2 0xB8 JUMPI PUSH1 0x40 MLOAD PUSH3 0x461BCD PUSH1 0xE5 SHL DUP2 MSTORE PUSH1 0x20 PUSH1 0x4 DUP3 ADD MSTORE PUSH1 0x1C PUSH1 0x24 DUP3 ADD MSTORE PUSH32 0x546F6B656E20616464726573732063616E6E6F74206265207A65726F00000000 PUSH1 0x44 DUP3 ADD MSTORE PUSH1 0x64 ADD PUSH2 0x4B JUMP JUMPDEST PUSH1 0x2 DUP1 SLOAD PUSH1 0x1 PUSH1 0x1 PUSH1 0xA0 SHL SUB NOT AND PUSH1 0x1 PUSH1 0x1 PUSH1 0xA0 SHL SUB SWAP3 SWAP1 SWAP3 AND SWAP2 SWAP1 SWAP2 OR SWAP1 SSTORE PUSH2 0x159 JUMP JUMPDEST PUSH0 DUP1 SLOAD PUSH1 0x1 PUSH1 0x1 PUSH1 0xA0 SHL SUB DUP4 DUP2 AND PUSH1 0x1 PUSH1 0x1 PUSH1 0xA0 SHL SUB NOT DUP4 AND DUP2 OR DUP5 SSTORE PUSH1 0x40 MLOAD SWAP2 SWAP1 SWAP3 AND SWAP3 DUP4 SWAP2 PUSH32 0x8BE0079C531659141344CD1FD0A4F28419497F9722A3DAAFE3B4186F6B6457E0 SWAP2 SWAP1 LOG3 POP POP JUMP JUMPDEST PUSH0 PUSH1 0x20 DUP3 DUP5 SUB SLT ISZERO PUSH2 0x13C JUMPI PUSH0 DUP1 REVERT JUMPDEST DUP2 MLOAD PUSH1 0x1 PUSH1 0x1 PUSH1 0xA0 SHL SUB DUP2 AND DUP2 EQ PUSH2 0x152 JUMPI PUSH0 DUP1 REVERT JUMPDEST SWAP4 SWAP3 POP POP POP JUMP JUMPDEST PUSH2 0xAA3 DUP1 PUSH2 0x166 PUSH0 CODECOPY PUSH0 RETURN INVALID PUSH1 0x80 PUSH1 0x40 MSTORE CALLVALUE DUP1 ISZERO PUSH2 0xF JUMPI PUSH0 DUP1 REVERT JUMPDEST POP PUSH1 0x4 CALLDATASIZE LT PUSH2 0x7A JUMPI PUSH0 CALLDATALOAD PUSH1 0xE0 SHR DUP1 PUSH4 0x88D695B2 GT PUSH2 0x58 JUMPI DUP1 PUSH4 0x88D695B2 EQ PUSH2 0xAE JUMPI DUP1 PUSH4 0x8DA5CB5B EQ PUSH2 0xD4 JUMPI DUP1 PUSH4 0xBB285B94 EQ PUSH2 0xF8 JUMPI DUP1 PUSH4 0xF2FDE38B EQ PUSH2 0x10B JUMPI PUSH0 DUP1 REVERT JUMPDEST DUP1 PUSH4 0x1171BDA9 EQ PUSH2 0x7E JUMPI DUP1 PUSH4 0x6691461A EQ PUSH2 0x93 JUMPI DUP1 PUSH4 0x715018A6 EQ PUSH2 0xA6 JUMPI JUMPDEST PUSH0 DUP1 REVERT JUMPDEST PUSH2 0x91 PUSH2 0x8C CALLDATASIZE PUSH1 0x4 PUSH2 0x7D6 JUMP JUMPDEST PUSH2 0x11E JUMP JUMPDEST STOP JUMPDEST PUSH2 0x91 PUSH2 0xA1 CALLDATASIZE PUSH1 0x4 PUSH2 0x80F JUMP JUMPDEST PUSH2 0x1F7 JUMP JUMPDEST PUSH2 0x91 PUSH2 0x284 JUMP JUMPDEST PUSH2 0xC1 PUSH2 0xBC CALLDATASIZE PUSH1 0x4 PUSH2 0x877 JUMP JUMPDEST PUSH2 0x297 JUMP JUMPDEST PUSH1 0x40 MLOAD SWAP1 DUP2 MSTORE PUSH1 0x20 ADD JUMPDEST PUSH1 0x40 MLOAD DUP1 SWAP2 SUB SWAP1 RETURN JUMPDEST PUSH0 SLOAD PUSH1 0x1 PUSH1 0x1 PUSH1 0xA0 SHL SUB AND JUMPDEST PUSH1 0x40 MLOAD PUSH1 0x1 PUSH1 0x1 PUSH1 0xA0 SHL SUB SWAP1 SWAP2 AND DUP2 MSTORE PUSH1 0x20 ADD PUSH2 0xCB JUMP JUMPDEST PUSH1 0x2 SLOAD PUSH2 0xE0 SWAP1 PUSH1 0x1 PUSH1 0x1 PUSH1 0xA0 SHL SUB AND DUP2 JUMP JUMPDEST PUSH2 0x91 PUSH2 0x119 CALLDATASIZE PUSH1 0x4 PUSH2 0x80F JUMP JUMPDEST PUSH2 0x6CC JUMP JUMPDEST PUSH2 0x126 PUSH2 0x709 JUMP JUMPDEST PUSH1 0x1 PUSH1 0x1 PUSH1 0xA0 SHL SUB DUP3 AND PUSH2 0x181 JUMPI PUSH1 0x40 MLOAD PUSH3 0x461BCD PUSH1 0xE5 SHL DUP2 MSTORE PUSH1 0x20 PUSH1 0x4 DUP3 ADD MSTORE PUSH1 0x1E PUSH1 0x24 DUP3 ADD MSTORE PUSH32 0x43616E6E6F74207265636F76657220746F207A65726F20616464726573730000 PUSH1 0x44 DUP3 ADD MSTORE PUSH1 0x64 ADD JUMPDEST PUSH1 0x40 MLOAD DUP1 SWAP2 SUB SWAP1 REVERT JUMPDEST PUSH1 0x40 MLOAD PUSH4 0xA9059CBB PUSH1 0xE0 SHL DUP2 MSTORE PUSH1 0x1 PUSH1 0x1 PUSH1 0xA0 SHL SUB DUP4 DUP2 AND PUSH1 0x4 DUP4 ADD MSTORE PUSH1 0x24 DUP3 ADD DUP4 SWAP1 MSTORE DUP5 AND SWAP1 PUSH4 0xA9059CBB SWAP1 PUSH1 0x44 ADD PUSH1 0x20 PUSH1 0x40 MLOAD DUP1 DUP4 SUB DUP2 PUSH0 DUP8 GAS CALL ISZERO DUP1 ISZERO PUSH2 0x1CD JUMPI RETURNDATASIZE PUSH0 DUP1 RETURNDATACOPY RETURNDATASIZE PUSH0 REVERT JUMPDEST POP POP POP POP PUSH1 0x40 MLOAD RETURNDATASIZE PUSH1 0x1F NOT PUSH1 0x1F DUP3 ADD AND DUP3 ADD DUP1 PUSH1 0x40 MSTORE POP DUP2 ADD SWAP1 PUSH2 0x1F1 SWAP2 SWAP1 PUSH2 0x8DE JUMP JUMPDEST POP POP POP POP JUMP JUMPDEST PUSH2 0x1FF PUSH2 0x709 JUMP JUMPDEST PUSH1 0x1 PUSH1 0x1 PUSH1 0xA0 SHL SUB DUP2 AND PUSH2 0x255 JUMPI PUSH1 0x40 MLOAD PUSH3 0x461BCD PUSH1 0xE5 SHL DUP2 MSTORE PUSH1 0x20 PUSH1 0x4 DUP3 ADD MSTORE PUSH1 0x1C PUSH1 0x24 DUP3 ADD MSTORE PUSH32 0x546F6B656E20616464726573732063616E6E6F74206265207A65726F00000000 PUSH1 0x44 DUP3 ADD MSTORE PUSH1 0x64 ADD PUSH2 0x178 JUMP JUMPDEST PUSH1 0x2 DUP1 SLOAD PUSH20 0xFFFFFFFFFFFFFFFFFFFFFFFFFFFFFFFFFFFFFFFF NOT AND PUSH1 0x1 PUSH1 0x1 PUSH1 0xA0 SHL SUB SWAP3 SWAP1 SWAP3 AND SWAP2 SWAP1 SWAP2 OR SWAP1 SSTORE JUMP JUMPDEST PUSH2 0x28C PUSH2 0x709 JUMP JUMPDEST PUSH2 0x295 PUSH0 PUSH2 0x735 JUMP JUMPDEST JUMP JUMPDEST PUSH0 PUSH2 0x2A0 PUSH2 0x791 JUMP JUMPDEST DUP4 DUP3 EQ PUSH2 0x2EF JUMPI PUSH1 0x40 MLOAD PUSH3 0x461BCD PUSH1 0xE5 SHL DUP2 MSTORE PUSH1 0x20 PUSH1 0x4 DUP3 ADD MSTORE PUSH1 0x1B PUSH1 0x24 DUP3 ADD MSTORE PUSH32 0x417272617973206D75737420626520657175616C206C656E6774680000000000 PUSH1 0x44 DUP3 ADD MSTORE PUSH1 0x64 ADD PUSH2 0x178 JUMP JUMPDEST DUP4 PUSH2 0x33C JUMPI PUSH1 0x40 MLOAD PUSH3 0x461BCD PUSH1 0xE5 SHL DUP2 MSTORE PUSH1 0x20 PUSH1 0x4 DUP3 ADD MSTORE PUSH1 0x17 PUSH1 0x24 DUP3 ADD MSTORE PUSH32 0x4261746368206D757374206E6F7420626520656D707479000000000000000000 PUSH1 0x44 DUP3 ADD MSTORE PUSH1 0x64 ADD PUSH2 0x178 JUMP JUMPDEST POP PUSH0 DUP1 DUP1 JUMPDEST DUP4 DUP2 LT ISZERO PUSH2 0x377 JUMPI DUP5 DUP5 DUP3 DUP2 DUP2 LT PUSH2 0x35B JUMPI PUSH2 0x35B PUSH2 0x8FD JUMP JUMPDEST SWAP1 POP PUSH1 0x20 MUL ADD CALLDATALOAD DUP3 PUSH2 0x36D SWAP2 SWAP1 PUSH2 0x925 JUMP JUMPDEST SWAP2 POP PUSH1 0x1 ADD PUSH2 0x341 JUMP JUMPDEST POP PUSH0 JUMPDEST DUP6 DUP2 LT ISZERO PUSH2 0x67E JUMPI PUSH0 DUP8 DUP8 DUP4 DUP2 DUP2 LT PUSH2 0x395 JUMPI PUSH2 0x395 PUSH2 0x8FD JUMP JUMPDEST SWAP1 POP PUSH1 0x20 MUL ADD PUSH1 0x20 DUP2 ADD SWAP1 PUSH2 0x3AA SWAP2 SWAP1 PUSH2 0x80F JUMP JUMPDEST SWAP1 POP PUSH0 DUP7 DUP7 DUP5 DUP2 DUP2 LT PUSH2 0x3BF JUMPI PUSH2 0x3BF PUSH2 0x8FD JUMP JUMPDEST PUSH1 0x20 MUL SWAP2 SWAP1 SWAP2 ADD CALLDATALOAD SWAP2 POP POP PUSH1 0x1 PUSH1 0x1 PUSH1 0xA0 SHL SUB DUP3 AND PUSH2 0x457 JUMPI DUP2 PUSH1 0x1 PUSH1 0x1 PUSH1 0xA0 SHL SUB AND PUSH32 0x67781638A661FFA69E6AA63D85B71D6511C6CF2BE85CC5CF1FB91815054DDBB0 DUP3 PUSH1 0x40 MLOAD PUSH2 0x448 SWAP2 DUP2 MSTORE PUSH1 0x40 PUSH1 0x20 DUP3 ADD DUP2 SWAP1 MSTORE PUSH1 0xC SWAP1 DUP3 ADD MSTORE PUSH32 0x5A65726F20616464726573730000000000000000000000000000000000000000 PUSH1 0x60 DUP3 ADD MSTORE PUSH1 0x80 ADD SWAP1 JUMP JUMPDEST PUSH1 0x40 MLOAD DUP1 SWAP2 SUB SWAP1 LOG2 POP POP PUSH2 0x676 JUMP JUMPDEST PUSH1 0x2 SLOAD PUSH1 0x40 MLOAD PUSH4 0x23B872DD PUSH1 0xE0 SHL DUP2 MSTORE CALLER PUSH1 0x4 DUP3 ADD MSTORE PUSH1 0x1 PUSH1 0x1 PUSH1 0xA0 SHL SUB DUP5 DUP2 AND PUSH1 0x24 DUP4 ADD MSTORE PUSH1 0x44 DUP3 ADD DUP5 SWAP1 MSTORE SWAP1 SWAP2 AND SWAP1 PUSH4 0x23B872DD SWAP1 PUSH1 0x64 ADD PUSH1 0x20 PUSH1 0x40 MLOAD DUP1 DUP4 SUB DUP2 PUSH0 DUP8 GAS CALL SWAP3 POP POP POP DUP1 ISZERO PUSH2 0x4CB JUMPI POP PUSH1 0x40 DUP1 MLOAD PUSH1 0x1F RETURNDATASIZE SWAP1 DUP2 ADD PUSH1 0x1F NOT AND DUP3 ADD SWAP1 SWAP3 MSTORE PUSH2 0x4C8 SWAP2 DUP2 ADD SWAP1 PUSH2 0x8DE JUMP JUMPDEST PUSH1 0x1 JUMPDEST PUSH2 0x5E0 JUMPI PUSH2 0x4D7 PUSH2 0x93E JUMP JUMPDEST DUP1 PUSH4 0x8C379A0 SUB PUSH2 0x53F JUMPI POP PUSH2 0x4EB PUSH2 0x990 JUMP JUMPDEST DUP1 PUSH2 0x4F6 JUMPI POP PUSH2 0x541 JUMP JUMPDEST DUP3 PUSH1 0x1 PUSH1 0x1 PUSH1 0xA0 SHL SUB AND PUSH32 0x67781638A661FFA69E6AA63D85B71D6511C6CF2BE85CC5CF1FB91815054DDBB0 DUP4 DUP4 PUSH1 0x40 MLOAD PUSH2 0x531 SWAP3 SWAP2 SWAP1 PUSH2 0xA19 JUMP JUMPDEST PUSH1 0x40 MLOAD DUP1 SWAP2 SUB SWAP1 LOG2 POP PUSH2 0x673 JUMP JUMPDEST POP JUMPDEST RETURNDATASIZE DUP1 DUP1 ISZERO PUSH2 0x56A JUMPI PUSH1 0x40 MLOAD SWAP2 POP PUSH1 0x1F NOT PUSH1 0x3F RETURNDATASIZE ADD AND DUP3 ADD PUSH1 0x40 MSTORE RETURNDATASIZE DUP3 MSTORE RETURNDATASIZE PUSH0 PUSH1 0x20 DUP5 ADD RETURNDATACOPY PUSH2 0x56F JUMP JUMPDEST PUSH1 0x60 SWAP2 POP JUMPDEST POP DUP3 PUSH1 0x1 PUSH1 0x1 PUSH1 0xA0 SHL SUB AND PUSH32 0x67781638A661FFA69E6AA63D85B71D6511C6CF2BE85CC5CF1FB91815054DDBB0 DUP4 PUSH1 0x40 MLOAD PUSH2 0x531 SWAP2 DUP2 MSTORE PUSH1 0x40 PUSH1 0x20 DUP3 ADD DUP2 SWAP1 MSTORE PUSH1 0xD SWAP1 DUP3 ADD MSTORE PUSH32 0x556E6B6E6F776E206572726F7200000000000000000000000000000000000000 PUSH1 0x60 DUP3 ADD MSTORE PUSH1 0x80 ADD SWAP1 JUMP JUMPDEST DUP1 ISZERO PUSH2 0x5F8 JUMPI DUP6 PUSH2 0x5F0 DUP2 PUSH2 0xA55 JUMP JUMPDEST SWAP7 POP POP PUSH2 0x671 JUMP JUMPDEST DUP3 PUSH1 0x1 PUSH1 0x1 PUSH1 0xA0 SHL SUB AND PUSH32 0x67781638A661FFA69E6AA63D85B71D6511C6CF2BE85CC5CF1FB91815054DDBB0 DUP4 PUSH1 0x40 MLOAD PUSH2 0x668 SWAP2 DUP2 MSTORE PUSH1 0x40 PUSH1 0x20 DUP3 ADD DUP2 SWAP1 MSTORE PUSH1 0x17 SWAP1 DUP3 ADD MSTORE PUSH32 0x5472616E736665722072657475726E65642066616C7365000000000000000000 PUSH1 0x60 DUP3 ADD MSTORE PUSH1 0x80 ADD SWAP1 JUMP JUMPDEST PUSH1 0x40 MLOAD DUP1 SWAP2 SUB SWAP1 LOG2 JUMPDEST POP JUMPDEST POP POP JUMPDEST PUSH1 0x1 ADD PUSH2 0x37A JUMP JUMPDEST POP PUSH1 0x40 DUP1 MLOAD DUP4 DUP2 MSTORE PUSH1 0x20 DUP2 ADD DUP4 SWAP1 MSTORE CALLER SWAP2 PUSH32 0x8903EAD3F8A739B2BB84406EAE5D8B2F9D93946ABC11F7FD5C4A68024D15BD05 SWAP2 ADD PUSH1 0x40 MLOAD DUP1 SWAP2 SUB SWAP1 LOG2 POP PUSH2 0x6C4 PUSH1 0x1 DUP1 SSTORE JUMP JUMPDEST SWAP5 SWAP4 POP POP POP POP JUMP JUMPDEST PUSH2 0x6D4 PUSH2 0x709 JUMP JUMPDEST PUSH1 0x1 PUSH1 0x1 PUSH1 0xA0 SHL SUB DUP2 AND PUSH2 0x6FD JUMPI PUSH1 0x40 MLOAD PUSH4 0x1E4FBDF7 PUSH1 0xE0 SHL DUP2 MSTORE PUSH0 PUSH1 0x4 DUP3 ADD MSTORE PUSH1 0x24 ADD PUSH2 0x178 JUMP JUMPDEST PUSH2 0x706 DUP2 PUSH2 0x735 JUMP JUMPDEST POP JUMP JUMPDEST PUSH0 SLOAD PUSH1 0x1 PUSH1 0x1 PUSH1 0xA0 SHL SUB AND CALLER EQ PUSH2 0x295 JUMPI PUSH1 0x40 MLOAD PUSH4 0x118CDAA7 PUSH1 0xE0 SHL DUP2 MSTORE CALLER PUSH1 0x4 DUP3 ADD MSTORE PUSH1 0x24 ADD PUSH2 0x178 JUMP JUMPDEST PUSH0 DUP1 SLOAD PUSH1 0x1 PUSH1 0x1 PUSH1 0xA0 SHL SUB DUP4 DUP2 AND PUSH20 0xFFFFFFFFFFFFFFFFFFFFFFFFFFFFFFFFFFFFFFFF NOT DUP4 AND DUP2 OR DUP5 SSTORE PUSH1 0x40 MLOAD SWAP2 SWAP1 SWAP3 AND SWAP3 DUP4 SWAP2 PUSH32 0x8BE0079C531659141344CD1FD0A4F28419497F9722A3DAAFE3B4186F6B6457E0 SWAP2 SWAP1 LOG3 POP POP JUMP JUMPDEST PUSH1 0x2 PUSH1 0x1 SLOAD SUB PUSH2 0x7B4 JUMPI PUSH1 0x40 MLOAD PUSH4 0x3EE5AEB5 PUSH1 0xE0 SHL DUP2 MSTORE PUSH1 0x4 ADD PUSH1 0x40 MLOAD DUP1 SWAP2 SUB SWAP1 REVERT JUMPDEST PUSH1 0x2 PUSH1 0x1 SSTORE JUMP JUMPDEST DUP1 CALLDATALOAD PUSH1 0x1 PUSH1 0x1 PUSH1 0xA0 SHL SUB DUP2 AND DUP2 EQ PUSH2 0x7D1 JUMPI PUSH0 DUP1 REVERT JUMPDEST SWAP2 SWAP1 POP JUMP JUMPDEST PUSH0 DUP1 PUSH0 PUSH1 0x60 DUP5 DUP7 SUB SLT ISZERO PUSH2 0x7E8 JUMPI PUSH0 DUP1 REVERT JUMPDEST PUSH2 0x7F1 DUP5 PUSH2 0x7BB JUMP JUMPDEST SWAP3 POP PUSH2 0x7FF PUSH1 0x20 DUP6 ADD PUSH2 0x7BB JUMP JUMPDEST SWAP2 POP PUSH1 0x40 DUP5 ADD CALLDATALOAD SWAP1 POP SWAP3 POP SWAP3 POP SWAP3 JUMP JUMPDEST PUSH0 PUSH1 0x20 DUP3 DUP5 SUB SLT ISZERO PUSH2 0x81F JUMPI PUSH0 DUP1 REVERT JUMPDEST PUSH2 0x828 DUP3 PUSH2 0x7BB JUMP JUMPDEST SWAP4 SWAP3 POP POP POP JUMP JUMPDEST PUSH0 DUP1 DUP4 PUSH1 0x1F DUP5 ADD SLT PUSH2 0x83F JUMPI PUSH0 DUP1 REVERT JUMPDEST POP DUP2 CALLDATALOAD PUSH8 0xFFFFFFFFFFFFFFFF DUP2 GT ISZERO PUSH2 0x856 JUMPI PUSH0 DUP1 REVERT JUMPDEST PUSH1 0x20 DUP4 ADD SWAP2 POP DUP4 PUSH1 0x20 DUP3 PUSH1 0x5 SHL DUP6 ADD ADD GT ISZERO PUSH2 0x870 JUMPI PUSH0 DUP1 REVERT JUMPDEST SWAP3 POP SWAP3 SWAP1 POP JUMP JUMPDEST PUSH0 DUP1 PUSH0 DUP1 PUSH1 0x40 DUP6 DUP8 SUB SLT ISZERO PUSH2 0x88A JUMPI PUSH0 DUP1 REVERT JUMPDEST DUP5 CALLDATALOAD PUSH8 0xFFFFFFFFFFFFFFFF DUP1 DUP3 GT ISZERO PUSH2 0x8A1 JUMPI PUSH0 DUP1 REVERT JUMPDEST PUSH2 0x8AD DUP9 DUP4 DUP10 ADD PUSH2 0x82F JUMP JUMPDEST SWAP1 SWAP7 POP SWAP5 POP PUSH1 0x20 DUP8 ADD CALLDATALOAD SWAP2 POP DUP1 DUP3 GT ISZERO PUSH2 0x8C5 JUMPI PUSH0 DUP1 REVERT JUMPDEST POP PUSH2 0x8D2 DUP8 DUP3 DUP9 ADD PUSH2 0x82F JUMP JUMPDEST SWAP6 SWAP9 SWAP5 SWAP8 POP SWAP6 POP POP POP POP JUMP JUMPDEST PUSH0 PUSH1 0x20 DUP3 DUP5 SUB SLT ISZERO PUSH2 0x8EE JUMPI PUSH0 DUP1 REVERT JUMPDEST DUP2 MLOAD DUP1 ISZERO ISZERO DUP2 EQ PUSH2 0x828 JUMPI PUSH0 DUP1 REVERT JUMPDEST PUSH4 0x4E487B71 PUSH1 0xE0 SHL PUSH0 MSTORE PUSH1 0x32 PUSH1 0x4 MSTORE PUSH1 0x24 PUSH0 REVERT JUMPDEST PUSH4 0x4E487B71 PUSH1 0xE0 SHL PUSH0 MSTORE PUSH1 0x11 PUSH1 0x4 MSTORE PUSH1 0x24 PUSH0 REVERT JUMPDEST DUP1 DUP3 ADD DUP1 DUP3 GT ISZERO PUSH2 0x938 JUMPI PUSH2 0x938 PUSH2 0x911 JUMP JUMPDEST SWAP3 SWAP2 POP POP JUMP JUMPDEST PUSH0 PUSH1 0x3 RETURNDATASIZE GT ISZERO PUSH2 0x954 JUMPI PUSH1 0x4 PUSH0 DUP1 RETURNDATACOPY POP PUSH0 MLOAD PUSH1 0xE0 SHR JUMPDEST SWAP1 JUMP JUMPDEST PUSH1 0x1F DUP3 ADD PUSH1 0x1F NOT AND DUP2 ADD PUSH8 0xFFFFFFFFFFFFFFFF DUP2 GT DUP3 DUP3 LT OR ISZERO PUSH2 0x989 JUMPI PUSH4 0x4E487B71 PUSH1 0xE0 SHL PUSH0 MSTORE PUSH1 0x41 PUSH1 0x4 MSTORE PUSH1 0x24 PUSH0 REVERT JUMPDEST PUSH1 0x40 MSTORE POP POP JUMP JUMPDEST PUSH0 PUSH1 0x44 RETURNDATASIZE LT ISZERO PUSH2 0x99D JUMPI SWAP1 JUMP JUMPDEST PUSH1 0x40 MLOAD PUSH1 0x3 NOT RETURNDATASIZE DUP2 ADD PUSH1 0x4 DUP4 RETURNDATACOPY DUP2 MLOAD RETURNDATASIZE PUSH8 0xFFFFFFFFFFFFFFFF DUP2 PUSH1 0x24 DUP5 ADD GT DUP2 DUP5 GT OR ISZERO PUSH2 0x9CD JUMPI POP POP POP POP POP SWAP1 JUMP JUMPDEST DUP3 DUP6 ADD SWAP2 POP DUP2 MLOAD DUP2 DUP2 GT ISZERO PUSH2 0x9E5 JUMPI POP POP POP POP POP POP SWAP1 JUMP JUMPDEST DUP5 RETURNDATASIZE DUP8 ADD ADD PUSH1 0x20 DUP3 DUP6 ADD ADD GT ISZERO PUSH2 0x9FF JUMPI POP POP POP POP POP POP SWAP1 JUMP JUMPDEST PUSH2 0xA0E PUSH1 0x20 DUP3 DUP7 ADD ADD DUP8 PUSH2 0x957 JUMP JUMPDEST POP SWAP1 SWAP6 SWAP5 POP POP POP POP POP JUMP JUMPDEST DUP3 DUP2 MSTORE PUSH1 0x40 PUSH1 0x20 DUP3 ADD MSTORE PUSH0 DUP3 MLOAD DUP1 PUSH1 0x40 DUP5 ADD MSTORE DUP1 PUSH1 0x20 DUP6 ADD PUSH1 0x60 DUP6 ADD MCOPY PUSH0 PUSH1 0x60 DUP3 DUP6 ADD ADD MSTORE PUSH1 0x60 PUSH1 0x1F NOT PUSH1 0x1F DUP4 ADD AND DUP5 ADD ADD SWAP2 POP POP SWAP4 SWAP3 POP POP POP JUMP JUMPDEST PUSH0 PUSH1 0x1 DUP3 ADD PUSH2 0xA66 JUMPI PUSH2 0xA66 PUSH2 0x911 JUMP JUMPDEST POP PUSH1 0x1 ADD SWAP1 JUMP INVALID LOG2 PUSH5 0x6970667358 0x22 SLT KECCAK256 0xBB 0xE5 PUSH13 0x2605A09E30EFC0C687AFA79279 CODESIZE SDIV NOT BALANCE AND PUSH4 0x43B60706 CALLER CHAINID XOR 0xC4 0x28 TSTORE PUSH5 0x736F6C6343 STOP ADDMOD NOT STOP CALLER "
    },
    "gasEstimates": {
      "creation": {
        "codeDepositCost": "544600",
        "executionCost": "infinite",
        "totalCost": "infinite"
      },
      "external": {
        "batchTransfer(address[],uint256[])": "infinite",
        "owner()": "2340",
        "recoverERC20(address,address,uint256)": "infinite",
        "renounceOwnership()": "infinite",
        "roluToken()": "2380",
        "transferOwnership(address)": "28383",
        "updateTokenAddress(address)": "26778"
      }
    },
    "methodIdentifiers": {
      "batchTransfer(address[],uint256[])": "88d695b2",
      "owner()": "8da5cb5b",
      "recoverERC20(address,address,uint256)": "1171bda9",
      "renounceOwnership()": "715018a6",
      "roluToken()": "bb285b94",
      "transferOwnership(address)": "f2fde38b",
      "updateTokenAddress(address)": "6691461a"
    }
  },
  "storageLayout": {
    "storage": [
      {
        "astId": 691,
        "contract": "TokenDispatcher.sol:TokenDispatcher",
        "label": "_owner",
        "offset": 0,
        "slot": "0",
        "type": "t_address"
      },
      {
        "astId": 919,
        "contract": "TokenDispatcher.sol:TokenDispatcher",
        "label": "_status",
        "offset": 0,
        "slot": "1",
        "type": "t_uint256"
      },
      {
        "astId": 426,
        "contract": "TokenDispatcher.sol:TokenDispatcher",
        "label": "roluToken",
        "offset": 0,
        "slot": "2",
        "type": "t_contract(IERC20)908"
      }
    ],
    "types": {
      "t_address": {
        "encoding": "inplace",
        "label": "address",
        "numberOfBytes": "20"
      },
      "t_contract(IERC20)908": {
        "encoding": "inplace",
        "label": "contract IERC20",
        "numberOfBytes": "20"
      },
      "t_uint256": {
        "encoding": "inplace",
        "label": "uint256",
        "numberOfBytes": "32"
      }
    }
  },
  "userdoc": {
    "kind": "user",
    "methods": {},
    "version": 1
  }
}