{
  "abi": [
    {
      "inputs": [
        {
          "internalType": "address",
          "name": "_treasury",
          "type": "address"
        },
        {
          "internalType": "address",
          "name": "_team",
          "type": "address"
        }
      ],
      "stateMutability": "nonpayable",
      "type": "constructor"
    },
    {
      "inputs": [
        {
          "internalType": "address",
          "name": "spender",
          "type": "address"
        },
        {
          "internalType": "uint256",
          "name": "allowance",
          "type": "uint256"
        },
        {
          "internalType": "uint256",
          "name": "needed",
          "type": "uint256"
        }
      ],
      "name": "ERC20InsufficientAllowance",
      "type": "error"
    },
    {
      "inputs": [
        {
          "internalType": "address",
          "name": "sender",
          "type": "address"
        },
        {
          "internalType": "uint256",
          "name": "balance",
          "type": "uint256"
        },
        {
          "internalType": "uint256",
          "name": "needed",
          "type": "uint256"
        }
      ],
      "name": "ERC20InsufficientBalance",
      "type": "error"
    },
    {
      "inputs": [
        {
          "internalType": "address",
          "name": "approver",
          "type": "address"
        }
      ],
      "name": "ERC20InvalidApprover",
      "type": "error"
    },
    {
      "inputs": [
        {
          "internalType": "address",
          "name": "receiver",
          "type": "address"
        }
      ],
      "name": "ERC20InvalidReceiver",
      "type": "error"
    },
    {
      "inputs": [
        {
          "internalType": "address",
          "name": "sender",
          "type": "address"
        }
      ],
      "name": "ERC20InvalidSender",
      "type": "error"
    },
    {
      "inputs": [
        {
          "internalType": "address",
          "name": "spender",
          "type": "address"
        }
      ],
      "name": "ERC20InvalidSpender",
      "type": "error"
    },
    {
      "inputs": [],
      "name": "EnforcedPause",
      "type": "error"
    },
    {
      "inputs": [],
      "name": "ExpectedPause",
      "type": "error"
    },
    {
      "inputs": [
        {
          "internalType": "address",
          "name": "owner",
          "type": "address"
        }
      ],
      "name": "OwnableInvalidOwner",
      "type": "error"
    },
    {
      "inputs": [
        {
          "internalType": "address",
          "name": "account",
          "type": "address"
        }
      ],
      "name": "OwnableUnauthorizedAccount",
      "type": "error"
    },
    {
      "anonymous": false,
      "inputs": [
        {
          "indexed": true,
          "internalType": "address",
          "name": "owner",
          "type": "address"
        },
        {
          "indexed": true,
          "internalType": "address",
          "name": "spender",
          "type": "address"
        },
        {
          "indexed": false,
          "internalType": "uint256",
          "name": "value",
          "type": "uint256"
        }
      ],
      "name": "Approval",
      "type": "event"
    },
    {
      "anonymous": false,
      "inputs": [
        {
          "indexed": true,
          "internalType": "address",
          "name": "previousOwner",
          "type": "address"
        },
        {
          "indexed": true,
          "internalType": "address",
          "name": "newOwner",
          "type": "address"
        }
      ],
      "name": "OwnershipTransferred",
      "type": "event"
    },
    {
      "anonymous": false,
      "inputs": [
        {
          "indexed": false,
          "internalType": "address",
          "name": "account",
          "type": "address"
        }
      ],
      "name": "Paused",
      "type": "event"
    },
    {
      "anonymous": false,
      "inputs": [
        {
          "indexed": true,
          "internalType": "address",
          "name": "from",
          "type": "address"
        },
        {
          "indexed": true,
          "internalType": "address",
          "name": "to",
          "type": "address"
        },
        {
          "indexed": false,
          "internalType": "uint256",
          "name": "value",
          "type": "uint256"
        }
      ],
      "name": "Transfer",
      "type": "event"
    },
    {
      "anonymous": false,
      "inputs": [
        {
          "indexed": false,
          "internalType": "address",
          "name": "account",
          "type": "address"
        }
      ],
      "name": "Unpaused",
      "type": "event"
    },
    {
      "inputs": [],
      "name": "MAX_SUPPLY",
      "outputs": [
        {
          "internalType": "uint256",
          "name": "",
          "type": "uint256"
        }
      ],
      "stateMutability": "view",
      "type": "function"
    },
    {
      "inputs": [],
      "name": "TEAM_ALLOCATION",
      "outputs": [
        {
          "internalType": "uint256",
          "name": "",
          "type": "uint256"
        }
      ],
      "stateMutability": "view",
      "type": "function"
    },
    {
      "inputs": [],
      "name": "TREASURY_ALLOCATION",
      "outputs": [
        {
          "internalType": "uint256",
          "name": "",
          "type": "uint256"
        }
      ],
      "stateMutability": "view",
      "type": "function"
    },
    {
      "inputs": [
        {
          "internalType": "address",
          "name": "owner",
          "type": "address"
        },
        {
          "internalType": "address",
          "name": "spender",
          "type": "address"
        }
      ],
      "name": "allowance",
      "outputs": [
        {
          "internalType": "uint256",
          "name": "",
          "type": "uint256"
        }
      ],
      "stateMutability": "view",
      "type": "function"
    },
    {
      "inputs": [
        {
          "internalType": "address",
          "name": "spender",
          "type": "address"
        },
        {
          "internalType": "uint256",
          "name": "value",
          "type": "uint256"
        }
      ],
      "name": "approve",
      "outputs": [
        {
          "internalType": "bool",
          "name": "",
          "type": "bool"
        }
      ],
      "stateMutability": "nonpayable",
      "type": "function"
    },
    {
      "inputs": [
        {
          "internalType": "address",
          "name": "account",
          "type": "address"
        }
      ],
      "name": "balanceOf",
      "outputs": [
        {
          "internalType": "uint256",
          "name": "",
          "type": "uint256"
        }
      ],
      "stateMutability": "view",
      "type": "function"
    },
    {
      "inputs": [],
      "name": "decimals",
      "outputs": [
        {
          "internalType": "uint8",
          "name": "",
          "type": "uint8"
        }
      ],
      "stateMutability": "view",
      "type": "function"
    },
    {
      "inputs": [],
      "name": "name",
      "outputs": [
        {
          "internalType": "string",
          "name": "",
          "type": "string"
        }
      ],
      "stateMutability": "view",
      "type": "function"
    },
    {
      "inputs": [],
      "name": "owner",
      "outputs": [
        {
          "internalType": "address",
          "name": "",
          "type": "address"
        }
      ],
      "stateMutability": "view",
      "type": "function"
    },
    {
      "inputs": [],
      "name": "pause",
      "outputs": [],
      "stateMutability": "nonpayable",
      "type": "function"
    },
    {
      "inputs": [],
      "name": "paused",
      "outputs": [
        {
          "internalType": "bool",
          "name": "",
          "type": "bool"
        }
      ],
      "stateMutability": "view",
      "type": "function"
    },
    {
      "inputs": [],
      "name": "renounceOwnership",
      "outputs": [],
      "stateMutability": "nonpayable",
      "type": "function"
    },
    {
      "inputs": [],
      "name": "symbol",
      "outputs": [
        {
          "internalType": "string",
          "name": "",
          "type": "string"
        }
      ],
      "stateMutability": "view",
      "type": "function"
    },
    {
      "inputs": [],
      "name": "teamAddress",
      "outputs": [
        {
          "internalType": "address",
          "name": "",
          "type": "address"
        }
      ],
      "stateMutability": "view",
      "type": "function"
    },
    {
      "inputs": [],
      "name": "totalSupply",
      "outputs": [
        {
          "internalType": "uint256",
          "name": "",
          "type": "uint256"
        }
      ],
      "stateMutability": "view",
      "type": "function"
    },
    {
      "inputs": [
        {
          "internalType": "address",
          "name": "to",
          "type": "address"
        },
        {
          "internalType": "uint256",
          "name": "value",
          "type": "uint256"
        }
      ],
      "name": "transfer",
      "outputs": [
        {
          "internalType": "bool",
          "name": "",
          "type": "bool"
        }
      ],
      "stateMutability": "nonpayable",
      "type": "function"
    },
    {
      "inputs": [
        {
          "internalType": "address",
          "name": "from",
          "type": "address"
        },
        {
          "internalType": "address",
          "name": "to",
          "type": "address"
        },
        {
          "internalType": "uint256",
          "name": "value",
          "type": "uint256"
        }
      ],
      "name": "transferFrom",
      "outputs": [
        {
          "internalType": "bool",
          "name": "",
          "type": "bool"
        }
      ],
      "stateMutability": "nonpayable",
      "type": "function"
    },
    {
      "inputs": [
        {
          "internalType": "address",
          "name": "newOwner",
          "type": "address"
        }
      ],
      "name": "transferOwnership",
      "outputs": [],
      "stateMutability": "nonpayable",
      "type": "function"
    },
    {
      "inputs": [],
      "name": "treasuryAddress",
      "outputs": [
        {
          "internalType": "address",
          "name": "",
          "type": "address"
        }
      ],
      "stateMutability": "view",
      "type": "function"
    },
    {
      "inputs": [],
      "name": "unpause",
      "outputs": [],
      "stateMutability": "nonpayable",
      "type": "function"
    }
  ],
  "devdoc": {
    "details": "ERC20 token for the Rolu educational gaming platform - Implements pausable functionality for emergency situations - Owner can mint new tokens (used only during initial deployment) - Fixed supply of 100,000,000 tokens",
    "errors": {
      "ERC20InsufficientAllowance(address,uint256,uint256)": [
        {
          "details": "Indicates a failure with the `spender`’s `allowance`. Used in transfers.",
          "params": {
            "allowance": "Amount of tokens a `spender` is allowed to operate with.",
            "needed": "Minimum amount required to perform a transfer.",
            "spender": "Address that may be allowed to operate on tokens without being their owner."
          }
        }
      ],
      "ERC20InsufficientBalance(address,uint256,uint256)": [
        {
          "details": "Indicates an error related to the current `balance` of a `sender`. Used in transfers.",
          "params": {
            "balance": "Current balance for the interacting account.",
            "needed": "Minimum amount required to perform a transfer.",
            "sender": "Address whose tokens are being transferred."
          }
        }
      ],
      "ERC20InvalidApprover(address)": [
        {
          "details": "Indicates a failure with the `approver` of a token to be approved. Used in approvals.",
          "params": {
            "approver": "Address initiating an approval operation."
          }
        }
      ],
      "ERC20InvalidReceiver(address)": [
        {
          "details": "Indicates a failure with the token `receiver`. Used in transfers.",
          "params": {
            "receiver": "Address to which tokens are being transferred."
          }
        }
      ],
      "ERC20InvalidSender(address)": [
        {
          "details": "Indicates a failure with the token `sender`. Used in transfers.",
          "params": {
            "sender": "Address whose tokens are being transferred."
          }
        }
      ],
      "ERC20InvalidSpender(address)": [
        {
          "details": "Indicates a failure with the `spender` to be approved. Used in approvals.",
          "params": {
            "spender": "Address that may be allowed to operate on tokens without being their owner."
          }
        }
      ],
      "EnforcedPause()": [
        {
          "details": "The operation failed because the contract is paused."
        }
      ],
      "ExpectedPause()": [
        {
          "details": "The operation failed because the contract is not paused."
        }
      ],
      "OwnableInvalidOwner(address)": [
        {
          "details": "The owner is not a valid owner account. (eg. `address(0)`)"
        }
      ],
      "OwnableUnauthorizedAccount(address)": [
        {
          "details": "The caller account is not authorized to perform an operation."
        }
      ]
    },
    "events": {
      "Approval(address,address,uint256)": {
        "details": "Emitted when the allowance of a `spender` for an `owner` is set by a call to {approve}. `value` is the new allowance."
      },
      "Paused(address)": {
        "details": "Emitted when the pause is triggered by `account`."
      },
      "Transfer(address,address,uint256)": {
        "details": "Emitted when `value` tokens are moved from one account (`from`) to another (`to`). Note that `value` may be zero."
      },
      "Unpaused(address)": {
        "details": "Emitted when the pause is lifted by `account`."
      }
    },
    "kind": "dev",
    "methods": {
      "allowance(address,address)": {
        "details": "See {IERC20-allowance}."
      },
      "approve(address,uint256)": {
        "details": "See {IERC20-approve}. NOTE: If `value` is the maximum `uint256`, the allowance is not updated on `transferFrom`. This is semantically equivalent to an infinite approval. Requirements: - `spender` cannot be the zero address."
      },
      "balanceOf(address)": {
        "details": "See {IERC20-balanceOf}."
      },
      "constructor": {
        "details": "Constructor initializes the token and mints initial supply",
        "params": {
          "_team": "Team address to receive 10% of tokens",
          "_treasury": "Treasury address to receive 90% of tokens"
        }
      },
      "decimals()": {
        "details": "Returns the number of decimals used to get its user representation. For example, if `decimals` equals `2`, a balance of `505` tokens should be displayed to a user as `5.05` (`505 / 10 ** 2`). Tokens usually opt for a value of 18, imitating the relationship between Ether and Wei. This is the default value returned by this function, unless it's overridden. NOTE: This information is only used for _display_ purposes: it in no way affects any of the arithmetic of the contract, including {IERC20-balanceOf} and {IERC20-transfer}."
      },
      "name()": {
        "details": "Returns the name of the token."
      },
      "owner()": {
        "details": "Returns the address of the current owner."
      },
      "pause()": {
        "details": "Function to pause all token transfers Only callable by the owner in emergency situations"
      },
      "paused()": {
        "details": "Returns true if the contract is paused, and false otherwise."
      },
      "renounceOwnership()": {
        "details": "Leaves the contract without owner. It will not be possible to call `onlyOwner` functions. Can only be called by the current owner. NOTE: Renouncing ownership will leave the contract without an owner, thereby disabling any functionality that is only available to the owner."
      },
      "symbol()": {
        "details": "Returns the symbol of the token, usually a shorter version of the name."
      },
      "totalSupply()": {
        "details": "See {IERC20-totalSupply}."
      },
      "transfer(address,uint256)": {
        "details": "See {IERC20-transfer}. Requirements: - `to` cannot be the zero address. - the caller must have a balance of at least `value`."
      },
      "transferFrom(address,address,uint256)": {
        "details": "See {IERC20-transferFrom}. Skips emitting an {Approval} event indicating an allowance update. This is not required by the ERC. See {xref-ERC20-_approve-address-address-uint256-bool-}[_approve]. NOTE: Does not update the allowance if the current allowance is the maximum `uint256`. Requirements: - `from` and `to` cannot be the zero address. - `from` must have a balance of at least `value`. - the caller must have allowance for ``from``'s tokens of at least `value`."
      },
      "transferOwnership(address)": {
        "details": "Transfers ownership of the contract to a new account (`newOwner`). Can only be called by the current owner."
      },
      "unpause()": {
        "details": "Function to unpause all token transfers Only callable by the owner"
      }
    },
    "title": "RoluToken",
    "version": 1
  },
  "evm": {
    "assembly": "    /* \"RoluToken.sol\":505:2372  contract RoluToken is ERC20, ERC20Pausable, Ownable {... */\n  mstore(0x40, 0x80)\n    /* \"RoluToken.sol\":1225:1673  constructor(... */\n  callvalue\n  dup1\n  iszero\n  tag_1\n  jumpi\n  0x00\n  dup1\n  revert\ntag_1:\n  pop\n  mload(0x40)\n  sub(codesize, bytecodeSize)\n  dup1\n  bytecodeSize\n  dup4\n  codecopy\n  dup2\n  add\n  0x40\n  dup2\n  swap1\n  mstore\n  tag_2\n  swap2\n  tag_3\n  jump\t// in\ntag_2:\n    /* \"RoluToken.sol\":1329:1339  msg.sender */\n  caller\n    /* \"@openzeppelin/contracts/token/ERC20/ERC20.sol\":1582:1695   */\n  mload(0x40)\n  dup1\n  0x40\n  add\n  0x40\n  mstore\n  dup1\n  0x0a\n  dup2\n  mstore\n  0x20\n  add\n  shl(0xb1, 0x2937b63a902a37b5b2b7)\n  dup2\n  mstore\n  pop\n  mload(0x40)\n  dup1\n  0x40\n  add\n  0x40\n  mstore\n  dup1\n  0x04\n  dup2\n  mstore\n  0x20\n  add\n  shl(0xe0, 0x524f4c55)\n  dup2\n  mstore\n  pop\n    /* \"@openzeppelin/contracts/token/ERC20/ERC20.sol\":1656:1661   */\n  dup2\n    /* \"@openzeppelin/contracts/token/ERC20/ERC20.sol\":1648:1653   */\n  0x03\n    /* \"@openzeppelin/contracts/token/ERC20/ERC20.sol\":1648:1661   */\n  swap1\n  dup2\n  tag_8\n  swap2\n  swap1\n  tag_9\n  jump\t// in\ntag_8:\n  pop\n    /* \"@openzeppelin/contracts/token/ERC20/ERC20.sol\":1671:1678   */\n  0x04\n    /* \"@openzeppelin/contracts/token/ERC20/ERC20.sol\":1671:1688   */\n  tag_10\n    /* \"@openzeppelin/contracts/token/ERC20/ERC20.sol\":1681:1688   */\n  dup3\n    /* \"@openzeppelin/contracts/token/ERC20/ERC20.sol\":1671:1678   */\n  dup3\n    /* \"@openzeppelin/contracts/token/ERC20/ERC20.sol\":1671:1688   */\n  tag_9\n  jump\t// in\ntag_10:\n  pop\n  pop\n  pop\n  sub(shl(0xa0, 0x01), 0x01)\n    /* \"@openzeppelin/contracts/access/Ownable.sol\":1273:1299   */\n  dup2\n  and\n    /* \"@openzeppelin/contracts/access/Ownable.sol\":1269:1364   */\n  tag_12\n  jumpi\n    /* \"@openzeppelin/contracts/access/Ownable.sol\":1322:1353   */\n  mload(0x40)\n  shl(0xe0, 0x1e4fbdf7)\n  dup2\n  mstore\n    /* \"@openzeppelin/contracts/access/Ownable.sol\":1350:1351   */\n  0x00\n    /* \"@openzeppelin/contracts/access/Ownable.sol\":1322:1353   */\n  0x04\n  dup3\n  add\n    /* \"#utility.yul\":3327:3378   */\n  mstore\n    /* \"#utility.yul\":3300:3318   */\n  0x24\n  add\n    /* \"@openzeppelin/contracts/access/Ownable.sol\":1322:1353   */\ntag_13:\n  mload(0x40)\n  dup1\n  swap2\n  sub\n  swap1\n  revert\n    /* \"@openzeppelin/contracts/access/Ownable.sol\":1269:1364   */\ntag_12:\n    /* \"@openzeppelin/contracts/access/Ownable.sol\":1373:1405   */\n  tag_15\n    /* \"@openzeppelin/contracts/access/Ownable.sol\":1392:1404   */\n  dup2\n    /* \"@openzeppelin/contracts/access/Ownable.sol\":1373:1391   */\n  tag_16\n    /* \"@openzeppelin/contracts/access/Ownable.sol\":1373:1405   */\n  jump\t// in\ntag_15:\n  pop\n  sub(shl(0xa0, 0x01), 0x01)\n    /* \"RoluToken.sol\":1359:1382  _treasury != address(0) */\n  dup3\n  and\n    /* \"RoluToken.sol\":1351:1415  require(_treasury != address(0), \"Treasury address cannot be 0\") */\n  tag_18\n  jumpi\n  mload(0x40)\n  shl(0xe5, 0x461bcd)\n  dup2\n  mstore\n    /* \"#utility.yul\":3591:3593   */\n  0x20\n    /* \"RoluToken.sol\":1351:1415  require(_treasury != address(0), \"Treasury address cannot be 0\") */\n  0x04\n  dup3\n  add\n    /* \"#utility.yul\":3573:3594   */\n  mstore\n    /* \"#utility.yul\":3630:3632   */\n  0x1c\n    /* \"#utility.yul\":3610:3628   */\n  0x24\n  dup3\n  add\n    /* \"#utility.yul\":3603:3633   */\n  mstore\n    /* \"#utility.yul\":3669:3699   */\n  0x547265617375727920616464726573732063616e6e6f74206265203000000000\n    /* \"#utility.yul\":3649:3667   */\n  0x44\n  dup3\n  add\n    /* \"#utility.yul\":3642:3700   */\n  mstore\n    /* \"#utility.yul\":3717:3735   */\n  0x64\n  add\n    /* \"RoluToken.sol\":1351:1415  require(_treasury != address(0), \"Treasury address cannot be 0\") */\n  tag_13\n    /* \"#utility.yul\":3389:3741   */\n  jump\n    /* \"RoluToken.sol\":1351:1415  require(_treasury != address(0), \"Treasury address cannot be 0\") */\ntag_18:\n  sub(shl(0xa0, 0x01), 0x01)\n    /* \"RoluToken.sol\":1433:1452  _team != address(0) */\n  dup2\n  and\n    /* \"RoluToken.sol\":1425:1481  require(_team != address(0), \"Team address cannot be 0\") */\n  tag_21\n  jumpi\n  mload(0x40)\n  shl(0xe5, 0x461bcd)\n  dup2\n  mstore\n    /* \"#utility.yul\":3948:3950   */\n  0x20\n    /* \"RoluToken.sol\":1425:1481  require(_team != address(0), \"Team address cannot be 0\") */\n  0x04\n  dup3\n  add\n    /* \"#utility.yul\":3930:3951   */\n  mstore\n    /* \"#utility.yul\":3987:3989   */\n  0x18\n    /* \"#utility.yul\":3967:3985   */\n  0x24\n  dup3\n  add\n    /* \"#utility.yul\":3960:3990   */\n  mstore\n    /* \"#utility.yul\":4026:4052   */\n  0x5465616d20616464726573732063616e6e6f7420626520300000000000000000\n    /* \"#utility.yul\":4006:4024   */\n  0x44\n  dup3\n  add\n    /* \"#utility.yul\":3999:4053   */\n  mstore\n    /* \"#utility.yul\":4070:4088   */\n  0x64\n  add\n    /* \"RoluToken.sol\":1425:1481  require(_team != address(0), \"Team address cannot be 0\") */\n  tag_13\n    /* \"#utility.yul\":3746:4094   */\n  jump\n    /* \"RoluToken.sol\":1425:1481  require(_team != address(0), \"Team address cannot be 0\") */\ntag_21:\n    /* \"RoluToken.sol\":1492:1507  treasuryAddress */\n  0x06\n    /* \"RoluToken.sol\":1492:1519  treasuryAddress = _treasury */\n  dup1\n  sload\n  sub(shl(0xa0, 0x01), 0x01)\n  dup1\n  dup6\n  and\n  not(sub(shl(0xa0, 0x01), 0x01))\n  swap3\n  dup4\n  and\n  or\n  swap1\n  swap3\n  sstore\n    /* \"RoluToken.sol\":1529:1540  teamAddress */\n  0x07\n    /* \"RoluToken.sol\":1529:1548  teamAddress = _team */\n  dup1\n  sload\n  swap3\n  dup5\n  and\n  swap3\n  swap1\n  swap2\n  and\n  swap2\n  swap1\n  swap2\n  or\n  swap1\n  sstore\n    /* \"RoluToken.sol\":1590:1627  _mint(_treasury, TREASURY_ALLOCATION) */\n  tag_24\n    /* \"RoluToken.sol\":1510:1519  _treasury */\n  dup3\n    /* \"RoluToken.sol\":738:757  90_000_000 * 10**18 */\n  0x4a723dc6b40b8a9a000000\n    /* \"RoluToken.sol\":1590:1595  _mint */\n  tag_25\n    /* \"RoluToken.sol\":1590:1627  _mint(_treasury, TREASURY_ALLOCATION) */\n  jump\t// in\ntag_24:\n    /* \"RoluToken.sol\":1637:1666  _mint(_team, TEAM_ALLOCATION) */\n  tag_26\n    /* \"RoluToken.sol\":1643:1648  _team */\n  dup2\n    /* \"RoluToken.sol\":824:843  10_000_000 * 10**18 */\n  0x084595161401484a000000\n    /* \"RoluToken.sol\":1637:1642  _mint */\n  tag_25\n    /* \"RoluToken.sol\":1637:1666  _mint(_team, TEAM_ALLOCATION) */\n  jump\t// in\ntag_26:\n    /* \"RoluToken.sol\":1225:1673  constructor(... */\n  pop\n  pop\n    /* \"RoluToken.sol\":505:2372  contract RoluToken is ERC20, ERC20Pausable, Ownable {... */\n  jump(tag_66)\n    /* \"@openzeppelin/contracts/access/Ownable.sol\":2912:3099   */\ntag_16:\n    /* \"@openzeppelin/contracts/access/Ownable.sol\":3004:3010   */\n  0x05\n  dup1\n  sload\n  sub(shl(0xa0, 0x01), 0x01)\n    /* \"@openzeppelin/contracts/access/Ownable.sol\":3020:3037   */\n  dup4\n  dup2\n  and\n    /* \"@openzeppelin/contracts/access/Ownable.sol\":3004:3010   */\n  0x0100\n    /* \"@openzeppelin/contracts/access/Ownable.sol\":3020:3037   */\n  dup2\n  dup2\n  mul\n  not(sub(shl(0xa8, 0x01), 0x0100))\n  dup6\n  and\n  or\n  swap1\n  swap5\n  sstore\n    /* \"@openzeppelin/contracts/access/Ownable.sol\":3052:3092   */\n  mload(0x40)\n    /* \"@openzeppelin/contracts/access/Ownable.sol\":3004:3010   */\n  swap4\n  swap1\n  swap3\n  div\n  and\n  swap2\n  dup3\n  swap1\n    /* \"@openzeppelin/contracts/access/Ownable.sol\":3052:3092   */\n  0x8be0079c531659141344cd1fd0a4f28419497f9722a3daafe3b4186f6b6457e0\n  swap1\n    /* \"@openzeppelin/contracts/access/Ownable.sol\":2985:3001   */\n  0x00\n  swap1\n    /* \"@openzeppelin/contracts/access/Ownable.sol\":3052:3092   */\n  log3\n    /* \"@openzeppelin/contracts/access/Ownable.sol\":2975:3099   */\n  pop\n    /* \"@openzeppelin/contracts/access/Ownable.sol\":2912:3099   */\n  pop\n  jump\t// out\n    /* \"@openzeppelin/contracts/token/ERC20/ERC20.sol\":7439:7647   */\ntag_25:\n  sub(shl(0xa0, 0x01), 0x01)\n    /* \"@openzeppelin/contracts/token/ERC20/ERC20.sol\":7509:7530   */\n  dup3\n  and\n    /* \"@openzeppelin/contracts/token/ERC20/ERC20.sol\":7505:7596   */\n  tag_30\n  jumpi\n    /* \"@openzeppelin/contracts/token/ERC20/ERC20.sol\":7553:7585   */\n  mload(0x40)\n  shl(0xe0, 0xec442f05)\n  dup2\n  mstore\n    /* \"@openzeppelin/contracts/token/ERC20/ERC20.sol\":7582:7583   */\n  0x00\n    /* \"@openzeppelin/contracts/token/ERC20/ERC20.sol\":7553:7585   */\n  0x04\n  dup3\n  add\n    /* \"#utility.yul\":3327:3378   */\n  mstore\n    /* \"#utility.yul\":3300:3318   */\n  0x24\n  add\n    /* \"@openzeppelin/contracts/token/ERC20/ERC20.sol\":7553:7585   */\n  tag_13\n    /* \"#utility.yul\":3181:3384   */\n  jump\n    /* \"@openzeppelin/contracts/token/ERC20/ERC20.sol\":7505:7596   */\ntag_30:\n    /* \"@openzeppelin/contracts/token/ERC20/ERC20.sol\":7605:7640   */\n  tag_32\n    /* \"@openzeppelin/contracts/token/ERC20/ERC20.sol\":7621:7622   */\n  0x00\n    /* \"@openzeppelin/contracts/token/ERC20/ERC20.sol\":7625:7632   */\n  dup4\n    /* \"@openzeppelin/contracts/token/ERC20/ERC20.sol\":7634:7639   */\n  dup4\n    /* \"@openzeppelin/contracts/token/ERC20/ERC20.sol\":7605:7612   */\n  tag_33\n    /* \"@openzeppelin/contracts/token/ERC20/ERC20.sol\":7605:7640   */\n  jump\t// in\ntag_32:\n    /* \"@openzeppelin/contracts/token/ERC20/ERC20.sol\":7439:7647   */\n  pop\n  pop\n  jump\t// out\n    /* \"RoluToken.sol\":2193:2370  function _update(... */\ntag_33:\n    /* \"RoluToken.sol\":2332:2363  super._update(from, to, amount) */\n  tag_35\n    /* \"RoluToken.sol\":2346:2350  from */\n  dup4\n    /* \"RoluToken.sol\":2352:2354  to */\n  dup4\n    /* \"RoluToken.sol\":2356:2362  amount */\n  dup4\n    /* \"RoluToken.sol\":2332:2345  super._update */\n  tag_36\n    /* \"RoluToken.sol\":2332:2363  super._update(from, to, amount) */\n  jump\t// in\ntag_35:\n    /* \"RoluToken.sol\":2193:2370  function _update(... */\n  pop\n  pop\n  pop\n  jump\t// out\n    /* \"@openzeppelin/contracts/token/ERC20/extensions/ERC20Pausable.sol\":1113:1258   */\ntag_36:\n    /* \"@openzeppelin/contracts/utils/Pausable.sol\":1350:1369   */\n  tag_38\n    /* \"@openzeppelin/contracts/utils/Pausable.sol\":1350:1367   */\n  tag_39\n    /* \"@openzeppelin/contracts/utils/Pausable.sol\":1350:1369   */\n  jump\t// in\ntag_38:\n    /* \"@openzeppelin/contracts/token/ERC20/extensions/ERC20Pausable.sol\":1221:1251   */\n  tag_35\n    /* \"@openzeppelin/contracts/token/ERC20/extensions/ERC20Pausable.sol\":1235:1239   */\n  dup4\n    /* \"@openzeppelin/contracts/token/ERC20/extensions/ERC20Pausable.sol\":1241:1243   */\n  dup4\n    /* \"@openzeppelin/contracts/token/ERC20/extensions/ERC20Pausable.sol\":1245:1250   */\n  dup4\n    /* \"@openzeppelin/contracts/token/ERC20/extensions/ERC20Pausable.sol\":1221:1234   */\n  tag_42\n    /* \"@openzeppelin/contracts/token/ERC20/extensions/ERC20Pausable.sol\":1221:1251   */\n  jump\t// in\n    /* \"@openzeppelin/contracts/utils/Pausable.sol\":1878:2006   */\ntag_39:\n    /* \"@openzeppelin/contracts/utils/Pausable.sol\":1796:1803   */\n  and(0xff, sload(0x05))\n    /* \"@openzeppelin/contracts/utils/Pausable.sol\":1939:2000   */\n  iszero\n  tag_46\n  jumpi\n    /* \"@openzeppelin/contracts/utils/Pausable.sol\":1974:1989   */\n  mload(0x40)\n  shl(0xe0, 0xd93c0665)\n  dup2\n  mstore\n  0x04\n  add\n  mload(0x40)\n  dup1\n  swap2\n  sub\n  swap1\n  revert\n    /* \"@openzeppelin/contracts/utils/Pausable.sol\":1939:2000   */\ntag_46:\n    /* \"@openzeppelin/contracts/utils/Pausable.sol\":1878:2006   */\n  jump\t// out\n    /* \"@openzeppelin/contracts/token/ERC20/ERC20.sol\":5989:7096   */\ntag_42:\n  sub(shl(0xa0, 0x01), 0x01)\n    /* \"@openzeppelin/contracts/token/ERC20/ERC20.sol\":6078:6096   */\n  dup4\n  and\n    /* \"@openzeppelin/contracts/token/ERC20/ERC20.sol\":6074:6614   */\n  tag_48\n  jumpi\n    /* \"@openzeppelin/contracts/token/ERC20/ERC20.sol\":6230:6235   */\n  dup1\n    /* \"@openzeppelin/contracts/token/ERC20/ERC20.sol\":6214:6226   */\n  0x02\n  0x00\n    /* \"@openzeppelin/contracts/token/ERC20/ERC20.sol\":6214:6235   */\n  dup3\n  dup3\n  sload\n  tag_49\n  swap2\n  swap1\n  tag_50\n  jump\t// in\ntag_49:\n  swap1\n  swap2\n  sstore\n  pop\n    /* \"@openzeppelin/contracts/token/ERC20/ERC20.sol\":6074:6614   */\n  tag_51\n  swap1\n  pop\n  jump\ntag_48:\n  sub(shl(0xa0, 0x01), 0x01)\n    /* \"@openzeppelin/contracts/token/ERC20/ERC20.sol\":6288:6303   */\n  dup4\n  and\n    /* \"@openzeppelin/contracts/token/ERC20/ERC20.sol\":6266:6285   */\n  0x00\n    /* \"@openzeppelin/contracts/token/ERC20/ERC20.sol\":6288:6303   */\n  swap1\n  dup2\n  mstore\n  0x20\n  dup2\n  swap1\n  mstore\n  0x40\n  swap1\n  keccak256\n  sload\n    /* \"@openzeppelin/contracts/token/ERC20/ERC20.sol\":6321:6340   */\n  dup2\n  dup2\n  lt\n    /* \"@openzeppelin/contracts/token/ERC20/ERC20.sol\":6317:6432   */\n  iszero\n  tag_52\n  jumpi\n    /* \"@openzeppelin/contracts/token/ERC20/ERC20.sol\":6367:6417   */\n  mload(0x40)\n  shl(0xe2, 0x391434e3)\n  dup2\n  mstore\n  sub(shl(0xa0, 0x01), 0x01)\n    /* \"#utility.yul\":4546:4578   */\n  dup6\n  and\n    /* \"@openzeppelin/contracts/token/ERC20/ERC20.sol\":6367:6417   */\n  0x04\n  dup3\n  add\n    /* \"#utility.yul\":4528:4579   */\n  mstore\n    /* \"#utility.yul\":4595:4613   */\n  0x24\n  dup2\n  add\n    /* \"#utility.yul\":4588:4622   */\n  dup3\n  swap1\n  mstore\n    /* \"#utility.yul\":4638:4656   */\n  0x44\n  dup2\n  add\n    /* \"#utility.yul\":4631:4665   */\n  dup4\n  swap1\n  mstore\n    /* \"#utility.yul\":4501:4519   */\n  0x64\n  add\n    /* \"@openzeppelin/contracts/token/ERC20/ERC20.sol\":6367:6417   */\n  tag_13\n    /* \"#utility.yul\":4326:4671   */\n  jump\n    /* \"@openzeppelin/contracts/token/ERC20/ERC20.sol\":6317:6432   */\ntag_52:\n  sub(shl(0xa0, 0x01), 0x01)\n    /* \"@openzeppelin/contracts/token/ERC20/ERC20.sol\":6552:6567   */\n  dup5\n  and\n    /* \"@openzeppelin/contracts/token/ERC20/ERC20.sol\":6552:6561   */\n  0x00\n    /* \"@openzeppelin/contracts/token/ERC20/ERC20.sol\":6552:6567   */\n  swap1\n  dup2\n  mstore\n  0x20\n  dup2\n  swap1\n  mstore\n  0x40\n  swap1\n  keccak256\n    /* \"@openzeppelin/contracts/token/ERC20/ERC20.sol\":6570:6589   */\n  swap1\n  dup3\n  swap1\n  sub\n    /* \"@openzeppelin/contracts/token/ERC20/ERC20.sol\":6552:6589   */\n  swap1\n  sstore\n    /* \"@openzeppelin/contracts/token/ERC20/ERC20.sol\":6074:6614   */\ntag_51:\n  sub(shl(0xa0, 0x01), 0x01)\n    /* \"@openzeppelin/contracts/token/ERC20/ERC20.sol\":6628:6644   */\n  dup3\n  and\n    /* \"@openzeppelin/contracts/token/ERC20/ERC20.sol\":6624:7049   */\n  tag_55\n  jumpi\n    /* \"@openzeppelin/contracts/token/ERC20/ERC20.sol\":6791:6803   */\n  0x02\n    /* \"@openzeppelin/contracts/token/ERC20/ERC20.sol\":6791:6812   */\n  dup1\n  sload\n  dup3\n  swap1\n  sub\n  swap1\n  sstore\n    /* \"@openzeppelin/contracts/token/ERC20/ERC20.sol\":6624:7049   */\n  jump(tag_56)\ntag_55:\n  sub(shl(0xa0, 0x01), 0x01)\n    /* \"@openzeppelin/contracts/token/ERC20/ERC20.sol\":7002:7015   */\n  dup3\n  and\n    /* \"@openzeppelin/contracts/token/ERC20/ERC20.sol\":7002:7011   */\n  0x00\n    /* \"@openzeppelin/contracts/token/ERC20/ERC20.sol\":7002:7015   */\n  swap1\n  dup2\n  mstore\n  0x20\n  dup2\n  swap1\n  mstore\n  0x40\n  swap1\n  keccak256\n    /* \"@openzeppelin/contracts/token/ERC20/ERC20.sol\":7002:7024   */\n  dup1\n  sload\n  dup3\n  add\n  swap1\n  sstore\n    /* \"@openzeppelin/contracts/token/ERC20/ERC20.sol\":6624:7049   */\ntag_56:\n    /* \"@openzeppelin/contracts/token/ERC20/ERC20.sol\":7079:7081   */\n  dup2\n  sub(shl(0xa0, 0x01), 0x01)\n    /* \"@openzeppelin/contracts/token/ERC20/ERC20.sol\":7064:7089   */\n  and\n    /* \"@openzeppelin/contracts/token/ERC20/ERC20.sol\":7073:7077   */\n  dup4\n  sub(shl(0xa0, 0x01), 0x01)\n    /* \"@openzeppelin/contracts/token/ERC20/ERC20.sol\":7064:7089   */\n  and\n  0xddf252ad1be2c89b69c2b068fc378daa952ba7f163c4a11628f55a4df523b3ef\n    /* \"@openzeppelin/contracts/token/ERC20/ERC20.sol\":7083:7088   */\n  dup4\n    /* \"@openzeppelin/contracts/token/ERC20/ERC20.sol\":7064:7089   */\n  mload(0x40)\n  tag_57\n  swap2\n    /* \"#utility.yul\":4822:4847   */\n  dup2\n  mstore\n    /* \"#utility.yul\":4810:4812   */\n  0x20\n    /* \"#utility.yul\":4795:4813   */\n  add\n  swap1\n    /* \"#utility.yul\":4676:4853   */\n  jump\n    /* \"@openzeppelin/contracts/token/ERC20/ERC20.sol\":7064:7089   */\ntag_57:\n  mload(0x40)\n  dup1\n  swap2\n  sub\n  swap1\n  log3\n    /* \"@openzeppelin/contracts/token/ERC20/ERC20.sol\":5989:7096   */\n  pop\n  pop\n  pop\n  jump\t// out\n    /* \"#utility.yul\":14:191   */\ntag_60:\n    /* \"#utility.yul\":93:106   */\n  dup1\n  mload\n  sub(shl(0xa0, 0x01), 0x01)\n    /* \"#utility.yul\":135:166   */\n  dup2\n  and\n    /* \"#utility.yul\":125:167   */\n  dup2\n  eq\n    /* \"#utility.yul\":115:185   */\n  tag_68\n  jumpi\n    /* \"#utility.yul\":181:182   */\n  0x00\n    /* \"#utility.yul\":178:179   */\n  dup1\n    /* \"#utility.yul\":171:183   */\n  revert\n    /* \"#utility.yul\":115:185   */\ntag_68:\n    /* \"#utility.yul\":14:191   */\n  swap2\n  swap1\n  pop\n  jump\t// out\n    /* \"#utility.yul\":196:489   */\ntag_3:\n    /* \"#utility.yul\":275:281   */\n  0x00\n    /* \"#utility.yul\":283:289   */\n  dup1\n    /* \"#utility.yul\":336:338   */\n  0x40\n    /* \"#utility.yul\":324:333   */\n  dup4\n    /* \"#utility.yul\":315:322   */\n  dup6\n    /* \"#utility.yul\":311:334   */\n  sub\n    /* \"#utility.yul\":307:339   */\n  slt\n    /* \"#utility.yul\":304:356   */\n  iszero\n  tag_70\n  jumpi\n    /* \"#utility.yul\":352:353   */\n  0x00\n    /* \"#utility.yul\":349:350   */\n  dup1\n    /* \"#utility.yul\":342:354   */\n  revert\n    /* \"#utility.yul\":304:356   */\ntag_70:\n    /* \"#utility.yul\":375:415   */\n  tag_71\n    /* \"#utility.yul\":405:414   */\n  dup4\n    /* \"#utility.yul\":375:415   */\n  tag_60\n  jump\t// in\ntag_71:\n    /* \"#utility.yul\":365:415   */\n  swap2\n  pop\n    /* \"#utility.yul\":434:483   */\n  tag_72\n    /* \"#utility.yul\":479:481   */\n  0x20\n    /* \"#utility.yul\":468:477   */\n  dup5\n    /* \"#utility.yul\":464:482   */\n  add\n    /* \"#utility.yul\":434:483   */\n  tag_60\n  jump\t// in\ntag_72:\n    /* \"#utility.yul\":424:483   */\n  swap1\n  pop\n    /* \"#utility.yul\":196:489   */\n  swap3\n  pop\n  swap3\n  swap1\n  pop\n  jump\t// out\n    /* \"#utility.yul\":494:621   */\ntag_61:\n    /* \"#utility.yul\":555:565   */\n  0x4e487b71\n    /* \"#utility.yul\":550:553   */\n  0xe0\n    /* \"#utility.yul\":546:566   */\n  shl\n    /* \"#utility.yul\":543:544   */\n  0x00\n    /* \"#utility.yul\":536:567   */\n  mstore\n    /* \"#utility.yul\":586:590   */\n  0x41\n    /* \"#utility.yul\":583:584   */\n  0x04\n    /* \"#utility.yul\":576:591   */\n  mstore\n    /* \"#utility.yul\":610:614   */\n  0x24\n    /* \"#utility.yul\":607:608   */\n  0x00\n    /* \"#utility.yul\":600:615   */\n  revert\n    /* \"#utility.yul\":626:1006   */\ntag_62:\n    /* \"#utility.yul\":705:706   */\n  0x01\n    /* \"#utility.yul\":701:713   */\n  dup2\n  dup2\n  shr\n  swap1\n    /* \"#utility.yul\":748:760   */\n  dup3\n  and\n  dup1\n    /* \"#utility.yul\":769:830   */\n  tag_75\n  jumpi\n    /* \"#utility.yul\":823:827   */\n  0x7f\n    /* \"#utility.yul\":815:821   */\n  dup3\n    /* \"#utility.yul\":811:828   */\n  and\n    /* \"#utility.yul\":801:828   */\n  swap2\n  pop\n    /* \"#utility.yul\":769:830   */\ntag_75:\n    /* \"#utility.yul\":876:878   */\n  0x20\n    /* \"#utility.yul\":868:874   */\n  dup3\n    /* \"#utility.yul\":865:879   */\n  lt\n    /* \"#utility.yul\":845:863   */\n  dup2\n    /* \"#utility.yul\":842:880   */\n  sub\n    /* \"#utility.yul\":839:1000   */\n  tag_76\n  jumpi\n    /* \"#utility.yul\":922:932   */\n  0x4e487b71\n    /* \"#utility.yul\":917:920   */\n  0xe0\n    /* \"#utility.yul\":913:933   */\n  shl\n    /* \"#utility.yul\":910:911   */\n  0x00\n    /* \"#utility.yul\":903:934   */\n  mstore\n    /* \"#utility.yul\":957:961   */\n  0x22\n    /* \"#utility.yul\":954:955   */\n  0x04\n    /* \"#utility.yul\":947:962   */\n  mstore\n    /* \"#utility.yul\":985:989   */\n  0x24\n    /* \"#utility.yul\":982:983   */\n  0x00\n    /* \"#utility.yul\":975:990   */\n  revert\n    /* \"#utility.yul\":839:1000   */\ntag_76:\n  pop\n    /* \"#utility.yul\":626:1006   */\n  swap2\n  swap1\n  pop\n  jump\t// out\n    /* \"#utility.yul\":1137:1655   */\ntag_64:\n    /* \"#utility.yul\":1239:1241   */\n  0x1f\n    /* \"#utility.yul\":1234:1237   */\n  dup3\n    /* \"#utility.yul\":1231:1242   */\n  gt\n    /* \"#utility.yul\":1228:1649   */\n  iszero\n  tag_35\n  jumpi\n    /* \"#utility.yul\":1275:1280   */\n  dup1\n    /* \"#utility.yul\":1272:1273   */\n  0x00\n    /* \"#utility.yul\":1265:1281   */\n  mstore\n    /* \"#utility.yul\":1319:1323   */\n  0x20\n    /* \"#utility.yul\":1316:1317   */\n  0x00\n    /* \"#utility.yul\":1306:1324   */\n  keccak256\n    /* \"#utility.yul\":1389:1391   */\n  0x1f\n    /* \"#utility.yul\":1377:1387   */\n  dup5\n    /* \"#utility.yul\":1373:1392   */\n  add\n    /* \"#utility.yul\":1370:1371   */\n  0x05\n    /* \"#utility.yul\":1366:1393   */\n  shr\n    /* \"#utility.yul\":1360:1364   */\n  dup2\n    /* \"#utility.yul\":1356:1394   */\n  add\n    /* \"#utility.yul\":1425:1429   */\n  0x20\n    /* \"#utility.yul\":1413:1423   */\n  dup6\n    /* \"#utility.yul\":1410:1430   */\n  lt\n    /* \"#utility.yul\":1407:1454   */\n  iszero\n  tag_80\n  jumpi\n  pop\n    /* \"#utility.yul\":1448:1452   */\n  dup1\n    /* \"#utility.yul\":1407:1454   */\ntag_80:\n    /* \"#utility.yul\":1503:1505   */\n  0x1f\n    /* \"#utility.yul\":1498:1501   */\n  dup5\n    /* \"#utility.yul\":1494:1506   */\n  add\n    /* \"#utility.yul\":1491:1492   */\n  0x05\n    /* \"#utility.yul\":1487:1507   */\n  shr\n    /* \"#utility.yul\":1481:1485   */\n  dup3\n    /* \"#utility.yul\":1477:1508   */\n  add\n    /* \"#utility.yul\":1467:1508   */\n  swap2\n  pop\n    /* \"#utility.yul\":1558:1639   */\ntag_81:\n    /* \"#utility.yul\":1576:1578   */\n  dup2\n    /* \"#utility.yul\":1569:1574   */\n  dup2\n    /* \"#utility.yul\":1566:1579   */\n  lt\n    /* \"#utility.yul\":1558:1639   */\n  iszero\n  tag_83\n  jumpi\n    /* \"#utility.yul\":1635:1636   */\n  0x00\n    /* \"#utility.yul\":1621:1637   */\n  dup2\n  sstore\n    /* \"#utility.yul\":1602:1603   */\n  0x01\n    /* \"#utility.yul\":1591:1604   */\n  add\n    /* \"#utility.yul\":1558:1639   */\n  jump(tag_81)\ntag_83:\n    /* \"#utility.yul\":1562:1565   */\n  pop\n  pop\n    /* \"#utility.yul\":1137:1655   */\n  pop\n  pop\n  pop\n  jump\t// out\n    /* \"#utility.yul\":1831:3176   */\ntag_9:\n    /* \"#utility.yul\":1951:1961   */\n  dup2\n  mload\n  sub(shl(0x40, 0x01), 0x01)\n    /* \"#utility.yul\":1973:2003   */\n  dup2\n  gt\n    /* \"#utility.yul\":1970:2026   */\n  iszero\n  tag_87\n  jumpi\n    /* \"#utility.yul\":2006:2024   */\n  tag_87\n  tag_61\n  jump\t// in\ntag_87:\n    /* \"#utility.yul\":2035:2132   */\n  tag_88\n    /* \"#utility.yul\":2125:2131   */\n  dup2\n    /* \"#utility.yul\":2085:2123   */\n  tag_89\n    /* \"#utility.yul\":2117:2121   */\n  dup5\n    /* \"#utility.yul\":2111:2122   */\n  sload\n    /* \"#utility.yul\":2085:2123   */\n  tag_62\n  jump\t// in\ntag_89:\n    /* \"#utility.yul\":2079:2083   */\n  dup5\n    /* \"#utility.yul\":2035:2132   */\n  tag_64\n  jump\t// in\ntag_88:\n    /* \"#utility.yul\":2187:2191   */\n  0x20\n  dup1\n    /* \"#utility.yul\":2244:2246   */\n  0x1f\n    /* \"#utility.yul\":2233:2247   */\n  dup4\n  gt\n    /* \"#utility.yul\":2261:2262   */\n  0x01\n    /* \"#utility.yul\":2256:2919   */\n  dup2\n  eq\n  tag_91\n  jumpi\n    /* \"#utility.yul\":2963:2964   */\n  0x00\n    /* \"#utility.yul\":2980:2986   */\n  dup5\n    /* \"#utility.yul\":2977:3066   */\n  iszero\n  tag_92\n  jumpi\n  pop\n    /* \"#utility.yul\":3032:3051   */\n  dup6\n  dup4\n  add\n    /* \"#utility.yul\":3026:3052   */\n  mload\n    /* \"#utility.yul\":2977:3066   */\ntag_92:\n  not(0x00)\n    /* \"#utility.yul\":1788:1789   */\n  0x03\n    /* \"#utility.yul\":1784:1795   */\n  dup7\n  swap1\n  shl\n    /* \"#utility.yul\":1780:1804   */\n  shr\n    /* \"#utility.yul\":1776:1805   */\n  not\n    /* \"#utility.yul\":1766:1806   */\n  and\n    /* \"#utility.yul\":1812:1813   */\n  0x01\n    /* \"#utility.yul\":1808:1819   */\n  dup6\n  swap1\n  shl\n    /* \"#utility.yul\":1763:1820   */\n  or\n    /* \"#utility.yul\":3079:3160   */\n  dup6\n  sstore\n    /* \"#utility.yul\":2226:3170   */\n  jump(tag_90)\n    /* \"#utility.yul\":2256:2919   */\ntag_91:\n    /* \"#utility.yul\":1084:1085   */\n  0x00\n    /* \"#utility.yul\":1077:1091   */\n  dup6\n  dup2\n  mstore\n    /* \"#utility.yul\":1121:1125   */\n  0x20\n    /* \"#utility.yul\":1108:1126   */\n  dup2\n  keccak256\n  not(0x1f)\n    /* \"#utility.yul\":2292:2312   */\n  dup7\n  and\n  swap2\n    /* \"#utility.yul\":2410:2646   */\ntag_95:\n    /* \"#utility.yul\":2424:2431   */\n  dup3\n    /* \"#utility.yul\":2421:2422   */\n  dup2\n    /* \"#utility.yul\":2418:2432   */\n  lt\n    /* \"#utility.yul\":2410:2646   */\n  iszero\n  tag_97\n  jumpi\n    /* \"#utility.yul\":2513:2532   */\n  dup9\n  dup7\n  add\n    /* \"#utility.yul\":2507:2533   */\n  mload\n    /* \"#utility.yul\":2492:2534   */\n  dup3\n  sstore\n    /* \"#utility.yul\":2605:2632   */\n  swap5\n  dup5\n  add\n  swap5\n    /* \"#utility.yul\":2573:2574   */\n  0x01\n    /* \"#utility.yul\":2561:2575   */\n  swap1\n  swap2\n  add\n  swap1\n    /* \"#utility.yul\":2440:2459   */\n  dup5\n  add\n    /* \"#utility.yul\":2410:2646   */\n  jump(tag_95)\ntag_97:\n    /* \"#utility.yul\":2414:2417   */\n  pop\n    /* \"#utility.yul\":2674:2680   */\n  dup6\n    /* \"#utility.yul\":2665:2672   */\n  dup3\n    /* \"#utility.yul\":2662:2681   */\n  lt\n    /* \"#utility.yul\":2659:2860   */\n  iszero\n  tag_98\n  jumpi\n    /* \"#utility.yul\":2735:2754   */\n  dup8\n  dup6\n  add\n    /* \"#utility.yul\":2729:2755   */\n  mload\n  not(0x00)\n    /* \"#utility.yul\":2818:2819   */\n  0x03\n    /* \"#utility.yul\":2814:2828   */\n  dup9\n  swap1\n  shl\n    /* \"#utility.yul\":2830:2833   */\n  0xf8\n    /* \"#utility.yul\":2810:2834   */\n  and\n    /* \"#utility.yul\":2806:2843   */\n  shr\n    /* \"#utility.yul\":2802:2844   */\n  not\n    /* \"#utility.yul\":2787:2845   */\n  and\n    /* \"#utility.yul\":2772:2846   */\n  dup2\n  sstore\n    /* \"#utility.yul\":2659:2860   */\ntag_98:\n  pop\n  pop\n    /* \"#utility.yul\":2906:2907   */\n  0x01\n    /* \"#utility.yul\":2897:2903   */\n  dup5\n    /* \"#utility.yul\":2894:2895   */\n  0x01\n    /* \"#utility.yul\":2890:2904   */\n  shl\n    /* \"#utility.yul\":2886:2908   */\n  add\n    /* \"#utility.yul\":2880:2884   */\n  dup6\n    /* \"#utility.yul\":2873:2909   */\n  sstore\n    /* \"#utility.yul\":2226:3170   */\ntag_90:\n  pop\n  pop\n  pop\n  pop\n    /* \"#utility.yul\":1831:3176   */\n  pop\n  pop\n  jump\t// out\n    /* \"#utility.yul\":4099:4321   */\ntag_50:\n    /* \"#utility.yul\":4164:4173   */\n  dup1\n  dup3\n  add\n    /* \"#utility.yul\":4185:4195   */\n  dup1\n  dup3\n  gt\n    /* \"#utility.yul\":4182:4315   */\n  iszero\n  tag_103\n  jumpi\n    /* \"#utility.yul\":4237:4247   */\n  0x4e487b71\n    /* \"#utility.yul\":4232:4235   */\n  0xe0\n    /* \"#utility.yul\":4228:4248   */\n  shl\n    /* \"#utility.yul\":4225:4226   */\n  0x00\n    /* \"#utility.yul\":4218:4249   */\n  mstore\n    /* \"#utility.yul\":4272:4276   */\n  0x11\n    /* \"#utility.yul\":4269:4270   */\n  0x04\n    /* \"#utility.yul\":4262:4277   */\n  mstore\n    /* \"#utility.yul\":4300:4304   */\n  0x24\n    /* \"#utility.yul\":4297:4298   */\n  0x00\n    /* \"#utility.yul\":4290:4305   */\n  revert\n    /* \"#utility.yul\":4182:4315   */\ntag_103:\n    /* \"#utility.yul\":4099:4321   */\n  swap3\n  swap2\n  pop\n  pop\n  jump\t// out\n    /* \"#utility.yul\":4676:4853   */\ntag_66:\n    /* \"RoluToken.sol\":505:2372  contract RoluToken is ERC20, ERC20Pausable, Ownable {... */\n  dataSize(sub_0)\n  dup1\n  dataOffset(sub_0)\n  0x00\n  codecopy\n  0x00\n  return\nstop\n\nsub_0: assembly {\n        /* \"RoluToken.sol\":505:2372  contract RoluToken is ERC20, ERC20Pausable, Ownable {... */\n      mstore(0x40, 0x80)\n      callvalue\n      dup1\n      iszero\n      tag_1\n      jumpi\n      0x00\n      dup1\n      revert\n    tag_1:\n      pop\n      jumpi(tag_2, lt(calldatasize, 0x04))\n      shr(0xe0, calldataload(0x00))\n      dup1\n      0x715018a6\n      gt\n      tag_23\n      jumpi\n      dup1\n      0xbf1ad7e0\n      gt\n      tag_24\n      jumpi\n      dup1\n      0xdd62ed3e\n      gt\n      tag_25\n      jumpi\n      dup1\n      0xdd62ed3e\n      eq\n      tag_20\n      jumpi\n      dup1\n      0xf2fde38b\n      eq\n      tag_21\n      jumpi\n      dup1\n      0xfd99cbed\n      eq\n      tag_22\n      jumpi\n      0x00\n      dup1\n      revert\n    tag_25:\n      dup1\n      0xbf1ad7e0\n      eq\n      tag_18\n      jumpi\n      dup1\n      0xc5f956af\n      eq\n      tag_19\n      jumpi\n      0x00\n      dup1\n      revert\n    tag_24:\n      dup1\n      0x8da5cb5b\n      gt\n      tag_26\n      jumpi\n      dup1\n      0x8da5cb5b\n      eq\n      tag_15\n      jumpi\n      dup1\n      0x95d89b41\n      eq\n      tag_16\n      jumpi\n      dup1\n      0xa9059cbb\n      eq\n      tag_17\n      jumpi\n      0x00\n      dup1\n      revert\n    tag_26:\n      dup1\n      0x715018a6\n      eq\n      tag_13\n      jumpi\n      dup1\n      0x8456cb59\n      eq\n      tag_14\n      jumpi\n      0x00\n      dup1\n      revert\n    tag_23:\n      dup1\n      0x313ce567\n      gt\n      tag_27\n      jumpi\n      dup1\n      0x3f4ba83a\n      gt\n      tag_28\n      jumpi\n      dup1\n      0x3f4ba83a\n      eq\n      tag_10\n      jumpi\n      dup1\n      0x5c975abb\n      eq\n      tag_11\n      jumpi\n      dup1\n      0x70a08231\n      eq\n      tag_12\n      jumpi\n      0x00\n      dup1\n      revert\n    tag_28:\n      dup1\n      0x313ce567\n      eq\n      tag_8\n      jumpi\n      dup1\n      0x32cb6b0c\n      eq\n      tag_9\n      jumpi\n      0x00\n      dup1\n      revert\n    tag_27:\n      dup1\n      0x18160ddd\n      gt\n      tag_29\n      jumpi\n      dup1\n      0x18160ddd\n      eq\n      tag_5\n      jumpi\n      dup1\n      0x1c75f085\n      eq\n      tag_6\n      jumpi\n      dup1\n      0x23b872dd\n      eq\n      tag_7\n      jumpi\n      0x00\n      dup1\n      revert\n    tag_29:\n      dup1\n      0x06fdde03\n      eq\n      tag_3\n      jumpi\n      dup1\n      0x095ea7b3\n      eq\n      tag_4\n      jumpi\n    tag_2:\n      0x00\n      dup1\n      revert\n        /* \"@openzeppelin/contracts/token/ERC20/ERC20.sol\":1760:1849   */\n    tag_3:\n      tag_30\n      tag_31\n      jump\t// in\n    tag_30:\n      mload(0x40)\n      tag_32\n      swap2\n      swap1\n      tag_33\n      jump\t// in\n    tag_32:\n      mload(0x40)\n      dup1\n      swap2\n      sub\n      swap1\n      return\n        /* \"@openzeppelin/contracts/token/ERC20/ERC20.sol\":3979:4165   */\n    tag_4:\n      tag_34\n      tag_35\n      calldatasize\n      0x04\n      tag_36\n      jump\t// in\n    tag_35:\n      tag_37\n      jump\t// in\n    tag_34:\n      mload(0x40)\n        /* \"#utility.yul\":1062:1076   */\n      swap1\n      iszero\n        /* \"#utility.yul\":1055:1077   */\n      iszero\n        /* \"#utility.yul\":1037:1078   */\n      dup2\n      mstore\n        /* \"#utility.yul\":1025:1027   */\n      0x20\n        /* \"#utility.yul\":1010:1028   */\n      add\n        /* \"@openzeppelin/contracts/token/ERC20/ERC20.sol\":3979:4165   */\n      tag_32\n        /* \"#utility.yul\":897:1084   */\n      jump\n        /* \"@openzeppelin/contracts/token/ERC20/ERC20.sol\":2830:2927   */\n    tag_5:\n        /* \"@openzeppelin/contracts/token/ERC20/ERC20.sol\":2908:2920   */\n      sload(0x02)\n        /* \"@openzeppelin/contracts/token/ERC20/ERC20.sol\":2830:2927   */\n    tag_40:\n      mload(0x40)\n        /* \"#utility.yul\":1235:1260   */\n      swap1\n      dup2\n      mstore\n        /* \"#utility.yul\":1223:1225   */\n      0x20\n        /* \"#utility.yul\":1208:1226   */\n      add\n        /* \"@openzeppelin/contracts/token/ERC20/ERC20.sol\":2830:2927   */\n      tag_32\n        /* \"#utility.yul\":1089:1266   */\n      jump\n        /* \"RoluToken.sol\":981:1007  address public teamAddress */\n    tag_6:\n      sload(0x07)\n      tag_44\n      swap1\n      sub(shl(0xa0, 0x01), 0x01)\n      and\n      dup2\n      jump\n    tag_44:\n      mload(0x40)\n      sub(shl(0xa0, 0x01), 0x01)\n        /* \"#utility.yul\":1435:1490   */\n      swap1\n      swap2\n      and\n        /* \"#utility.yul\":1417:1491   */\n      dup2\n      mstore\n        /* \"#utility.yul\":1405:1407   */\n      0x20\n        /* \"#utility.yul\":1390:1408   */\n      add\n        /* \"RoluToken.sol\":981:1007  address public teamAddress */\n      tag_32\n        /* \"#utility.yul\":1271:1497   */\n      jump\n        /* \"@openzeppelin/contracts/token/ERC20/ERC20.sol\":4757:5001   */\n    tag_7:\n      tag_34\n      tag_49\n      calldatasize\n      0x04\n      tag_50\n      jump\t// in\n    tag_49:\n      tag_51\n      jump\t// in\n        /* \"@openzeppelin/contracts/token/ERC20/ERC20.sol\":2688:2770   */\n    tag_8:\n      mload(0x40)\n        /* \"@openzeppelin/contracts/token/ERC20/ERC20.sol\":2761:2763   */\n      0x12\n        /* \"#utility.yul\":1977:2013   */\n      dup2\n      mstore\n        /* \"#utility.yul\":1965:1967   */\n      0x20\n        /* \"#utility.yul\":1950:1968   */\n      add\n        /* \"@openzeppelin/contracts/token/ERC20/ERC20.sol\":2688:2770   */\n      tag_32\n        /* \"#utility.yul\":1835:2019   */\n      jump\n        /* \"RoluToken.sol\":590:647  uint256 public constant MAX_SUPPLY = 100_000_000 * 10**18 */\n    tag_9:\n      tag_40\n        /* \"RoluToken.sol\":627:647  100_000_000 * 10**18 */\n      0x52b7d2dcc80cd2e4000000\n        /* \"RoluToken.sol\":590:647  uint256 public constant MAX_SUPPLY = 100_000_000 * 10**18 */\n      dup2\n      jump\n        /* \"RoluToken.sol\":1972:2037  function unpause() external onlyOwner {... */\n    tag_10:\n      tag_60\n      tag_61\n      jump\t// in\n    tag_60:\n      stop\n        /* \"@openzeppelin/contracts/utils/Pausable.sol\":1726:1810   */\n    tag_11:\n        /* \"@openzeppelin/contracts/utils/Pausable.sol\":1796:1803   */\n      and(0xff, sload(0x05))\n        /* \"@openzeppelin/contracts/utils/Pausable.sol\":1726:1810   */\n      jump(tag_34)\n        /* \"@openzeppelin/contracts/token/ERC20/ERC20.sol\":2985:3101   */\n    tag_12:\n      tag_40\n      tag_66\n      calldatasize\n      0x04\n      tag_67\n      jump\t// in\n    tag_66:\n      sub(shl(0xa0, 0x01), 0x01)\n        /* \"@openzeppelin/contracts/token/ERC20/ERC20.sol\":3076:3094   */\n      and\n        /* \"@openzeppelin/contracts/token/ERC20/ERC20.sol\":3050:3057   */\n      0x00\n        /* \"@openzeppelin/contracts/token/ERC20/ERC20.sol\":3076:3094   */\n      swap1\n      dup2\n      mstore\n      0x20\n      dup2\n      swap1\n      mstore\n      0x40\n      swap1\n      keccak256\n      sload\n      swap1\n        /* \"@openzeppelin/contracts/token/ERC20/ERC20.sol\":2985:3101   */\n      jump\n        /* \"@openzeppelin/contracts/access/Ownable.sol\":2293:2394   */\n    tag_13:\n      tag_60\n      tag_71\n      jump\t// in\n        /* \"RoluToken.sol\":1803:1864  function pause() external onlyOwner {... */\n    tag_14:\n      tag_60\n      tag_73\n      jump\t// in\n        /* \"@openzeppelin/contracts/access/Ownable.sol\":1638:1723   */\n    tag_15:\n        /* \"@openzeppelin/contracts/access/Ownable.sol\":1710:1716   */\n      sload(0x05)\n      0x0100\n      swap1\n      div\n      sub(shl(0xa0, 0x01), 0x01)\n      and\n        /* \"@openzeppelin/contracts/access/Ownable.sol\":1638:1723   */\n      jump(tag_44)\n        /* \"@openzeppelin/contracts/token/ERC20/ERC20.sol\":1962:2055   */\n    tag_16:\n      tag_30\n      tag_78\n      jump\t// in\n        /* \"@openzeppelin/contracts/token/ERC20/ERC20.sol\":3296:3474   */\n    tag_17:\n      tag_34\n      tag_81\n      calldatasize\n      0x04\n      tag_36\n      jump\t// in\n    tag_81:\n      tag_82\n      jump\t// in\n        /* \"RoluToken.sol\":692:757  uint256 public constant TREASURY_ALLOCATION = 90_000_000 * 10**18 */\n    tag_18:\n      tag_40\n        /* \"RoluToken.sol\":738:757  90_000_000 * 10**18 */\n      0x4a723dc6b40b8a9a000000\n        /* \"RoluToken.sol\":692:757  uint256 public constant TREASURY_ALLOCATION = 90_000_000 * 10**18 */\n      dup2\n      jump\n        /* \"RoluToken.sol\":945:975  address public treasuryAddress */\n    tag_19:\n      sload(0x06)\n      tag_44\n      swap1\n      sub(shl(0xa0, 0x01), 0x01)\n      and\n      dup2\n      jump\n        /* \"@openzeppelin/contracts/token/ERC20/ERC20.sol\":3532:3672   */\n    tag_20:\n      tag_40\n      tag_91\n      calldatasize\n      0x04\n      tag_92\n      jump\t// in\n    tag_91:\n      sub(shl(0xa0, 0x01), 0x01)\n        /* \"@openzeppelin/contracts/token/ERC20/ERC20.sol\":3638:3656   */\n      swap2\n      dup3\n      and\n        /* \"@openzeppelin/contracts/token/ERC20/ERC20.sol\":3612:3619   */\n      0x00\n        /* \"@openzeppelin/contracts/token/ERC20/ERC20.sol\":3638:3656   */\n      swap1\n      dup2\n      mstore\n        /* \"@openzeppelin/contracts/token/ERC20/ERC20.sol\":3638:3649   */\n      0x01\n        /* \"@openzeppelin/contracts/token/ERC20/ERC20.sol\":3638:3656   */\n      0x20\n      swap1\n      dup2\n      mstore\n      0x40\n      dup1\n      dup4\n      keccak256\n        /* \"@openzeppelin/contracts/token/ERC20/ERC20.sol\":3638:3665   */\n      swap4\n      swap1\n      swap5\n      and\n      dup3\n      mstore\n      swap2\n      swap1\n      swap2\n      mstore\n      keccak256\n      sload\n      swap1\n        /* \"@openzeppelin/contracts/token/ERC20/ERC20.sol\":3532:3672   */\n      jump\n        /* \"@openzeppelin/contracts/access/Ownable.sol\":2543:2758   */\n    tag_21:\n      tag_60\n      tag_96\n      calldatasize\n      0x04\n      tag_67\n      jump\t// in\n    tag_96:\n      tag_97\n      jump\t// in\n        /* \"RoluToken.sol\":782:843  uint256 public constant TEAM_ALLOCATION = 10_000_000 * 10**18 */\n    tag_22:\n      tag_40\n        /* \"RoluToken.sol\":824:843  10_000_000 * 10**18 */\n      0x084595161401484a000000\n        /* \"RoluToken.sol\":782:843  uint256 public constant TEAM_ALLOCATION = 10_000_000 * 10**18 */\n      dup2\n      jump\n        /* \"@openzeppelin/contracts/token/ERC20/ERC20.sol\":1760:1849   */\n    tag_31:\n        /* \"@openzeppelin/contracts/token/ERC20/ERC20.sol\":1805:1818   */\n      0x60\n        /* \"@openzeppelin/contracts/token/ERC20/ERC20.sol\":1837:1842   */\n      0x03\n        /* \"@openzeppelin/contracts/token/ERC20/ERC20.sol\":1830:1842   */\n      dup1\n      sload\n      tag_102\n      swap1\n      tag_103\n      jump\t// in\n    tag_102:\n      dup1\n      0x1f\n      add\n      0x20\n      dup1\n      swap2\n      div\n      mul\n      0x20\n      add\n      mload(0x40)\n      swap1\n      dup2\n      add\n      0x40\n      mstore\n      dup1\n      swap3\n      swap2\n      swap1\n      dup2\n      dup2\n      mstore\n      0x20\n      add\n      dup3\n      dup1\n      sload\n      tag_104\n      swap1\n      tag_103\n      jump\t// in\n    tag_104:\n      dup1\n      iszero\n      tag_105\n      jumpi\n      dup1\n      0x1f\n      lt\n      tag_106\n      jumpi\n      0x0100\n      dup1\n      dup4\n      sload\n      div\n      mul\n      dup4\n      mstore\n      swap2\n      0x20\n      add\n      swap2\n      jump(tag_105)\n    tag_106:\n      dup3\n      add\n      swap2\n      swap1\n      0x00\n      mstore\n      keccak256(0x00, 0x20)\n      swap1\n    tag_107:\n      dup2\n      sload\n      dup2\n      mstore\n      swap1\n      0x01\n      add\n      swap1\n      0x20\n      add\n      dup1\n      dup4\n      gt\n      tag_107\n      jumpi\n      dup3\n      swap1\n      sub\n      0x1f\n      and\n      dup3\n      add\n      swap2\n    tag_105:\n      pop\n      pop\n      pop\n      pop\n      pop\n      swap1\n      pop\n        /* \"@openzeppelin/contracts/token/ERC20/ERC20.sol\":1760:1849   */\n      swap1\n      jump\t// out\n        /* \"@openzeppelin/contracts/token/ERC20/ERC20.sol\":3979:4165   */\n    tag_37:\n        /* \"@openzeppelin/contracts/token/ERC20/ERC20.sol\":4052:4056   */\n      0x00\n        /* \"@openzeppelin/contracts/utils/Context.sol\":735:745   */\n      caller\n        /* \"@openzeppelin/contracts/token/ERC20/ERC20.sol\":4106:4137   */\n      tag_111\n        /* \"@openzeppelin/contracts/utils/Context.sol\":735:745   */\n      dup2\n        /* \"@openzeppelin/contracts/token/ERC20/ERC20.sol\":4122:4129   */\n      dup6\n        /* \"@openzeppelin/contracts/token/ERC20/ERC20.sol\":4131:4136   */\n      dup6\n        /* \"@openzeppelin/contracts/token/ERC20/ERC20.sol\":4106:4114   */\n      tag_112\n        /* \"@openzeppelin/contracts/token/ERC20/ERC20.sol\":4106:4137   */\n      jump\t// in\n    tag_111:\n        /* \"@openzeppelin/contracts/token/ERC20/ERC20.sol\":4154:4158   */\n      0x01\n        /* \"@openzeppelin/contracts/token/ERC20/ERC20.sol\":4147:4158   */\n      swap2\n      pop\n      pop\n        /* \"@openzeppelin/contracts/token/ERC20/ERC20.sol\":3979:4165   */\n    tag_108:\n      swap3\n      swap2\n      pop\n      pop\n      jump\t// out\n        /* \"@openzeppelin/contracts/token/ERC20/ERC20.sol\":4757:5001   */\n    tag_51:\n        /* \"@openzeppelin/contracts/token/ERC20/ERC20.sol\":4844:4848   */\n      0x00\n        /* \"@openzeppelin/contracts/utils/Context.sol\":735:745   */\n      caller\n        /* \"@openzeppelin/contracts/token/ERC20/ERC20.sol\":4900:4937   */\n      tag_116\n        /* \"@openzeppelin/contracts/token/ERC20/ERC20.sol\":4916:4920   */\n      dup6\n        /* \"@openzeppelin/contracts/utils/Context.sol\":735:745   */\n      dup3\n        /* \"@openzeppelin/contracts/token/ERC20/ERC20.sol\":4931:4936   */\n      dup6\n        /* \"@openzeppelin/contracts/token/ERC20/ERC20.sol\":4900:4915   */\n      tag_117\n        /* \"@openzeppelin/contracts/token/ERC20/ERC20.sol\":4900:4937   */\n      jump\t// in\n    tag_116:\n        /* \"@openzeppelin/contracts/token/ERC20/ERC20.sol\":4947:4973   */\n      tag_118\n        /* \"@openzeppelin/contracts/token/ERC20/ERC20.sol\":4957:4961   */\n      dup6\n        /* \"@openzeppelin/contracts/token/ERC20/ERC20.sol\":4963:4965   */\n      dup6\n        /* \"@openzeppelin/contracts/token/ERC20/ERC20.sol\":4967:4972   */\n      dup6\n        /* \"@openzeppelin/contracts/token/ERC20/ERC20.sol\":4947:4956   */\n      tag_119\n        /* \"@openzeppelin/contracts/token/ERC20/ERC20.sol\":4947:4973   */\n      jump\t// in\n    tag_118:\n      pop\n        /* \"@openzeppelin/contracts/token/ERC20/ERC20.sol\":4990:4994   */\n      0x01\n      swap5\n        /* \"@openzeppelin/contracts/token/ERC20/ERC20.sol\":4757:5001   */\n      swap4\n      pop\n      pop\n      pop\n      pop\n      jump\t// out\n        /* \"RoluToken.sol\":1972:2037  function unpause() external onlyOwner {... */\n    tag_61:\n        /* \"@openzeppelin/contracts/access/Ownable.sol\":1531:1544   */\n      tag_122\n        /* \"@openzeppelin/contracts/access/Ownable.sol\":1531:1542   */\n      tag_123\n        /* \"@openzeppelin/contracts/access/Ownable.sol\":1531:1544   */\n      jump\t// in\n    tag_122:\n        /* \"RoluToken.sol\":2020:2030  _unpause() */\n      tag_125\n        /* \"RoluToken.sol\":2020:2028  _unpause */\n      tag_126\n        /* \"RoluToken.sol\":2020:2030  _unpause() */\n      jump\t// in\n    tag_125:\n        /* \"RoluToken.sol\":1972:2037  function unpause() external onlyOwner {... */\n      jump\t// out\n        /* \"@openzeppelin/contracts/access/Ownable.sol\":2293:2394   */\n    tag_71:\n        /* \"@openzeppelin/contracts/access/Ownable.sol\":1531:1544   */\n      tag_130\n        /* \"@openzeppelin/contracts/access/Ownable.sol\":1531:1542   */\n      tag_123\n        /* \"@openzeppelin/contracts/access/Ownable.sol\":1531:1544   */\n      jump\t// in\n    tag_130:\n        /* \"@openzeppelin/contracts/access/Ownable.sol\":2357:2387   */\n      tag_125\n        /* \"@openzeppelin/contracts/access/Ownable.sol\":2384:2385   */\n      0x00\n        /* \"@openzeppelin/contracts/access/Ownable.sol\":2357:2375   */\n      tag_133\n        /* \"@openzeppelin/contracts/access/Ownable.sol\":2357:2387   */\n      jump\t// in\n        /* \"RoluToken.sol\":1803:1864  function pause() external onlyOwner {... */\n    tag_73:\n        /* \"@openzeppelin/contracts/access/Ownable.sol\":1531:1544   */\n      tag_135\n        /* \"@openzeppelin/contracts/access/Ownable.sol\":1531:1542   */\n      tag_123\n        /* \"@openzeppelin/contracts/access/Ownable.sol\":1531:1544   */\n      jump\t// in\n    tag_135:\n        /* \"RoluToken.sol\":1849:1857  _pause() */\n      tag_125\n        /* \"RoluToken.sol\":1849:1855  _pause */\n      tag_138\n        /* \"RoluToken.sol\":1849:1857  _pause() */\n      jump\t// in\n        /* \"@openzeppelin/contracts/token/ERC20/ERC20.sol\":1962:2055   */\n    tag_78:\n        /* \"@openzeppelin/contracts/token/ERC20/ERC20.sol\":2009:2022   */\n      0x60\n        /* \"@openzeppelin/contracts/token/ERC20/ERC20.sol\":2041:2048   */\n      0x04\n        /* \"@openzeppelin/contracts/token/ERC20/ERC20.sol\":2034:2048   */\n      dup1\n      sload\n      tag_102\n      swap1\n      tag_103\n      jump\t// in\n        /* \"@openzeppelin/contracts/token/ERC20/ERC20.sol\":3296:3474   */\n    tag_82:\n        /* \"@openzeppelin/contracts/token/ERC20/ERC20.sol\":3365:3369   */\n      0x00\n        /* \"@openzeppelin/contracts/utils/Context.sol\":735:745   */\n      caller\n        /* \"@openzeppelin/contracts/token/ERC20/ERC20.sol\":3419:3446   */\n      tag_111\n        /* \"@openzeppelin/contracts/utils/Context.sol\":735:745   */\n      dup2\n        /* \"@openzeppelin/contracts/token/ERC20/ERC20.sol\":3436:3438   */\n      dup6\n        /* \"@openzeppelin/contracts/token/ERC20/ERC20.sol\":3440:3445   */\n      dup6\n        /* \"@openzeppelin/contracts/token/ERC20/ERC20.sol\":3419:3428   */\n      tag_119\n        /* \"@openzeppelin/contracts/token/ERC20/ERC20.sol\":3419:3446   */\n      jump\t// in\n        /* \"@openzeppelin/contracts/access/Ownable.sol\":2543:2758   */\n    tag_97:\n        /* \"@openzeppelin/contracts/access/Ownable.sol\":1531:1544   */\n      tag_151\n        /* \"@openzeppelin/contracts/access/Ownable.sol\":1531:1542   */\n      tag_123\n        /* \"@openzeppelin/contracts/access/Ownable.sol\":1531:1544   */\n      jump\t// in\n    tag_151:\n      sub(shl(0xa0, 0x01), 0x01)\n        /* \"@openzeppelin/contracts/access/Ownable.sol\":2627:2649   */\n      dup2\n      and\n        /* \"@openzeppelin/contracts/access/Ownable.sol\":2623:2714   */\n      tag_153\n      jumpi\n        /* \"@openzeppelin/contracts/access/Ownable.sol\":2672:2703   */\n      mload(0x40)\n      shl(0xe0, 0x1e4fbdf7)\n      dup2\n      mstore\n        /* \"@openzeppelin/contracts/access/Ownable.sol\":2700:2701   */\n      0x00\n        /* \"@openzeppelin/contracts/access/Ownable.sol\":2672:2703   */\n      0x04\n      dup3\n      add\n        /* \"#utility.yul\":1417:1491   */\n      mstore\n        /* \"#utility.yul\":1390:1408   */\n      0x24\n      add\n        /* \"@openzeppelin/contracts/access/Ownable.sol\":2672:2703   */\n    tag_154:\n      mload(0x40)\n      dup1\n      swap2\n      sub\n      swap1\n      revert\n        /* \"@openzeppelin/contracts/access/Ownable.sol\":2623:2714   */\n    tag_153:\n        /* \"@openzeppelin/contracts/access/Ownable.sol\":2723:2751   */\n      tag_155\n        /* \"@openzeppelin/contracts/access/Ownable.sol\":2742:2750   */\n      dup2\n        /* \"@openzeppelin/contracts/access/Ownable.sol\":2723:2741   */\n      tag_133\n        /* \"@openzeppelin/contracts/access/Ownable.sol\":2723:2751   */\n      jump\t// in\n    tag_155:\n        /* \"@openzeppelin/contracts/access/Ownable.sol\":2543:2758   */\n      pop\n      jump\t// out\n        /* \"@openzeppelin/contracts/token/ERC20/ERC20.sol\":8707:8835   */\n    tag_112:\n        /* \"@openzeppelin/contracts/token/ERC20/ERC20.sol\":8791:8828   */\n      tag_158\n        /* \"@openzeppelin/contracts/token/ERC20/ERC20.sol\":8800:8805   */\n      dup4\n        /* \"@openzeppelin/contracts/token/ERC20/ERC20.sol\":8807:8814   */\n      dup4\n        /* \"@openzeppelin/contracts/token/ERC20/ERC20.sol\":8816:8821   */\n      dup4\n        /* \"@openzeppelin/contracts/token/ERC20/ERC20.sol\":8823:8827   */\n      0x01\n        /* \"@openzeppelin/contracts/token/ERC20/ERC20.sol\":8791:8799   */\n      tag_159\n        /* \"@openzeppelin/contracts/token/ERC20/ERC20.sol\":8791:8828   */\n      jump\t// in\n    tag_158:\n        /* \"@openzeppelin/contracts/token/ERC20/ERC20.sol\":8707:8835   */\n      pop\n      pop\n      pop\n      jump\t// out\n        /* \"@openzeppelin/contracts/token/ERC20/ERC20.sol\":10396:10872   */\n    tag_117:\n      sub(shl(0xa0, 0x01), 0x01)\n        /* \"@openzeppelin/contracts/token/ERC20/ERC20.sol\":3638:3656   */\n      dup4\n      dup2\n      and\n        /* \"@openzeppelin/contracts/token/ERC20/ERC20.sol\":10495:10519   */\n      0x00\n        /* \"@openzeppelin/contracts/token/ERC20/ERC20.sol\":3638:3656   */\n      swap1\n      dup2\n      mstore\n        /* \"@openzeppelin/contracts/token/ERC20/ERC20.sol\":3638:3649   */\n      0x01\n        /* \"@openzeppelin/contracts/token/ERC20/ERC20.sol\":3638:3656   */\n      0x20\n      swap1\n      dup2\n      mstore\n      0x40\n      dup1\n      dup4\n      keccak256\n        /* \"@openzeppelin/contracts/token/ERC20/ERC20.sol\":3638:3665   */\n      swap4\n      dup7\n      and\n      dup4\n      mstore\n      swap3\n      swap1\n      mstore\n      keccak256\n      sload\n      not(0x00)\n        /* \"@openzeppelin/contracts/token/ERC20/ERC20.sol\":10561:10597   */\n      dup2\n      lt\n        /* \"@openzeppelin/contracts/token/ERC20/ERC20.sol\":10557:10866   */\n      iszero\n      tag_166\n      jumpi\n        /* \"@openzeppelin/contracts/token/ERC20/ERC20.sol\":10636:10641   */\n      dup2\n        /* \"@openzeppelin/contracts/token/ERC20/ERC20.sol\":10617:10633   */\n      dup2\n        /* \"@openzeppelin/contracts/token/ERC20/ERC20.sol\":10617:10641   */\n      lt\n        /* \"@openzeppelin/contracts/token/ERC20/ERC20.sol\":10613:10743   */\n      iszero\n      tag_163\n      jumpi\n        /* \"@openzeppelin/contracts/token/ERC20/ERC20.sol\":10668:10728   */\n      mload(0x40)\n      shl(0xe1, 0x7dc7a0d9)\n      dup2\n      mstore\n      sub(shl(0xa0, 0x01), 0x01)\n        /* \"#utility.yul\":3085:3140   */\n      dup5\n      and\n        /* \"@openzeppelin/contracts/token/ERC20/ERC20.sol\":10668:10728   */\n      0x04\n      dup3\n      add\n        /* \"#utility.yul\":3067:3141   */\n      mstore\n        /* \"#utility.yul\":3157:3175   */\n      0x24\n      dup2\n      add\n        /* \"#utility.yul\":3150:3184   */\n      dup3\n      swap1\n      mstore\n        /* \"#utility.yul\":3200:3218   */\n      0x44\n      dup2\n      add\n        /* \"#utility.yul\":3193:3227   */\n      dup4\n      swap1\n      mstore\n        /* \"#utility.yul\":3040:3058   */\n      0x64\n      add\n        /* \"@openzeppelin/contracts/token/ERC20/ERC20.sol\":10668:10728   */\n      tag_154\n        /* \"#utility.yul\":2865:3233   */\n      jump\n        /* \"@openzeppelin/contracts/token/ERC20/ERC20.sol\":10613:10743   */\n    tag_163:\n        /* \"@openzeppelin/contracts/token/ERC20/ERC20.sol\":10784:10841   */\n      tag_166\n        /* \"@openzeppelin/contracts/token/ERC20/ERC20.sol\":10793:10798   */\n      dup5\n        /* \"@openzeppelin/contracts/token/ERC20/ERC20.sol\":10800:10807   */\n      dup5\n        /* \"@openzeppelin/contracts/token/ERC20/ERC20.sol\":10828:10833   */\n      dup5\n        /* \"@openzeppelin/contracts/token/ERC20/ERC20.sol\":10809:10825   */\n      dup5\n        /* \"@openzeppelin/contracts/token/ERC20/ERC20.sol\":10809:10833   */\n      sub\n        /* \"@openzeppelin/contracts/token/ERC20/ERC20.sol\":10835:10840   */\n      0x00\n        /* \"@openzeppelin/contracts/token/ERC20/ERC20.sol\":10784:10792   */\n      tag_159\n        /* \"@openzeppelin/contracts/token/ERC20/ERC20.sol\":10784:10841   */\n      jump\t// in\n    tag_166:\n        /* \"@openzeppelin/contracts/token/ERC20/ERC20.sol\":10485:10872   */\n      pop\n        /* \"@openzeppelin/contracts/token/ERC20/ERC20.sol\":10396:10872   */\n      pop\n      pop\n      pop\n      jump\t// out\n        /* \"@openzeppelin/contracts/token/ERC20/ERC20.sol\":5374:5674   */\n    tag_119:\n      sub(shl(0xa0, 0x01), 0x01)\n        /* \"@openzeppelin/contracts/token/ERC20/ERC20.sol\":5457:5475   */\n      dup4\n      and\n        /* \"@openzeppelin/contracts/token/ERC20/ERC20.sol\":5453:5539   */\n      tag_168\n      jumpi\n        /* \"@openzeppelin/contracts/token/ERC20/ERC20.sol\":5498:5528   */\n      mload(0x40)\n      shl(0xe1, 0x4b637e8f)\n      dup2\n      mstore\n        /* \"@openzeppelin/contracts/token/ERC20/ERC20.sol\":5525:5526   */\n      0x00\n        /* \"@openzeppelin/contracts/token/ERC20/ERC20.sol\":5498:5528   */\n      0x04\n      dup3\n      add\n        /* \"#utility.yul\":1417:1491   */\n      mstore\n        /* \"#utility.yul\":1390:1408   */\n      0x24\n      add\n        /* \"@openzeppelin/contracts/token/ERC20/ERC20.sol\":5498:5528   */\n      tag_154\n        /* \"#utility.yul\":1271:1497   */\n      jump\n        /* \"@openzeppelin/contracts/token/ERC20/ERC20.sol\":5453:5539   */\n    tag_168:\n      sub(shl(0xa0, 0x01), 0x01)\n        /* \"@openzeppelin/contracts/token/ERC20/ERC20.sol\":5552:5568   */\n      dup3\n      and\n        /* \"@openzeppelin/contracts/token/ERC20/ERC20.sol\":5548:5634   */\n      tag_170\n      jumpi\n        /* \"@openzeppelin/contracts/token/ERC20/ERC20.sol\":5591:5623   */\n      mload(0x40)\n      shl(0xe0, 0xec442f05)\n      dup2\n      mstore\n        /* \"@openzeppelin/contracts/token/ERC20/ERC20.sol\":5620:5621   */\n      0x00\n        /* \"@openzeppelin/contracts/token/ERC20/ERC20.sol\":5591:5623   */\n      0x04\n      dup3\n      add\n        /* \"#utility.yul\":1417:1491   */\n      mstore\n        /* \"#utility.yul\":1390:1408   */\n      0x24\n      add\n        /* \"@openzeppelin/contracts/token/ERC20/ERC20.sol\":5591:5623   */\n      tag_154\n        /* \"#utility.yul\":1271:1497   */\n      jump\n        /* \"@openzeppelin/contracts/token/ERC20/ERC20.sol\":5548:5634   */\n    tag_170:\n        /* \"@openzeppelin/contracts/token/ERC20/ERC20.sol\":5643:5667   */\n      tag_158\n        /* \"@openzeppelin/contracts/token/ERC20/ERC20.sol\":5651:5655   */\n      dup4\n        /* \"@openzeppelin/contracts/token/ERC20/ERC20.sol\":5657:5659   */\n      dup4\n        /* \"@openzeppelin/contracts/token/ERC20/ERC20.sol\":5661:5666   */\n      dup4\n        /* \"@openzeppelin/contracts/token/ERC20/ERC20.sol\":5643:5650   */\n      tag_173\n        /* \"@openzeppelin/contracts/token/ERC20/ERC20.sol\":5643:5667   */\n      jump\t// in\n        /* \"@openzeppelin/contracts/access/Ownable.sol\":1796:1958   */\n    tag_123:\n        /* \"@openzeppelin/contracts/access/Ownable.sol\":1710:1716   */\n      sload(0x05)\n      sub(shl(0xa0, 0x01), 0x01)\n      0x0100\n      swap1\n      swap2\n      div\n      and\n        /* \"@openzeppelin/contracts/utils/Context.sol\":735:745   */\n      caller\n        /* \"@openzeppelin/contracts/access/Ownable.sol\":1855:1878   */\n      eq\n        /* \"@openzeppelin/contracts/access/Ownable.sol\":1851:1952   */\n      tag_125\n      jumpi\n        /* \"@openzeppelin/contracts/access/Ownable.sol\":1901:1941   */\n      mload(0x40)\n      shl(0xe0, 0x118cdaa7)\n      dup2\n      mstore\n        /* \"@openzeppelin/contracts/utils/Context.sol\":735:745   */\n      caller\n        /* \"@openzeppelin/contracts/access/Ownable.sol\":1901:1941   */\n      0x04\n      dup3\n      add\n        /* \"#utility.yul\":1417:1491   */\n      mstore\n        /* \"#utility.yul\":1390:1408   */\n      0x24\n      add\n        /* \"@openzeppelin/contracts/access/Ownable.sol\":1901:1941   */\n      tag_154\n        /* \"#utility.yul\":1271:1497   */\n      jump\n        /* \"@openzeppelin/contracts/utils/Pausable.sol\":2586:2703   */\n    tag_126:\n        /* \"@openzeppelin/contracts/utils/Pausable.sol\":1597:1613   */\n      tag_181\n        /* \"@openzeppelin/contracts/utils/Pausable.sol\":1597:1611   */\n      tag_182\n        /* \"@openzeppelin/contracts/utils/Pausable.sol\":1597:1613   */\n      jump\t// in\n    tag_181:\n        /* \"@openzeppelin/contracts/utils/Pausable.sol\":2644:2651   */\n      0x05\n        /* \"@openzeppelin/contracts/utils/Pausable.sol\":2644:2659   */\n      dup1\n      sload\n      not(0xff)\n      and\n      swap1\n      sstore\n        /* \"@openzeppelin/contracts/utils/Pausable.sol\":2674:2696   */\n      0x5db9ee0a495bf2e6ff9c91a7834c1ba4fdd244a5e8aa4e537bd38aeae4b073aa\n        /* \"@openzeppelin/contracts/utils/Context.sol\":735:745   */\n      caller\n        /* \"@openzeppelin/contracts/utils/Pausable.sol\":2683:2695   */\n    tag_184:\n        /* \"@openzeppelin/contracts/utils/Pausable.sol\":2674:2696   */\n      mload(0x40)\n      sub(shl(0xa0, 0x01), 0x01)\n        /* \"#utility.yul\":1435:1490   */\n      swap1\n      swap2\n      and\n        /* \"#utility.yul\":1417:1491   */\n      dup2\n      mstore\n        /* \"#utility.yul\":1405:1407   */\n      0x20\n        /* \"#utility.yul\":1390:1408   */\n      add\n        /* \"@openzeppelin/contracts/utils/Pausable.sol\":2674:2696   */\n      mload(0x40)\n      dup1\n      swap2\n      sub\n      swap1\n      log1\n        /* \"@openzeppelin/contracts/utils/Pausable.sol\":2586:2703   */\n      jump\t// out\n        /* \"@openzeppelin/contracts/access/Ownable.sol\":2912:3099   */\n    tag_133:\n        /* \"@openzeppelin/contracts/access/Ownable.sol\":3004:3010   */\n      0x05\n      dup1\n      sload\n      sub(shl(0xa0, 0x01), 0x01)\n        /* \"@openzeppelin/contracts/access/Ownable.sol\":3020:3037   */\n      dup4\n      dup2\n      and\n        /* \"@openzeppelin/contracts/access/Ownable.sol\":3004:3010   */\n      0x0100\n        /* \"@openzeppelin/contracts/access/Ownable.sol\":3020:3037   */\n      dup2\n      dup2\n      mul\n      0xffffffffffffffffffffff0000000000000000000000000000000000000000ff\n      dup6\n      and\n      or\n      swap1\n      swap5\n      sstore\n        /* \"@openzeppelin/contracts/access/Ownable.sol\":3052:3092   */\n      mload(0x40)\n        /* \"@openzeppelin/contracts/access/Ownable.sol\":3004:3010   */\n      swap4\n      swap1\n      swap3\n      div\n      and\n      swap2\n      dup3\n      swap1\n        /* \"@openzeppelin/contracts/access/Ownable.sol\":3052:3092   */\n      0x8be0079c531659141344cd1fd0a4f28419497f9722a3daafe3b4186f6b6457e0\n      swap1\n        /* \"@openzeppelin/contracts/access/Ownable.sol\":2985:3001   */\n      0x00\n      swap1\n        /* \"@openzeppelin/contracts/access/Ownable.sol\":3052:3092   */\n      log3\n        /* \"@openzeppelin/contracts/access/Ownable.sol\":2975:3099   */\n      pop\n        /* \"@openzeppelin/contracts/access/Ownable.sol\":2912:3099   */\n      pop\n      jump\t// out\n        /* \"@openzeppelin/contracts/utils/Pausable.sol\":2339:2454   */\n    tag_138:\n        /* \"@openzeppelin/contracts/utils/Pausable.sol\":1350:1369   */\n      tag_188\n        /* \"@openzeppelin/contracts/utils/Pausable.sol\":1350:1367   */\n      tag_189\n        /* \"@openzeppelin/contracts/utils/Pausable.sol\":1350:1369   */\n      jump\t// in\n    tag_188:\n        /* \"@openzeppelin/contracts/utils/Pausable.sol\":2398:2405   */\n      0x05\n        /* \"@openzeppelin/contracts/utils/Pausable.sol\":2398:2412   */\n      dup1\n      sload\n      not(0xff)\n      and\n        /* \"@openzeppelin/contracts/utils/Pausable.sol\":2408:2412   */\n      0x01\n        /* \"@openzeppelin/contracts/utils/Pausable.sol\":2398:2412   */\n      or\n      swap1\n      sstore\n        /* \"@openzeppelin/contracts/utils/Pausable.sol\":2427:2447   */\n      0x62e78cea01bee320cd4e420270b5ea74000d11b0c9f74754ebdbfc544b05a258\n        /* \"@openzeppelin/contracts/utils/Pausable.sol\":2434:2446   */\n      tag_184\n        /* \"@openzeppelin/contracts/utils/Context.sol\":735:745   */\n      caller\n      swap1\n        /* \"@openzeppelin/contracts/utils/Context.sol\":656:752   */\n      jump\n        /* \"@openzeppelin/contracts/token/ERC20/ERC20.sol\":9682:10114   */\n    tag_159:\n      sub(shl(0xa0, 0x01), 0x01)\n        /* \"@openzeppelin/contracts/token/ERC20/ERC20.sol\":9794:9813   */\n      dup5\n      and\n        /* \"@openzeppelin/contracts/token/ERC20/ERC20.sol\":9790:9879   */\n      tag_194\n      jumpi\n        /* \"@openzeppelin/contracts/token/ERC20/ERC20.sol\":9836:9868   */\n      mload(0x40)\n      shl(0xe0, 0xe602df05)\n      dup2\n      mstore\n        /* \"@openzeppelin/contracts/token/ERC20/ERC20.sol\":9865:9866   */\n      0x00\n        /* \"@openzeppelin/contracts/token/ERC20/ERC20.sol\":9836:9868   */\n      0x04\n      dup3\n      add\n        /* \"#utility.yul\":1417:1491   */\n      mstore\n        /* \"#utility.yul\":1390:1408   */\n      0x24\n      add\n        /* \"@openzeppelin/contracts/token/ERC20/ERC20.sol\":9836:9868   */\n      tag_154\n        /* \"#utility.yul\":1271:1497   */\n      jump\n        /* \"@openzeppelin/contracts/token/ERC20/ERC20.sol\":9790:9879   */\n    tag_194:\n      sub(shl(0xa0, 0x01), 0x01)\n        /* \"@openzeppelin/contracts/token/ERC20/ERC20.sol\":9892:9913   */\n      dup4\n      and\n        /* \"@openzeppelin/contracts/token/ERC20/ERC20.sol\":9888:9978   */\n      tag_196\n      jumpi\n        /* \"@openzeppelin/contracts/token/ERC20/ERC20.sol\":9936:9967   */\n      mload(0x40)\n      shl(0xe1, 0x4a1406b1)\n      dup2\n      mstore\n        /* \"@openzeppelin/contracts/token/ERC20/ERC20.sol\":9964:9965   */\n      0x00\n        /* \"@openzeppelin/contracts/token/ERC20/ERC20.sol\":9936:9967   */\n      0x04\n      dup3\n      add\n        /* \"#utility.yul\":1417:1491   */\n      mstore\n        /* \"#utility.yul\":1390:1408   */\n      0x24\n      add\n        /* \"@openzeppelin/contracts/token/ERC20/ERC20.sol\":9936:9967   */\n      tag_154\n        /* \"#utility.yul\":1271:1497   */\n      jump\n        /* \"@openzeppelin/contracts/token/ERC20/ERC20.sol\":9888:9978   */\n    tag_196:\n      sub(shl(0xa0, 0x01), 0x01)\n        /* \"@openzeppelin/contracts/token/ERC20/ERC20.sol\":9987:10005   */\n      dup1\n      dup6\n      and\n      0x00\n      swap1\n      dup2\n      mstore\n        /* \"@openzeppelin/contracts/token/ERC20/ERC20.sol\":9987:9998   */\n      0x01\n        /* \"@openzeppelin/contracts/token/ERC20/ERC20.sol\":9987:10005   */\n      0x20\n      swap1\n      dup2\n      mstore\n      0x40\n      dup1\n      dup4\n      keccak256\n        /* \"@openzeppelin/contracts/token/ERC20/ERC20.sol\":9987:10014   */\n      swap4\n      dup8\n      and\n      dup4\n      mstore\n      swap3\n      swap1\n      mstore\n      keccak256\n        /* \"@openzeppelin/contracts/token/ERC20/ERC20.sol\":9987:10022   */\n      dup3\n      swap1\n      sstore\n        /* \"@openzeppelin/contracts/token/ERC20/ERC20.sol\":10032:10108   */\n      dup1\n      iszero\n      tag_166\n      jumpi\n        /* \"@openzeppelin/contracts/token/ERC20/ERC20.sol\":10082:10089   */\n      dup3\n      sub(shl(0xa0, 0x01), 0x01)\n        /* \"@openzeppelin/contracts/token/ERC20/ERC20.sol\":10066:10097   */\n      and\n        /* \"@openzeppelin/contracts/token/ERC20/ERC20.sol\":10075:10080   */\n      dup5\n      sub(shl(0xa0, 0x01), 0x01)\n        /* \"@openzeppelin/contracts/token/ERC20/ERC20.sol\":10066:10097   */\n      and\n      0x8c5be1e5ebec7d5bd14f71427d1e84f3dd0314c0f7b2291e5b200ac8c7c3b925\n        /* \"@openzeppelin/contracts/token/ERC20/ERC20.sol\":10091:10096   */\n      dup5\n        /* \"@openzeppelin/contracts/token/ERC20/ERC20.sol\":10066:10097   */\n      mload(0x40)\n      tag_199\n      swap2\n        /* \"#utility.yul\":1235:1260   */\n      dup2\n      mstore\n        /* \"#utility.yul\":1223:1225   */\n      0x20\n        /* \"#utility.yul\":1208:1226   */\n      add\n      swap1\n        /* \"#utility.yul\":1089:1266   */\n      jump\n        /* \"@openzeppelin/contracts/token/ERC20/ERC20.sol\":10066:10097   */\n    tag_199:\n      mload(0x40)\n      dup1\n      swap2\n      sub\n      swap1\n      log3\n        /* \"@openzeppelin/contracts/token/ERC20/ERC20.sol\":9682:10114   */\n      pop\n      pop\n      pop\n      pop\n      jump\t// out\n        /* \"RoluToken.sol\":2193:2370  function _update(... */\n    tag_173:\n        /* \"RoluToken.sol\":2332:2363  super._update(from, to, amount) */\n      tag_158\n        /* \"RoluToken.sol\":2346:2350  from */\n      dup4\n        /* \"RoluToken.sol\":2352:2354  to */\n      dup4\n        /* \"RoluToken.sol\":2356:2362  amount */\n      dup4\n        /* \"RoluToken.sol\":2332:2345  super._update */\n      tag_202\n        /* \"RoluToken.sol\":2332:2363  super._update(from, to, amount) */\n      jump\t// in\n        /* \"@openzeppelin/contracts/utils/Pausable.sol\":2078:2204   */\n    tag_182:\n        /* \"@openzeppelin/contracts/utils/Pausable.sol\":1796:1803   */\n      and(0xff, sload(0x05))\n        /* \"@openzeppelin/contracts/utils/Pausable.sol\":2136:2198   */\n      tag_125\n      jumpi\n        /* \"@openzeppelin/contracts/utils/Pausable.sol\":2172:2187   */\n      mload(0x40)\n      shl(0xe0, 0x8dfc202b)\n      dup2\n      mstore\n      0x04\n      add\n      mload(0x40)\n      dup1\n      swap2\n      sub\n      swap1\n      revert\n        /* \"@openzeppelin/contracts/utils/Pausable.sol\":1878:2006   */\n    tag_189:\n        /* \"@openzeppelin/contracts/utils/Pausable.sol\":1796:1803   */\n      and(0xff, sload(0x05))\n        /* \"@openzeppelin/contracts/utils/Pausable.sol\":1939:2000   */\n      iszero\n      tag_125\n      jumpi\n        /* \"@openzeppelin/contracts/utils/Pausable.sol\":1974:1989   */\n      mload(0x40)\n      shl(0xe0, 0xd93c0665)\n      dup2\n      mstore\n      0x04\n      add\n      mload(0x40)\n      dup1\n      swap2\n      sub\n      swap1\n      revert\n        /* \"@openzeppelin/contracts/token/ERC20/extensions/ERC20Pausable.sol\":1113:1258   */\n    tag_202:\n        /* \"@openzeppelin/contracts/utils/Pausable.sol\":1350:1369   */\n      tag_210\n        /* \"@openzeppelin/contracts/utils/Pausable.sol\":1350:1367   */\n      tag_189\n        /* \"@openzeppelin/contracts/utils/Pausable.sol\":1350:1369   */\n      jump\t// in\n    tag_210:\n        /* \"@openzeppelin/contracts/token/ERC20/extensions/ERC20Pausable.sol\":1221:1251   */\n      tag_158\n        /* \"@openzeppelin/contracts/token/ERC20/extensions/ERC20Pausable.sol\":1235:1239   */\n      dup4\n        /* \"@openzeppelin/contracts/token/ERC20/extensions/ERC20Pausable.sol\":1241:1243   */\n      dup4\n        /* \"@openzeppelin/contracts/token/ERC20/extensions/ERC20Pausable.sol\":1245:1250   */\n      dup4\n      sub(shl(0xa0, 0x01), 0x01)\n        /* \"@openzeppelin/contracts/token/ERC20/ERC20.sol\":6078:6096   */\n      dup4\n      and\n        /* \"@openzeppelin/contracts/token/ERC20/ERC20.sol\":6074:6614   */\n      tag_215\n      jumpi\n        /* \"@openzeppelin/contracts/token/ERC20/ERC20.sol\":6230:6235   */\n      dup1\n        /* \"@openzeppelin/contracts/token/ERC20/ERC20.sol\":6214:6226   */\n      0x02\n      0x00\n        /* \"@openzeppelin/contracts/token/ERC20/ERC20.sol\":6214:6235   */\n      dup3\n      dup3\n      sload\n      tag_216\n      swap2\n      swap1\n      tag_217\n      jump\t// in\n    tag_216:\n      swap1\n      swap2\n      sstore\n      pop\n        /* \"@openzeppelin/contracts/token/ERC20/ERC20.sol\":6074:6614   */\n      tag_218\n      swap1\n      pop\n      jump\n    tag_215:\n      sub(shl(0xa0, 0x01), 0x01)\n        /* \"@openzeppelin/contracts/token/ERC20/ERC20.sol\":6288:6303   */\n      dup4\n      and\n        /* \"@openzeppelin/contracts/token/ERC20/ERC20.sol\":6266:6285   */\n      0x00\n        /* \"@openzeppelin/contracts/token/ERC20/ERC20.sol\":6288:6303   */\n      swap1\n      dup2\n      mstore\n      0x20\n      dup2\n      swap1\n      mstore\n      0x40\n      swap1\n      keccak256\n      sload\n        /* \"@openzeppelin/contracts/token/ERC20/ERC20.sol\":6321:6340   */\n      dup2\n      dup2\n      lt\n        /* \"@openzeppelin/contracts/token/ERC20/ERC20.sol\":6317:6432   */\n      iszero\n      tag_219\n      jumpi\n        /* \"@openzeppelin/contracts/token/ERC20/ERC20.sol\":6367:6417   */\n      mload(0x40)\n      shl(0xe2, 0x391434e3)\n      dup2\n      mstore\n      sub(shl(0xa0, 0x01), 0x01)\n        /* \"#utility.yul\":3085:3140   */\n      dup6\n      and\n        /* \"@openzeppelin/contracts/token/ERC20/ERC20.sol\":6367:6417   */\n      0x04\n      dup3\n      add\n        /* \"#utility.yul\":3067:3141   */\n      mstore\n        /* \"#utility.yul\":3157:3175   */\n      0x24\n      dup2\n      add\n        /* \"#utility.yul\":3150:3184   */\n      dup3\n      swap1\n      mstore\n        /* \"#utility.yul\":3200:3218   */\n      0x44\n      dup2\n      add\n        /* \"#utility.yul\":3193:3227   */\n      dup4\n      swap1\n      mstore\n        /* \"#utility.yul\":3040:3058   */\n      0x64\n      add\n        /* \"@openzeppelin/contracts/token/ERC20/ERC20.sol\":6367:6417   */\n      tag_154\n        /* \"#utility.yul\":2865:3233   */\n      jump\n        /* \"@openzeppelin/contracts/token/ERC20/ERC20.sol\":6317:6432   */\n    tag_219:\n      sub(shl(0xa0, 0x01), 0x01)\n        /* \"@openzeppelin/contracts/token/ERC20/ERC20.sol\":6552:6567   */\n      dup5\n      and\n        /* \"@openzeppelin/contracts/token/ERC20/ERC20.sol\":6552:6561   */\n      0x00\n        /* \"@openzeppelin/contracts/token/ERC20/ERC20.sol\":6552:6567   */\n      swap1\n      dup2\n      mstore\n      0x20\n      dup2\n      swap1\n      mstore\n      0x40\n      swap1\n      keccak256\n        /* \"@openzeppelin/contracts/token/ERC20/ERC20.sol\":6570:6589   */\n      swap1\n      dup3\n      swap1\n      sub\n        /* \"@openzeppelin/contracts/token/ERC20/ERC20.sol\":6552:6589   */\n      swap1\n      sstore\n        /* \"@openzeppelin/contracts/token/ERC20/ERC20.sol\":6074:6614   */\n    tag_218:\n      sub(shl(0xa0, 0x01), 0x01)\n        /* \"@openzeppelin/contracts/token/ERC20/ERC20.sol\":6628:6644   */\n      dup3\n      and\n        /* \"@openzeppelin/contracts/token/ERC20/ERC20.sol\":6624:7049   */\n      tag_221\n      jumpi\n        /* \"@openzeppelin/contracts/token/ERC20/ERC20.sol\":6791:6803   */\n      0x02\n        /* \"@openzeppelin/contracts/token/ERC20/ERC20.sol\":6791:6812   */\n      dup1\n      sload\n      dup3\n      swap1\n      sub\n      swap1\n      sstore\n        /* \"@openzeppelin/contracts/token/ERC20/ERC20.sol\":6624:7049   */\n      jump(tag_222)\n    tag_221:\n      sub(shl(0xa0, 0x01), 0x01)\n        /* \"@openzeppelin/contracts/token/ERC20/ERC20.sol\":7002:7015   */\n      dup3\n      and\n        /* \"@openzeppelin/contracts/token/ERC20/ERC20.sol\":7002:7011   */\n      0x00\n        /* \"@openzeppelin/contracts/token/ERC20/ERC20.sol\":7002:7015   */\n      swap1\n      dup2\n      mstore\n      0x20\n      dup2\n      swap1\n      mstore\n      0x40\n      swap1\n      keccak256\n        /* \"@openzeppelin/contracts/token/ERC20/ERC20.sol\":7002:7024   */\n      dup1\n      sload\n      dup3\n      add\n      swap1\n      sstore\n        /* \"@openzeppelin/contracts/token/ERC20/ERC20.sol\":6624:7049   */\n    tag_222:\n        /* \"@openzeppelin/contracts/token/ERC20/ERC20.sol\":7079:7081   */\n      dup2\n      sub(shl(0xa0, 0x01), 0x01)\n        /* \"@openzeppelin/contracts/token/ERC20/ERC20.sol\":7064:7089   */\n      and\n        /* \"@openzeppelin/contracts/token/ERC20/ERC20.sol\":7073:7077   */\n      dup4\n      sub(shl(0xa0, 0x01), 0x01)\n        /* \"@openzeppelin/contracts/token/ERC20/ERC20.sol\":7064:7089   */\n      and\n      0xddf252ad1be2c89b69c2b068fc378daa952ba7f163c4a11628f55a4df523b3ef\n        /* \"@openzeppelin/contracts/token/ERC20/ERC20.sol\":7083:7088   */\n      dup4\n        /* \"@openzeppelin/contracts/token/ERC20/ERC20.sol\":7064:7089   */\n      mload(0x40)\n      tag_223\n      swap2\n        /* \"#utility.yul\":1235:1260   */\n      dup2\n      mstore\n        /* \"#utility.yul\":1223:1225   */\n      0x20\n        /* \"#utility.yul\":1208:1226   */\n      add\n      swap1\n        /* \"#utility.yul\":1089:1266   */\n      jump\n        /* \"@openzeppelin/contracts/token/ERC20/ERC20.sol\":7064:7089   */\n    tag_223:\n      mload(0x40)\n      dup1\n      swap2\n      sub\n      swap1\n      log3\n        /* \"@openzeppelin/contracts/token/ERC20/ERC20.sol\":5989:7096   */\n      pop\n      pop\n      pop\n      jump\t// out\n        /* \"#utility.yul\":14:432   */\n    tag_33:\n        /* \"#utility.yul\":163:165   */\n      0x20\n        /* \"#utility.yul\":152:161   */\n      dup2\n        /* \"#utility.yul\":145:166   */\n      mstore\n        /* \"#utility.yul\":126:130   */\n      0x00\n        /* \"#utility.yul\":195:201   */\n      dup3\n        /* \"#utility.yul\":189:202   */\n      mload\n        /* \"#utility.yul\":238:244   */\n      dup1\n        /* \"#utility.yul\":233:235   */\n      0x20\n        /* \"#utility.yul\":222:231   */\n      dup5\n        /* \"#utility.yul\":218:236   */\n      add\n        /* \"#utility.yul\":211:245   */\n      mstore\n        /* \"#utility.yul\":297:303   */\n      dup1\n        /* \"#utility.yul\":292:294   */\n      0x20\n        /* \"#utility.yul\":284:290   */\n      dup6\n        /* \"#utility.yul\":280:295   */\n      add\n        /* \"#utility.yul\":275:277   */\n      0x40\n        /* \"#utility.yul\":264:273   */\n      dup6\n        /* \"#utility.yul\":260:278   */\n      add\n        /* \"#utility.yul\":254:304   */\n      mcopy\n        /* \"#utility.yul\":353:354   */\n      0x00\n        /* \"#utility.yul\":348:350   */\n      0x40\n        /* \"#utility.yul\":339:345   */\n      dup3\n        /* \"#utility.yul\":328:337   */\n      dup6\n        /* \"#utility.yul\":324:346   */\n      add\n        /* \"#utility.yul\":320:351   */\n      add\n        /* \"#utility.yul\":313:355   */\n      mstore\n        /* \"#utility.yul\":423:425   */\n      0x40\n        /* \"#utility.yul\":416:418   */\n      0x1f\n        /* \"#utility.yul\":412:419   */\n      not\n        /* \"#utility.yul\":407:409   */\n      0x1f\n        /* \"#utility.yul\":399:405   */\n      dup4\n        /* \"#utility.yul\":395:410   */\n      add\n        /* \"#utility.yul\":391:420   */\n      and\n        /* \"#utility.yul\":380:389   */\n      dup5\n        /* \"#utility.yul\":376:421   */\n      add\n        /* \"#utility.yul\":372:426   */\n      add\n        /* \"#utility.yul\":364:426   */\n      swap2\n      pop\n      pop\n        /* \"#utility.yul\":14:432   */\n      swap3\n      swap2\n      pop\n      pop\n      jump\t// out\n        /* \"#utility.yul\":437:633   */\n    tag_224:\n        /* \"#utility.yul\":505:525   */\n      dup1\n      calldataload\n      sub(shl(0xa0, 0x01), 0x01)\n        /* \"#utility.yul\":554:608   */\n      dup2\n      and\n        /* \"#utility.yul\":544:609   */\n      dup2\n      eq\n        /* \"#utility.yul\":534:627   */\n      tag_228\n      jumpi\n        /* \"#utility.yul\":623:624   */\n      0x00\n        /* \"#utility.yul\":620:621   */\n      dup1\n        /* \"#utility.yul\":613:625   */\n      revert\n        /* \"#utility.yul\":534:627   */\n    tag_228:\n        /* \"#utility.yul\":437:633   */\n      swap2\n      swap1\n      pop\n      jump\t// out\n        /* \"#utility.yul\":638:892   */\n    tag_36:\n        /* \"#utility.yul\":706:712   */\n      0x00\n        /* \"#utility.yul\":714:720   */\n      dup1\n        /* \"#utility.yul\":767:769   */\n      0x40\n        /* \"#utility.yul\":755:764   */\n      dup4\n        /* \"#utility.yul\":746:753   */\n      dup6\n        /* \"#utility.yul\":742:765   */\n      sub\n        /* \"#utility.yul\":738:770   */\n      slt\n        /* \"#utility.yul\":735:787   */\n      iszero\n      tag_230\n      jumpi\n        /* \"#utility.yul\":783:784   */\n      0x00\n        /* \"#utility.yul\":780:781   */\n      dup1\n        /* \"#utility.yul\":773:785   */\n      revert\n        /* \"#utility.yul\":735:787   */\n    tag_230:\n        /* \"#utility.yul\":806:835   */\n      tag_231\n        /* \"#utility.yul\":825:834   */\n      dup4\n        /* \"#utility.yul\":806:835   */\n      tag_224\n      jump\t// in\n    tag_231:\n        /* \"#utility.yul\":796:835   */\n      swap5\n        /* \"#utility.yul\":882:884   */\n      0x20\n        /* \"#utility.yul\":867:885   */\n      swap4\n      swap1\n      swap4\n      add\n        /* \"#utility.yul\":854:886   */\n      calldataload\n      swap4\n      pop\n      pop\n      pop\n        /* \"#utility.yul\":638:892   */\n      jump\t// out\n        /* \"#utility.yul\":1502:1830   */\n    tag_50:\n        /* \"#utility.yul\":1579:1585   */\n      0x00\n        /* \"#utility.yul\":1587:1593   */\n      dup1\n        /* \"#utility.yul\":1595:1601   */\n      0x00\n        /* \"#utility.yul\":1648:1650   */\n      0x60\n        /* \"#utility.yul\":1636:1645   */\n      dup5\n        /* \"#utility.yul\":1627:1634   */\n      dup7\n        /* \"#utility.yul\":1623:1646   */\n      sub\n        /* \"#utility.yul\":1619:1651   */\n      slt\n        /* \"#utility.yul\":1616:1668   */\n      iszero\n      tag_236\n      jumpi\n        /* \"#utility.yul\":1664:1665   */\n      0x00\n        /* \"#utility.yul\":1661:1662   */\n      dup1\n        /* \"#utility.yul\":1654:1666   */\n      revert\n        /* \"#utility.yul\":1616:1668   */\n    tag_236:\n        /* \"#utility.yul\":1687:1716   */\n      tag_237\n        /* \"#utility.yul\":1706:1715   */\n      dup5\n        /* \"#utility.yul\":1687:1716   */\n      tag_224\n      jump\t// in\n    tag_237:\n        /* \"#utility.yul\":1677:1716   */\n      swap3\n      pop\n        /* \"#utility.yul\":1735:1773   */\n      tag_238\n        /* \"#utility.yul\":1769:1771   */\n      0x20\n        /* \"#utility.yul\":1758:1767   */\n      dup6\n        /* \"#utility.yul\":1754:1772   */\n      add\n        /* \"#utility.yul\":1735:1773   */\n      tag_224\n      jump\t// in\n    tag_238:\n        /* \"#utility.yul\":1725:1773   */\n      swap2\n      pop\n        /* \"#utility.yul\":1820:1822   */\n      0x40\n        /* \"#utility.yul\":1809:1818   */\n      dup5\n        /* \"#utility.yul\":1805:1823   */\n      add\n        /* \"#utility.yul\":1792:1824   */\n      calldataload\n        /* \"#utility.yul\":1782:1824   */\n      swap1\n      pop\n        /* \"#utility.yul\":1502:1830   */\n      swap3\n      pop\n      swap3\n      pop\n      swap3\n      jump\t// out\n        /* \"#utility.yul\":2024:2210   */\n    tag_67:\n        /* \"#utility.yul\":2083:2089   */\n      0x00\n        /* \"#utility.yul\":2136:2138   */\n      0x20\n        /* \"#utility.yul\":2124:2133   */\n      dup3\n        /* \"#utility.yul\":2115:2122   */\n      dup5\n        /* \"#utility.yul\":2111:2134   */\n      sub\n        /* \"#utility.yul\":2107:2139   */\n      slt\n        /* \"#utility.yul\":2104:2156   */\n      iszero\n      tag_241\n      jumpi\n        /* \"#utility.yul\":2152:2153   */\n      0x00\n        /* \"#utility.yul\":2149:2150   */\n      dup1\n        /* \"#utility.yul\":2142:2154   */\n      revert\n        /* \"#utility.yul\":2104:2156   */\n    tag_241:\n        /* \"#utility.yul\":2175:2204   */\n      tag_242\n        /* \"#utility.yul\":2194:2203   */\n      dup3\n        /* \"#utility.yul\":2175:2204   */\n      tag_224\n      jump\t// in\n    tag_242:\n        /* \"#utility.yul\":2165:2204   */\n      swap4\n        /* \"#utility.yul\":2024:2210   */\n      swap3\n      pop\n      pop\n      pop\n      jump\t// out\n        /* \"#utility.yul\":2215:2475   */\n    tag_92:\n        /* \"#utility.yul\":2283:2289   */\n      0x00\n        /* \"#utility.yul\":2291:2297   */\n      dup1\n        /* \"#utility.yul\":2344:2346   */\n      0x40\n        /* \"#utility.yul\":2332:2341   */\n      dup4\n        /* \"#utility.yul\":2323:2330   */\n      dup6\n        /* \"#utility.yul\":2319:2342   */\n      sub\n        /* \"#utility.yul\":2315:2347   */\n      slt\n        /* \"#utility.yul\":2312:2364   */\n      iszero\n      tag_244\n      jumpi\n        /* \"#utility.yul\":2360:2361   */\n      0x00\n        /* \"#utility.yul\":2357:2358   */\n      dup1\n        /* \"#utility.yul\":2350:2362   */\n      revert\n        /* \"#utility.yul\":2312:2364   */\n    tag_244:\n        /* \"#utility.yul\":2383:2412   */\n      tag_245\n        /* \"#utility.yul\":2402:2411   */\n      dup4\n        /* \"#utility.yul\":2383:2412   */\n      tag_224\n      jump\t// in\n    tag_245:\n        /* \"#utility.yul\":2373:2412   */\n      swap2\n      pop\n        /* \"#utility.yul\":2431:2469   */\n      tag_246\n        /* \"#utility.yul\":2465:2467   */\n      0x20\n        /* \"#utility.yul\":2454:2463   */\n      dup5\n        /* \"#utility.yul\":2450:2468   */\n      add\n        /* \"#utility.yul\":2431:2469   */\n      tag_224\n      jump\t// in\n    tag_246:\n        /* \"#utility.yul\":2421:2469   */\n      swap1\n      pop\n        /* \"#utility.yul\":2215:2475   */\n      swap3\n      pop\n      swap3\n      swap1\n      pop\n      jump\t// out\n        /* \"#utility.yul\":2480:2860   */\n    tag_103:\n        /* \"#utility.yul\":2559:2560   */\n      0x01\n        /* \"#utility.yul\":2555:2567   */\n      dup2\n      dup2\n      shr\n      swap1\n        /* \"#utility.yul\":2602:2614   */\n      dup3\n      and\n      dup1\n        /* \"#utility.yul\":2623:2684   */\n      tag_248\n      jumpi\n        /* \"#utility.yul\":2677:2681   */\n      0x7f\n        /* \"#utility.yul\":2669:2675   */\n      dup3\n        /* \"#utility.yul\":2665:2682   */\n      and\n        /* \"#utility.yul\":2655:2682   */\n      swap2\n      pop\n        /* \"#utility.yul\":2623:2684   */\n    tag_248:\n        /* \"#utility.yul\":2730:2732   */\n      0x20\n        /* \"#utility.yul\":2722:2728   */\n      dup3\n        /* \"#utility.yul\":2719:2733   */\n      lt\n        /* \"#utility.yul\":2699:2717   */\n      dup2\n        /* \"#utility.yul\":2696:2734   */\n      sub\n        /* \"#utility.yul\":2693:2854   */\n      tag_249\n      jumpi\n        /* \"#utility.yul\":2776:2786   */\n      0x4e487b71\n        /* \"#utility.yul\":2771:2774   */\n      0xe0\n        /* \"#utility.yul\":2767:2787   */\n      shl\n        /* \"#utility.yul\":2764:2765   */\n      0x00\n        /* \"#utility.yul\":2757:2788   */\n      mstore\n        /* \"#utility.yul\":2811:2815   */\n      0x22\n        /* \"#utility.yul\":2808:2809   */\n      0x04\n        /* \"#utility.yul\":2801:2816   */\n      mstore\n        /* \"#utility.yul\":2839:2843   */\n      0x24\n        /* \"#utility.yul\":2836:2837   */\n      0x00\n        /* \"#utility.yul\":2829:2844   */\n      revert\n        /* \"#utility.yul\":2693:2854   */\n    tag_249:\n      pop\n        /* \"#utility.yul\":2480:2860   */\n      swap2\n      swap1\n      pop\n      jump\t// out\n        /* \"#utility.yul\":3238:3460   */\n    tag_217:\n        /* \"#utility.yul\":3303:3312   */\n      dup1\n      dup3\n      add\n        /* \"#utility.yul\":3324:3334   */\n      dup1\n      dup3\n      gt\n        /* \"#utility.yul\":3321:3454   */\n      iszero\n      tag_108\n      jumpi\n        /* \"#utility.yul\":3376:3386   */\n      0x4e487b71\n        /* \"#utility.yul\":3371:3374   */\n      0xe0\n        /* \"#utility.yul\":3367:3387   */\n      shl\n        /* \"#utility.yul\":3364:3365   */\n      0x00\n        /* \"#utility.yul\":3357:3388   */\n      mstore\n        /* \"#utility.yul\":3411:3415   */\n      0x11\n        /* \"#utility.yul\":3408:3409   */\n      0x04\n        /* \"#utility.yul\":3401:3416   */\n      mstore\n        /* \"#utility.yul\":3439:3443   */\n      0x24\n        /* \"#utility.yul\":3436:3437   */\n      0x00\n        /* \"#utility.yul\":3429:3444   */\n      revert\n\n    auxdata: 0xa26469706673582212206831e9d18fbf6807ae3e8a0fb574ee42a1489ff98b09fa6216a3f7af9893b43a64736f6c63430008190033\n}\n",
    "bytecode": {
      "linkReferences": {},
      "object": "608060405234801561000f575f80fd5b5060405161102138038061102183398101604081905261002e916103ee565b336040518060400160405280600a8152602001692937b63a902a37b5b2b760b11b81525060405180604001604052806004815260200163524f4c5560e01b815250816003908161007e91906104b6565b50600461008b82826104b6565b5050506001600160a01b0381166100bc57604051631e4fbdf760e01b81525f60048201526024015b60405180910390fd5b6100c5816101d3565b506001600160a01b03821661011c5760405162461bcd60e51b815260206004820152601c60248201527f547265617375727920616464726573732063616e6e6f7420626520300000000060448201526064016100b3565b6001600160a01b0381166101725760405162461bcd60e51b815260206004820152601860248201527f5465616d20616464726573732063616e6e6f742062652030000000000000000060448201526064016100b3565b600680546001600160a01b038085166001600160a01b03199283161790925560078054928416929091169190911790556101b7826a4a723dc6b40b8a9a00000061022c565b6101cc816a084595161401484a00000061022c565b505061059a565b600580546001600160a01b03838116610100818102610100600160a81b031985161790945560405193909204169182907f8be0079c531659141344cd1fd0a4f28419497f9722a3daafe3b4186f6b6457e0905f90a35050565b6001600160a01b0382166102555760405163ec442f0560e01b81525f60048201526024016100b3565b6102605f8383610264565b5050565b61026f838383610274565b505050565b61027c610287565b61026f8383836102ad565b60055460ff16156102ab5760405163d93c066560e01b815260040160405180910390fd5b565b6001600160a01b0383166102d7578060025f8282546102cc9190610575565b909155506103479050565b6001600160a01b0383165f90815260208190526040902054818110156103295760405163391434e360e21b81526001600160a01b038516600482015260248101829052604481018390526064016100b3565b6001600160a01b0384165f9081526020819052604090209082900390555b6001600160a01b03821661036357600280548290039055610381565b6001600160a01b0382165f9081526020819052604090208054820190555b816001600160a01b0316836001600160a01b03167fddf252ad1be2c89b69c2b068fc378daa952ba7f163c4a11628f55a4df523b3ef836040516103c691815260200190565b60405180910390a3505050565b80516001600160a01b03811681146103e9575f80fd5b919050565b5f80604083850312156103ff575f80fd5b610408836103d3565b9150610416602084016103d3565b90509250929050565b634e487b7160e01b5f52604160045260245ffd5b600181811c9082168061044757607f821691505b60208210810361046557634e487b7160e01b5f52602260045260245ffd5b50919050565b601f82111561026f57805f5260205f20601f840160051c810160208510156104905750805b601f840160051c820191505b818110156104af575f815560010161049c565b5050505050565b81516001600160401b038111156104cf576104cf61041f565b6104e3816104dd8454610433565b8461046b565b602080601f831160018114610516575f84156104ff5750858301515b5f19600386901b1c1916600185901b17855561056d565b5f85815260208120601f198616915b8281101561054457888601518255948401946001909101908401610525565b508582101561056157878501515f19600388901b60f8161c191681555b505060018460011b0185555b505050505050565b8082018082111561059457634e487b7160e01b5f52601160045260245ffd5b92915050565b610a7a806105a75f395ff3fe608060405234801561000f575f80fd5b5060043610610163575f3560e01c8063715018a6116100c7578063bf1ad7e01161007d578063dd62ed3e11610063578063dd62ed3e146102bc578063f2fde38b146102f4578063fd99cbed14610307575f80fd5b8063bf1ad7e014610297578063c5f956af146102a9575f80fd5b80638da5cb5b116100ad5780638da5cb5b1461026657806395d89b411461027c578063a9059cbb14610284575f80fd5b8063715018a6146102565780638456cb591461025e575f80fd5b8063313ce5671161011c5780633f4ba83a116101025780633f4ba83a146102195780635c975abb1461022357806370a082311461022e575f80fd5b8063313ce567146101f857806332cb6b0c14610207575f80fd5b806318160ddd1161014c57806318160ddd146101a85780631c75f085146101ba57806323b872dd146101e5575f80fd5b806306fdde0314610167578063095ea7b314610185575b5f80fd5b61016f610319565b60405161017c91906108eb565b60405180910390f35b61019861019336600461093b565b6103a9565b604051901515815260200161017c565b6002545b60405190815260200161017c565b6007546101cd906001600160a01b031681565b6040516001600160a01b03909116815260200161017c565b6101986101f3366004610963565b6103c2565b6040516012815260200161017c565b6101ac6a52b7d2dcc80cd2e400000081565b6102216103e5565b005b60055460ff16610198565b6101ac61023c36600461099c565b6001600160a01b03165f9081526020819052604090205490565b6102216103f7565b610221610408565b60055461010090046001600160a01b03166101cd565b61016f610418565b61019861029236600461093b565b610427565b6101ac6a4a723dc6b40b8a9a00000081565b6006546101cd906001600160a01b031681565b6101ac6102ca3660046109bc565b6001600160a01b039182165f90815260016020908152604080832093909416825291909152205490565b61022161030236600461099c565b610434565b6101ac6a084595161401484a00000081565b606060038054610328906109ed565b80601f0160208091040260200160405190810160405280929190818152602001828054610354906109ed565b801561039f5780601f106103765761010080835404028352916020019161039f565b820191905f5260205f20905b81548152906001019060200180831161038257829003601f168201915b5050505050905090565b5f336103b6818585610476565b60019150505b92915050565b5f336103cf858285610488565b6103da858585610504565b506001949350505050565b6103ed610561565b6103f5610594565b565b6103ff610561565b6103f55f6105e6565b610410610561565b6103f5610656565b606060048054610328906109ed565b5f336103b6818585610504565b61043c610561565b6001600160a01b03811661046a57604051631e4fbdf760e01b81525f60048201526024015b60405180910390fd5b610473816105e6565b50565b6104838383836001610693565b505050565b6001600160a01b038381165f908152600160209081526040808320938616835292905220545f198110156104fe57818110156104f057604051637dc7a0d960e11b81526001600160a01b03841660048201526024810182905260448101839052606401610461565b6104fe84848484035f610693565b50505050565b6001600160a01b03831661052d57604051634b637e8f60e11b81525f6004820152602401610461565b6001600160a01b0382166105565760405163ec442f0560e01b81525f6004820152602401610461565b610483838383610765565b6005546001600160a01b036101009091041633146103f55760405163118cdaa760e01b8152336004820152602401610461565b61059c610770565b6005805460ff191690557f5db9ee0a495bf2e6ff9c91a7834c1ba4fdd244a5e8aa4e537bd38aeae4b073aa335b6040516001600160a01b03909116815260200160405180910390a1565b600580546001600160a01b038381166101008181027fffffffffffffffffffffff0000000000000000000000000000000000000000ff85161790945560405193909204169182907f8be0079c531659141344cd1fd0a4f28419497f9722a3daafe3b4186f6b6457e0905f90a35050565b61065e610793565b6005805460ff191660011790557f62e78cea01bee320cd4e420270b5ea74000d11b0c9f74754ebdbfc544b05a2586105c93390565b6001600160a01b0384166106bc5760405163e602df0560e01b81525f6004820152602401610461565b6001600160a01b0383166106e557604051634a1406b160e11b81525f6004820152602401610461565b6001600160a01b038085165f90815260016020908152604080832093871683529290522082905580156104fe57826001600160a01b0316846001600160a01b03167f8c5be1e5ebec7d5bd14f71427d1e84f3dd0314c0f7b2291e5b200ac8c7c3b9258460405161075791815260200190565b60405180910390a350505050565b6104838383836107b7565b60055460ff166103f557604051638dfc202b60e01b815260040160405180910390fd5b60055460ff16156103f55760405163d93c066560e01b815260040160405180910390fd5b6107bf610793565b6104838383836001600160a01b0383166107ef578060025f8282546107e49190610a25565b9091555061085f9050565b6001600160a01b0383165f90815260208190526040902054818110156108415760405163391434e360e21b81526001600160a01b03851660048201526024810182905260448101839052606401610461565b6001600160a01b0384165f9081526020819052604090209082900390555b6001600160a01b03821661087b57600280548290039055610899565b6001600160a01b0382165f9081526020819052604090208054820190555b816001600160a01b0316836001600160a01b03167fddf252ad1be2c89b69c2b068fc378daa952ba7f163c4a11628f55a4df523b3ef836040516108de91815260200190565b60405180910390a3505050565b602081525f82518060208401528060208501604085015e5f604082850101526040601f19601f83011684010191505092915050565b80356001600160a01b0381168114610936575f80fd5b919050565b5f806040838503121561094c575f80fd5b61095583610920565b946020939093013593505050565b5f805f60608486031215610975575f80fd5b61097e84610920565b925061098c60208501610920565b9150604084013590509250925092565b5f602082840312156109ac575f80fd5b6109b582610920565b9392505050565b5f80604083850312156109cd575f80fd5b6109d683610920565b91506109e460208401610920565b90509250929050565b600181811c90821680610a0157607f821691505b602082108103610a1f57634e487b7160e01b5f52602260045260245ffd5b50919050565b808201808211156103bc57634e487b7160e01b5f52601160045260245ffdfea26469706673582212206831e9d18fbf6807ae3e8a0fb574ee42a1489ff98b09fa6216a3f7af9893b43a64736f6c63430008190033",
      "opcodes": "PUSH1 0x80 PUSH1 0x40 MSTORE CALLVALUE DUP1 ISZERO PUSH2 0xF JUMPI PUSH0 DUP1 REVERT JUMPDEST POP PUSH1 0x40 MLOAD PUSH2 0x1021 CODESIZE SUB DUP1 PUSH2 0x1021 DUP4 CODECOPY DUP2 ADD PUSH1 0x40 DUP2 SWAP1 MSTORE PUSH2 0x2E SWAP2 PUSH2 0x3EE JUMP JUMPDEST CALLER PUSH1 0x40 MLOAD DUP1 PUSH1 0x40 ADD PUSH1 0x40 MSTORE DUP1 PUSH1 0xA DUP2 MSTORE PUSH1 0x20 ADD PUSH10 0x2937B63A902A37B5B2B7 PUSH1 0xB1 SHL DUP2 MSTORE POP PUSH1 0x40 MLOAD DUP1 PUSH1 0x40 ADD PUSH1 0x40 MSTORE DUP1 PUSH1 0x4 DUP2 MSTORE PUSH1 0x20 ADD PUSH4 0x524F4C55 PUSH1 0xE0 SHL DUP2 MSTORE POP DUP2 PUSH1 0x3 SWAP1 DUP2 PUSH2 0x7E SWAP2 SWAP1 PUSH2 0x4B6 JUMP JUMPDEST POP PUSH1 0x4 PUSH2 0x8B DUP3 DUP3 PUSH2 0x4B6 JUMP JUMPDEST POP POP POP PUSH1 0x1 PUSH1 0x1 PUSH1 0xA0 SHL SUB DUP2 AND PUSH2 0xBC JUMPI PUSH1 0x40 MLOAD PUSH4 0x1E4FBDF7 PUSH1 0xE0 SHL DUP2 MSTORE PUSH0 PUSH1 0x4 DUP3 ADD MSTORE PUSH1 0x24 ADD JUMPDEST PUSH1 0x40 MLOAD DUP1 SWAP2 SUB SWAP1 REVERT JUMPDEST PUSH2 0xC5 DUP2 PUSH2 0x1D3 JUMP JUMPDEST POP PUSH1 0x1 PUSH1 0x1 PUSH1 0xA0 SHL SUB DUP3 AND PUSH2 0x11C JUMPI PUSH1 0x40 MLOAD PUSH3 0x461BCD PUSH1 0xE5 SHL DUP2 MSTORE PUSH1 0x20 PUSH1 0x4 DUP3 ADD MSTORE PUSH1 0x1C PUSH1 0x24 DUP3 ADD MSTORE PUSH32 0x547265617375727920616464726573732063616E6E6F74206265203000000000 PUSH1 0x44 DUP3 ADD MSTORE PUSH1 0x64 ADD PUSH2 0xB3 JUMP JUMPDEST PUSH1 0x1 PUSH1 0x1 PUSH1 0xA0 SHL SUB DUP2 AND PUSH2 0x172 JUMPI PUSH1 0x40 MLOAD PUSH3 0x461BCD PUSH1 0xE5 SHL DUP2 MSTORE PUSH1 0x20 PUSH1 0x4 DUP3 ADD MSTORE PUSH1 0x18 PUSH1 0x24 DUP3 ADD MSTORE PUSH32 0x5465616D20616464726573732063616E6E6F7420626520300000000000000000 PUSH1 0x44 DUP3 ADD MSTORE PUSH1 0x64 ADD PUSH2 0xB3 JUMP JUMPDEST PUSH1 0x6 DUP1 SLOAD PUSH1 0x1 PUSH1 0x1 PUSH1 0xA0 SHL SUB DUP1 DUP6 AND PUSH1 0x1 PUSH1 0x1 PUSH1 0xA0 SHL SUB NOT SWAP3 DUP4 AND OR SWAP1 SWAP3 SSTORE PUSH1 0x7 DUP1 SLOAD SWAP3 DUP5 AND SWAP3 SWAP1 SWAP2 AND SWAP2 SWAP1 SWAP2 OR SWAP1 SSTORE PUSH2 0x1B7 DUP3 PUSH11 0x4A723DC6B40B8A9A000000 PUSH2 0x22C JUMP JUMPDEST PUSH2 0x1CC DUP2 PUSH11 0x84595161401484A000000 PUSH2 0x22C JUMP JUMPDEST POP POP PUSH2 0x59A JUMP JUMPDEST PUSH1 0x5 DUP1 SLOAD PUSH1 0x1 PUSH1 0x1 PUSH1 0xA0 SHL SUB DUP4 DUP2 AND PUSH2 0x100 DUP2 DUP2 MUL PUSH2 0x100 PUSH1 0x1 PUSH1 0xA8 SHL SUB NOT DUP6 AND OR SWAP1 SWAP5 SSTORE PUSH1 0x40 MLOAD SWAP4 SWAP1 SWAP3 DIV AND SWAP2 DUP3 SWAP1 PUSH32 0x8BE0079C531659141344CD1FD0A4F28419497F9722A3DAAFE3B4186F6B6457E0 SWAP1 PUSH0 SWAP1 LOG3 POP POP JUMP JUMPDEST PUSH1 0x1 PUSH1 0x1 PUSH1 0xA0 SHL SUB DUP3 AND PUSH2 0x255 JUMPI PUSH1 0x40 MLOAD PUSH4 0xEC442F05 PUSH1 0xE0 SHL DUP2 MSTORE PUSH0 PUSH1 0x4 DUP3 ADD MSTORE PUSH1 0x24 ADD PUSH2 0xB3 JUMP JUMPDEST PUSH2 0x260 PUSH0 DUP4 DUP4 PUSH2 0x264 JUMP JUMPDEST POP POP JUMP JUMPDEST PUSH2 0x26F DUP4 DUP4 DUP4 PUSH2 0x274 JUMP JUMPDEST POP POP POP JUMP JUMPDEST PUSH2 0x27C PUSH2 0x287 JUMP JUMPDEST PUSH2 0x26F DUP4 DUP4 DUP4 PUSH2 0x2AD JUMP JUMPDEST PUSH1 0x5 SLOAD PUSH1 0xFF AND ISZERO PUSH2 0x2AB JUMPI PUSH1 0x40 MLOAD PUSH4 0xD93C0665 PUSH1 0xE0 SHL DUP2 MSTORE PUSH1 0x4 ADD PUSH1 0x40 MLOAD DUP1 SWAP2 SUB SWAP1 REVERT JUMPDEST JUMP JUMPDEST PUSH1 0x1 PUSH1 0x1 PUSH1 0xA0 SHL SUB DUP4 AND PUSH2 0x2D7 JUMPI DUP1 PUSH1 0x2 PUSH0 DUP3 DUP3 SLOAD PUSH2 0x2CC SWAP2 SWAP1 PUSH2 0x575 JUMP JUMPDEST SWAP1 SWAP2 SSTORE POP PUSH2 0x347 SWAP1 POP JUMP JUMPDEST PUSH1 0x1 PUSH1 0x1 PUSH1 0xA0 SHL SUB DUP4 AND PUSH0 SWAP1 DUP2 MSTORE PUSH1 0x20 DUP2 SWAP1 MSTORE PUSH1 0x40 SWAP1 KECCAK256 SLOAD DUP2 DUP2 LT ISZERO PUSH2 0x329 JUMPI PUSH1 0x40 MLOAD PUSH4 0x391434E3 PUSH1 0xE2 SHL DUP2 MSTORE PUSH1 0x1 PUSH1 0x1 PUSH1 0xA0 SHL SUB DUP6 AND PUSH1 0x4 DUP3 ADD MSTORE PUSH1 0x24 DUP2 ADD DUP3 SWAP1 MSTORE PUSH1 0x44 DUP2 ADD DUP4 SWAP1 MSTORE PUSH1 0x64 ADD PUSH2 0xB3 JUMP JUMPDEST PUSH1 0x1 PUSH1 0x1 PUSH1 0xA0 SHL SUB DUP5 AND PUSH0 SWAP1 DUP2 MSTORE PUSH1 0x20 DUP2 SWAP1 MSTORE PUSH1 0x40 SWAP1 KECCAK256 SWAP1 DUP3 SWAP1 SUB SWAP1 SSTORE JUMPDEST PUSH1 0x1 PUSH1 0x1 PUSH1 0xA0 SHL SUB DUP3 AND PUSH2 0x363 JUMPI PUSH1 0x2 DUP1 SLOAD DUP3 SWAP1 SUB SWAP1 SSTORE PUSH2 0x381 JUMP JUMPDEST PUSH1 0x1 PUSH1 0x1 PUSH1 0xA0 SHL SUB DUP3 AND PUSH0 SWAP1 DUP2 MSTORE PUSH1 0x20 DUP2 SWAP1 MSTORE PUSH1 0x40 SWAP1 KECCAK256 DUP1 SLOAD DUP3 ADD SWAP1 SSTORE JUMPDEST DUP2 PUSH1 0x1 PUSH1 0x1 PUSH1 0xA0 SHL SUB AND DUP4 PUSH1 0x1 PUSH1 0x1 PUSH1 0xA0 SHL SUB AND PUSH32 0xDDF252AD1BE2C89B69C2B068FC378DAA952BA7F163C4A11628F55A4DF523B3EF DUP4 PUSH1 0x40 MLOAD PUSH2 0x3C6 SWAP2 DUP2 MSTORE PUSH1 0x20 ADD SWAP1 JUMP JUMPDEST PUSH1 0x40 MLOAD DUP1 SWAP2 SUB SWAP1 LOG3 POP POP POP JUMP JUMPDEST DUP1 MLOAD PUSH1 0x1 PUSH1 0x1 PUSH1 0xA0 SHL SUB DUP2 AND DUP2 EQ PUSH2 0x3E9 JUMPI PUSH0 DUP1 REVERT JUMPDEST SWAP2 SWAP1 POP JUMP JUMPDEST PUSH0 DUP1 PUSH1 0x40 DUP4 DUP6 SUB SLT ISZERO PUSH2 0x3FF JUMPI PUSH0 DUP1 REVERT JUMPDEST PUSH2 0x408 DUP4 PUSH2 0x3D3 JUMP JUMPDEST SWAP2 POP PUSH2 0x416 PUSH1 0x20 DUP5 ADD PUSH2 0x3D3 JUMP JUMPDEST SWAP1 POP SWAP3 POP SWAP3 SWAP1 POP JUMP JUMPDEST PUSH4 0x4E487B71 PUSH1 0xE0 SHL PUSH0 MSTORE PUSH1 0x41 PUSH1 0x4 MSTORE PUSH1 0x24 PUSH0 REVERT JUMPDEST PUSH1 0x1 DUP2 DUP2 SHR SWAP1 DUP3 AND DUP1 PUSH2 0x447 JUMPI PUSH1 0x7F DUP3 AND SWAP2 POP JUMPDEST PUSH1 0x20 DUP3 LT DUP2 SUB PUSH2 0x465 JUMPI PUSH4 0x4E487B71 PUSH1 0xE0 SHL PUSH0 MSTORE PUSH1 0x22 PUSH1 0x4 MSTORE PUSH1 0x24 PUSH0 REVERT JUMPDEST POP SWAP2 SWAP1 POP JUMP JUMPDEST PUSH1 0x1F DUP3 GT ISZERO PUSH2 0x26F JUMPI DUP1 PUSH0 MSTORE PUSH1 0x20 PUSH0 KECCAK256 PUSH1 0x1F DUP5 ADD PUSH1 0x5 SHR DUP2 ADD PUSH1 0x20 DUP6 LT ISZERO PUSH2 0x490 JUMPI POP DUP1 JUMPDEST PUSH1 0x1F DUP5 ADD PUSH1 0x5 SHR DUP3 ADD SWAP2 POP JUMPDEST DUP2 DUP2 LT ISZERO PUSH2 0x4AF JUMPI PUSH0 DUP2 SSTORE PUSH1 0x1 ADD PUSH2 0x49C JUMP JUMPDEST POP POP POP POP POP JUMP JUMPDEST DUP2 MLOAD PUSH1 0x1 PUSH1 0x1 PUSH1 0x40 SHL SUB DUP2 GT ISZERO PUSH2 0x4CF JUMPI PUSH2 0x4CF PUSH2 0x41F JUMP JUMPDEST PUSH2 0x4E3 DUP2 PUSH2 0x4DD DUP5 SLOAD PUSH2 0x433 JUMP JUMPDEST DUP5 PUSH2 0x46B JUMP JUMPDEST PUSH1 0x20 DUP1 PUSH1 0x1F DUP4 GT PUSH1 0x1 DUP2 EQ PUSH2 0x516 JUMPI PUSH0 DUP5 ISZERO PUSH2 0x4FF JUMPI POP DUP6 DUP4 ADD MLOAD JUMPDEST PUSH0 NOT PUSH1 0x3 DUP7 SWAP1 SHL SHR NOT AND PUSH1 0x1 DUP6 SWAP1 SHL OR DUP6 SSTORE PUSH2 0x56D JUMP JUMPDEST PUSH0 DUP6 DUP2 MSTORE PUSH1 0x20 DUP2 KECCAK256 PUSH1 0x1F NOT DUP7 AND SWAP2 JUMPDEST DUP3 DUP2 LT ISZERO PUSH2 0x544 JUMPI DUP9 DUP7 ADD MLOAD DUP3 SSTORE SWAP5 DUP5 ADD SWAP5 PUSH1 0x1 SWAP1 SWAP2 ADD SWAP1 DUP5 ADD PUSH2 0x525 JUMP JUMPDEST POP DUP6 DUP3 LT ISZERO PUSH2 0x561 JUMPI DUP8 DUP6 ADD MLOAD PUSH0 NOT PUSH1 0x3 DUP9 SWAP1 SHL PUSH1 0xF8 AND SHR NOT AND DUP2 SSTORE JUMPDEST POP POP PUSH1 0x1 DUP5 PUSH1 0x1 SHL ADD DUP6 SSTORE JUMPDEST POP POP POP POP POP POP JUMP JUMPDEST DUP1 DUP3 ADD DUP1 DUP3 GT ISZERO PUSH2 0x594 JUMPI PUSH4 0x4E487B71 PUSH1 0xE0 SHL PUSH0 MSTORE PUSH1 0x11 PUSH1 0x4 MSTORE PUSH1 0x24 PUSH0 REVERT JUMPDEST SWAP3 SWAP2 POP POP JUMP JUMPDEST PUSH2 0xA7A DUP1 PUSH2 0x5A7 PUSH0 CODECOPY PUSH0 RETURN INVALID PUSH1 0x80 PUSH1 0x40 MSTORE CALLVALUE DUP1 ISZERO PUSH2 0xF JUMPI PUSH0 DUP1 REVERT JUMPDEST POP PUSH1 0x4 CALLDATASIZE LT PUSH2 0x163 JUMPI PUSH0 CALLDATALOAD PUSH1 0xE0 SHR DUP1 PUSH4 0x715018A6 GT PUSH2 0xC7 JUMPI DUP1 PUSH4 0xBF1AD7E0 GT PUSH2 0x7D JUMPI DUP1 PUSH4 0xDD62ED3E GT PUSH2 0x63 JUMPI DUP1 PUSH4 0xDD62ED3E EQ PUSH2 0x2BC JUMPI DUP1 PUSH4 0xF2FDE38B EQ PUSH2 0x2F4 JUMPI DUP1 PUSH4 0xFD99CBED EQ PUSH2 0x307 JUMPI PUSH0 DUP1 REVERT JUMPDEST DUP1 PUSH4 0xBF1AD7E0 EQ PUSH2 0x297 JUMPI DUP1 PUSH4 0xC5F956AF EQ PUSH2 0x2A9 JUMPI PUSH0 DUP1 REVERT JUMPDEST DUP1 PUSH4 0x8DA5CB5B GT PUSH2 0xAD JUMPI DUP1 PUSH4 0x8DA5CB5B EQ PUSH2 0x266 JUMPI DUP1 PUSH4 0x95D89B41 EQ PUSH2 0x27C JUMPI DUP1 PUSH4 0xA9059CBB EQ PUSH2 0x284 JUMPI PUSH0 DUP1 REVERT JUMPDEST DUP1 PUSH4 0x715018A6 EQ PUSH2 0x256 JUMPI DUP1 PUSH4 0x8456CB59 EQ PUSH2 0x25E JUMPI PUSH0 DUP1 REVERT JUMPDEST DUP1 PUSH4 0x313CE567 GT PUSH2 0x11C JUMPI DUP1 PUSH4 0x3F4BA83A GT PUSH2 0x102 JUMPI DUP1 PUSH4 0x3F4BA83A EQ PUSH2 0x219 JUMPI DUP1 PUSH4 0x5C975ABB EQ PUSH2 0x223 JUMPI DUP1 PUSH4 0x70A08231 EQ PUSH2 0x22E JUMPI PUSH0 DUP1 REVERT JUMPDEST DUP1 PUSH4 0x313CE567 EQ PUSH2 0x1F8 JUMPI DUP1 PUSH4 0x32CB6B0C EQ PUSH2 0x207 JUMPI PUSH0 DUP1 REVERT JUMPDEST DUP1 PUSH4 0x18160DDD GT PUSH2 0x14C JUMPI DUP1 PUSH4 0x18160DDD EQ PUSH2 0x1A8 JUMPI DUP1 PUSH4 0x1C75F085 EQ PUSH2 0x1BA JUMPI DUP1 PUSH4 0x23B872DD EQ PUSH2 0x1E5 JUMPI PUSH0 DUP1 REVERT JUMPDEST DUP1 PUSH4 0x6FDDE03 EQ PUSH2 0x167 JUMPI DUP1 PUSH4 0x95EA7B3 EQ PUSH2 0x185 JUMPI JUMPDEST PUSH0 DUP1 REVERT JUMPDEST PUSH2 0x16F PUSH2 0x319 JUMP JUMPDEST PUSH1 0x40 MLOAD PUSH2 0x17C SWAP2 SWAP1 PUSH2 0x8EB JUMP JUMPDEST PUSH1 0x40 MLOAD DUP1 SWAP2 SUB SWAP1 RETURN JUMPDEST PUSH2 0x198 PUSH2 0x193 CALLDATASIZE PUSH1 0x4 PUSH2 0x93B JUMP JUMPDEST PUSH2 0x3A9 JUMP JUMPDEST PUSH1 0x40 MLOAD SWAP1 ISZERO ISZERO DUP2 MSTORE PUSH1 0x20 ADD PUSH2 0x17C JUMP JUMPDEST PUSH1 0x2 SLOAD JUMPDEST PUSH1 0x40 MLOAD SWAP1 DUP2 MSTORE PUSH1 0x20 ADD PUSH2 0x17C JUMP JUMPDEST PUSH1 0x7 SLOAD PUSH2 0x1CD SWAP1 PUSH1 0x1 PUSH1 0x1 PUSH1 0xA0 SHL SUB AND DUP2 JUMP JUMPDEST PUSH1 0x40 MLOAD PUSH1 0x1 PUSH1 0x1 PUSH1 0xA0 SHL SUB SWAP1 SWAP2 AND DUP2 MSTORE PUSH1 0x20 ADD PUSH2 0x17C JUMP JUMPDEST PUSH2 0x198 PUSH2 0x1F3 CALLDATASIZE PUSH1 0x4 PUSH2 0x963 JUMP JUMPDEST PUSH2 0x3C2 JUMP JUMPDEST PUSH1 0x40 MLOAD PUSH1 0x12 DUP2 MSTORE PUSH1 0x20 ADD PUSH2 0x17C JUMP JUMPDEST PUSH2 0x1AC PUSH11 0x52B7D2DCC80CD2E4000000 DUP2 JUMP JUMPDEST PUSH2 0x221 PUSH2 0x3E5 JUMP JUMPDEST STOP JUMPDEST PUSH1 0x5 SLOAD PUSH1 0xFF AND PUSH2 0x198 JUMP JUMPDEST PUSH2 0x1AC PUSH2 0x23C CALLDATASIZE PUSH1 0x4 PUSH2 0x99C JUMP JUMPDEST PUSH1 0x1 PUSH1 0x1 PUSH1 0xA0 SHL SUB AND PUSH0 SWAP1 DUP2 MSTORE PUSH1 0x20 DUP2 SWAP1 MSTORE PUSH1 0x40 SWAP1 KECCAK256 SLOAD SWAP1 JUMP JUMPDEST PUSH2 0x221 PUSH2 0x3F7 JUMP JUMPDEST PUSH2 0x221 PUSH2 0x408 JUMP JUMPDEST PUSH1 0x5 SLOAD PUSH2 0x100 SWAP1 DIV PUSH1 0x1 PUSH1 0x1 PUSH1 0xA0 SHL SUB AND PUSH2 0x1CD JUMP JUMPDEST PUSH2 0x16F PUSH2 0x418 JUMP JUMPDEST PUSH2 0x198 PUSH2 0x292 CALLDATASIZE PUSH1 0x4 PUSH2 0x93B JUMP JUMPDEST PUSH2 0x427 JUMP JUMPDEST PUSH2 0x1AC PUSH11 0x4A723DC6B40B8A9A000000 DUP2 JUMP JUMPDEST PUSH1 0x6 SLOAD PUSH2 0x1CD SWAP1 PUSH1 0x1 PUSH1 0x1 PUSH1 0xA0 SHL SUB AND DUP2 JUMP JUMPDEST PUSH2 0x1AC PUSH2 0x2CA CALLDATASIZE PUSH1 0x4 PUSH2 0x9BC JUMP JUMPDEST PUSH1 0x1 PUSH1 0x1 PUSH1 0xA0 SHL SUB SWAP2 DUP3 AND PUSH0 SWAP1 DUP2 MSTORE PUSH1 0x1 PUSH1 0x20 SWAP1 DUP2 MSTORE PUSH1 0x40 DUP1 DUP4 KECCAK256 SWAP4 SWAP1 SWAP5 AND DUP3 MSTORE SWAP2 SWAP1 SWAP2 MSTORE KECCAK256 SLOAD SWAP1 JUMP JUMPDEST PUSH2 0x221 PUSH2 0x302 CALLDATASIZE PUSH1 0x4 PUSH2 0x99C JUMP JUMPDEST PUSH2 0x434 JUMP JUMPDEST PUSH2 0x1AC PUSH11 0x84595161401484A000000 DUP2 JUMP JUMPDEST PUSH1 0x60 PUSH1 0x3 DUP1 SLOAD PUSH2 0x328 SWAP1 PUSH2 0x9ED JUMP JUMPDEST DUP1 PUSH1 0x1F ADD PUSH1 0x20 DUP1 SWAP2 DIV MUL PUSH1 0x20 ADD PUSH1 0x40 MLOAD SWAP1 DUP2 ADD PUSH1 0x40 MSTORE DUP1 SWAP3 SWAP2 SWAP1 DUP2 DUP2 MSTORE PUSH1 0x20 ADD DUP3 DUP1 SLOAD PUSH2 0x354 SWAP1 PUSH2 0x9ED JUMP JUMPDEST DUP1 ISZERO PUSH2 0x39F JUMPI DUP1 PUSH1 0x1F LT PUSH2 0x376 JUMPI PUSH2 0x100 DUP1 DUP4 SLOAD DIV MUL DUP4 MSTORE SWAP2 PUSH1 0x20 ADD SWAP2 PUSH2 0x39F JUMP JUMPDEST DUP3 ADD SWAP2 SWAP1 PUSH0 MSTORE PUSH1 0x20 PUSH0 KECCAK256 SWAP1 JUMPDEST DUP2 SLOAD DUP2 MSTORE SWAP1 PUSH1 0x1 ADD SWAP1 PUSH1 0x20 ADD DUP1 DUP4 GT PUSH2 0x382 JUMPI DUP3 SWAP1 SUB PUSH1 0x1F AND DUP3 ADD SWAP2 JUMPDEST POP POP POP POP POP SWAP1 POP SWAP1 JUMP JUMPDEST PUSH0 CALLER PUSH2 0x3B6 DUP2 DUP6 DUP6 PUSH2 0x476 JUMP JUMPDEST PUSH1 0x1 SWAP2 POP POP JUMPDEST SWAP3 SWAP2 POP POP JUMP JUMPDEST PUSH0 CALLER PUSH2 0x3CF DUP6 DUP3 DUP6 PUSH2 0x488 JUMP JUMPDEST PUSH2 0x3DA DUP6 DUP6 DUP6 PUSH2 0x504 JUMP JUMPDEST POP PUSH1 0x1 SWAP5 SWAP4 POP POP POP POP JUMP JUMPDEST PUSH2 0x3ED PUSH2 0x561 JUMP JUMPDEST PUSH2 0x3F5 PUSH2 0x594 JUMP JUMPDEST JUMP JUMPDEST PUSH2 0x3FF PUSH2 0x561 JUMP JUMPDEST PUSH2 0x3F5 PUSH0 PUSH2 0x5E6 JUMP JUMPDEST PUSH2 0x410 PUSH2 0x561 JUMP JUMPDEST PUSH2 0x3F5 PUSH2 0x656 JUMP JUMPDEST PUSH1 0x60 PUSH1 0x4 DUP1 SLOAD PUSH2 0x328 SWAP1 PUSH2 0x9ED JUMP JUMPDEST PUSH0 CALLER PUSH2 0x3B6 DUP2 DUP6 DUP6 PUSH2 0x504 JUMP JUMPDEST PUSH2 0x43C PUSH2 0x561 JUMP JUMPDEST PUSH1 0x1 PUSH1 0x1 PUSH1 0xA0 SHL SUB DUP2 AND PUSH2 0x46A JUMPI PUSH1 0x40 MLOAD PUSH4 0x1E4FBDF7 PUSH1 0xE0 SHL DUP2 MSTORE PUSH0 PUSH1 0x4 DUP3 ADD MSTORE PUSH1 0x24 ADD JUMPDEST PUSH1 0x40 MLOAD DUP1 SWAP2 SUB SWAP1 REVERT JUMPDEST PUSH2 0x473 DUP2 PUSH2 0x5E6 JUMP JUMPDEST POP JUMP JUMPDEST PUSH2 0x483 DUP4 DUP4 DUP4 PUSH1 0x1 PUSH2 0x693 JUMP JUMPDEST POP POP POP JUMP JUMPDEST PUSH1 0x1 PUSH1 0x1 PUSH1 0xA0 SHL SUB DUP4 DUP2 AND PUSH0 SWAP1 DUP2 MSTORE PUSH1 0x1 PUSH1 0x20 SWAP1 DUP2 MSTORE PUSH1 0x40 DUP1 DUP4 KECCAK256 SWAP4 DUP7 AND DUP4 MSTORE SWAP3 SWAP1 MSTORE KECCAK256 SLOAD PUSH0 NOT DUP2 LT ISZERO PUSH2 0x4FE JUMPI DUP2 DUP2 LT ISZERO PUSH2 0x4F0 JUMPI PUSH1 0x40 MLOAD PUSH4 0x7DC7A0D9 PUSH1 0xE1 SHL DUP2 MSTORE PUSH1 0x1 PUSH1 0x1 PUSH1 0xA0 SHL SUB DUP5 AND PUSH1 0x4 DUP3 ADD MSTORE PUSH1 0x24 DUP2 ADD DUP3 SWAP1 MSTORE PUSH1 0x44 DUP2 ADD DUP4 SWAP1 MSTORE PUSH1 0x64 ADD PUSH2 0x461 JUMP JUMPDEST PUSH2 0x4FE DUP5 DUP5 DUP5 DUP5 SUB PUSH0 PUSH2 0x693 JUMP JUMPDEST POP POP POP POP JUMP JUMPDEST PUSH1 0x1 PUSH1 0x1 PUSH1 0xA0 SHL SUB DUP4 AND PUSH2 0x52D JUMPI PUSH1 0x40 MLOAD PUSH4 0x4B637E8F PUSH1 0xE1 SHL DUP2 MSTORE PUSH0 PUSH1 0x4 DUP3 ADD MSTORE PUSH1 0x24 ADD PUSH2 0x461 JUMP JUMPDEST PUSH1 0x1 PUSH1 0x1 PUSH1 0xA0 SHL SUB DUP3 AND PUSH2 0x556 JUMPI PUSH1 0x40 MLOAD PUSH4 0xEC442F05 PUSH1 0xE0 SHL DUP2 MSTORE PUSH0 PUSH1 0x4 DUP3 ADD MSTORE PUSH1 0x24 ADD PUSH2 0x461 JUMP JUMPDEST PUSH2 0x483 DUP4 DUP4 DUP4 PUSH2 0x765 JUMP JUMPDEST PUSH1 0x5 SLOAD PUSH1 0x1 PUSH1 0x1 PUSH1 0xA0 SHL SUB PUSH2 0x100 SWAP1 SWAP2 DIV AND CALLER EQ PUSH2 0x3F5 JUMPI PUSH1 0x40 MLOAD PUSH4 0x118CDAA7 PUSH1 0xE0 SHL DUP2 MSTORE CALLER PUSH1 0x4 DUP3 ADD MSTORE PUSH1 0x24 ADD PUSH2 0x461 JUMP JUMPDEST PUSH2 0x59C PUSH2 0x770 JUMP JUMPDEST PUSH1 0x5 DUP1 SLOAD PUSH1 0xFF NOT AND SWAP1 SSTORE PUSH32 0x5DB9EE0A495BF2E6FF9C91A7834C1BA4FDD244A5E8AA4E537BD38AEAE4B073AA CALLER JUMPDEST PUSH1 0x40 MLOAD PUSH1 0x1 PUSH1 0x1 PUSH1 0xA0 SHL SUB SWAP1 SWAP2 AND DUP2 MSTORE PUSH1 0x20 ADD PUSH1 0x40 MLOAD DUP1 SWAP2 SUB SWAP1 LOG1 JUMP JUMPDEST PUSH1 0x5 DUP1 SLOAD PUSH1 0x1 PUSH1 0x1 PUSH1 0xA0 SHL SUB DUP4 DUP2 AND PUSH2 0x100 DUP2 DUP2 MUL PUSH32 0xFFFFFFFFFFFFFFFFFFFFFF0000000000000000000000000000000000000000FF DUP6 AND OR SWAP1 SWAP5 SSTORE PUSH1 0x40 MLOAD SWAP4 SWAP1 SWAP3 DIV AND SWAP2 DUP3 SWAP1 PUSH32 0x8BE0079C531659141344CD1FD0A4F28419497F9722A3DAAFE3B4186F6B6457E0 SWAP1 PUSH0 SWAP1 LOG3 POP POP JUMP JUMPDEST PUSH2 0x65E PUSH2 0x793 JUMP JUMPDEST PUSH1 0x5 DUP1 SLOAD PUSH1 0xFF NOT AND PUSH1 0x1 OR SWAP1 SSTORE PUSH32 0x62E78CEA01BEE320CD4E420270B5EA74000D11B0C9F74754EBDBFC544B05A258 PUSH2 0x5C9 CALLER SWAP1 JUMP JUMPDEST PUSH1 0x1 PUSH1 0x1 PUSH1 0xA0 SHL SUB DUP5 AND PUSH2 0x6BC JUMPI PUSH1 0x40 MLOAD PUSH4 0xE602DF05 PUSH1 0xE0 SHL DUP2 MSTORE PUSH0 PUSH1 0x4 DUP3 ADD MSTORE PUSH1 0x24 ADD PUSH2 0x461 JUMP JUMPDEST PUSH1 0x1 PUSH1 0x1 PUSH1 0xA0 SHL SUB DUP4 AND PUSH2 0x6E5 JUMPI PUSH1 0x40 MLOAD PUSH4 0x4A1406B1 PUSH1 0xE1 SHL DUP2 MSTORE PUSH0 PUSH1 0x4 DUP3 ADD MSTORE PUSH1 0x24 ADD PUSH2 0x461 JUMP JUMPDEST PUSH1 0x1 PUSH1 0x1 PUSH1 0xA0 SHL SUB DUP1 DUP6 AND PUSH0 SWAP1 DUP2 MSTORE PUSH1 0x1 PUSH1 0x20 SWAP1 DUP2 MSTORE PUSH1 0x40 DUP1 DUP4 KECCAK256 SWAP4 DUP8 AND DUP4 MSTORE SWAP3 SWAP1 MSTORE KECCAK256 DUP3 SWAP1 SSTORE DUP1 ISZERO PUSH2 0x4FE JUMPI DUP3 PUSH1 0x1 PUSH1 0x1 PUSH1 0xA0 SHL SUB AND DUP5 PUSH1 0x1 PUSH1 0x1 PUSH1 0xA0 SHL SUB AND PUSH32 0x8C5BE1E5EBEC7D5BD14F71427D1E84F3DD0314C0F7B2291E5B200AC8C7C3B925 DUP5 PUSH1 0x40 MLOAD PUSH2 0x757 SWAP2 DUP2 MSTORE PUSH1 0x20 ADD SWAP1 JUMP JUMPDEST PUSH1 0x40 MLOAD DUP1 SWAP2 SUB SWAP1 LOG3 POP POP POP POP JUMP JUMPDEST PUSH2 0x483 DUP4 DUP4 DUP4 PUSH2 0x7B7 JUMP JUMPDEST PUSH1 0x5 SLOAD PUSH1 0xFF AND PUSH2 0x3F5 JUMPI PUSH1 0x40 MLOAD PUSH4 0x8DFC202B PUSH1 0xE0 SHL DUP2 MSTORE PUSH1 0x4 ADD PUSH1 0x40 MLOAD DUP1 SWAP2 SUB SWAP1 REVERT JUMPDEST PUSH1 0x5 SLOAD PUSH1 0xFF AND ISZERO PUSH2 0x3F5 JUMPI PUSH1 0x40 MLOAD PUSH4 0xD93C0665 PUSH1 0xE0 SHL DUP2 MSTORE PUSH1 0x4 ADD PUSH1 0x40 MLOAD DUP1 SWAP2 SUB SWAP1 REVERT JUMPDEST PUSH2 0x7BF PUSH2 0x793 JUMP JUMPDEST PUSH2 0x483 DUP4 DUP4 DUP4 PUSH1 0x1 PUSH1 0x1 PUSH1 0xA0 SHL SUB DUP4 AND PUSH2 0x7EF JUMPI DUP1 PUSH1 0x2 PUSH0 DUP3 DUP3 SLOAD PUSH2 0x7E4 SWAP2 SWAP1 PUSH2 0xA25 JUMP JUMPDEST SWAP1 SWAP2 SSTORE POP PUSH2 0x85F SWAP1 POP JUMP JUMPDEST PUSH1 0x1 PUSH1 0x1 PUSH1 0xA0 SHL SUB DUP4 AND PUSH0 SWAP1 DUP2 MSTORE PUSH1 0x20 DUP2 SWAP1 MSTORE PUSH1 0x40 SWAP1 KECCAK256 SLOAD DUP2 DUP2 LT ISZERO PUSH2 0x841 JUMPI PUSH1 0x40 MLOAD PUSH4 0x391434E3 PUSH1 0xE2 SHL DUP2 MSTORE PUSH1 0x1 PUSH1 0x1 PUSH1 0xA0 SHL SUB DUP6 AND PUSH1 0x4 DUP3 ADD MSTORE PUSH1 0x24 DUP2 ADD DUP3 SWAP1 MSTORE PUSH1 0x44 DUP2 ADD DUP4 SWAP1 MSTORE PUSH1 0x64 ADD PUSH2 0x461 JUMP JUMPDEST PUSH1 0x1 PUSH1 0x1 PUSH1 0xA0 SHL SUB DUP5 AND PUSH0 SWAP1 DUP2 MSTORE PUSH1 0x20 DUP2 SWAP1 MSTORE PUSH1 0x40 SWAP1 KECCAK256 SWAP1 DUP3 SWAP1 SUB SWAP1 SSTORE JUMPDEST PUSH1 0x1 PUSH1 0x1 PUSH1 0xA0 SHL SUB DUP3 AND PUSH2 0x87B JUMPI PUSH1 0x2 DUP1 SLOAD DUP3 SWAP1 SUB SWAP1 SSTORE PUSH2 0x899 JUMP JUMPDEST PUSH1 0x1 PUSH1 0x1 PUSH1 0xA0 SHL SUB DUP3 AND PUSH0 SWAP1 DUP2 MSTORE PUSH1 0x20 DUP2 SWAP1 MSTORE PUSH1 0x40 SWAP1 KECCAK256 DUP1 SLOAD DUP3 ADD SWAP1 SSTORE JUMPDEST DUP2 PUSH1 0x1 PUSH1 0x1 PUSH1 0xA0 SHL SUB AND DUP4 PUSH1 0x1 PUSH1 0x1 PUSH1 0xA0 SHL SUB AND PUSH32 0xDDF252AD1BE2C89B69C2B068FC378DAA952BA7F163C4A11628F55A4DF523B3EF DUP4 PUSH1 0x40 MLOAD PUSH2 0x8DE SWAP2 DUP2 MSTORE PUSH1 0x20 ADD SWAP1 JUMP JUMPDEST PUSH1 0x40 MLOAD DUP1 SWAP2 SUB SWAP1 LOG3 POP POP POP JUMP JUMPDEST PUSH1 0x20 DUP2 MSTORE PUSH0 DUP3 MLOAD DUP1 PUSH1 0x20 DUP5 ADD MSTORE DUP1 PUSH1 0x20 DUP6 ADD PUSH1 0x40 DUP6 ADD MCOPY PUSH0 PUSH1 0x40 DUP3 DUP6 ADD ADD MSTORE PUSH1 0x40 PUSH1 0x1F NOT PUSH1 0x1F DUP4 ADD AND DUP5 ADD ADD SWAP2 POP POP SWAP3 SWAP2 POP POP JUMP JUMPDEST DUP1 CALLDATALOAD PUSH1 0x1 PUSH1 0x1 PUSH1 0xA0 SHL SUB DUP2 AND DUP2 EQ PUSH2 0x936 JUMPI PUSH0 DUP1 REVERT JUMPDEST SWAP2 SWAP1 POP JUMP JUMPDEST PUSH0 DUP1 PUSH1 0x40 DUP4 DUP6 SUB SLT ISZERO PUSH2 0x94C JUMPI PUSH0 DUP1 REVERT JUMPDEST PUSH2 0x955 DUP4 PUSH2 0x920 JUMP JUMPDEST SWAP5 PUSH1 0x20 SWAP4 SWAP1 SWAP4 ADD CALLDATALOAD SWAP4 POP POP POP JUMP JUMPDEST PUSH0 DUP1 PUSH0 PUSH1 0x60 DUP5 DUP7 SUB SLT ISZERO PUSH2 0x975 JUMPI PUSH0 DUP1 REVERT JUMPDEST PUSH2 0x97E DUP5 PUSH2 0x920 JUMP JUMPDEST SWAP3 POP PUSH2 0x98C PUSH1 0x20 DUP6 ADD PUSH2 0x920 JUMP JUMPDEST SWAP2 POP PUSH1 0x40 DUP5 ADD CALLDATALOAD SWAP1 POP SWAP3 POP SWAP3 POP SWAP3 JUMP JUMPDEST PUSH0 PUSH1 0x20 DUP3 DUP5 SUB SLT ISZERO PUSH2 0x9AC JUMPI PUSH0 DUP1 REVERT JUMPDEST PUSH2 0x9B5 DUP3 PUSH2 0x920 JUMP JUMPDEST SWAP4 SWAP3 POP POP POP JUMP JUMPDEST PUSH0 DUP1 PUSH1 0x40 DUP4 DUP6 SUB SLT ISZERO PUSH2 0x9CD JUMPI PUSH0 DUP1 REVERT JUMPDEST PUSH2 0x9D6 DUP4 PUSH2 0x920 JUMP JUMPDEST SWAP2 POP PUSH2 0x9E4 PUSH1 0x20 DUP5 ADD PUSH2 0x920 JUMP JUMPDEST SWAP1 POP SWAP3 POP SWAP3 SWAP1 POP JUMP JUMPDEST PUSH1 0x1 DUP2 DUP2 SHR SWAP1 DUP3 AND DUP1 PUSH2 0xA01 JUMPI PUSH1 0x7F DUP3 AND SWAP2 POP JUMPDEST PUSH1 0x20 DUP3 LT DUP2 SUB PUSH2 0xA1F JUMPI PUSH4 0x4E487B71 PUSH1 0xE0 SHL PUSH0 MSTORE PUSH1 0x22 PUSH1 0x4 MSTORE PUSH1 0x24 PUSH0 REVERT JUMPDEST POP SWAP2 SWAP1 POP JUMP JUMPDEST DUP1 DUP3 ADD DUP1 DUP3 GT ISZERO PUSH2 0x3BC JUMPI PUSH4 0x4E487B71 PUSH1 0xE0 SHL PUSH0 MSTORE PUSH1 0x11 PUSH1 0x4 MSTORE PUSH1 0x24 PUSH0 REVERT INVALID LOG2 PUSH5 0x6970667358 0x22 SLT KECCAK256 PUSH9 0x31E9D18FBF6807AE3E DUP11 0xF 0xB5 PUSH21 0xEE42A1489FF98B09FA6216A3F7AF9893B43A64736F PUSH13 0x63430008190033000000000000 "
    },
    "gasEstimates": {
      "creation": {
        "codeDepositCost": "536400",
        "executionCost": "infinite",
        "totalCost": "infinite"
      },
      "external": {
        "MAX_SUPPLY()": "262",
        "TEAM_ALLOCATION()": "282",
        "TREASURY_ALLOCATION()": "239",
        "allowance(address,address)": "infinite",
        "approve(address,uint256)": "24781",
        "balanceOf(address)": "2626",
        "decimals()": "222",
        "name()": "infinite",
        "owner()": "2386",
        "pause()": "infinite",
        "paused()": "2370",
        "renounceOwnership()": "infinite",
        "symbol()": "infinite",
        "teamAddress()": "2404",
        "totalSupply()": "2326",
        "transfer(address,uint256)": "infinite",
        "transferFrom(address,address,uint256)": "infinite",
        "transferOwnership(address)": "28417",
        "treasuryAddress()": "2403",
        "unpause()": "infinite"
      },
      "internal": {
        "_update(address,address,uint256)": "infinite"
      }
    },
    "methodIdentifiers": {
      "MAX_SUPPLY()": "32cb6b0c",
      "TEAM_ALLOCATION()": "fd99cbed",
      "TREASURY_ALLOCATION()": "bf1ad7e0",
      "allowance(address,address)": "dd62ed3e",
      "approve(address,uint256)": "095ea7b3",
      "balanceOf(address)": "70a08231",
      "decimals()": "313ce567",
      "name()": "06fdde03",
      "owner()": "8da5cb5b",
      "pause()": "8456cb59",
      "paused()": "5c975abb",
      "renounceOwnership()": "715018a6",
      "symbol()": "95d89b41",
      "teamAddress()": "1c75f085",
      "totalSupply()": "18160ddd",
      "transfer(address,uint256)": "a9059cbb",
      "transferFrom(address,address,uint256)": "23b872dd",
      "transferOwnership(address)": "f2fde38b",
      "treasuryAddress()": "c5f956af",
      "unpause()": "3f4ba83a"
    }
  },
  "storageLayout": {
    "storage": [
      {
        "astId": 1348,
        "contract": "RoluToken.sol:RoluToken",
        "label": "_balances",
        "offset": 0,
        "slot": "0",
        "type": "t_mapping(t_address,t_uint256)"
      },
      {
        "astId": 1354,
        "contract": "RoluToken.sol:RoluToken",
        "label": "_allowances",
        "offset": 0,
        "slot": "1",
        "type": "t_mapping(t_address,t_mapping(t_address,t_uint256))"
      },
      {
        "astId": 1356,
        "contract": "RoluToken.sol:RoluToken",
        "label": "_totalSupply",
        "offset": 0,
        "slot": "2",
        "type": "t_uint256"
      },
      {
        "astId": 1358,
        "contract": "RoluToken.sol:RoluToken",
        "label": "_name",
        "offset": 0,
        "slot": "3",
        "type": "t_string_storage"
      },
      {
        "astId": 1360,
        "contract": "RoluToken.sol:RoluToken",
        "label": "_symbol",
        "offset": 0,
        "slot": "4",
        "type": "t_string_storage"
      },
      {
        "astId": 2076,
        "contract": "RoluToken.sol:RoluToken",
        "label": "_paused",
        "offset": 0,
        "slot": "5",
        "type": "t_bool"
      },
      {
        "astId": 691,
        "contract": "RoluToken.sol:RoluToken",
        "label": "_owner",
        "offset": 1,
        "slot": "5",
        "type": "t_address"
      },
      {
        "astId": 313,
        "contract": "RoluToken.sol:RoluToken",
        "label": "treasuryAddress",
        "offset": 0,
        "slot": "6",
        "type": "t_address"
      },
      {
        "astId": 315,
        "contract": "RoluToken.sol:RoluToken",
        "label": "teamAddress",
        "offset": 0,
        "slot": "7",
        "type": "t_address"
      }
    ],
    "types": {
      "t_address": {
        "encoding": "inplace",
        "label": "address",
        "numberOfBytes": "20"
      },
      "t_bool": {
        "encoding": "inplace",
        "label": "bool",
        "numberOfBytes": "1"
      },
      "t_mapping(t_address,t_mapping(t_address,t_uint256))": {
        "encoding": "mapping",
        "key": "t_address",
        "label": "mapping(address => mapping(address => uint256))",
        "numberOfBytes": "32",
        "value": "t_mapping(t_address,t_uint256)"
      },
      "t_mapping(t_address,t_uint256)": {
        "encoding": "mapping",
        "key": "t_address",
        "label": "mapping(address => uint256)",
        "numberOfBytes": "32",
        "value": "t_uint256"
      },
      "t_string_storage": {
        "encoding": "bytes",
        "label": "string",
        "numberOfBytes": "32"
      },
      "t_uint256": {
        "encoding": "inplace",
        "label": "uint256",
        "numberOfBytes": "32"
      }
    }
  },
  "userdoc": {
    "kind": "user",
    "methods": {},
    "version": 1
  }
}