{
  "_format": "hh-sol-artifact-1",
  "contractName": "RoluRewards",
  "sourceName": "contracts/RoluRewards.sol",
  "abi": [
    {
      "inputs": [
        {
          "internalType": "address",
          "name": "_initialOwner",
          "type": "address"
        },
        {
          "internalType": "address",
          "name": "_roluTokenAddress",
          "type": "address"
        },
        {
          "internalType": "address",
          "name": "_treasuryAddress",
          "type": "address"
        },
        {
          "internalType": "address",
          "name": "_adminAddress",
          "type": "address"
        }
      ],
      "stateMutability": "nonpayable",
      "type": "constructor"
    },
    {
      "inputs": [],
      "name": "ECDSAInvalidSignature",
      "type": "error"
    },
    {
      "inputs": [
        {
          "internalType": "uint256",
          "name": "length",
          "type": "uint256"
        }
      ],
      "name": "ECDSAInvalidSignatureLength",
      "type": "error"
    },
    {
      "inputs": [
        {
          "internalType": "bytes32",
          "name": "s",
          "type": "bytes32"
        }
      ],
      "name": "ECDSAInvalidSignatureS",
      "type": "error"
    },
    {
      "inputs": [],
      "name": "InvalidSignature",
      "type": "error"
    },
    {
      "inputs": [],
      "name": "NonceAlreadyClaimed",
      "type": "error"
    },
    {
      "inputs": [
        {
          "internalType": "address",
          "name": "owner",
          "type": "address"
        }
      ],
      "name": "OwnableInvalidOwner",
      "type": "error"
    },
    {
      "inputs": [
        {
          "internalType": "address",
          "name": "account",
          "type": "address"
        }
      ],
      "name": "OwnableUnauthorizedAccount",
      "type": "error"
    },
    {
      "inputs": [],
      "name": "ReentrancyGuardReentrantCall",
      "type": "error"
    },
    {
      "inputs": [],
      "name": "TransferFailed",
      "type": "error"
    },
    {
      "inputs": [],
      "name": "ZeroClaimAmount",
      "type": "error"
    },
    {
      "anonymous": false,
      "inputs": [
        {
          "indexed": true,
          "internalType": "address",
          "name": "oldAdminAddress",
          "type": "address"
        },
        {
          "indexed": true,
          "internalType": "address",
          "name": "newAdminAddress",
          "type": "address"
        }
      ],
      "name": "AdminAddressUpdated",
      "type": "event"
    },
    {
      "anonymous": false,
      "inputs": [
        {
          "indexed": true,
          "internalType": "address",
          "name": "previousOwner",
          "type": "address"
        },
        {
          "indexed": true,
          "internalType": "address",
          "name": "newOwner",
          "type": "address"
        }
      ],
      "name": "OwnershipTransferred",
      "type": "event"
    },
    {
      "anonymous": false,
      "inputs": [
        {
          "indexed": true,
          "internalType": "address",
          "name": "user",
          "type": "address"
        },
        {
          "indexed": false,
          "internalType": "uint256",
          "name": "amountWei",
          "type": "uint256"
        },
        {
          "indexed": false,
          "internalType": "uint256",
          "name": "nonce",
          "type": "uint256"
        }
      ],
      "name": "RewardsClaimed",
      "type": "event"
    },
    {
      "inputs": [],
      "name": "adminAddress",
      "outputs": [
        {
          "internalType": "address",
          "name": "",
          "type": "address"
        }
      ],
      "stateMutability": "view",
      "type": "function"
    },
    {
      "inputs": [
        {
          "internalType": "uint256",
          "name": "_amountWei",
          "type": "uint256"
        },
        {
          "internalType": "uint256",
          "name": "_nonce",
          "type": "uint256"
        },
        {
          "internalType": "bytes",
          "name": "_signature",
          "type": "bytes"
        }
      ],
      "name": "claimRewards",
      "outputs": [],
      "stateMutability": "nonpayable",
      "type": "function"
    },
    {
      "inputs": [
        {
          "internalType": "uint256",
          "name": "",
          "type": "uint256"
        }
      ],
      "name": "claimedNonces",
      "outputs": [
        {
          "internalType": "bool",
          "name": "",
          "type": "bool"
        }
      ],
      "stateMutability": "view",
      "type": "function"
    },
    {
      "inputs": [],
      "name": "owner",
      "outputs": [
        {
          "internalType": "address",
          "name": "",
          "type": "address"
        }
      ],
      "stateMutability": "view",
      "type": "function"
    },
    {
      "inputs": [],
      "name": "renounceOwnership",
      "outputs": [],
      "stateMutability": "nonpayable",
      "type": "function"
    },
    {
      "inputs": [],
      "name": "roluToken",
      "outputs": [
        {
          "internalType": "contract IERC20",
          "name": "",
          "type": "address"
        }
      ],
      "stateMutability": "view",
      "type": "function"
    },
    {
      "inputs": [
        {
          "internalType": "address",
          "name": "newOwner",
          "type": "address"
        }
      ],
      "name": "transferOwnership",
      "outputs": [],
      "stateMutability": "nonpayable",
      "type": "function"
    },
    {
      "inputs": [],
      "name": "treasuryAddress",
      "outputs": [
        {
          "internalType": "address",
          "name": "",
          "type": "address"
        }
      ],
      "stateMutability": "view",
      "type": "function"
    },
    {
      "inputs": [
        {
          "internalType": "address",
          "name": "_newAdminAddress",
          "type": "address"
        }
      ],
      "name": "updateAdminAddress",
      "outputs": [],
      "stateMutability": "nonpayable",
      "type": "function"
    },
    {
      "inputs": [],
      "name": "withdrawStuckEth",
      "outputs": [],
      "stateMutability": "nonpayable",
      "type": "function"
    },
    {
      "inputs": [
        {
          "internalType": "uint256",
          "name": "_amount",
          "type": "uint256"
        }
      ],
      "name": "withdrawStuckTokens",
      "outputs": [],
      "stateMutability": "nonpayable",
      "type": "function"
    }
  ],
  "bytecode": "0x60c060405234801561001057600080fd5b50604051610ccd380380610ccd83398101604081905261002f9161020a565b836001600160a01b03811661005f57604051631e4fbdf760e01b8152600060048201526024015b60405180910390fd5b6100688161019e565b50600180556001600160a01b0383166100c35760405162461bcd60e51b815260206004820152601a60248201527f496e76616c696420524f4c5520746f6b656e20616464726573730000000000006044820152606401610056565b6001600160a01b0382166101195760405162461bcd60e51b815260206004820152601860248201527f496e76616c6964207472656173757279206164647265737300000000000000006044820152606401610056565b6001600160a01b03811661016f5760405162461bcd60e51b815260206004820152601560248201527f496e76616c69642061646d696e206164647265737300000000000000000000006044820152606401610056565b6001600160a01b0392831660805290821660a052600280546001600160a01b031916919092161790555061025e565b600080546001600160a01b038381166001600160a01b0319831681178455604051919092169283917f8be0079c531659141344cd1fd0a4f28419497f9722a3daafe3b4186f6b6457e09190a35050565b80516001600160a01b038116811461020557600080fd5b919050565b6000806000806080858703121561022057600080fd5b610229856101ee565b9350610237602086016101ee565b9250610245604086016101ee565b9150610253606086016101ee565b905092959194509250565b60805160a051610a3561029860003960008181610182015261050a01526000818161015b015281816101d4015261053f0152610a356000f3fe608060405234801561001057600080fd5b50600436106100a95760003560e01c80638da5cb5b116100715780638da5cb5b1461011e578063b7d86ff214610143578063bb285b9414610156578063c5f956af1461017d578063f2fde38b146101a4578063fc6f9468146101b757600080fd5b80635e6710de146100ae578063715018a6146100c35780637e983045146100cb5780637fa787ba1461010357806385e2381c1461010b575b600080fd5b6100c16100bc3660046108fe565b6101ca565b005b6100c16102ca565b6100ee6100d93660046108fe565b60036020526000908152604090205460ff1681565b60405190151581526020015b60405180910390f35b6100c16102de565b6100c1610119366004610917565b610320565b6000546001600160a01b03165b6040516001600160a01b0390911681526020016100fa565b6100c1610151366004610947565b6103c8565b61012b7f000000000000000000000000000000000000000000000000000000000000000081565b61012b7f000000000000000000000000000000000000000000000000000000000000000081565b6100c16101b2366004610917565b610619565b60025461012b906001600160a01b031681565b6101d2610654565b7f00000000000000000000000000000000000000000000000000000000000000006001600160a01b031663a9059cbb6102136000546001600160a01b031690565b6040516001600160e01b031960e084901b1681526001600160a01b039091166004820152602481018490526044016020604051808303816000875af1158015610260573d6000803e3d6000fd5b505050506040513d601f19601f8201168201806040525081019061028491906109c7565b6102c75760405162461bcd60e51b815260206004820152600f60248201526e15da5d1a191c985dc819985a5b1959608a1b60448201526064015b60405180910390fd5b50565b6102d2610654565b6102dc6000610681565b565b6102e6610654565b600080546040516001600160a01b03909116914780156108fc02929091818181858888f193505050501580156102c7573d6000803e3d6000fd5b610328610654565b6001600160a01b0381166103765760405162461bcd60e51b8152602060048201526015602482015274496e76616c69642061646d696e206164647265737360581b60448201526064016102be565b600280546001600160a01b038381166001600160a01b0319831681179093556040519116919082907f39eb67354e1d981c44468f6a2b1837bb1598cf711fe761db800b185706b4e8cb90600090a35050565b6103d06106d1565b836000036103f1576040516360640efd60e11b815260040160405180910390fd5b60008381526003602052604090205460ff161561042157604051632818417160e11b815260040160405180910390fd5b6040516bffffffffffffffffffffffff193360601b166020820152603481018590526054810184905260009060740160405160208183030381529060405280519060200120905060006104aa8285858080601f0160208091040260200160405190810160405280939291908181526020018383808284376000920191909152506106fb92505050565b6002549091506001600160a01b038083169116146104db57604051638baa579f60e01b815260040160405180910390fd5b600085815260036020526040808220805460ff19166001179055516323b872dd60e01b81526001600160a01b037f000000000000000000000000000000000000000000000000000000000000000081166004830152336024830152604482018990527f000000000000000000000000000000000000000000000000000000000000000016906323b872dd906064016020604051808303816000875af1158015610588573d6000803e3d6000fd5b505050506040513d601f19601f820116820180604052508101906105ac91906109c7565b9050806105cc576040516312171d8360e31b815260040160405180910390fd5b604080518881526020810188905233917fdacbdde355ba930696a362ea6738feb9f8bd52dfb3d81947558fd3217e23e325910160405180910390a250505061061360018055565b50505050565b610621610654565b6001600160a01b03811661064b57604051631e4fbdf760e01b8152600060048201526024016102be565b6102c781610681565b6000546001600160a01b031633146102dc5760405163118cdaa760e01b81523360048201526024016102be565b600080546001600160a01b038381166001600160a01b0319831681178455604051919092169283917f8be0079c531659141344cd1fd0a4f28419497f9722a3daafe3b4186f6b6457e09190a35050565b6002600154036106f457604051633ee5aeb560e01b815260040160405180910390fd5b6002600155565b60008060008061070b8686610725565b92509250925061071b8282610772565b5090949350505050565b6000806000835160410361075f5760208401516040850151606086015160001a6107518882858561082f565b95509550955050505061076b565b50508151600091506002905b9250925092565b6000826003811115610786576107866109e9565b0361078f575050565b60018260038111156107a3576107a36109e9565b036107c15760405163f645eedf60e01b815260040160405180910390fd5b60028260038111156107d5576107d56109e9565b036107f65760405163fce698f760e01b8152600481018290526024016102be565b600382600381111561080a5761080a6109e9565b0361082b576040516335e2f38360e21b8152600481018290526024016102be565b5050565b600080807f7fffffffffffffffffffffffffffffff5d576e7357a4501ddfe92f46681b20a084111561086a57506000915060039050826108f4565b604080516000808252602082018084528a905260ff891692820192909252606081018790526080810186905260019060a0016020604051602081039080840390855afa1580156108be573d6000803e3d6000fd5b5050604051601f1901519150506001600160a01b0381166108ea575060009250600191508290506108f4565b9250600091508190505b9450945094915050565b60006020828403121561091057600080fd5b5035919050565b60006020828403121561092957600080fd5b81356001600160a01b038116811461094057600080fd5b9392505050565b6000806000806060858703121561095d57600080fd5b8435935060208501359250604085013567ffffffffffffffff8082111561098357600080fd5b818701915087601f83011261099757600080fd5b8135818111156109a657600080fd5b8860208285010111156109b857600080fd5b95989497505060200194505050565b6000602082840312156109d957600080fd5b8151801515811461094057600080fd5b634e487b7160e01b600052602160045260246000fdfea2646970667358221220dd34ad3858b60ef2dd5083a536100c1d263bf943addae13125903ec68f69993264736f6c63430008170033",
  "linkReferences": {},
  "deployedLinkReferences": {}
}