{
  "abi": [
    {
      "inputs": [
        {
          "internalType": "address",
          "name": "_initialOwner",
          "type": "address"
        },
        {
          "internalType": "address",
          "name": "_roluTokenAddress",
          "type": "address"
        },
        {
          "internalType": "address",
          "name": "_treasuryAddress",
          "type": "address"
        },
        {
          "internalType": "address",
          "name": "_adminAddress",
          "type": "address"
        }
      ],
      "stateMutability": "nonpayable",
      "type": "constructor"
    },
    {
      "inputs": [],
      "name": "ECDSAInvalidSignature",
      "type": "error"
    },
    {
      "inputs": [
        {
          "internalType": "uint256",
          "name": "length",
          "type": "uint256"
        }
      ],
      "name": "ECDSAInvalidSignatureLength",
      "type": "error"
    },
    {
      "inputs": [
        {
          "internalType": "bytes32",
          "name": "s",
          "type": "bytes32"
        }
      ],
      "name": "ECDSAInvalidSignatureS",
      "type": "error"
    },
    {
      "inputs": [],
      "name": "InvalidSignature",
      "type": "error"
    },
    {
      "inputs": [],
      "name": "NonceAlreadyClaimed",
      "type": "error"
    },
    {
      "inputs": [
        {
          "internalType": "address",
          "name": "owner",
          "type": "address"
        }
      ],
      "name": "OwnableInvalidOwner",
      "type": "error"
    },
    {
      "inputs": [
        {
          "internalType": "address",
          "name": "account",
          "type": "address"
        }
      ],
      "name": "OwnableUnauthorizedAccount",
      "type": "error"
    },
    {
      "inputs": [],
      "name": "ReentrancyGuardReentrantCall",
      "type": "error"
    },
    {
      "inputs": [],
      "name": "TransferFailed",
      "type": "error"
    },
    {
      "inputs": [],
      "name": "ZeroClaimAmount",
      "type": "error"
    },
    {
      "anonymous": false,
      "inputs": [
        {
          "indexed": true,
          "internalType": "address",
          "name": "oldAdminAddress",
          "type": "address"
        },
        {
          "indexed": true,
          "internalType": "address",
          "name": "newAdminAddress",
          "type": "address"
        }
      ],
      "name": "AdminAddressUpdated",
      "type": "event"
    },
    {
      "anonymous": false,
      "inputs": [
        {
          "indexed": true,
          "internalType": "address",
          "name": "previousOwner",
          "type": "address"
        },
        {
          "indexed": true,
          "internalType": "address",
          "name": "newOwner",
          "type": "address"
        }
      ],
      "name": "OwnershipTransferred",
      "type": "event"
    },
    {
      "anonymous": false,
      "inputs": [
        {
          "indexed": true,
          "internalType": "address",
          "name": "user",
          "type": "address"
        },
        {
          "indexed": false,
          "internalType": "uint256",
          "name": "amountWei",
          "type": "uint256"
        },
        {
          "indexed": false,
          "internalType": "uint256",
          "name": "nonce",
          "type": "uint256"
        }
      ],
      "name": "RewardsClaimed",
      "type": "event"
    },
    {
      "inputs": [],
      "name": "adminAddress",
      "outputs": [
        {
          "internalType": "address",
          "name": "",
          "type": "address"
        }
      ],
      "stateMutability": "view",
      "type": "function"
    },
    {
      "inputs": [
        {
          "internalType": "uint256",
          "name": "_amountWei",
          "type": "uint256"
        },
        {
          "internalType": "uint256",
          "name": "_nonce",
          "type": "uint256"
        },
        {
          "internalType": "bytes",
          "name": "_signature",
          "type": "bytes"
        }
      ],
      "name": "claimRewards",
      "outputs": [],
      "stateMutability": "nonpayable",
      "type": "function"
    },
    {
      "inputs": [
        {
          "internalType": "uint256",
          "name": "",
          "type": "uint256"
        }
      ],
      "name": "claimedNonces",
      "outputs": [
        {
          "internalType": "bool",
          "name": "",
          "type": "bool"
        }
      ],
      "stateMutability": "view",
      "type": "function"
    },
    {
      "inputs": [],
      "name": "owner",
      "outputs": [
        {
          "internalType": "address",
          "name": "",
          "type": "address"
        }
      ],
      "stateMutability": "view",
      "type": "function"
    },
    {
      "inputs": [],
      "name": "renounceOwnership",
      "outputs": [],
      "stateMutability": "nonpayable",
      "type": "function"
    },
    {
      "inputs": [],
      "name": "roluToken",
      "outputs": [
        {
          "internalType": "contract IERC20",
          "name": "",
          "type": "address"
        }
      ],
      "stateMutability": "view",
      "type": "function"
    },
    {
      "inputs": [
        {
          "internalType": "address",
          "name": "newOwner",
          "type": "address"
        }
      ],
      "name": "transferOwnership",
      "outputs": [],
      "stateMutability": "nonpayable",
      "type": "function"
    },
    {
      "inputs": [],
      "name": "treasuryAddress",
      "outputs": [
        {
          "internalType": "address",
          "name": "",
          "type": "address"
        }
      ],
      "stateMutability": "view",
      "type": "function"
    },
    {
      "inputs": [
        {
          "internalType": "address",
          "name": "_newAdminAddress",
          "type": "address"
        }
      ],
      "name": "updateAdminAddress",
      "outputs": [],
      "stateMutability": "nonpayable",
      "type": "function"
    },
    {
      "inputs": [],
      "name": "withdrawStuckEth",
      "outputs": [],
      "stateMutability": "nonpayable",
      "type": "function"
    },
    {
      "inputs": [
        {
          "internalType": "uint256",
          "name": "_amount",
          "type": "uint256"
        }
      ],
      "name": "withdrawStuckTokens",
      "outputs": [],
      "stateMutability": "nonpayable",
      "type": "function"
    }
  ],
  "devdoc": {
    "details": "Contract to manage the claiming of ROLU rewards by users. Users claim rewards based on a signature provided by a trusted backend admin. The contract pulls tokens from a designated treasury address upon successful claim verification.",
    "errors": {
      "ECDSAInvalidSignature()": [
        {
          "details": "The signature derives the `address(0)`."
        }
      ],
      "ECDSAInvalidSignatureLength(uint256)": [
        {
          "details": "The signature has an invalid length."
        }
      ],
      "ECDSAInvalidSignatureS(bytes32)": [
        {
          "details": "The signature has an S value that is in the upper half order."
        }
      ],
      "InvalidSignature()": [
        {
          "details": "Thrown when signature verification fails."
        }
      ],
      "NonceAlreadyClaimed()": [
        {
          "details": "Thrown when the nonce has already been used."
        }
      ],
      "OwnableInvalidOwner(address)": [
        {
          "details": "The owner is not a valid owner account. (eg. `address(0)`)"
        }
      ],
      "OwnableUnauthorizedAccount(address)": [
        {
          "details": "The caller account is not authorized to perform an operation."
        }
      ],
      "ReentrancyGuardReentrantCall()": [
        {
          "details": "Unauthorized reentrant call."
        }
      ],
      "TransferFailed()": [
        {
          "details": "Thrown when the ERC20 transferFrom fails."
        }
      ],
      "ZeroClaimAmount()": [
        {
          "details": "Thrown when the claim amount is zero."
        }
      ]
    },
    "events": {
      "AdminAddressUpdated(address,address)": {
        "details": "Emitted when the admin address is updated.",
        "params": {
          "newAdminAddress": "The new admin address.",
          "oldAdminAddress": "The previous admin address."
        }
      },
      "RewardsClaimed(address,uint256,uint256)": {
        "details": "Emitted when a user successfully claims rewards.",
        "params": {
          "amountWei": "The amount of ROLU claimed (in wei).",
          "nonce": "The nonce used for this claim verification.",
          "user": "The address of the user claiming rewards."
        }
      }
    },
    "kind": "dev",
    "methods": {
      "claimRewards(uint256,uint256,bytes)": {
        "details": "Verifies a signature provided by the backend admin before transferring tokens. The signature must correspond to a hash of the claimant's address, the amount, and a unique nonce.",
        "params": {
          "_amountWei": "The total amount of ROLU tokens to claim (in wei, 1e18 format).",
          "_nonce": "A unique nonce provided by the backend for this claim attempt.",
          "_signature": "The EIP-712 style signature from the admin address."
        }
      },
      "constructor": {
        "params": {
          "_adminAddress": "The address authorized to sign claim messages.",
          "_initialOwner": "The initial owner of this contract.",
          "_roluTokenAddress": "The address of the ROLU ERC20 token contract.",
          "_treasuryAddress": "The address holding the ROLU tokens to be distributed."
        }
      },
      "owner()": {
        "details": "Returns the address of the current owner."
      },
      "renounceOwnership()": {
        "details": "Leaves the contract without owner. It will not be possible to call `onlyOwner` functions. Can only be called by the current owner. NOTE: Renouncing ownership will leave the contract without an owner, thereby disabling any functionality that is only available to the owner."
      },
      "transferOwnership(address)": {
        "details": "Transfers ownership of the contract to a new account (`newOwner`). Can only be called by the current owner."
      },
      "updateAdminAddress(address)": {
        "params": {
          "_newAdminAddress": "The new admin address."
        }
      },
      "withdrawStuckTokens(uint256)": {
        "params": {
          "_amount": "The amount of ROLU tokens to withdraw."
        }
      }
    },
    "title": "RoluRewards",
    "version": 1
  },
  "evm": {
    "assembly": "    /* \"RoluRewards.sol\":569:5743  contract RoluRewards is Ownable, ReentrancyGuard {... */\n  mstore(0x40, 0xc0)\n    /* \"RoluRewards.sol\":2302:2839  constructor(... */\n  callvalue\n  dup1\n  iszero\n  tag_1\n  jumpi\n  0x00\n  dup1\n  revert\ntag_1:\n  pop\n  mload(0x40)\n  sub(codesize, bytecodeSize)\n  dup1\n  bytecodeSize\n  dup4\n  codecopy\n  dup2\n  add\n  0x40\n  dup2\n  swap1\n  mstore\n  tag_2\n  swap2\n  tag_3\n  jump\t// in\ntag_2:\n    /* \"RoluRewards.sol\":2459:2472  _initialOwner */\n  dup4\n  sub(shl(0xa0, 0x01), 0x01)\n    /* \"@openzeppelin/contracts/access/Ownable.sol\":1273:1299   */\n  dup2\n  and\n    /* \"@openzeppelin/contracts/access/Ownable.sol\":1269:1364   */\n  tag_8\n  jumpi\n    /* \"@openzeppelin/contracts/access/Ownable.sol\":1322:1353   */\n  mload(0x40)\n  shl(0xe0, 0x1e4fbdf7)\n  dup2\n  mstore\n    /* \"@openzeppelin/contracts/access/Ownable.sol\":1350:1351   */\n  0x00\n    /* \"@openzeppelin/contracts/access/Ownable.sol\":1322:1353   */\n  0x04\n  dup3\n  add\n    /* \"#utility.yul\":811:862   */\n  mstore\n    /* \"#utility.yul\":784:802   */\n  0x24\n  add\n    /* \"@openzeppelin/contracts/access/Ownable.sol\":1322:1353   */\ntag_9:\n  mload(0x40)\n  dup1\n  swap2\n  sub\n  swap1\n  revert\n    /* \"@openzeppelin/contracts/access/Ownable.sol\":1269:1364   */\ntag_8:\n    /* \"@openzeppelin/contracts/access/Ownable.sol\":1373:1405   */\n  tag_11\n    /* \"@openzeppelin/contracts/access/Ownable.sol\":1392:1404   */\n  dup2\n    /* \"@openzeppelin/contracts/access/Ownable.sol\":1373:1391   */\n  tag_12\n    /* \"@openzeppelin/contracts/access/Ownable.sol\":1373:1405   */\n  jump\t// in\ntag_11:\n  pop\n    /* \"@openzeppelin/contracts/utils/ReentrancyGuard.sol\":1857:1858   */\n  0x01\n    /* \"@openzeppelin/contracts/utils/ReentrancyGuard.sol\":2061:2082   */\n  dup1\n  sstore\n  sub(shl(0xa0, 0x01), 0x01)\n    /* \"RoluRewards.sol\":2492:2523  _roluTokenAddress != address(0) */\n  dup4\n  and\n    /* \"RoluRewards.sol\":2484:2554  require(_roluTokenAddress != address(0), \"Invalid ROLU token address\") */\n  tag_15\n  jumpi\n  mload(0x40)\n  shl(0xe5, 0x461bcd)\n  dup2\n  mstore\n    /* \"#utility.yul\":1075:1077   */\n  0x20\n    /* \"RoluRewards.sol\":2484:2554  require(_roluTokenAddress != address(0), \"Invalid ROLU token address\") */\n  0x04\n  dup3\n  add\n    /* \"#utility.yul\":1057:1078   */\n  mstore\n    /* \"#utility.yul\":1114:1116   */\n  0x1a\n    /* \"#utility.yul\":1094:1112   */\n  0x24\n  dup3\n  add\n    /* \"#utility.yul\":1087:1117   */\n  mstore\n    /* \"#utility.yul\":1153:1181   */\n  0x496e76616c696420524f4c5520746f6b656e2061646472657373000000000000\n    /* \"#utility.yul\":1133:1151   */\n  0x44\n  dup3\n  add\n    /* \"#utility.yul\":1126:1182   */\n  mstore\n    /* \"#utility.yul\":1199:1217   */\n  0x64\n  add\n    /* \"RoluRewards.sol\":2484:2554  require(_roluTokenAddress != address(0), \"Invalid ROLU token address\") */\n  tag_9\n    /* \"#utility.yul\":873:1223   */\n  jump\n    /* \"RoluRewards.sol\":2484:2554  require(_roluTokenAddress != address(0), \"Invalid ROLU token address\") */\ntag_15:\n  sub(shl(0xa0, 0x01), 0x01)\n    /* \"RoluRewards.sol\":2572:2602  _treasuryAddress != address(0) */\n  dup3\n  and\n    /* \"RoluRewards.sol\":2564:2631  require(_treasuryAddress != address(0), \"Invalid treasury address\") */\n  tag_18\n  jumpi\n  mload(0x40)\n  shl(0xe5, 0x461bcd)\n  dup2\n  mstore\n    /* \"#utility.yul\":1430:1432   */\n  0x20\n    /* \"RoluRewards.sol\":2564:2631  require(_treasuryAddress != address(0), \"Invalid treasury address\") */\n  0x04\n  dup3\n  add\n    /* \"#utility.yul\":1412:1433   */\n  mstore\n    /* \"#utility.yul\":1469:1471   */\n  0x18\n    /* \"#utility.yul\":1449:1467   */\n  0x24\n  dup3\n  add\n    /* \"#utility.yul\":1442:1472   */\n  mstore\n    /* \"#utility.yul\":1508:1534   */\n  0x496e76616c696420747265617375727920616464726573730000000000000000\n    /* \"#utility.yul\":1488:1506   */\n  0x44\n  dup3\n  add\n    /* \"#utility.yul\":1481:1535   */\n  mstore\n    /* \"#utility.yul\":1552:1570   */\n  0x64\n  add\n    /* \"RoluRewards.sol\":2564:2631  require(_treasuryAddress != address(0), \"Invalid treasury address\") */\n  tag_9\n    /* \"#utility.yul\":1228:1576   */\n  jump\n    /* \"RoluRewards.sol\":2564:2631  require(_treasuryAddress != address(0), \"Invalid treasury address\") */\ntag_18:\n  sub(shl(0xa0, 0x01), 0x01)\n    /* \"RoluRewards.sol\":2649:2676  _adminAddress != address(0) */\n  dup2\n  and\n    /* \"RoluRewards.sol\":2641:2702  require(_adminAddress != address(0), \"Invalid admin address\") */\n  tag_21\n  jumpi\n  mload(0x40)\n  shl(0xe5, 0x461bcd)\n  dup2\n  mstore\n    /* \"#utility.yul\":1783:1785   */\n  0x20\n    /* \"RoluRewards.sol\":2641:2702  require(_adminAddress != address(0), \"Invalid admin address\") */\n  0x04\n  dup3\n  add\n    /* \"#utility.yul\":1765:1786   */\n  mstore\n    /* \"#utility.yul\":1822:1824   */\n  0x15\n    /* \"#utility.yul\":1802:1820   */\n  0x24\n  dup3\n  add\n    /* \"#utility.yul\":1795:1825   */\n  mstore\n    /* \"#utility.yul\":1861:1884   */\n  0x496e76616c69642061646d696e20616464726573730000000000000000000000\n    /* \"#utility.yul\":1841:1859   */\n  0x44\n  dup3\n  add\n    /* \"#utility.yul\":1834:1885   */\n  mstore\n    /* \"#utility.yul\":1902:1920   */\n  0x64\n  add\n    /* \"RoluRewards.sol\":2641:2702  require(_adminAddress != address(0), \"Invalid admin address\") */\n  tag_9\n    /* \"#utility.yul\":1581:1926   */\n  jump\n    /* \"RoluRewards.sol\":2641:2702  require(_adminAddress != address(0), \"Invalid admin address\") */\ntag_21:\n  sub(shl(0xa0, 0x01), 0x01)\n    /* \"RoluRewards.sol\":2713:2750  roluToken = IERC20(_roluTokenAddress) */\n  swap3\n  dup4\n  and\n  0x80\n  mstore\n    /* \"RoluRewards.sol\":2760:2794  treasuryAddress = _treasuryAddress */\n  swap1\n  dup3\n  and\n  0xa0\n  mstore\n    /* \"RoluRewards.sol\":2804:2816  adminAddress */\n  0x02\n    /* \"RoluRewards.sol\":2804:2832  adminAddress = _adminAddress */\n  dup1\n  sload\n  not(sub(shl(0xa0, 0x01), 0x01))\n  and\n  swap2\n  swap1\n  swap3\n  and\n  or\n  swap1\n  sstore\n  pop\n    /* \"RoluRewards.sol\":569:5743  contract RoluRewards is Ownable, ReentrancyGuard {... */\n  jump(tag_27)\n    /* \"@openzeppelin/contracts/access/Ownable.sol\":2912:3099   */\ntag_12:\n    /* \"@openzeppelin/contracts/access/Ownable.sol\":2985:3001   */\n  0x00\n    /* \"@openzeppelin/contracts/access/Ownable.sol\":3004:3010   */\n  dup1\n  sload\n  sub(shl(0xa0, 0x01), 0x01)\n    /* \"@openzeppelin/contracts/access/Ownable.sol\":3020:3037   */\n  dup4\n  dup2\n  and\n  not(sub(shl(0xa0, 0x01), 0x01))\n  dup4\n  and\n  dup2\n  or\n  dup5\n  sstore\n    /* \"@openzeppelin/contracts/access/Ownable.sol\":3052:3092   */\n  mload(0x40)\n    /* \"@openzeppelin/contracts/access/Ownable.sol\":3004:3010   */\n  swap2\n  swap1\n  swap3\n  and\n  swap3\n  dup4\n  swap2\n    /* \"@openzeppelin/contracts/access/Ownable.sol\":3052:3092   */\n  0x8be0079c531659141344cd1fd0a4f28419497f9722a3daafe3b4186f6b6457e0\n  swap2\n    /* \"@openzeppelin/contracts/access/Ownable.sol\":2985:3001   */\n  swap1\n    /* \"@openzeppelin/contracts/access/Ownable.sol\":3052:3092   */\n  log3\n    /* \"@openzeppelin/contracts/access/Ownable.sol\":2975:3099   */\n  pop\n    /* \"@openzeppelin/contracts/access/Ownable.sol\":2912:3099   */\n  pop\n  jump\t// out\n    /* \"#utility.yul\":14:191   */\ntag_26:\n    /* \"#utility.yul\":93:106   */\n  dup1\n  mload\n  sub(shl(0xa0, 0x01), 0x01)\n    /* \"#utility.yul\":135:166   */\n  dup2\n  and\n    /* \"#utility.yul\":125:167   */\n  dup2\n  eq\n    /* \"#utility.yul\":115:185   */\n  tag_29\n  jumpi\n    /* \"#utility.yul\":181:182   */\n  0x00\n    /* \"#utility.yul\":178:179   */\n  dup1\n    /* \"#utility.yul\":171:183   */\n  revert\n    /* \"#utility.yul\":115:185   */\ntag_29:\n    /* \"#utility.yul\":14:191   */\n  swap2\n  swap1\n  pop\n  jump\t// out\n    /* \"#utility.yul\":196:660   */\ntag_3:\n    /* \"#utility.yul\":293:299   */\n  0x00\n    /* \"#utility.yul\":301:307   */\n  dup1\n    /* \"#utility.yul\":309:315   */\n  0x00\n    /* \"#utility.yul\":317:323   */\n  dup1\n    /* \"#utility.yul\":370:373   */\n  0x80\n    /* \"#utility.yul\":358:367   */\n  dup6\n    /* \"#utility.yul\":349:356   */\n  dup8\n    /* \"#utility.yul\":345:368   */\n  sub\n    /* \"#utility.yul\":341:374   */\n  slt\n    /* \"#utility.yul\":338:391   */\n  iszero\n  tag_31\n  jumpi\n    /* \"#utility.yul\":387:388   */\n  0x00\n    /* \"#utility.yul\":384:385   */\n  dup1\n    /* \"#utility.yul\":377:389   */\n  revert\n    /* \"#utility.yul\":338:391   */\ntag_31:\n    /* \"#utility.yul\":410:450   */\n  tag_32\n    /* \"#utility.yul\":440:449   */\n  dup6\n    /* \"#utility.yul\":410:450   */\n  tag_26\n  jump\t// in\ntag_32:\n    /* \"#utility.yul\":400:450   */\n  swap4\n  pop\n    /* \"#utility.yul\":469:518   */\n  tag_33\n    /* \"#utility.yul\":514:516   */\n  0x20\n    /* \"#utility.yul\":503:512   */\n  dup7\n    /* \"#utility.yul\":499:517   */\n  add\n    /* \"#utility.yul\":469:518   */\n  tag_26\n  jump\t// in\ntag_33:\n    /* \"#utility.yul\":459:518   */\n  swap3\n  pop\n    /* \"#utility.yul\":537:586   */\n  tag_34\n    /* \"#utility.yul\":582:584   */\n  0x40\n    /* \"#utility.yul\":571:580   */\n  dup7\n    /* \"#utility.yul\":567:585   */\n  add\n    /* \"#utility.yul\":537:586   */\n  tag_26\n  jump\t// in\ntag_34:\n    /* \"#utility.yul\":527:586   */\n  swap2\n  pop\n    /* \"#utility.yul\":605:654   */\n  tag_35\n    /* \"#utility.yul\":650:652   */\n  0x60\n    /* \"#utility.yul\":639:648   */\n  dup7\n    /* \"#utility.yul\":635:653   */\n  add\n    /* \"#utility.yul\":605:654   */\n  tag_26\n  jump\t// in\ntag_35:\n    /* \"#utility.yul\":595:654   */\n  swap1\n  pop\n    /* \"#utility.yul\":196:660   */\n  swap3\n  swap6\n  swap2\n  swap5\n  pop\n  swap3\n  pop\n  jump\t// out\n    /* \"#utility.yul\":1581:1926   */\ntag_27:\n    /* \"RoluRewards.sol\":569:5743  contract RoluRewards is Ownable, ReentrancyGuard {... */\n  mload(0x80)\n  mload(0xa0)\n  codecopy(0x00, dataOffset(sub_0), dataSize(sub_0))\n  0x00\n  assignImmutable(\"0x81e080ffc23e8b8d44dd829bc823229e92b893eb1d8f624419d3f5682eb97fc3\")\n  0x00\n  assignImmutable(\"0x1572b593c53d839d80004aa4b8c51211864104f06ace9e22be9c4365b50655ea\")\n  return(0x00, dataSize(sub_0))\nstop\n\nsub_0: assembly {\n        /* \"RoluRewards.sol\":569:5743  contract RoluRewards is Ownable, ReentrancyGuard {... */\n      mstore(0x40, 0x80)\n      callvalue\n      dup1\n      iszero\n      tag_1\n      jumpi\n      0x00\n      dup1\n      revert\n    tag_1:\n      pop\n      jumpi(tag_2, lt(calldatasize, 0x04))\n      shr(0xe0, calldataload(0x00))\n      dup1\n      0x8da5cb5b\n      gt\n      tag_14\n      jumpi\n      dup1\n      0xc5f956af\n      gt\n      tag_15\n      jumpi\n      dup1\n      0xc5f956af\n      eq\n      tag_11\n      jumpi\n      dup1\n      0xf2fde38b\n      eq\n      tag_12\n      jumpi\n      dup1\n      0xfc6f9468\n      eq\n      tag_13\n      jumpi\n      0x00\n      dup1\n      revert\n    tag_15:\n      dup1\n      0x8da5cb5b\n      eq\n      tag_8\n      jumpi\n      dup1\n      0xb7d86ff2\n      eq\n      tag_9\n      jumpi\n      dup1\n      0xbb285b94\n      eq\n      tag_10\n      jumpi\n      0x00\n      dup1\n      revert\n    tag_14:\n      dup1\n      0x7e983045\n      gt\n      tag_16\n      jumpi\n      dup1\n      0x7e983045\n      eq\n      tag_5\n      jumpi\n      dup1\n      0x7fa787ba\n      eq\n      tag_6\n      jumpi\n      dup1\n      0x85e2381c\n      eq\n      tag_7\n      jumpi\n      0x00\n      dup1\n      revert\n    tag_16:\n      dup1\n      0x5e6710de\n      eq\n      tag_3\n      jumpi\n      dup1\n      0x715018a6\n      eq\n      tag_4\n      jumpi\n    tag_2:\n      0x00\n      dup1\n      revert\n        /* \"RoluRewards.sol\":5373:5518  function withdrawStuckTokens(uint256 _amount) external onlyOwner {... */\n    tag_3:\n      tag_17\n      tag_18\n      calldatasize\n      0x04\n      tag_19\n      jump\t// in\n    tag_18:\n      tag_20\n      jump\t// in\n    tag_17:\n      stop\n        /* \"@openzeppelin/contracts/access/Ownable.sol\":2293:2394   */\n    tag_4:\n      tag_17\n      tag_22\n      jump\t// in\n        /* \"RoluRewards.sol\":901:946  mapping(uint256 => bool) public claimedNonces */\n    tag_5:\n      tag_23\n      tag_24\n      calldatasize\n      0x04\n      tag_19\n      jump\t// in\n    tag_24:\n      mstore(0x20, 0x03)\n      0x00\n      swap1\n      dup2\n      mstore\n      0x40\n      swap1\n      keccak256\n      sload\n      0xff\n      and\n      dup2\n      jump\n    tag_23:\n      mload(0x40)\n        /* \"#utility.yul\":364:378   */\n      swap1\n      iszero\n        /* \"#utility.yul\":357:379   */\n      iszero\n        /* \"#utility.yul\":339:380   */\n      dup2\n      mstore\n        /* \"#utility.yul\":327:329   */\n      0x20\n        /* \"#utility.yul\":312:330   */\n      add\n        /* \"RoluRewards.sol\":901:946  mapping(uint256 => bool) public claimedNonces */\n    tag_26:\n      mload(0x40)\n      dup1\n      swap2\n      sub\n      swap1\n      return\n        /* \"RoluRewards.sol\":5629:5741  function withdrawStuckEth() external onlyOwner {... */\n    tag_6:\n      tag_17\n      tag_29\n      jump\t// in\n        /* \"RoluRewards.sol\":4872:5184  function updateAdminAddress(address _newAdminAddress) external onlyOwner {... */\n    tag_7:\n      tag_17\n      tag_31\n      calldatasize\n      0x04\n      tag_32\n      jump\t// in\n    tag_31:\n      tag_33\n      jump\t// in\n        /* \"@openzeppelin/contracts/access/Ownable.sol\":1638:1723   */\n    tag_8:\n        /* \"@openzeppelin/contracts/access/Ownable.sol\":1684:1691   */\n      0x00\n        /* \"@openzeppelin/contracts/access/Ownable.sol\":1710:1716   */\n      sload\n      sub(shl(0xa0, 0x01), 0x01)\n      and\n        /* \"@openzeppelin/contracts/access/Ownable.sol\":1638:1723   */\n    tag_34:\n      mload(0x40)\n      sub(shl(0xa0, 0x01), 0x01)\n        /* \"#utility.yul\":869:924   */\n      swap1\n      swap2\n      and\n        /* \"#utility.yul\":851:925   */\n      dup2\n      mstore\n        /* \"#utility.yul\":839:841   */\n      0x20\n        /* \"#utility.yul\":824:842   */\n      add\n        /* \"@openzeppelin/contracts/access/Ownable.sol\":1638:1723   */\n      tag_26\n        /* \"#utility.yul\":705:931   */\n      jump\n        /* \"RoluRewards.sol\":3366:4694  function claimRewards(uint256 _amountWei, uint256 _nonce, bytes calldata _signature) external nonReentrant {... */\n    tag_9:\n      tag_17\n      tag_39\n      calldatasize\n      0x04\n      tag_40\n      jump\t// in\n    tag_39:\n      tag_41\n      jump\t// in\n        /* \"RoluRewards.sol\":654:687  IERC20 public immutable roluToken */\n    tag_10:\n      tag_34\n      immutable(\"0x1572b593c53d839d80004aa4b8c51211864104f06ace9e22be9c4365b50655ea\")\n      dup2\n      jump\n        /* \"RoluRewards.sol\":693:733  address public immutable treasuryAddress */\n    tag_11:\n      tag_34\n      immutable(\"0x81e080ffc23e8b8d44dd829bc823229e92b893eb1d8f624419d3f5682eb97fc3\")\n      dup2\n      jump\n        /* \"@openzeppelin/contracts/access/Ownable.sol\":2543:2758   */\n    tag_12:\n      tag_17\n      tag_50\n      calldatasize\n      0x04\n      tag_32\n      jump\t// in\n    tag_50:\n      tag_51\n      jump\t// in\n        /* \"RoluRewards.sol\":739:766  address public adminAddress */\n    tag_13:\n      sload(0x02)\n      tag_34\n      swap1\n      sub(shl(0xa0, 0x01), 0x01)\n      and\n      dup2\n      jump\n        /* \"RoluRewards.sol\":5373:5518  function withdrawStuckTokens(uint256 _amount) external onlyOwner {... */\n    tag_20:\n        /* \"@openzeppelin/contracts/access/Ownable.sol\":1531:1544   */\n      tag_56\n        /* \"@openzeppelin/contracts/access/Ownable.sol\":1531:1542   */\n      tag_57\n        /* \"@openzeppelin/contracts/access/Ownable.sol\":1531:1544   */\n      jump\t// in\n    tag_56:\n        /* \"RoluRewards.sol\":5455:5464  roluToken */\n      immutable(\"0x1572b593c53d839d80004aa4b8c51211864104f06ace9e22be9c4365b50655ea\")\n      sub(shl(0xa0, 0x01), 0x01)\n        /* \"RoluRewards.sol\":5455:5473  roluToken.transfer */\n      and\n      0xa9059cbb\n        /* \"RoluRewards.sol\":5474:5481  owner() */\n      tag_59\n        /* \"@openzeppelin/contracts/access/Ownable.sol\":1684:1691   */\n      0x00\n        /* \"@openzeppelin/contracts/access/Ownable.sol\":1710:1716   */\n      sload\n      sub(shl(0xa0, 0x01), 0x01)\n      and\n      swap1\n        /* \"@openzeppelin/contracts/access/Ownable.sol\":1638:1723   */\n      jump\n        /* \"RoluRewards.sol\":5474:5481  owner() */\n    tag_59:\n        /* \"RoluRewards.sol\":5455:5491  roluToken.transfer(owner(), _amount) */\n      mload(0x40)\n      0xffffffff00000000000000000000000000000000000000000000000000000000\n      0xe0\n      dup5\n      swap1\n      shl\n      and\n      dup2\n      mstore\n      sub(shl(0xa0, 0x01), 0x01)\n        /* \"#utility.yul\":2105:2160   */\n      swap1\n      swap2\n      and\n        /* \"RoluRewards.sol\":5455:5491  roluToken.transfer(owner(), _amount) */\n      0x04\n      dup3\n      add\n        /* \"#utility.yul\":2087:2161   */\n      mstore\n        /* \"#utility.yul\":2177:2195   */\n      0x24\n      dup2\n      add\n        /* \"#utility.yul\":2170:2204   */\n      dup5\n      swap1\n      mstore\n        /* \"#utility.yul\":2060:2078   */\n      0x44\n      add\n        /* \"RoluRewards.sol\":5455:5491  roluToken.transfer(owner(), _amount) */\n      0x20\n      mload(0x40)\n      dup1\n      dup4\n      sub\n      dup2\n      0x00\n      dup8\n      gas\n      call\n      iszero\n      dup1\n      iszero\n      tag_63\n      jumpi\n      returndatasize\n      0x00\n      dup1\n      returndatacopy\n      revert(0x00, returndatasize)\n    tag_63:\n      pop\n      pop\n      pop\n      pop\n      mload(0x40)\n      returndatasize\n      not(0x1f)\n      0x1f\n      dup3\n      add\n      and\n      dup3\n      add\n      dup1\n      0x40\n      mstore\n      pop\n      dup2\n      add\n      swap1\n      tag_64\n      swap2\n      swap1\n      tag_65\n      jump\t// in\n    tag_64:\n        /* \"RoluRewards.sol\":5447:5511  require(roluToken.transfer(owner(), _amount), \"Withdraw failed\") */\n      tag_66\n      jumpi\n      mload(0x40)\n      shl(0xe5, 0x461bcd)\n      dup2\n      mstore\n        /* \"#utility.yul\":2699:2701   */\n      0x20\n        /* \"RoluRewards.sol\":5447:5511  require(roluToken.transfer(owner(), _amount), \"Withdraw failed\") */\n      0x04\n      dup3\n      add\n        /* \"#utility.yul\":2681:2702   */\n      mstore\n        /* \"#utility.yul\":2738:2740   */\n      0x0f\n        /* \"#utility.yul\":2718:2736   */\n      0x24\n      dup3\n      add\n        /* \"#utility.yul\":2711:2741   */\n      mstore\n        /* \"#utility.yul\":2777:2794   */\n      0x5769746864726177206661696c65640000000000000000000000000000000000\n        /* \"#utility.yul\":2757:2775   */\n      0x44\n      dup3\n      add\n        /* \"#utility.yul\":2750:2795   */\n      mstore\n        /* \"#utility.yul\":2812:2830   */\n      0x64\n      add\n        /* \"RoluRewards.sol\":5447:5511  require(roluToken.transfer(owner(), _amount), \"Withdraw failed\") */\n    tag_67:\n      mload(0x40)\n      dup1\n      swap2\n      sub\n      swap1\n      revert\n    tag_66:\n        /* \"RoluRewards.sol\":5373:5518  function withdrawStuckTokens(uint256 _amount) external onlyOwner {... */\n      pop\n      jump\t// out\n        /* \"@openzeppelin/contracts/access/Ownable.sol\":2293:2394   */\n    tag_22:\n        /* \"@openzeppelin/contracts/access/Ownable.sol\":1531:1544   */\n      tag_70\n        /* \"@openzeppelin/contracts/access/Ownable.sol\":1531:1542   */\n      tag_57\n        /* \"@openzeppelin/contracts/access/Ownable.sol\":1531:1544   */\n      jump\t// in\n    tag_70:\n        /* \"@openzeppelin/contracts/access/Ownable.sol\":2357:2387   */\n      tag_72\n        /* \"@openzeppelin/contracts/access/Ownable.sol\":2384:2385   */\n      0x00\n        /* \"@openzeppelin/contracts/access/Ownable.sol\":2357:2375   */\n      tag_73\n        /* \"@openzeppelin/contracts/access/Ownable.sol\":2357:2387   */\n      jump\t// in\n    tag_72:\n        /* \"@openzeppelin/contracts/access/Ownable.sol\":2293:2394   */\n      jump\t// out\n        /* \"RoluRewards.sol\":5629:5741  function withdrawStuckEth() external onlyOwner {... */\n    tag_29:\n        /* \"@openzeppelin/contracts/access/Ownable.sol\":1531:1544   */\n      tag_75\n        /* \"@openzeppelin/contracts/access/Ownable.sol\":1531:1542   */\n      tag_57\n        /* \"@openzeppelin/contracts/access/Ownable.sol\":1531:1544   */\n      jump\t// in\n    tag_75:\n        /* \"@openzeppelin/contracts/access/Ownable.sol\":1684:1691   */\n      0x00\n        /* \"@openzeppelin/contracts/access/Ownable.sol\":1710:1716   */\n      dup1\n      sload\n        /* \"RoluRewards.sol\":5686:5734  payable(owner()).transfer(address(this).balance) */\n      mload(0x40)\n      sub(shl(0xa0, 0x01), 0x01)\n        /* \"@openzeppelin/contracts/access/Ownable.sol\":1710:1716   */\n      swap1\n      swap2\n      and\n      swap2\n        /* \"RoluRewards.sol\":5712:5733  address(this).balance */\n      selfbalance\n        /* \"RoluRewards.sol\":5686:5734  payable(owner()).transfer(address(this).balance) */\n      dup1\n      iszero\n      0x08fc\n      mul\n      swap3\n        /* \"RoluRewards.sol\":5712:5733  address(this).balance */\n      swap1\n      swap2\n        /* \"RoluRewards.sol\":5686:5734  payable(owner()).transfer(address(this).balance) */\n      dup2\n        /* \"@openzeppelin/contracts/access/Ownable.sol\":1684:1691   */\n      dup2\n        /* \"RoluRewards.sol\":5686:5734  payable(owner()).transfer(address(this).balance) */\n      dup2\n        /* \"RoluRewards.sol\":5712:5733  address(this).balance */\n      dup6\n        /* \"@openzeppelin/contracts/access/Ownable.sol\":1710:1716   */\n      dup9\n        /* \"RoluRewards.sol\":5686:5734  payable(owner()).transfer(address(this).balance) */\n      dup9\n      call\n      swap4\n      pop\n      pop\n      pop\n      pop\n      iszero\n      dup1\n      iszero\n      tag_66\n      jumpi\n      returndatasize\n      0x00\n      dup1\n      returndatacopy\n      revert(0x00, returndatasize)\n        /* \"RoluRewards.sol\":4872:5184  function updateAdminAddress(address _newAdminAddress) external onlyOwner {... */\n    tag_33:\n        /* \"@openzeppelin/contracts/access/Ownable.sol\":1531:1544   */\n      tag_81\n        /* \"@openzeppelin/contracts/access/Ownable.sol\":1531:1542   */\n      tag_57\n        /* \"@openzeppelin/contracts/access/Ownable.sol\":1531:1544   */\n      jump\t// in\n    tag_81:\n      sub(shl(0xa0, 0x01), 0x01)\n        /* \"RoluRewards.sol\":4963:4993  _newAdminAddress != address(0) */\n      dup2\n      and\n        /* \"RoluRewards.sol\":4955:5019  require(_newAdminAddress != address(0), \"Invalid admin address\") */\n      tag_83\n      jumpi\n      mload(0x40)\n      shl(0xe5, 0x461bcd)\n      dup2\n      mstore\n        /* \"#utility.yul\":3043:3045   */\n      0x20\n        /* \"RoluRewards.sol\":4955:5019  require(_newAdminAddress != address(0), \"Invalid admin address\") */\n      0x04\n      dup3\n      add\n        /* \"#utility.yul\":3025:3046   */\n      mstore\n        /* \"#utility.yul\":3082:3084   */\n      0x15\n        /* \"#utility.yul\":3062:3080   */\n      0x24\n      dup3\n      add\n        /* \"#utility.yul\":3055:3085   */\n      mstore\n        /* \"#utility.yul\":3121:3144   */\n      0x496e76616c69642061646d696e20616464726573730000000000000000000000\n        /* \"#utility.yul\":3101:3119   */\n      0x44\n      dup3\n      add\n        /* \"#utility.yul\":3094:3145   */\n      mstore\n        /* \"#utility.yul\":3162:3180   */\n      0x64\n      add\n        /* \"RoluRewards.sol\":4955:5019  require(_newAdminAddress != address(0), \"Invalid admin address\") */\n      tag_67\n        /* \"#utility.yul\":2841:3186   */\n      jump\n        /* \"RoluRewards.sol\":4955:5019  require(_newAdminAddress != address(0), \"Invalid admin address\") */\n    tag_83:\n        /* \"RoluRewards.sol\":5055:5067  adminAddress */\n      0x02\n      dup1\n      sload\n      sub(shl(0xa0, 0x01), 0x01)\n        /* \"RoluRewards.sol\":5077:5108  adminAddress = _newAdminAddress */\n      dup4\n      dup2\n      and\n      not(0xffffffffffffffffffffffffffffffffffffffff)\n      dup4\n      and\n      dup2\n      or\n      swap1\n      swap4\n      sstore\n        /* \"RoluRewards.sol\":5123:5177  AdminAddressUpdated(oldAdminAddress, _newAdminAddress) */\n      mload(0x40)\n        /* \"RoluRewards.sol\":5055:5067  adminAddress */\n      swap2\n      and\n      swap2\n        /* \"RoluRewards.sol\":5077:5108  adminAddress = _newAdminAddress */\n      swap1\n        /* \"RoluRewards.sol\":5055:5067  adminAddress */\n      dup3\n      swap1\n        /* \"RoluRewards.sol\":5123:5177  AdminAddressUpdated(oldAdminAddress, _newAdminAddress) */\n      0x39eb67354e1d981c44468f6a2b1837bb1598cf711fe761db800b185706b4e8cb\n      swap1\n        /* \"RoluRewards.sol\":5029:5052  address oldAdminAddress */\n      0x00\n      swap1\n        /* \"RoluRewards.sol\":5123:5177  AdminAddressUpdated(oldAdminAddress, _newAdminAddress) */\n      log3\n        /* \"RoluRewards.sol\":4945:5184  {... */\n      pop\n        /* \"RoluRewards.sol\":4872:5184  function updateAdminAddress(address _newAdminAddress) external onlyOwner {... */\n      pop\n      jump\t// out\n        /* \"RoluRewards.sol\":3366:4694  function claimRewards(uint256 _amountWei, uint256 _nonce, bytes calldata _signature) external nonReentrant {... */\n    tag_41:\n        /* \"@openzeppelin/contracts/utils/ReentrancyGuard.sol\":2500:2521   */\n      tag_88\n        /* \"@openzeppelin/contracts/utils/ReentrancyGuard.sol\":2500:2519   */\n      tag_89\n        /* \"@openzeppelin/contracts/utils/ReentrancyGuard.sol\":2500:2521   */\n      jump\t// in\n    tag_88:\n        /* \"RoluRewards.sol\":3522:3532  _amountWei */\n      dup4\n        /* \"RoluRewards.sol\":3536:3537  0 */\n      0x00\n        /* \"RoluRewards.sol\":3522:3537  _amountWei == 0 */\n      sub\n        /* \"RoluRewards.sol\":3518:3588  if (_amountWei == 0) {... */\n      tag_91\n      jumpi\n        /* \"RoluRewards.sol\":3560:3577  ZeroClaimAmount() */\n      mload(0x40)\n      shl(0xe1, 0x60640efd)\n      dup2\n      mstore\n      0x04\n      add\n      mload(0x40)\n      dup1\n      swap2\n      sub\n      swap1\n      revert\n        /* \"RoluRewards.sol\":3518:3588  if (_amountWei == 0) {... */\n    tag_91:\n        /* \"RoluRewards.sol\":3653:3674  claimedNonces[_nonce] */\n      0x00\n      dup4\n      dup2\n      mstore\n        /* \"RoluRewards.sol\":3653:3666  claimedNonces */\n      0x03\n        /* \"RoluRewards.sol\":3653:3674  claimedNonces[_nonce] */\n      0x20\n      mstore\n      0x40\n      swap1\n      keccak256\n      sload\n      0xff\n      and\n        /* \"RoluRewards.sol\":3649:3729  if (claimedNonces[_nonce]) {... */\n      iszero\n      tag_92\n      jumpi\n        /* \"RoluRewards.sol\":3697:3718  NonceAlreadyClaimed() */\n      mload(0x40)\n      shl(0xe1, 0x28184171)\n      dup2\n      mstore\n      0x04\n      add\n      mload(0x40)\n      dup1\n      swap2\n      sub\n      swap1\n      revert\n        /* \"RoluRewards.sol\":3649:3729  if (claimedNonces[_nonce]) {... */\n    tag_92:\n        /* \"RoluRewards.sol\":3808:3856  abi.encodePacked(msg.sender, _amountWei, _nonce) */\n      mload(0x40)\n      not(0xffffffffffffffffffffffff)\n        /* \"RoluRewards.sol\":3825:3835  msg.sender */\n      caller\n        /* \"#utility.yul\":3396:3398   */\n      0x60\n        /* \"#utility.yul\":3392:3407   */\n      shl\n        /* \"#utility.yul\":3388:3441   */\n      and\n        /* \"RoluRewards.sol\":3808:3856  abi.encodePacked(msg.sender, _amountWei, _nonce) */\n      0x20\n      dup3\n      add\n        /* \"#utility.yul\":3376:3442   */\n      mstore\n        /* \"#utility.yul\":3458:3470   */\n      0x34\n      dup2\n      add\n        /* \"#utility.yul\":3451:3479   */\n      dup6\n      swap1\n      mstore\n        /* \"#utility.yul\":3495:3507   */\n      0x54\n      dup2\n      add\n        /* \"#utility.yul\":3488:3516   */\n      dup5\n      swap1\n      mstore\n        /* \"RoluRewards.sol\":3776:3795  bytes32 messageHash */\n      0x00\n      swap1\n        /* \"#utility.yul\":3532:3544   */\n      0x74\n      add\n        /* \"RoluRewards.sol\":3808:3856  abi.encodePacked(msg.sender, _amountWei, _nonce) */\n      mload(0x40)\n      0x20\n      dup2\n      dup4\n      sub\n      sub\n      dup2\n      mstore\n      swap1\n      0x40\n      mstore\n        /* \"RoluRewards.sol\":3798:3857  keccak256(abi.encodePacked(msg.sender, _amountWei, _nonce)) */\n      dup1\n      mload\n      swap1\n      0x20\n      add\n      keccak256\n        /* \"RoluRewards.sol\":3776:3857  bytes32 messageHash = keccak256(abi.encodePacked(msg.sender, _amountWei, _nonce)) */\n      swap1\n      pop\n        /* \"RoluRewards.sol\":4011:4034  address recoveredSigner */\n      0x00\n        /* \"RoluRewards.sol\":4037:4075  ECDSA.recover(messageHash, _signature) */\n      tag_95\n        /* \"RoluRewards.sol\":4051:4062  messageHash */\n      dup3\n        /* \"RoluRewards.sol\":4064:4074  _signature */\n      dup6\n      dup6\n        /* \"RoluRewards.sol\":4037:4075  ECDSA.recover(messageHash, _signature) */\n      dup1\n      dup1\n      0x1f\n      add\n      0x20\n      dup1\n      swap2\n      div\n      mul\n      0x20\n      add\n      mload(0x40)\n      swap1\n      dup2\n      add\n      0x40\n      mstore\n      dup1\n      swap4\n      swap3\n      swap2\n      swap1\n      dup2\n      dup2\n      mstore\n      0x20\n      add\n      dup4\n      dup4\n      dup1\n      dup3\n      dup5\n      calldatacopy\n      0x00\n      swap3\n      add\n      swap2\n      swap1\n      swap2\n      mstore\n      pop\n        /* \"RoluRewards.sol\":4037:4050  ECDSA.recover */\n      tag_96\n      swap3\n      pop\n      pop\n      pop\n        /* \"RoluRewards.sol\":4037:4075  ECDSA.recover(messageHash, _signature) */\n      jump\t// in\n    tag_95:\n        /* \"RoluRewards.sol\":4154:4166  adminAddress */\n      sload(0x02)\n        /* \"RoluRewards.sol\":4011:4075  address recoveredSigner = ECDSA.recover(messageHash, _signature) */\n      swap1\n      swap2\n      pop\n      sub(shl(0xa0, 0x01), 0x01)\n        /* \"RoluRewards.sol\":4135:4166  recoveredSigner != adminAddress */\n      dup1\n      dup4\n      and\n        /* \"RoluRewards.sol\":4154:4166  adminAddress */\n      swap2\n      and\n        /* \"RoluRewards.sol\":4135:4166  recoveredSigner != adminAddress */\n      eq\n        /* \"RoluRewards.sol\":4131:4218  if (recoveredSigner != adminAddress) {... */\n      tag_97\n      jumpi\n        /* \"RoluRewards.sol\":4189:4207  InvalidSignature() */\n      mload(0x40)\n      shl(0xe0, 0x8baa579f)\n      dup2\n      mstore\n      0x04\n      add\n      mload(0x40)\n      dup1\n      swap2\n      sub\n      swap1\n      revert\n        /* \"RoluRewards.sol\":4131:4218  if (recoveredSigner != adminAddress) {... */\n    tag_97:\n        /* \"RoluRewards.sol\":4314:4335  claimedNonces[_nonce] */\n      0x00\n      dup6\n      dup2\n      mstore\n        /* \"RoluRewards.sol\":4314:4327  claimedNonces */\n      0x03\n        /* \"RoluRewards.sol\":4314:4335  claimedNonces[_nonce] */\n      0x20\n      mstore\n      0x40\n      dup1\n      dup3\n      keccak256\n        /* \"RoluRewards.sol\":4314:4342  claimedNonces[_nonce] = true */\n      dup1\n      sload\n      not(0xff)\n      and\n        /* \"RoluRewards.sol\":4338:4342  true */\n      0x01\n        /* \"RoluRewards.sol\":4314:4342  claimedNonces[_nonce] = true */\n      or\n      swap1\n      sstore\n        /* \"RoluRewards.sol\":4451:4514  roluToken.transferFrom(treasuryAddress, msg.sender, _amountWei) */\n      mload\n      shl(0xe0, 0x23b872dd)\n      dup2\n      mstore\n      sub(shl(0xa0, 0x01), 0x01)\n        /* \"RoluRewards.sol\":4474:4489  treasuryAddress */\n      immutable(\"0x81e080ffc23e8b8d44dd829bc823229e92b893eb1d8f624419d3f5682eb97fc3\")\n        /* \"#utility.yul\":3836:3851   */\n      dup2\n      and\n        /* \"RoluRewards.sol\":4451:4514  roluToken.transferFrom(treasuryAddress, msg.sender, _amountWei) */\n      0x04\n      dup4\n      add\n        /* \"#utility.yul\":3818:3852   */\n      mstore\n        /* \"RoluRewards.sol\":4491:4501  msg.sender */\n      caller\n        /* \"#utility.yul\":3868:3886   */\n      0x24\n      dup4\n      add\n        /* \"#utility.yul\":3861:3904   */\n      mstore\n        /* \"#utility.yul\":3920:3938   */\n      0x44\n      dup3\n      add\n        /* \"#utility.yul\":3913:3947   */\n      dup10\n      swap1\n      mstore\n        /* \"RoluRewards.sol\":4451:4460  roluToken */\n      immutable(\"0x1572b593c53d839d80004aa4b8c51211864104f06ace9e22be9c4365b50655ea\")\n        /* \"RoluRewards.sol\":4451:4473  roluToken.transferFrom */\n      and\n      swap1\n      0x23b872dd\n      swap1\n        /* \"#utility.yul\":3730:3748   */\n      0x64\n      add\n        /* \"RoluRewards.sol\":4451:4514  roluToken.transferFrom(treasuryAddress, msg.sender, _amountWei) */\n      0x20\n      mload(0x40)\n      dup1\n      dup4\n      sub\n      dup2\n      0x00\n      dup8\n      gas\n      call\n      iszero\n      dup1\n      iszero\n      tag_101\n      jumpi\n      returndatasize\n      0x00\n      dup1\n      returndatacopy\n      revert(0x00, returndatasize)\n    tag_101:\n      pop\n      pop\n      pop\n      pop\n      mload(0x40)\n      returndatasize\n      not(0x1f)\n      0x1f\n      dup3\n      add\n      and\n      dup3\n      add\n      dup1\n      0x40\n      mstore\n      pop\n      dup2\n      add\n      swap1\n      tag_102\n      swap2\n      swap1\n      tag_65\n      jump\t// in\n    tag_102:\n        /* \"RoluRewards.sol\":4436:4514  bool success = roluToken.transferFrom(treasuryAddress, msg.sender, _amountWei) */\n      swap1\n      pop\n        /* \"RoluRewards.sol\":4529:4536  success */\n      dup1\n        /* \"RoluRewards.sol\":4524:4586  if (!success) {... */\n      tag_103\n      jumpi\n        /* \"RoluRewards.sol\":4559:4575  TransferFailed() */\n      mload(0x40)\n      shl(0xe3, 0x12171d83)\n      dup2\n      mstore\n      0x04\n      add\n      mload(0x40)\n      dup1\n      swap2\n      sub\n      swap1\n      revert\n        /* \"RoluRewards.sol\":4524:4586  if (!success) {... */\n    tag_103:\n        /* \"RoluRewards.sol\":4641:4687  RewardsClaimed(msg.sender, _amountWei, _nonce) */\n      0x40\n      dup1\n      mload\n        /* \"#utility.yul\":4132:4157   */\n      dup9\n      dup2\n      mstore\n        /* \"#utility.yul\":4188:4190   */\n      0x20\n        /* \"#utility.yul\":4173:4191   */\n      dup2\n      add\n        /* \"#utility.yul\":4166:4200   */\n      dup9\n      swap1\n      mstore\n        /* \"RoluRewards.sol\":4656:4666  msg.sender */\n      caller\n      swap2\n        /* \"RoluRewards.sol\":4641:4687  RewardsClaimed(msg.sender, _amountWei, _nonce) */\n      0xdacbdde355ba930696a362ea6738feb9f8bd52dfb3d81947558fd3217e23e325\n      swap2\n        /* \"#utility.yul\":4105:4123   */\n      add\n        /* \"RoluRewards.sol\":4641:4687  RewardsClaimed(msg.sender, _amountWei, _nonce) */\n      mload(0x40)\n      dup1\n      swap2\n      sub\n      swap1\n      log2\n        /* \"RoluRewards.sol\":3473:4694  {... */\n      pop\n      pop\n      pop\n        /* \"@openzeppelin/contracts/utils/ReentrancyGuard.sol\":2542:2562   */\n      tag_106\n        /* \"@openzeppelin/contracts/utils/ReentrancyGuard.sol\":1857:1858   */\n      0x01\n        /* \"@openzeppelin/contracts/utils/ReentrancyGuard.sol\":3068:3089   */\n      dup1\n      sstore\n        /* \"@openzeppelin/contracts/utils/ReentrancyGuard.sol\":2888:3096   */\n      jump\n        /* \"@openzeppelin/contracts/utils/ReentrancyGuard.sol\":2542:2562   */\n    tag_106:\n        /* \"RoluRewards.sol\":3366:4694  function claimRewards(uint256 _amountWei, uint256 _nonce, bytes calldata _signature) external nonReentrant {... */\n      pop\n      pop\n      pop\n      pop\n      jump\t// out\n        /* \"@openzeppelin/contracts/access/Ownable.sol\":2543:2758   */\n    tag_51:\n        /* \"@openzeppelin/contracts/access/Ownable.sol\":1531:1544   */\n      tag_109\n        /* \"@openzeppelin/contracts/access/Ownable.sol\":1531:1542   */\n      tag_57\n        /* \"@openzeppelin/contracts/access/Ownable.sol\":1531:1544   */\n      jump\t// in\n    tag_109:\n      sub(shl(0xa0, 0x01), 0x01)\n        /* \"@openzeppelin/contracts/access/Ownable.sol\":2627:2649   */\n      dup2\n      and\n        /* \"@openzeppelin/contracts/access/Ownable.sol\":2623:2714   */\n      tag_111\n      jumpi\n        /* \"@openzeppelin/contracts/access/Ownable.sol\":2672:2703   */\n      mload(0x40)\n      shl(0xe0, 0x1e4fbdf7)\n      dup2\n      mstore\n        /* \"@openzeppelin/contracts/access/Ownable.sol\":2700:2701   */\n      0x00\n        /* \"@openzeppelin/contracts/access/Ownable.sol\":2672:2703   */\n      0x04\n      dup3\n      add\n        /* \"#utility.yul\":851:925   */\n      mstore\n        /* \"#utility.yul\":824:842   */\n      0x24\n      add\n        /* \"@openzeppelin/contracts/access/Ownable.sol\":2672:2703   */\n      tag_67\n        /* \"#utility.yul\":705:931   */\n      jump\n        /* \"@openzeppelin/contracts/access/Ownable.sol\":2623:2714   */\n    tag_111:\n        /* \"@openzeppelin/contracts/access/Ownable.sol\":2723:2751   */\n      tag_66\n        /* \"@openzeppelin/contracts/access/Ownable.sol\":2742:2750   */\n      dup2\n        /* \"@openzeppelin/contracts/access/Ownable.sol\":2723:2741   */\n      tag_73\n        /* \"@openzeppelin/contracts/access/Ownable.sol\":2723:2751   */\n      jump\t// in\n        /* \"@openzeppelin/contracts/access/Ownable.sol\":1796:1958   */\n    tag_57:\n        /* \"@openzeppelin/contracts/access/Ownable.sol\":1684:1691   */\n      0x00\n        /* \"@openzeppelin/contracts/access/Ownable.sol\":1710:1716   */\n      sload\n      sub(shl(0xa0, 0x01), 0x01)\n      and\n        /* \"@openzeppelin/contracts/utils/Context.sol\":735:745   */\n      caller\n        /* \"@openzeppelin/contracts/access/Ownable.sol\":1855:1878   */\n      eq\n        /* \"@openzeppelin/contracts/access/Ownable.sol\":1851:1952   */\n      tag_72\n      jumpi\n        /* \"@openzeppelin/contracts/access/Ownable.sol\":1901:1941   */\n      mload(0x40)\n      shl(0xe0, 0x118cdaa7)\n      dup2\n      mstore\n        /* \"@openzeppelin/contracts/utils/Context.sol\":735:745   */\n      caller\n        /* \"@openzeppelin/contracts/access/Ownable.sol\":1901:1941   */\n      0x04\n      dup3\n      add\n        /* \"#utility.yul\":851:925   */\n      mstore\n        /* \"#utility.yul\":824:842   */\n      0x24\n      add\n        /* \"@openzeppelin/contracts/access/Ownable.sol\":1901:1941   */\n      tag_67\n        /* \"#utility.yul\":705:931   */\n      jump\n        /* \"@openzeppelin/contracts/access/Ownable.sol\":2912:3099   */\n    tag_73:\n        /* \"@openzeppelin/contracts/access/Ownable.sol\":2985:3001   */\n      0x00\n        /* \"@openzeppelin/contracts/access/Ownable.sol\":3004:3010   */\n      dup1\n      sload\n      sub(shl(0xa0, 0x01), 0x01)\n        /* \"@openzeppelin/contracts/access/Ownable.sol\":3020:3037   */\n      dup4\n      dup2\n      and\n      not(0xffffffffffffffffffffffffffffffffffffffff)\n      dup4\n      and\n      dup2\n      or\n      dup5\n      sstore\n        /* \"@openzeppelin/contracts/access/Ownable.sol\":3052:3092   */\n      mload(0x40)\n        /* \"@openzeppelin/contracts/access/Ownable.sol\":3004:3010   */\n      swap2\n      swap1\n      swap3\n      and\n      swap3\n      dup4\n      swap2\n        /* \"@openzeppelin/contracts/access/Ownable.sol\":3052:3092   */\n      0x8be0079c531659141344cd1fd0a4f28419497f9722a3daafe3b4186f6b6457e0\n      swap2\n        /* \"@openzeppelin/contracts/access/Ownable.sol\":2985:3001   */\n      swap1\n        /* \"@openzeppelin/contracts/access/Ownable.sol\":3052:3092   */\n      log3\n        /* \"@openzeppelin/contracts/access/Ownable.sol\":2975:3099   */\n      pop\n        /* \"@openzeppelin/contracts/access/Ownable.sol\":2912:3099   */\n      pop\n      jump\t// out\n        /* \"@openzeppelin/contracts/utils/ReentrancyGuard.sol\":2575:2882   */\n    tag_89:\n        /* \"@openzeppelin/contracts/utils/ReentrancyGuard.sol\":1899:1900   */\n      0x02\n        /* \"@openzeppelin/contracts/utils/ReentrancyGuard.sol\":2702:2709   */\n      sload(0x01)\n        /* \"@openzeppelin/contracts/utils/ReentrancyGuard.sol\":2702:2720   */\n      sub\n        /* \"@openzeppelin/contracts/utils/ReentrancyGuard.sol\":2698:2784   */\n      tag_123\n      jumpi\n        /* \"@openzeppelin/contracts/utils/ReentrancyGuard.sol\":2743:2773   */\n      mload(0x40)\n      shl(0xe0, 0x3ee5aeb5)\n      dup2\n      mstore\n      0x04\n      add\n      mload(0x40)\n      dup1\n      swap2\n      sub\n      swap1\n      revert\n        /* \"@openzeppelin/contracts/utils/ReentrancyGuard.sol\":2698:2784   */\n    tag_123:\n        /* \"@openzeppelin/contracts/utils/ReentrancyGuard.sol\":1899:1900   */\n      0x02\n        /* \"@openzeppelin/contracts/utils/ReentrancyGuard.sol\":2858:2865   */\n      0x01\n        /* \"@openzeppelin/contracts/utils/ReentrancyGuard.sol\":2858:2875   */\n      sstore\n        /* \"@openzeppelin/contracts/utils/ReentrancyGuard.sol\":2575:2882   */\n      jump\t// out\n        /* \"@openzeppelin/contracts/utils/cryptography/ECDSA.sol\":3714:3969   */\n    tag_96:\n        /* \"@openzeppelin/contracts/utils/cryptography/ECDSA.sol\":3792:3799   */\n      0x00\n        /* \"@openzeppelin/contracts/utils/cryptography/ECDSA.sol\":3812:3829   */\n      dup1\n        /* \"@openzeppelin/contracts/utils/cryptography/ECDSA.sol\":3831:3849   */\n      0x00\n        /* \"@openzeppelin/contracts/utils/cryptography/ECDSA.sol\":3851:3867   */\n      dup1\n        /* \"@openzeppelin/contracts/utils/cryptography/ECDSA.sol\":3871:3898   */\n      tag_125\n        /* \"@openzeppelin/contracts/utils/cryptography/ECDSA.sol\":3882:3886   */\n      dup7\n        /* \"@openzeppelin/contracts/utils/cryptography/ECDSA.sol\":3888:3897   */\n      dup7\n        /* \"@openzeppelin/contracts/utils/cryptography/ECDSA.sol\":3871:3881   */\n      tag_126\n        /* \"@openzeppelin/contracts/utils/cryptography/ECDSA.sol\":3871:3898   */\n      jump\t// in\n    tag_125:\n        /* \"@openzeppelin/contracts/utils/cryptography/ECDSA.sol\":3811:3898   */\n      swap3\n      pop\n      swap3\n      pop\n      swap3\n      pop\n        /* \"@openzeppelin/contracts/utils/cryptography/ECDSA.sol\":3908:3936   */\n      tag_127\n        /* \"@openzeppelin/contracts/utils/cryptography/ECDSA.sol\":3920:3925   */\n      dup3\n        /* \"@openzeppelin/contracts/utils/cryptography/ECDSA.sol\":3927:3935   */\n      dup3\n        /* \"@openzeppelin/contracts/utils/cryptography/ECDSA.sol\":3908:3919   */\n      tag_128\n        /* \"@openzeppelin/contracts/utils/cryptography/ECDSA.sol\":3908:3936   */\n      jump\t// in\n    tag_127:\n      pop\n        /* \"@openzeppelin/contracts/utils/cryptography/ECDSA.sol\":3953:3962   */\n      swap1\n      swap5\n        /* \"@openzeppelin/contracts/utils/cryptography/ECDSA.sol\":3714:3969   */\n      swap4\n      pop\n      pop\n      pop\n      pop\n      jump\t// out\n        /* \"@openzeppelin/contracts/utils/cryptography/ECDSA.sol\":2129:2907   */\n    tag_126:\n        /* \"@openzeppelin/contracts/utils/cryptography/ECDSA.sol\":2232:2249   */\n      0x00\n        /* \"@openzeppelin/contracts/utils/cryptography/ECDSA.sol\":2251:2267   */\n      dup1\n        /* \"@openzeppelin/contracts/utils/cryptography/ECDSA.sol\":2269:2283   */\n      0x00\n        /* \"@openzeppelin/contracts/utils/cryptography/ECDSA.sol\":2299:2308   */\n      dup4\n        /* \"@openzeppelin/contracts/utils/cryptography/ECDSA.sol\":2299:2315   */\n      mload\n        /* \"@openzeppelin/contracts/utils/cryptography/ECDSA.sol\":2319:2321   */\n      0x41\n        /* \"@openzeppelin/contracts/utils/cryptography/ECDSA.sol\":2299:2321   */\n      sub\n        /* \"@openzeppelin/contracts/utils/cryptography/ECDSA.sol\":2295:2901   */\n      tag_132\n      jumpi\n        /* \"@openzeppelin/contracts/utils/cryptography/ECDSA.sol\":2604:2608   */\n      0x20\n        /* \"@openzeppelin/contracts/utils/cryptography/ECDSA.sol\":2589:2609   */\n      dup5\n      add\n        /* \"@openzeppelin/contracts/utils/cryptography/ECDSA.sol\":2583:2610   */\n      mload\n        /* \"@openzeppelin/contracts/utils/cryptography/ECDSA.sol\":2653:2657   */\n      0x40\n        /* \"@openzeppelin/contracts/utils/cryptography/ECDSA.sol\":2638:2658   */\n      dup6\n      add\n        /* \"@openzeppelin/contracts/utils/cryptography/ECDSA.sol\":2632:2659   */\n      mload\n        /* \"@openzeppelin/contracts/utils/cryptography/ECDSA.sol\":2710:2714   */\n      0x60\n        /* \"@openzeppelin/contracts/utils/cryptography/ECDSA.sol\":2695:2715   */\n      dup7\n      add\n        /* \"@openzeppelin/contracts/utils/cryptography/ECDSA.sol\":2689:2716   */\n      mload\n        /* \"@openzeppelin/contracts/utils/cryptography/ECDSA.sol\":2337:2346   */\n      0x00\n        /* \"@openzeppelin/contracts/utils/cryptography/ECDSA.sol\":2681:2717   */\n      byte\n        /* \"@openzeppelin/contracts/utils/cryptography/ECDSA.sol\":2751:2776   */\n      tag_133\n        /* \"@openzeppelin/contracts/utils/cryptography/ECDSA.sol\":2762:2766   */\n      dup9\n        /* \"@openzeppelin/contracts/utils/cryptography/ECDSA.sol\":2681:2717   */\n      dup3\n        /* \"@openzeppelin/contracts/utils/cryptography/ECDSA.sol\":2583:2610   */\n      dup6\n        /* \"@openzeppelin/contracts/utils/cryptography/ECDSA.sol\":2632:2659   */\n      dup6\n        /* \"@openzeppelin/contracts/utils/cryptography/ECDSA.sol\":2751:2761   */\n      tag_134\n        /* \"@openzeppelin/contracts/utils/cryptography/ECDSA.sol\":2751:2776   */\n      jump\t// in\n    tag_133:\n        /* \"@openzeppelin/contracts/utils/cryptography/ECDSA.sol\":2744:2776   */\n      swap6\n      pop\n      swap6\n      pop\n      swap6\n      pop\n      pop\n      pop\n      pop\n      jump(tag_135)\n        /* \"@openzeppelin/contracts/utils/cryptography/ECDSA.sol\":2295:2901   */\n    tag_132:\n      pop\n      pop\n        /* \"@openzeppelin/contracts/utils/cryptography/ECDSA.sol\":2872:2888   */\n      dup2\n      mload\n        /* \"@openzeppelin/contracts/utils/cryptography/ECDSA.sol\":2823:2824   */\n      0x00\n      swap2\n      pop\n        /* \"@openzeppelin/contracts/utils/cryptography/ECDSA.sol\":2827:2862   */\n      0x02\n      swap1\n        /* \"@openzeppelin/contracts/utils/cryptography/ECDSA.sol\":2295:2901   */\n    tag_135:\n        /* \"@openzeppelin/contracts/utils/cryptography/ECDSA.sol\":2129:2907   */\n      swap3\n      pop\n      swap3\n      pop\n      swap3\n      jump\t// out\n        /* \"@openzeppelin/contracts/utils/cryptography/ECDSA.sol\":7280:7812   */\n    tag_128:\n        /* \"@openzeppelin/contracts/utils/cryptography/ECDSA.sol\":7375:7395   */\n      0x00\n        /* \"@openzeppelin/contracts/utils/cryptography/ECDSA.sol\":7366:7371   */\n      dup3\n        /* \"@openzeppelin/contracts/utils/cryptography/ECDSA.sol\":7366:7395   */\n      0x03\n      dup2\n      gt\n      iszero\n      tag_141\n      jumpi\n      tag_141\n      tag_139\n      jump\t// in\n    tag_141:\n      sub\n        /* \"@openzeppelin/contracts/utils/cryptography/ECDSA.sol\":7362:7806   */\n      tag_142\n      jumpi\n        /* \"@openzeppelin/contracts/utils/cryptography/ECDSA.sol\":7280:7812   */\n      pop\n      pop\n      jump\t// out\n        /* \"@openzeppelin/contracts/utils/cryptography/ECDSA.sol\":7362:7806   */\n    tag_142:\n        /* \"@openzeppelin/contracts/utils/cryptography/ECDSA.sol\":7471:7500   */\n      0x01\n        /* \"@openzeppelin/contracts/utils/cryptography/ECDSA.sol\":7462:7467   */\n      dup3\n        /* \"@openzeppelin/contracts/utils/cryptography/ECDSA.sol\":7462:7500   */\n      0x03\n      dup2\n      gt\n      iszero\n      tag_147\n      jumpi\n      tag_147\n      tag_139\n      jump\t// in\n    tag_147:\n      sub\n        /* \"@openzeppelin/contracts/utils/cryptography/ECDSA.sol\":7458:7806   */\n      tag_148\n      jumpi\n        /* \"@openzeppelin/contracts/utils/cryptography/ECDSA.sol\":7523:7546   */\n      mload(0x40)\n      shl(0xe0, 0xf645eedf)\n      dup2\n      mstore\n      0x04\n      add\n      mload(0x40)\n      dup1\n      swap2\n      sub\n      swap1\n      revert\n        /* \"@openzeppelin/contracts/utils/cryptography/ECDSA.sol\":7458:7806   */\n    tag_148:\n        /* \"@openzeppelin/contracts/utils/cryptography/ECDSA.sol\":7576:7611   */\n      0x02\n        /* \"@openzeppelin/contracts/utils/cryptography/ECDSA.sol\":7567:7572   */\n      dup3\n        /* \"@openzeppelin/contracts/utils/cryptography/ECDSA.sol\":7567:7611   */\n      0x03\n      dup2\n      gt\n      iszero\n      tag_153\n      jumpi\n      tag_153\n      tag_139\n      jump\t// in\n    tag_153:\n      sub\n        /* \"@openzeppelin/contracts/utils/cryptography/ECDSA.sol\":7563:7806   */\n      tag_154\n      jumpi\n        /* \"@openzeppelin/contracts/utils/cryptography/ECDSA.sol\":7634:7680   */\n      mload(0x40)\n      shl(0xe0, 0xfce698f7)\n      dup2\n      mstore\n      0x04\n      dup2\n      add\n        /* \"#utility.yul\":4489:4514   */\n      dup3\n      swap1\n      mstore\n        /* \"#utility.yul\":4462:4480   */\n      0x24\n      add\n        /* \"@openzeppelin/contracts/utils/cryptography/ECDSA.sol\":7634:7680   */\n      tag_67\n        /* \"#utility.yul\":4343:4520   */\n      jump\n        /* \"@openzeppelin/contracts/utils/cryptography/ECDSA.sol\":7563:7806   */\n    tag_154:\n        /* \"@openzeppelin/contracts/utils/cryptography/ECDSA.sol\":7710:7740   */\n      0x03\n        /* \"@openzeppelin/contracts/utils/cryptography/ECDSA.sol\":7701:7706   */\n      dup3\n        /* \"@openzeppelin/contracts/utils/cryptography/ECDSA.sol\":7701:7740   */\n      0x03\n      dup2\n      gt\n      iszero\n      tag_161\n      jumpi\n      tag_161\n      tag_139\n      jump\t// in\n    tag_161:\n      sub\n        /* \"@openzeppelin/contracts/utils/cryptography/ECDSA.sol\":7697:7806   */\n      tag_162\n      jumpi\n        /* \"@openzeppelin/contracts/utils/cryptography/ECDSA.sol\":7763:7795   */\n      mload(0x40)\n      shl(0xe2, 0x35e2f383)\n      dup2\n      mstore\n      0x04\n      dup2\n      add\n        /* \"#utility.yul\":4489:4514   */\n      dup3\n      swap1\n      mstore\n        /* \"#utility.yul\":4462:4480   */\n      0x24\n      add\n        /* \"@openzeppelin/contracts/utils/cryptography/ECDSA.sol\":7763:7795   */\n      tag_67\n        /* \"#utility.yul\":4343:4520   */\n      jump\n        /* \"@openzeppelin/contracts/utils/cryptography/ECDSA.sol\":7697:7806   */\n    tag_162:\n        /* \"@openzeppelin/contracts/utils/cryptography/ECDSA.sol\":7280:7812   */\n      pop\n      pop\n      jump\t// out\n        /* \"@openzeppelin/contracts/utils/cryptography/ECDSA.sol\":5203:6754   */\n    tag_134:\n        /* \"@openzeppelin/contracts/utils/cryptography/ECDSA.sol\":5329:5346   */\n      0x00\n      dup1\n      dup1\n        /* \"@openzeppelin/contracts/utils/cryptography/ECDSA.sol\":6283:6349   */\n      0x7fffffffffffffffffffffffffffffff5d576e7357a4501ddfe92f46681b20a0\n        /* \"@openzeppelin/contracts/utils/cryptography/ECDSA.sol\":6270:6349   */\n      dup5\n      gt\n        /* \"@openzeppelin/contracts/utils/cryptography/ECDSA.sol\":6266:6430   */\n      iszero\n      tag_166\n      jumpi\n      pop\n        /* \"@openzeppelin/contracts/utils/cryptography/ECDSA.sol\":6381:6382   */\n      0x00\n      swap2\n      pop\n        /* \"@openzeppelin/contracts/utils/cryptography/ECDSA.sol\":6385:6415   */\n      0x03\n      swap1\n      pop\n        /* \"@openzeppelin/contracts/utils/cryptography/ECDSA.sol\":6417:6418   */\n      dup3\n        /* \"@openzeppelin/contracts/utils/cryptography/ECDSA.sol\":6365:6419   */\n      jump(tag_165)\n        /* \"@openzeppelin/contracts/utils/cryptography/ECDSA.sol\":6266:6430   */\n    tag_166:\n        /* \"@openzeppelin/contracts/utils/cryptography/ECDSA.sol\":6541:6565   */\n      0x40\n      dup1\n      mload\n        /* \"@openzeppelin/contracts/utils/cryptography/ECDSA.sol\":6524:6538   */\n      0x00\n        /* \"@openzeppelin/contracts/utils/cryptography/ECDSA.sol\":6541:6565   */\n      dup1\n      dup3\n      mstore\n      0x20\n      dup3\n      add\n      dup1\n      dup5\n      mstore\n        /* \"#utility.yul\":4934:4959   */\n      dup11\n      swap1\n      mstore\n        /* \"#utility.yul\":5007:5011   */\n      0xff\n        /* \"#utility.yul\":4995:5012   */\n      dup10\n      and\n        /* \"#utility.yul\":4975:4993   */\n      swap3\n      dup3\n      add\n        /* \"#utility.yul\":4968:5013   */\n      swap3\n      swap1\n      swap3\n      mstore\n        /* \"#utility.yul\":5029:5047   */\n      0x60\n      dup2\n      add\n        /* \"#utility.yul\":5022:5056   */\n      dup8\n      swap1\n      mstore\n        /* \"#utility.yul\":5072:5090   */\n      0x80\n      dup2\n      add\n        /* \"#utility.yul\":5065:5099   */\n      dup7\n      swap1\n      mstore\n        /* \"@openzeppelin/contracts/utils/cryptography/ECDSA.sol\":6541:6565   */\n      0x01\n      swap1\n        /* \"#utility.yul\":4906:4925   */\n      0xa0\n      add\n        /* \"@openzeppelin/contracts/utils/cryptography/ECDSA.sol\":6541:6565   */\n      0x20\n      mload(0x40)\n      0x20\n      dup2\n      sub\n      swap1\n      dup1\n      dup5\n      sub\n      swap1\n      dup6\n      gas\n      staticcall\n      iszero\n      dup1\n      iszero\n      tag_170\n      jumpi\n      returndatasize\n      0x00\n      dup1\n      returndatacopy\n      revert(0x00, returndatasize)\n    tag_170:\n      pop\n      pop\n      mload(add(not(0x1f), mload(0x40)))\n      swap2\n      pop\n      pop\n      sub(shl(0xa0, 0x01), 0x01)\n        /* \"@openzeppelin/contracts/utils/cryptography/ECDSA.sol\":6579:6599   */\n      dup2\n      and\n        /* \"@openzeppelin/contracts/utils/cryptography/ECDSA.sol\":6575:6688   */\n      tag_171\n      jumpi\n      pop\n        /* \"@openzeppelin/contracts/utils/cryptography/ECDSA.sol\":6631:6632   */\n      0x00\n      swap3\n      pop\n        /* \"@openzeppelin/contracts/utils/cryptography/ECDSA.sol\":6635:6664   */\n      0x01\n      swap2\n      pop\n        /* \"@openzeppelin/contracts/utils/cryptography/ECDSA.sol\":6631:6632   */\n      dup3\n      swap1\n      pop\n        /* \"@openzeppelin/contracts/utils/cryptography/ECDSA.sol\":6615:6677   */\n      jump(tag_165)\n        /* \"@openzeppelin/contracts/utils/cryptography/ECDSA.sol\":6575:6688   */\n    tag_171:\n        /* \"@openzeppelin/contracts/utils/cryptography/ECDSA.sol\":6706:6712   */\n      swap3\n      pop\n        /* \"@openzeppelin/contracts/utils/cryptography/ECDSA.sol\":6714:6734   */\n      0x00\n      swap2\n      pop\n      dup2\n      swap1\n      pop\n        /* \"@openzeppelin/contracts/utils/cryptography/ECDSA.sol\":5203:6754   */\n    tag_165:\n      swap5\n      pop\n      swap5\n      pop\n      swap5\n      swap2\n      pop\n      pop\n      jump\t// out\n        /* \"#utility.yul\":14:194   */\n    tag_19:\n        /* \"#utility.yul\":73:79   */\n      0x00\n        /* \"#utility.yul\":126:128   */\n      0x20\n        /* \"#utility.yul\":114:123   */\n      dup3\n        /* \"#utility.yul\":105:112   */\n      dup5\n        /* \"#utility.yul\":101:124   */\n      sub\n        /* \"#utility.yul\":97:129   */\n      slt\n        /* \"#utility.yul\":94:146   */\n      iszero\n      tag_174\n      jumpi\n        /* \"#utility.yul\":142:143   */\n      0x00\n        /* \"#utility.yul\":139:140   */\n      dup1\n        /* \"#utility.yul\":132:144   */\n      revert\n        /* \"#utility.yul\":94:146   */\n    tag_174:\n      pop\n        /* \"#utility.yul\":165:188   */\n      calldataload\n      swap2\n        /* \"#utility.yul\":14:194   */\n      swap1\n      pop\n      jump\t// out\n        /* \"#utility.yul\":391:700   */\n    tag_32:\n        /* \"#utility.yul\":450:456   */\n      0x00\n        /* \"#utility.yul\":503:505   */\n      0x20\n        /* \"#utility.yul\":491:500   */\n      dup3\n        /* \"#utility.yul\":482:489   */\n      dup5\n        /* \"#utility.yul\":478:501   */\n      sub\n        /* \"#utility.yul\":474:506   */\n      slt\n        /* \"#utility.yul\":471:523   */\n      iszero\n      tag_177\n      jumpi\n        /* \"#utility.yul\":519:520   */\n      0x00\n        /* \"#utility.yul\":516:517   */\n      dup1\n        /* \"#utility.yul\":509:521   */\n      revert\n        /* \"#utility.yul\":471:523   */\n    tag_177:\n        /* \"#utility.yul\":558:567   */\n      dup2\n        /* \"#utility.yul\":545:568   */\n      calldataload\n      sub(shl(0xa0, 0x01), 0x01)\n        /* \"#utility.yul\":601:606   */\n      dup2\n        /* \"#utility.yul\":597:651   */\n      and\n        /* \"#utility.yul\":590:595   */\n      dup2\n        /* \"#utility.yul\":587:652   */\n      eq\n        /* \"#utility.yul\":577:670   */\n      tag_178\n      jumpi\n        /* \"#utility.yul\":666:667   */\n      0x00\n        /* \"#utility.yul\":663:664   */\n      dup1\n        /* \"#utility.yul\":656:668   */\n      revert\n        /* \"#utility.yul\":577:670   */\n    tag_178:\n        /* \"#utility.yul\":689:694   */\n      swap4\n        /* \"#utility.yul\":391:700   */\n      swap3\n      pop\n      pop\n      pop\n      jump\t// out\n        /* \"#utility.yul\":936:1663   */\n    tag_40:\n        /* \"#utility.yul\":1024:1030   */\n      0x00\n        /* \"#utility.yul\":1032:1038   */\n      dup1\n        /* \"#utility.yul\":1040:1046   */\n      0x00\n        /* \"#utility.yul\":1048:1054   */\n      dup1\n        /* \"#utility.yul\":1101:1103   */\n      0x60\n        /* \"#utility.yul\":1089:1098   */\n      dup6\n        /* \"#utility.yul\":1080:1087   */\n      dup8\n        /* \"#utility.yul\":1076:1099   */\n      sub\n        /* \"#utility.yul\":1072:1104   */\n      slt\n        /* \"#utility.yul\":1069:1121   */\n      iszero\n      tag_181\n      jumpi\n        /* \"#utility.yul\":1117:1118   */\n      0x00\n        /* \"#utility.yul\":1114:1115   */\n      dup1\n        /* \"#utility.yul\":1107:1119   */\n      revert\n        /* \"#utility.yul\":1069:1121   */\n    tag_181:\n        /* \"#utility.yul\":1153:1162   */\n      dup5\n        /* \"#utility.yul\":1140:1163   */\n      calldataload\n        /* \"#utility.yul\":1130:1163   */\n      swap4\n      pop\n        /* \"#utility.yul\":1210:1212   */\n      0x20\n        /* \"#utility.yul\":1199:1208   */\n      dup6\n        /* \"#utility.yul\":1195:1213   */\n      add\n        /* \"#utility.yul\":1182:1214   */\n      calldataload\n        /* \"#utility.yul\":1172:1214   */\n      swap3\n      pop\n        /* \"#utility.yul\":1265:1267   */\n      0x40\n        /* \"#utility.yul\":1254:1263   */\n      dup6\n        /* \"#utility.yul\":1250:1268   */\n      add\n        /* \"#utility.yul\":1237:1269   */\n      calldataload\n        /* \"#utility.yul\":1288:1306   */\n      0xffffffffffffffff\n        /* \"#utility.yul\":1329:1331   */\n      dup1\n        /* \"#utility.yul\":1321:1327   */\n      dup3\n        /* \"#utility.yul\":1318:1332   */\n      gt\n        /* \"#utility.yul\":1315:1349   */\n      iszero\n      tag_182\n      jumpi\n        /* \"#utility.yul\":1345:1346   */\n      0x00\n        /* \"#utility.yul\":1342:1343   */\n      dup1\n        /* \"#utility.yul\":1335:1347   */\n      revert\n        /* \"#utility.yul\":1315:1349   */\n    tag_182:\n        /* \"#utility.yul\":1383:1389   */\n      dup2\n        /* \"#utility.yul\":1372:1381   */\n      dup8\n        /* \"#utility.yul\":1368:1390   */\n      add\n        /* \"#utility.yul\":1358:1390   */\n      swap2\n      pop\n        /* \"#utility.yul\":1428:1435   */\n      dup8\n        /* \"#utility.yul\":1421:1425   */\n      0x1f\n        /* \"#utility.yul\":1417:1419   */\n      dup4\n        /* \"#utility.yul\":1413:1426   */\n      add\n        /* \"#utility.yul\":1409:1436   */\n      slt\n        /* \"#utility.yul\":1399:1454   */\n      tag_183\n      jumpi\n        /* \"#utility.yul\":1450:1451   */\n      0x00\n        /* \"#utility.yul\":1447:1448   */\n      dup1\n        /* \"#utility.yul\":1440:1452   */\n      revert\n        /* \"#utility.yul\":1399:1454   */\n    tag_183:\n        /* \"#utility.yul\":1490:1492   */\n      dup2\n        /* \"#utility.yul\":1477:1493   */\n      calldataload\n        /* \"#utility.yul\":1516:1518   */\n      dup2\n        /* \"#utility.yul\":1508:1514   */\n      dup2\n        /* \"#utility.yul\":1505:1519   */\n      gt\n        /* \"#utility.yul\":1502:1536   */\n      iszero\n      tag_184\n      jumpi\n        /* \"#utility.yul\":1532:1533   */\n      0x00\n        /* \"#utility.yul\":1529:1530   */\n      dup1\n        /* \"#utility.yul\":1522:1534   */\n      revert\n        /* \"#utility.yul\":1502:1536   */\n    tag_184:\n        /* \"#utility.yul\":1577:1584   */\n      dup9\n        /* \"#utility.yul\":1572:1574   */\n      0x20\n        /* \"#utility.yul\":1563:1569   */\n      dup3\n        /* \"#utility.yul\":1559:1561   */\n      dup6\n        /* \"#utility.yul\":1555:1570   */\n      add\n        /* \"#utility.yul\":1551:1575   */\n      add\n        /* \"#utility.yul\":1548:1585   */\n      gt\n        /* \"#utility.yul\":1545:1602   */\n      iszero\n      tag_185\n      jumpi\n        /* \"#utility.yul\":1598:1599   */\n      0x00\n        /* \"#utility.yul\":1595:1596   */\n      dup1\n        /* \"#utility.yul\":1588:1600   */\n      revert\n        /* \"#utility.yul\":1545:1602   */\n    tag_185:\n        /* \"#utility.yul\":936:1663   */\n      swap6\n      swap9\n      swap5\n      swap8\n      pop\n      pop\n        /* \"#utility.yul\":1629:1631   */\n      0x20\n        /* \"#utility.yul\":1621:1632   */\n      add\n      swap5\n      pop\n      pop\n      pop\n        /* \"#utility.yul\":936:1663   */\n      jump\t// out\n        /* \"#utility.yul\":2215:2492   */\n    tag_65:\n        /* \"#utility.yul\":2282:2288   */\n      0x00\n        /* \"#utility.yul\":2335:2337   */\n      0x20\n        /* \"#utility.yul\":2323:2332   */\n      dup3\n        /* \"#utility.yul\":2314:2321   */\n      dup5\n        /* \"#utility.yul\":2310:2333   */\n      sub\n        /* \"#utility.yul\":2306:2338   */\n      slt\n        /* \"#utility.yul\":2303:2355   */\n      iszero\n      tag_189\n      jumpi\n        /* \"#utility.yul\":2351:2352   */\n      0x00\n        /* \"#utility.yul\":2348:2349   */\n      dup1\n        /* \"#utility.yul\":2341:2353   */\n      revert\n        /* \"#utility.yul\":2303:2355   */\n    tag_189:\n        /* \"#utility.yul\":2383:2392   */\n      dup2\n        /* \"#utility.yul\":2377:2393   */\n      mload\n        /* \"#utility.yul\":2436:2441   */\n      dup1\n        /* \"#utility.yul\":2429:2442   */\n      iszero\n        /* \"#utility.yul\":2422:2443   */\n      iszero\n        /* \"#utility.yul\":2415:2420   */\n      dup2\n        /* \"#utility.yul\":2412:2444   */\n      eq\n        /* \"#utility.yul\":2402:2462   */\n      tag_178\n      jumpi\n        /* \"#utility.yul\":2458:2459   */\n      0x00\n        /* \"#utility.yul\":2455:2456   */\n      dup1\n        /* \"#utility.yul\":2448:2460   */\n      revert\n        /* \"#utility.yul\":4211:4338   */\n    tag_139:\n        /* \"#utility.yul\":4272:4282   */\n      0x4e487b71\n        /* \"#utility.yul\":4267:4270   */\n      0xe0\n        /* \"#utility.yul\":4263:4283   */\n      shl\n        /* \"#utility.yul\":4260:4261   */\n      0x00\n        /* \"#utility.yul\":4253:4284   */\n      mstore\n        /* \"#utility.yul\":4303:4307   */\n      0x21\n        /* \"#utility.yul\":4300:4301   */\n      0x04\n        /* \"#utility.yul\":4293:4308   */\n      mstore\n        /* \"#utility.yul\":4327:4331   */\n      0x24\n        /* \"#utility.yul\":4324:4325   */\n      0x00\n        /* \"#utility.yul\":4317:4332   */\n      revert\n\n    auxdata: 0xa264697066735822122012e1b7bf9e0ec17d017a2de24ffe37fe917162807ba148010a06b8d384c24c3d64736f6c63430008190033\n}\n",
    "bytecode": {
      "linkReferences": {},
      "object": "60c060405234801561000f575f80fd5b50604051610cee380380610cee83398101604081905261002e91610206565b836001600160a01b03811661005d57604051631e4fbdf760e01b81525f60048201526024015b60405180910390fd5b6100668161019c565b50600180556001600160a01b0383166100c15760405162461bcd60e51b815260206004820152601a60248201527f496e76616c696420524f4c5520746f6b656e20616464726573730000000000006044820152606401610054565b6001600160a01b0382166101175760405162461bcd60e51b815260206004820152601860248201527f496e76616c6964207472656173757279206164647265737300000000000000006044820152606401610054565b6001600160a01b03811661016d5760405162461bcd60e51b815260206004820152601560248201527f496e76616c69642061646d696e206164647265737300000000000000000000006044820152606401610054565b6001600160a01b0392831660805290821660a052600280546001600160a01b0319169190921617905550610257565b5f80546001600160a01b038381166001600160a01b0319831681178455604051919092169283917f8be0079c531659141344cd1fd0a4f28419497f9722a3daafe3b4186f6b6457e09190a35050565b80516001600160a01b0381168114610201575f80fd5b919050565b5f805f8060808587031215610219575f80fd5b610222856101eb565b9350610230602086016101eb565b925061023e604086016101eb565b915061024c606086016101eb565b905092959194509250565b60805160a051610a6161028d5f395f818161019a015261054e01525f8181610173015281816101ec01526105830152610a615ff3fe608060405234801561000f575f80fd5b50600436106100c4575f3560e01c80638da5cb5b1161007d578063c5f956af11610058578063c5f956af14610195578063f2fde38b146101bc578063fc6f9468146101cf575f80fd5b80638da5cb5b14610137578063b7d86ff21461015b578063bb285b941461016e575f80fd5b80637e983045116100ad5780637e983045146100e55780637fa787ba1461011c57806385e2381c14610124575f80fd5b80635e6710de146100c8578063715018a6146100dd575b5f80fd5b6100db6100d636600461093b565b6101e2565b005b6100db610304565b6101076100f336600461093b565b60036020525f908152604090205460ff1681565b60405190151581526020015b60405180910390f35b6100db610317565b6100db610132366004610952565b610356565b5f546001600160a01b03165b6040516001600160a01b039091168152602001610113565b6100db61016936600461097f565b610412565b6101437f000000000000000000000000000000000000000000000000000000000000000081565b6101437f000000000000000000000000000000000000000000000000000000000000000081565b6100db6101ca366004610952565b61065a565b600254610143906001600160a01b031681565b6101ea610694565b7f00000000000000000000000000000000000000000000000000000000000000006001600160a01b031663a9059cbb61022a5f546001600160a01b031690565b6040517fffffffff0000000000000000000000000000000000000000000000000000000060e084901b1681526001600160a01b039091166004820152602481018490526044016020604051808303815f875af115801561028c573d5f803e3d5ffd5b505050506040513d601f19601f820116820180604052508101906102b091906109f8565b6103015760405162461bcd60e51b815260206004820152600f60248201527f5769746864726177206661696c6564000000000000000000000000000000000060448201526064015b60405180910390fd5b50565b61030c610694565b6103155f6106c0565b565b61031f610694565b5f80546040516001600160a01b03909116914780156108fc02929091818181858888f19350505050158015610301573d5f803e3d5ffd5b61035e610694565b6001600160a01b0381166103b45760405162461bcd60e51b815260206004820152601560248201527f496e76616c69642061646d696e2061646472657373000000000000000000000060448201526064016102f8565b600280546001600160a01b0383811673ffffffffffffffffffffffffffffffffffffffff19831681179093556040519116919082907f39eb67354e1d981c44468f6a2b1837bb1598cf711fe761db800b185706b4e8cb905f90a35050565b61041a61071c565b835f0361043a576040516360640efd60e11b815260040160405180910390fd5b5f8381526003602052604090205460ff161561046957604051632818417160e11b815260040160405180910390fd5b6040516bffffffffffffffffffffffff193360601b16602082015260348101859052605481018490525f906074016040516020818303038152906040528051906020012090505f6104ef8285858080601f0160208091040260200160405190810160405280939291908181526020018383808284375f9201919091525061074692505050565b6002549091506001600160a01b0380831691161461052057604051638baa579f60e01b815260040160405180910390fd5b5f85815260036020526040808220805460ff19166001179055516323b872dd60e01b81526001600160a01b037f000000000000000000000000000000000000000000000000000000000000000081166004830152336024830152604482018990527f000000000000000000000000000000000000000000000000000000000000000016906323b872dd906064016020604051808303815f875af11580156105c9573d5f803e3d5ffd5b505050506040513d601f19601f820116820180604052508101906105ed91906109f8565b90508061060d576040516312171d8360e31b815260040160405180910390fd5b604080518881526020810188905233917fdacbdde355ba930696a362ea6738feb9f8bd52dfb3d81947558fd3217e23e325910160405180910390a250505061065460018055565b50505050565b610662610694565b6001600160a01b03811661068b57604051631e4fbdf760e01b81525f60048201526024016102f8565b610301816106c0565b5f546001600160a01b031633146103155760405163118cdaa760e01b81523360048201526024016102f8565b5f80546001600160a01b0383811673ffffffffffffffffffffffffffffffffffffffff19831681178455604051919092169283917f8be0079c531659141344cd1fd0a4f28419497f9722a3daafe3b4186f6b6457e09190a35050565b60026001540361073f57604051633ee5aeb560e01b815260040160405180910390fd5b6002600155565b5f805f80610754868661076e565b92509250925061076482826107b7565b5090949350505050565b5f805f83516041036107a5576020840151604085015160608601515f1a61079788828585610873565b9550955095505050506107b0565b505081515f91506002905b9250925092565b5f8260038111156107ca576107ca610a17565b036107d3575050565b60018260038111156107e7576107e7610a17565b036108055760405163f645eedf60e01b815260040160405180910390fd5b600282600381111561081957610819610a17565b0361083a5760405163fce698f760e01b8152600481018290526024016102f8565b600382600381111561084e5761084e610a17565b0361086f576040516335e2f38360e21b8152600481018290526024016102f8565b5050565b5f80807f7fffffffffffffffffffffffffffffff5d576e7357a4501ddfe92f46681b20a08411156108ac57505f91506003905082610931565b604080515f808252602082018084528a905260ff891692820192909252606081018790526080810186905260019060a0016020604051602081039080840390855afa1580156108fd573d5f803e3d5ffd5b5050604051601f1901519150506001600160a01b03811661092857505f925060019150829050610931565b92505f91508190505b9450945094915050565b5f6020828403121561094b575f80fd5b5035919050565b5f60208284031215610962575f80fd5b81356001600160a01b0381168114610978575f80fd5b9392505050565b5f805f8060608587031215610992575f80fd5b8435935060208501359250604085013567ffffffffffffffff808211156109b7575f80fd5b818701915087601f8301126109ca575f80fd5b8135818111156109d8575f80fd5b8860208285010111156109e9575f80fd5b95989497505060200194505050565b5f60208284031215610a08575f80fd5b81518015158114610978575f80fd5b634e487b7160e01b5f52602160045260245ffdfea264697066735822122012e1b7bf9e0ec17d017a2de24ffe37fe917162807ba148010a06b8d384c24c3d64736f6c63430008190033",
      "opcodes": "PUSH1 0xC0 PUSH1 0x40 MSTORE CALLVALUE DUP1 ISZERO PUSH2 0xF JUMPI PUSH0 DUP1 REVERT JUMPDEST POP PUSH1 0x40 MLOAD PUSH2 0xCEE CODESIZE SUB DUP1 PUSH2 0xCEE DUP4 CODECOPY DUP2 ADD PUSH1 0x40 DUP2 SWAP1 MSTORE PUSH2 0x2E SWAP2 PUSH2 0x206 JUMP JUMPDEST DUP4 PUSH1 0x1 PUSH1 0x1 PUSH1 0xA0 SHL SUB DUP2 AND PUSH2 0x5D JUMPI PUSH1 0x40 MLOAD PUSH4 0x1E4FBDF7 PUSH1 0xE0 SHL DUP2 MSTORE PUSH0 PUSH1 0x4 DUP3 ADD MSTORE PUSH1 0x24 ADD JUMPDEST PUSH1 0x40 MLOAD DUP1 SWAP2 SUB SWAP1 REVERT JUMPDEST PUSH2 0x66 DUP2 PUSH2 0x19C JUMP JUMPDEST POP PUSH1 0x1 DUP1 SSTORE PUSH1 0x1 PUSH1 0x1 PUSH1 0xA0 SHL SUB DUP4 AND PUSH2 0xC1 JUMPI PUSH1 0x40 MLOAD PUSH3 0x461BCD PUSH1 0xE5 SHL DUP2 MSTORE PUSH1 0x20 PUSH1 0x4 DUP3 ADD MSTORE PUSH1 0x1A PUSH1 0x24 DUP3 ADD MSTORE PUSH32 0x496E76616C696420524F4C5520746F6B656E2061646472657373000000000000 PUSH1 0x44 DUP3 ADD MSTORE PUSH1 0x64 ADD PUSH2 0x54 JUMP JUMPDEST PUSH1 0x1 PUSH1 0x1 PUSH1 0xA0 SHL SUB DUP3 AND PUSH2 0x117 JUMPI PUSH1 0x40 MLOAD PUSH3 0x461BCD PUSH1 0xE5 SHL DUP2 MSTORE PUSH1 0x20 PUSH1 0x4 DUP3 ADD MSTORE PUSH1 0x18 PUSH1 0x24 DUP3 ADD MSTORE PUSH32 0x496E76616C696420747265617375727920616464726573730000000000000000 PUSH1 0x44 DUP3 ADD MSTORE PUSH1 0x64 ADD PUSH2 0x54 JUMP JUMPDEST PUSH1 0x1 PUSH1 0x1 PUSH1 0xA0 SHL SUB DUP2 AND PUSH2 0x16D JUMPI PUSH1 0x40 MLOAD PUSH3 0x461BCD PUSH1 0xE5 SHL DUP2 MSTORE PUSH1 0x20 PUSH1 0x4 DUP3 ADD MSTORE PUSH1 0x15 PUSH1 0x24 DUP3 ADD MSTORE PUSH32 0x496E76616C69642061646D696E20616464726573730000000000000000000000 PUSH1 0x44 DUP3 ADD MSTORE PUSH1 0x64 ADD PUSH2 0x54 JUMP JUMPDEST PUSH1 0x1 PUSH1 0x1 PUSH1 0xA0 SHL SUB SWAP3 DUP4 AND PUSH1 0x80 MSTORE SWAP1 DUP3 AND PUSH1 0xA0 MSTORE PUSH1 0x2 DUP1 SLOAD PUSH1 0x1 PUSH1 0x1 PUSH1 0xA0 SHL SUB NOT AND SWAP2 SWAP1 SWAP3 AND OR SWAP1 SSTORE POP PUSH2 0x257 JUMP JUMPDEST PUSH0 DUP1 SLOAD PUSH1 0x1 PUSH1 0x1 PUSH1 0xA0 SHL SUB DUP4 DUP2 AND PUSH1 0x1 PUSH1 0x1 PUSH1 0xA0 SHL SUB NOT DUP4 AND DUP2 OR DUP5 SSTORE PUSH1 0x40 MLOAD SWAP2 SWAP1 SWAP3 AND SWAP3 DUP4 SWAP2 PUSH32 0x8BE0079C531659141344CD1FD0A4F28419497F9722A3DAAFE3B4186F6B6457E0 SWAP2 SWAP1 LOG3 POP POP JUMP JUMPDEST DUP1 MLOAD PUSH1 0x1 PUSH1 0x1 PUSH1 0xA0 SHL SUB DUP2 AND DUP2 EQ PUSH2 0x201 JUMPI PUSH0 DUP1 REVERT JUMPDEST SWAP2 SWAP1 POP JUMP JUMPDEST PUSH0 DUP1 PUSH0 DUP1 PUSH1 0x80 DUP6 DUP8 SUB SLT ISZERO PUSH2 0x219 JUMPI PUSH0 DUP1 REVERT JUMPDEST PUSH2 0x222 DUP6 PUSH2 0x1EB JUMP JUMPDEST SWAP4 POP PUSH2 0x230 PUSH1 0x20 DUP7 ADD PUSH2 0x1EB JUMP JUMPDEST SWAP3 POP PUSH2 0x23E PUSH1 0x40 DUP7 ADD PUSH2 0x1EB JUMP JUMPDEST SWAP2 POP PUSH2 0x24C PUSH1 0x60 DUP7 ADD PUSH2 0x1EB JUMP JUMPDEST SWAP1 POP SWAP3 SWAP6 SWAP2 SWAP5 POP SWAP3 POP JUMP JUMPDEST PUSH1 0x80 MLOAD PUSH1 0xA0 MLOAD PUSH2 0xA61 PUSH2 0x28D PUSH0 CODECOPY PUSH0 DUP2 DUP2 PUSH2 0x19A ADD MSTORE PUSH2 0x54E ADD MSTORE PUSH0 DUP2 DUP2 PUSH2 0x173 ADD MSTORE DUP2 DUP2 PUSH2 0x1EC ADD MSTORE PUSH2 0x583 ADD MSTORE PUSH2 0xA61 PUSH0 RETURN INVALID PUSH1 0x80 PUSH1 0x40 MSTORE CALLVALUE DUP1 ISZERO PUSH2 0xF JUMPI PUSH0 DUP1 REVERT JUMPDEST POP PUSH1 0x4 CALLDATASIZE LT PUSH2 0xC4 JUMPI PUSH0 CALLDATALOAD PUSH1 0xE0 SHR DUP1 PUSH4 0x8DA5CB5B GT PUSH2 0x7D JUMPI DUP1 PUSH4 0xC5F956AF GT PUSH2 0x58 JUMPI DUP1 PUSH4 0xC5F956AF EQ PUSH2 0x195 JUMPI DUP1 PUSH4 0xF2FDE38B EQ PUSH2 0x1BC JUMPI DUP1 PUSH4 0xFC6F9468 EQ PUSH2 0x1CF JUMPI PUSH0 DUP1 REVERT JUMPDEST DUP1 PUSH4 0x8DA5CB5B EQ PUSH2 0x137 JUMPI DUP1 PUSH4 0xB7D86FF2 EQ PUSH2 0x15B JUMPI DUP1 PUSH4 0xBB285B94 EQ PUSH2 0x16E JUMPI PUSH0 DUP1 REVERT JUMPDEST DUP1 PUSH4 0x7E983045 GT PUSH2 0xAD JUMPI DUP1 PUSH4 0x7E983045 EQ PUSH2 0xE5 JUMPI DUP1 PUSH4 0x7FA787BA EQ PUSH2 0x11C JUMPI DUP1 PUSH4 0x85E2381C EQ PUSH2 0x124 JUMPI PUSH0 DUP1 REVERT JUMPDEST DUP1 PUSH4 0x5E6710DE EQ PUSH2 0xC8 JUMPI DUP1 PUSH4 0x715018A6 EQ PUSH2 0xDD JUMPI JUMPDEST PUSH0 DUP1 REVERT JUMPDEST PUSH2 0xDB PUSH2 0xD6 CALLDATASIZE PUSH1 0x4 PUSH2 0x93B JUMP JUMPDEST PUSH2 0x1E2 JUMP JUMPDEST STOP JUMPDEST PUSH2 0xDB PUSH2 0x304 JUMP JUMPDEST PUSH2 0x107 PUSH2 0xF3 CALLDATASIZE PUSH1 0x4 PUSH2 0x93B JUMP JUMPDEST PUSH1 0x3 PUSH1 0x20 MSTORE PUSH0 SWAP1 DUP2 MSTORE PUSH1 0x40 SWAP1 KECCAK256 SLOAD PUSH1 0xFF AND DUP2 JUMP JUMPDEST PUSH1 0x40 MLOAD SWAP1 ISZERO ISZERO DUP2 MSTORE PUSH1 0x20 ADD JUMPDEST PUSH1 0x40 MLOAD DUP1 SWAP2 SUB SWAP1 RETURN JUMPDEST PUSH2 0xDB PUSH2 0x317 JUMP JUMPDEST PUSH2 0xDB PUSH2 0x132 CALLDATASIZE PUSH1 0x4 PUSH2 0x952 JUMP JUMPDEST PUSH2 0x356 JUMP JUMPDEST PUSH0 SLOAD PUSH1 0x1 PUSH1 0x1 PUSH1 0xA0 SHL SUB AND JUMPDEST PUSH1 0x40 MLOAD PUSH1 0x1 PUSH1 0x1 PUSH1 0xA0 SHL SUB SWAP1 SWAP2 AND DUP2 MSTORE PUSH1 0x20 ADD PUSH2 0x113 JUMP JUMPDEST PUSH2 0xDB PUSH2 0x169 CALLDATASIZE PUSH1 0x4 PUSH2 0x97F JUMP JUMPDEST PUSH2 0x412 JUMP JUMPDEST PUSH2 0x143 PUSH32 0x0 DUP2 JUMP JUMPDEST PUSH2 0x143 PUSH32 0x0 DUP2 JUMP JUMPDEST PUSH2 0xDB PUSH2 0x1CA CALLDATASIZE PUSH1 0x4 PUSH2 0x952 JUMP JUMPDEST PUSH2 0x65A JUMP JUMPDEST PUSH1 0x2 SLOAD PUSH2 0x143 SWAP1 PUSH1 0x1 PUSH1 0x1 PUSH1 0xA0 SHL SUB AND DUP2 JUMP JUMPDEST PUSH2 0x1EA PUSH2 0x694 JUMP JUMPDEST PUSH32 0x0 PUSH1 0x1 PUSH1 0x1 PUSH1 0xA0 SHL SUB AND PUSH4 0xA9059CBB PUSH2 0x22A PUSH0 SLOAD PUSH1 0x1 PUSH1 0x1 PUSH1 0xA0 SHL SUB AND SWAP1 JUMP JUMPDEST PUSH1 0x40 MLOAD PUSH32 0xFFFFFFFF00000000000000000000000000000000000000000000000000000000 PUSH1 0xE0 DUP5 SWAP1 SHL AND DUP2 MSTORE PUSH1 0x1 PUSH1 0x1 PUSH1 0xA0 SHL SUB SWAP1 SWAP2 AND PUSH1 0x4 DUP3 ADD MSTORE PUSH1 0x24 DUP2 ADD DUP5 SWAP1 MSTORE PUSH1 0x44 ADD PUSH1 0x20 PUSH1 0x40 MLOAD DUP1 DUP4 SUB DUP2 PUSH0 DUP8 GAS CALL ISZERO DUP1 ISZERO PUSH2 0x28C JUMPI RETURNDATASIZE PUSH0 DUP1 RETURNDATACOPY RETURNDATASIZE PUSH0 REVERT JUMPDEST POP POP POP POP PUSH1 0x40 MLOAD RETURNDATASIZE PUSH1 0x1F NOT PUSH1 0x1F DUP3 ADD AND DUP3 ADD DUP1 PUSH1 0x40 MSTORE POP DUP2 ADD SWAP1 PUSH2 0x2B0 SWAP2 SWAP1 PUSH2 0x9F8 JUMP JUMPDEST PUSH2 0x301 JUMPI PUSH1 0x40 MLOAD PUSH3 0x461BCD PUSH1 0xE5 SHL DUP2 MSTORE PUSH1 0x20 PUSH1 0x4 DUP3 ADD MSTORE PUSH1 0xF PUSH1 0x24 DUP3 ADD MSTORE PUSH32 0x5769746864726177206661696C65640000000000000000000000000000000000 PUSH1 0x44 DUP3 ADD MSTORE PUSH1 0x64 ADD JUMPDEST PUSH1 0x40 MLOAD DUP1 SWAP2 SUB SWAP1 REVERT JUMPDEST POP JUMP JUMPDEST PUSH2 0x30C PUSH2 0x694 JUMP JUMPDEST PUSH2 0x315 PUSH0 PUSH2 0x6C0 JUMP JUMPDEST JUMP JUMPDEST PUSH2 0x31F PUSH2 0x694 JUMP JUMPDEST PUSH0 DUP1 SLOAD PUSH1 0x40 MLOAD PUSH1 0x1 PUSH1 0x1 PUSH1 0xA0 SHL SUB SWAP1 SWAP2 AND SWAP2 SELFBALANCE DUP1 ISZERO PUSH2 0x8FC MUL SWAP3 SWAP1 SWAP2 DUP2 DUP2 DUP2 DUP6 DUP9 DUP9 CALL SWAP4 POP POP POP POP ISZERO DUP1 ISZERO PUSH2 0x301 JUMPI RETURNDATASIZE PUSH0 DUP1 RETURNDATACOPY RETURNDATASIZE PUSH0 REVERT JUMPDEST PUSH2 0x35E PUSH2 0x694 JUMP JUMPDEST PUSH1 0x1 PUSH1 0x1 PUSH1 0xA0 SHL SUB DUP2 AND PUSH2 0x3B4 JUMPI PUSH1 0x40 MLOAD PUSH3 0x461BCD PUSH1 0xE5 SHL DUP2 MSTORE PUSH1 0x20 PUSH1 0x4 DUP3 ADD MSTORE PUSH1 0x15 PUSH1 0x24 DUP3 ADD MSTORE PUSH32 0x496E76616C69642061646D696E20616464726573730000000000000000000000 PUSH1 0x44 DUP3 ADD MSTORE PUSH1 0x64 ADD PUSH2 0x2F8 JUMP JUMPDEST PUSH1 0x2 DUP1 SLOAD PUSH1 0x1 PUSH1 0x1 PUSH1 0xA0 SHL SUB DUP4 DUP2 AND PUSH20 0xFFFFFFFFFFFFFFFFFFFFFFFFFFFFFFFFFFFFFFFF NOT DUP4 AND DUP2 OR SWAP1 SWAP4 SSTORE PUSH1 0x40 MLOAD SWAP2 AND SWAP2 SWAP1 DUP3 SWAP1 PUSH32 0x39EB67354E1D981C44468F6A2B1837BB1598CF711FE761DB800B185706B4E8CB SWAP1 PUSH0 SWAP1 LOG3 POP POP JUMP JUMPDEST PUSH2 0x41A PUSH2 0x71C JUMP JUMPDEST DUP4 PUSH0 SUB PUSH2 0x43A JUMPI PUSH1 0x40 MLOAD PUSH4 0x60640EFD PUSH1 0xE1 SHL DUP2 MSTORE PUSH1 0x4 ADD PUSH1 0x40 MLOAD DUP1 SWAP2 SUB SWAP1 REVERT JUMPDEST PUSH0 DUP4 DUP2 MSTORE PUSH1 0x3 PUSH1 0x20 MSTORE PUSH1 0x40 SWAP1 KECCAK256 SLOAD PUSH1 0xFF AND ISZERO PUSH2 0x469 JUMPI PUSH1 0x40 MLOAD PUSH4 0x28184171 PUSH1 0xE1 SHL DUP2 MSTORE PUSH1 0x4 ADD PUSH1 0x40 MLOAD DUP1 SWAP2 SUB SWAP1 REVERT JUMPDEST PUSH1 0x40 MLOAD PUSH12 0xFFFFFFFFFFFFFFFFFFFFFFFF NOT CALLER PUSH1 0x60 SHL AND PUSH1 0x20 DUP3 ADD MSTORE PUSH1 0x34 DUP2 ADD DUP6 SWAP1 MSTORE PUSH1 0x54 DUP2 ADD DUP5 SWAP1 MSTORE PUSH0 SWAP1 PUSH1 0x74 ADD PUSH1 0x40 MLOAD PUSH1 0x20 DUP2 DUP4 SUB SUB DUP2 MSTORE SWAP1 PUSH1 0x40 MSTORE DUP1 MLOAD SWAP1 PUSH1 0x20 ADD KECCAK256 SWAP1 POP PUSH0 PUSH2 0x4EF DUP3 DUP6 DUP6 DUP1 DUP1 PUSH1 0x1F ADD PUSH1 0x20 DUP1 SWAP2 DIV MUL PUSH1 0x20 ADD PUSH1 0x40 MLOAD SWAP1 DUP2 ADD PUSH1 0x40 MSTORE DUP1 SWAP4 SWAP3 SWAP2 SWAP1 DUP2 DUP2 MSTORE PUSH1 0x20 ADD DUP4 DUP4 DUP1 DUP3 DUP5 CALLDATACOPY PUSH0 SWAP3 ADD SWAP2 SWAP1 SWAP2 MSTORE POP PUSH2 0x746 SWAP3 POP POP POP JUMP JUMPDEST PUSH1 0x2 SLOAD SWAP1 SWAP2 POP PUSH1 0x1 PUSH1 0x1 PUSH1 0xA0 SHL SUB DUP1 DUP4 AND SWAP2 AND EQ PUSH2 0x520 JUMPI PUSH1 0x40 MLOAD PUSH4 0x8BAA579F PUSH1 0xE0 SHL DUP2 MSTORE PUSH1 0x4 ADD PUSH1 0x40 MLOAD DUP1 SWAP2 SUB SWAP1 REVERT JUMPDEST PUSH0 DUP6 DUP2 MSTORE PUSH1 0x3 PUSH1 0x20 MSTORE PUSH1 0x40 DUP1 DUP3 KECCAK256 DUP1 SLOAD PUSH1 0xFF NOT AND PUSH1 0x1 OR SWAP1 SSTORE MLOAD PUSH4 0x23B872DD PUSH1 0xE0 SHL DUP2 MSTORE PUSH1 0x1 PUSH1 0x1 PUSH1 0xA0 SHL SUB PUSH32 0x0 DUP2 AND PUSH1 0x4 DUP4 ADD MSTORE CALLER PUSH1 0x24 DUP4 ADD MSTORE PUSH1 0x44 DUP3 ADD DUP10 SWAP1 MSTORE PUSH32 0x0 AND SWAP1 PUSH4 0x23B872DD SWAP1 PUSH1 0x64 ADD PUSH1 0x20 PUSH1 0x40 MLOAD DUP1 DUP4 SUB DUP2 PUSH0 DUP8 GAS CALL ISZERO DUP1 ISZERO PUSH2 0x5C9 JUMPI RETURNDATASIZE PUSH0 DUP1 RETURNDATACOPY RETURNDATASIZE PUSH0 REVERT JUMPDEST POP POP POP POP PUSH1 0x40 MLOAD RETURNDATASIZE PUSH1 0x1F NOT PUSH1 0x1F DUP3 ADD AND DUP3 ADD DUP1 PUSH1 0x40 MSTORE POP DUP2 ADD SWAP1 PUSH2 0x5ED SWAP2 SWAP1 PUSH2 0x9F8 JUMP JUMPDEST SWAP1 POP DUP1 PUSH2 0x60D JUMPI PUSH1 0x40 MLOAD PUSH4 0x12171D83 PUSH1 0xE3 SHL DUP2 MSTORE PUSH1 0x4 ADD PUSH1 0x40 MLOAD DUP1 SWAP2 SUB SWAP1 REVERT JUMPDEST PUSH1 0x40 DUP1 MLOAD DUP9 DUP2 MSTORE PUSH1 0x20 DUP2 ADD DUP9 SWAP1 MSTORE CALLER SWAP2 PUSH32 0xDACBDDE355BA930696A362EA6738FEB9F8BD52DFB3D81947558FD3217E23E325 SWAP2 ADD PUSH1 0x40 MLOAD DUP1 SWAP2 SUB SWAP1 LOG2 POP POP POP PUSH2 0x654 PUSH1 0x1 DUP1 SSTORE JUMP JUMPDEST POP POP POP POP JUMP JUMPDEST PUSH2 0x662 PUSH2 0x694 JUMP JUMPDEST PUSH1 0x1 PUSH1 0x1 PUSH1 0xA0 SHL SUB DUP2 AND PUSH2 0x68B JUMPI PUSH1 0x40 MLOAD PUSH4 0x1E4FBDF7 PUSH1 0xE0 SHL DUP2 MSTORE PUSH0 PUSH1 0x4 DUP3 ADD MSTORE PUSH1 0x24 ADD PUSH2 0x2F8 JUMP JUMPDEST PUSH2 0x301 DUP2 PUSH2 0x6C0 JUMP JUMPDEST PUSH0 SLOAD PUSH1 0x1 PUSH1 0x1 PUSH1 0xA0 SHL SUB AND CALLER EQ PUSH2 0x315 JUMPI PUSH1 0x40 MLOAD PUSH4 0x118CDAA7 PUSH1 0xE0 SHL DUP2 MSTORE CALLER PUSH1 0x4 DUP3 ADD MSTORE PUSH1 0x24 ADD PUSH2 0x2F8 JUMP JUMPDEST PUSH0 DUP1 SLOAD PUSH1 0x1 PUSH1 0x1 PUSH1 0xA0 SHL SUB DUP4 DUP2 AND PUSH20 0xFFFFFFFFFFFFFFFFFFFFFFFFFFFFFFFFFFFFFFFF NOT DUP4 AND DUP2 OR DUP5 SSTORE PUSH1 0x40 MLOAD SWAP2 SWAP1 SWAP3 AND SWAP3 DUP4 SWAP2 PUSH32 0x8BE0079C531659141344CD1FD0A4F28419497F9722A3DAAFE3B4186F6B6457E0 SWAP2 SWAP1 LOG3 POP POP JUMP JUMPDEST PUSH1 0x2 PUSH1 0x1 SLOAD SUB PUSH2 0x73F JUMPI PUSH1 0x40 MLOAD PUSH4 0x3EE5AEB5 PUSH1 0xE0 SHL DUP2 MSTORE PUSH1 0x4 ADD PUSH1 0x40 MLOAD DUP1 SWAP2 SUB SWAP1 REVERT JUMPDEST PUSH1 0x2 PUSH1 0x1 SSTORE JUMP JUMPDEST PUSH0 DUP1 PUSH0 DUP1 PUSH2 0x754 DUP7 DUP7 PUSH2 0x76E JUMP JUMPDEST SWAP3 POP SWAP3 POP SWAP3 POP PUSH2 0x764 DUP3 DUP3 PUSH2 0x7B7 JUMP JUMPDEST POP SWAP1 SWAP5 SWAP4 POP POP POP POP JUMP JUMPDEST PUSH0 DUP1 PUSH0 DUP4 MLOAD PUSH1 0x41 SUB PUSH2 0x7A5 JUMPI PUSH1 0x20 DUP5 ADD MLOAD PUSH1 0x40 DUP6 ADD MLOAD PUSH1 0x60 DUP7 ADD MLOAD PUSH0 BYTE PUSH2 0x797 DUP9 DUP3 DUP6 DUP6 PUSH2 0x873 JUMP JUMPDEST SWAP6 POP SWAP6 POP SWAP6 POP POP POP POP PUSH2 0x7B0 JUMP JUMPDEST POP POP DUP2 MLOAD PUSH0 SWAP2 POP PUSH1 0x2 SWAP1 JUMPDEST SWAP3 POP SWAP3 POP SWAP3 JUMP JUMPDEST PUSH0 DUP3 PUSH1 0x3 DUP2 GT ISZERO PUSH2 0x7CA JUMPI PUSH2 0x7CA PUSH2 0xA17 JUMP JUMPDEST SUB PUSH2 0x7D3 JUMPI POP POP JUMP JUMPDEST PUSH1 0x1 DUP3 PUSH1 0x3 DUP2 GT ISZERO PUSH2 0x7E7 JUMPI PUSH2 0x7E7 PUSH2 0xA17 JUMP JUMPDEST SUB PUSH2 0x805 JUMPI PUSH1 0x40 MLOAD PUSH4 0xF645EEDF PUSH1 0xE0 SHL DUP2 MSTORE PUSH1 0x4 ADD PUSH1 0x40 MLOAD DUP1 SWAP2 SUB SWAP1 REVERT JUMPDEST PUSH1 0x2 DUP3 PUSH1 0x3 DUP2 GT ISZERO PUSH2 0x819 JUMPI PUSH2 0x819 PUSH2 0xA17 JUMP JUMPDEST SUB PUSH2 0x83A JUMPI PUSH1 0x40 MLOAD PUSH4 0xFCE698F7 PUSH1 0xE0 SHL DUP2 MSTORE PUSH1 0x4 DUP2 ADD DUP3 SWAP1 MSTORE PUSH1 0x24 ADD PUSH2 0x2F8 JUMP JUMPDEST PUSH1 0x3 DUP3 PUSH1 0x3 DUP2 GT ISZERO PUSH2 0x84E JUMPI PUSH2 0x84E PUSH2 0xA17 JUMP JUMPDEST SUB PUSH2 0x86F JUMPI PUSH1 0x40 MLOAD PUSH4 0x35E2F383 PUSH1 0xE2 SHL DUP2 MSTORE PUSH1 0x4 DUP2 ADD DUP3 SWAP1 MSTORE PUSH1 0x24 ADD PUSH2 0x2F8 JUMP JUMPDEST POP POP JUMP JUMPDEST PUSH0 DUP1 DUP1 PUSH32 0x7FFFFFFFFFFFFFFFFFFFFFFFFFFFFFFF5D576E7357A4501DDFE92F46681B20A0 DUP5 GT ISZERO PUSH2 0x8AC JUMPI POP PUSH0 SWAP2 POP PUSH1 0x3 SWAP1 POP DUP3 PUSH2 0x931 JUMP JUMPDEST PUSH1 0x40 DUP1 MLOAD PUSH0 DUP1 DUP3 MSTORE PUSH1 0x20 DUP3 ADD DUP1 DUP5 MSTORE DUP11 SWAP1 MSTORE PUSH1 0xFF DUP10 AND SWAP3 DUP3 ADD SWAP3 SWAP1 SWAP3 MSTORE PUSH1 0x60 DUP2 ADD DUP8 SWAP1 MSTORE PUSH1 0x80 DUP2 ADD DUP7 SWAP1 MSTORE PUSH1 0x1 SWAP1 PUSH1 0xA0 ADD PUSH1 0x20 PUSH1 0x40 MLOAD PUSH1 0x20 DUP2 SUB SWAP1 DUP1 DUP5 SUB SWAP1 DUP6 GAS STATICCALL ISZERO DUP1 ISZERO PUSH2 0x8FD JUMPI RETURNDATASIZE PUSH0 DUP1 RETURNDATACOPY RETURNDATASIZE PUSH0 REVERT JUMPDEST POP POP PUSH1 0x40 MLOAD PUSH1 0x1F NOT ADD MLOAD SWAP2 POP POP PUSH1 0x1 PUSH1 0x1 PUSH1 0xA0 SHL SUB DUP2 AND PUSH2 0x928 JUMPI POP PUSH0 SWAP3 POP PUSH1 0x1 SWAP2 POP DUP3 SWAP1 POP PUSH2 0x931 JUMP JUMPDEST SWAP3 POP PUSH0 SWAP2 POP DUP2 SWAP1 POP JUMPDEST SWAP5 POP SWAP5 POP SWAP5 SWAP2 POP POP JUMP JUMPDEST PUSH0 PUSH1 0x20 DUP3 DUP5 SUB SLT ISZERO PUSH2 0x94B JUMPI PUSH0 DUP1 REVERT JUMPDEST POP CALLDATALOAD SWAP2 SWAP1 POP JUMP JUMPDEST PUSH0 PUSH1 0x20 DUP3 DUP5 SUB SLT ISZERO PUSH2 0x962 JUMPI PUSH0 DUP1 REVERT JUMPDEST DUP2 CALLDATALOAD PUSH1 0x1 PUSH1 0x1 PUSH1 0xA0 SHL SUB DUP2 AND DUP2 EQ PUSH2 0x978 JUMPI PUSH0 DUP1 REVERT JUMPDEST SWAP4 SWAP3 POP POP POP JUMP JUMPDEST PUSH0 DUP1 PUSH0 DUP1 PUSH1 0x60 DUP6 DUP8 SUB SLT ISZERO PUSH2 0x992 JUMPI PUSH0 DUP1 REVERT JUMPDEST DUP5 CALLDATALOAD SWAP4 POP PUSH1 0x20 DUP6 ADD CALLDATALOAD SWAP3 POP PUSH1 0x40 DUP6 ADD CALLDATALOAD PUSH8 0xFFFFFFFFFFFFFFFF DUP1 DUP3 GT ISZERO PUSH2 0x9B7 JUMPI PUSH0 DUP1 REVERT JUMPDEST DUP2 DUP8 ADD SWAP2 POP DUP8 PUSH1 0x1F DUP4 ADD SLT PUSH2 0x9CA JUMPI PUSH0 DUP1 REVERT JUMPDEST DUP2 CALLDATALOAD DUP2 DUP2 GT ISZERO PUSH2 0x9D8 JUMPI PUSH0 DUP1 REVERT JUMPDEST DUP9 PUSH1 0x20 DUP3 DUP6 ADD ADD GT ISZERO PUSH2 0x9E9 JUMPI PUSH0 DUP1 REVERT JUMPDEST SWAP6 SWAP9 SWAP5 SWAP8 POP POP PUSH1 0x20 ADD SWAP5 POP POP POP JUMP JUMPDEST PUSH0 PUSH1 0x20 DUP3 DUP5 SUB SLT ISZERO PUSH2 0xA08 JUMPI PUSH0 DUP1 REVERT JUMPDEST DUP2 MLOAD DUP1 ISZERO ISZERO DUP2 EQ PUSH2 0x978 JUMPI PUSH0 DUP1 REVERT JUMPDEST PUSH4 0x4E487B71 PUSH1 0xE0 SHL PUSH0 MSTORE PUSH1 0x21 PUSH1 0x4 MSTORE PUSH1 0x24 PUSH0 REVERT INVALID LOG2 PUSH5 0x6970667358 0x22 SLT KECCAK256 SLT 0xE1 0xB7 0xBF SWAP15 0xE 0xC1 PUSH30 0x17A2DE24FFE37FE917162807BA148010A06B8D384C24C3D64736F6C6343 STOP ADDMOD NOT STOP CALLER "
    },
    "gasEstimates": {
      "creation": {
        "codeDepositCost": "531400",
        "executionCost": "infinite",
        "totalCost": "infinite"
      },
      "external": {
        "adminAddress()": "2402",
        "claimRewards(uint256,uint256,bytes)": "infinite",
        "claimedNonces(uint256)": "2459",
        "owner()": "2341",
        "renounceOwnership()": "infinite",
        "roluToken()": "infinite",
        "transferOwnership(address)": "28326",
        "treasuryAddress()": "infinite",
        "updateAdminAddress(address)": "28323",
        "withdrawStuckEth()": "infinite",
        "withdrawStuckTokens(uint256)": "infinite"
      }
    },
    "methodIdentifiers": {
      "adminAddress()": "fc6f9468",
      "claimRewards(uint256,uint256,bytes)": "b7d86ff2",
      "claimedNonces(uint256)": "7e983045",
      "owner()": "8da5cb5b",
      "renounceOwnership()": "715018a6",
      "roluToken()": "bb285b94",
      "transferOwnership(address)": "f2fde38b",
      "treasuryAddress()": "c5f956af",
      "updateAdminAddress(address)": "85e2381c",
      "withdrawStuckEth()": "7fa787ba",
      "withdrawStuckTokens(uint256)": "5e6710de"
    }
  },
  "storageLayout": {
    "storage": [
      {
        "astId": 691,
        "contract": "RoluRewards.sol:RoluRewards",
        "label": "_owner",
        "offset": 0,
        "slot": "0",
        "type": "t_address"
      },
      {
        "astId": 919,
        "contract": "RoluRewards.sol:RoluRewards",
        "label": "_status",
        "offset": 0,
        "slot": "1",
        "type": "t_uint256"
      },
      {
        "astId": 27,
        "contract": "RoluRewards.sol:RoluRewards",
        "label": "adminAddress",
        "offset": 0,
        "slot": "2",
        "type": "t_address"
      },
      {
        "astId": 31,
        "contract": "RoluRewards.sol:RoluRewards",
        "label": "claimedNonces",
        "offset": 0,
        "slot": "3",
        "type": "t_mapping(t_uint256,t_bool)"
      }
    ],
    "types": {
      "t_address": {
        "encoding": "inplace",
        "label": "address",
        "numberOfBytes": "20"
      },
      "t_bool": {
        "encoding": "inplace",
        "label": "bool",
        "numberOfBytes": "1"
      },
      "t_mapping(t_uint256,t_bool)": {
        "encoding": "mapping",
        "key": "t_uint256",
        "label": "mapping(uint256 => bool)",
        "numberOfBytes": "32",
        "value": "t_bool"
      },
      "t_uint256": {
        "encoding": "inplace",
        "label": "uint256",
        "numberOfBytes": "32"
      }
    }
  },
  "userdoc": {
    "kind": "user",
    "methods": {
      "claimRewards(uint256,uint256,bytes)": {
        "notice": "Allows a user to claim their ROLU rewards."
      },
      "updateAdminAddress(address)": {
        "notice": "Updates the address authorized to sign claim messages."
      },
      "withdrawStuckEth()": {
        "notice": "Allows the owner to withdraw any ETH accidentally sent to this contract."
      },
      "withdrawStuckTokens(uint256)": {
        "notice": "Allows the owner to withdraw any ROLU tokens accidentally sent directly to this contract."
      }
    },
    "version": 1
  }
}